{
  "address": "0x6f2D7Ad24d1B17Cc56f8a43dBB9309ea227724A4",
  "abi": [
    {
      "inputs": [
        {
          "internalType": "uint256",
          "name": "defaultRanking",
          "type": "uint256"
        },
        {
          "internalType": "address",
          "name": "battleAddress",
          "type": "address"
        },
        {
          "internalType": "address",
          "name": "deckAddress",
          "type": "address"
        },
        {
          "internalType": "address",
          "name": "rewardPoolAddress",
          "type": "address"
        }
      ],
      "stateMutability": "nonpayable",
      "type": "constructor"
    },
    {
      "anonymous": false,
      "inputs": [
        {
          "indexed": true,
          "internalType": "address",
          "name": "account",
          "type": "address"
        }
      ],
      "name": "AdminAdded",
      "type": "event"
    },
    {
      "anonymous": false,
      "inputs": [
        {
          "indexed": true,
          "internalType": "address",
          "name": "account",
          "type": "address"
        }
      ],
      "name": "AdminRemoved",
      "type": "event"
    },
    {
      "anonymous": false,
      "inputs": [
        {
          "indexed": true,
          "internalType": "address",
          "name": "winner",
          "type": "address"
        },
        {
          "indexed": true,
          "internalType": "address",
          "name": "loser",
          "type": "address"
        },
        {
          "indexed": false,
          "internalType": "uint256",
          "name": "battleId",
          "type": "uint256"
        }
      ],
      "name": "BattleFinished",
      "type": "event"
    },
    {
      "inputs": [
        {
          "internalType": "address",
          "name": "account",
          "type": "address"
        }
      ],
      "name": "addAdmin",
      "outputs": [],
      "stateMutability": "nonpayable",
      "type": "function"
    },
    {
      "inputs": [
        {
          "internalType": "uint256",
          "name": "",
          "type": "uint256"
        }
      ],
      "name": "deckOwner",
      "outputs": [
        {
          "internalType": "address",
          "name": "",
          "type": "address"
        }
      ],
      "stateMutability": "view",
      "type": "function"
    },
    {
      "inputs": [
        {
          "internalType": "uint256",
          "name": "deckId",
          "type": "uint256"
        }
      ],
      "name": "enter",
      "outputs": [],
      "stateMutability": "nonpayable",
      "type": "function"
    },
    {
      "inputs": [
        {
          "internalType": "uint256",
          "name": "deckId",
          "type": "uint256"
        }
      ],
      "name": "exit",
      "outputs": [],
      "stateMutability": "nonpayable",
      "type": "function"
    },
    {
      "inputs": [
        {
          "internalType": "uint256",
          "name": "deckId",
          "type": "uint256"
        }
      ],
      "name": "forceExit",
      "outputs": [],
      "stateMutability": "nonpayable",
      "type": "function"
    },
    {
      "inputs": [
        {
          "internalType": "uint256",
          "name": "winnerRating",
          "type": "uint256"
        },
        {
          "internalType": "uint256",
          "name": "loserRating",
          "type": "uint256"
        }
      ],
      "name": "getEloRatingChange",
      "outputs": [
        {
          "internalType": "uint256",
          "name": "",
          "type": "uint256"
        }
      ],
      "stateMutability": "view",
      "type": "function"
    },
    {
      "inputs": [
        {
          "internalType": "uint256",
          "name": "count",
          "type": "uint256"
        },
        {
          "internalType": "uint256",
          "name": "offset",
          "type": "uint256"
        }
      ],
      "name": "getPlayersRankings",
      "outputs": [
        {
          "internalType": "address[]",
          "name": "addresses",
          "type": "address[]"
        },
        {
          "internalType": "uint256[]",
          "name": "rankings",
          "type": "uint256[]"
        }
      ],
      "stateMutability": "view",
      "type": "function"
    },
    {
      "inputs": [],
      "name": "getWaitingCount",
      "outputs": [
        {
          "internalType": "uint256",
          "name": "",
          "type": "uint256"
        }
      ],
      "stateMutability": "view",
      "type": "function"
    },
    {
      "inputs": [
        {
          "internalType": "address",
          "name": "account",
          "type": "address"
        }
      ],
      "name": "isAdmin",
      "outputs": [
        {
          "internalType": "bool",
          "name": "",
          "type": "bool"
        }
      ],
      "stateMutability": "view",
      "type": "function"
    },
    {
      "inputs": [
        {
          "internalType": "uint256",
          "name": "",
          "type": "uint256"
        }
      ],
      "name": "leaderboardPlayers",
      "outputs": [
        {
          "internalType": "address",
          "name": "",
          "type": "address"
        }
      ],
      "stateMutability": "view",
      "type": "function"
    },
    {
      "inputs": [],
      "name": "leaderboardPlayersCount",
      "outputs": [
        {
          "internalType": "uint256",
          "name": "",
          "type": "uint256"
        }
      ],
      "stateMutability": "view",
      "type": "function"
    },
    {
      "inputs": [
        {
          "internalType": "address",
          "name": "",
          "type": "address"
        },
        {
          "internalType": "address",
          "name": "",
          "type": "address"
        },
        {
          "internalType": "uint256[]",
          "name": "",
          "type": "uint256[]"
        },
        {
          "internalType": "uint256[]",
          "name": "",
          "type": "uint256[]"
        },
        {
          "internalType": "bytes",
          "name": "",
          "type": "bytes"
        }
      ],
      "name": "onERC1155BatchReceived",
      "outputs": [
        {
          "internalType": "bytes4",
          "name": "",
          "type": "bytes4"
        }
      ],
      "stateMutability": "nonpayable",
      "type": "function"
    },
    {
      "inputs": [
        {
          "internalType": "address",
          "name": "",
          "type": "address"
        },
        {
          "internalType": "address",
          "name": "",
          "type": "address"
        },
        {
          "internalType": "uint256",
          "name": "",
          "type": "uint256"
        },
        {
          "internalType": "uint256",
          "name": "",
          "type": "uint256"
        },
        {
          "internalType": "bytes",
          "name": "",
          "type": "bytes"
        }
      ],
      "name": "onERC1155Received",
      "outputs": [
        {
          "internalType": "bytes4",
          "name": "",
          "type": "bytes4"
        }
      ],
      "stateMutability": "nonpayable",
      "type": "function"
    },
    {
      "inputs": [
        {
          "internalType": "address",
          "name": "",
          "type": "address"
        },
        {
          "internalType": "address",
          "name": "",
          "type": "address"
        },
        {
          "internalType": "uint256",
          "name": "",
          "type": "uint256"
        },
        {
          "internalType": "bytes",
          "name": "",
          "type": "bytes"
        }
      ],
      "name": "onERC721Received",
      "outputs": [
        {
          "internalType": "bytes4",
          "name": "",
          "type": "bytes4"
        }
      ],
      "stateMutability": "nonpayable",
      "type": "function"
    },
    {
      "inputs": [
        {
          "internalType": "address",
          "name": "",
          "type": "address"
        }
      ],
      "name": "playerRanking",
      "outputs": [
        {
          "internalType": "uint256",
          "name": "",
          "type": "uint256"
        }
      ],
      "stateMutability": "view",
      "type": "function"
    },
    {
      "inputs": [],
      "name": "renounceAdmin",
      "outputs": [],
      "stateMutability": "nonpayable",
      "type": "function"
    },
    {
      "inputs": [
        {
          "internalType": "bool",
          "name": "allow",
          "type": "bool"
        }
      ],
      "name": "setAllowBattleAgainstOneself",
      "outputs": [],
      "stateMutability": "nonpayable",
      "type": "function"
    },
    {
      "inputs": [
        {
          "internalType": "address",
          "name": "battleContractAddress",
          "type": "address"
        }
      ],
      "name": "setBattleContractAddress",
      "outputs": [],
      "stateMutability": "nonpayable",
      "type": "function"
    },
    {
      "inputs": [
        {
          "internalType": "address",
          "name": "deckContractAddress",
          "type": "address"
        }
      ],
      "name": "setDeckContractAddress",
      "outputs": [],
      "stateMutability": "nonpayable",
      "type": "function"
    },
    {
      "inputs": [
        {
          "internalType": "uint256",
          "name": "kFactor",
          "type": "uint256"
        }
      ],
      "name": "setKFactor",
      "outputs": [],
      "stateMutability": "nonpayable",
      "type": "function"
    },
    {
      "inputs": [
        {
          "internalType": "uint256",
          "name": "matchRange",
          "type": "uint256"
        },
        {
          "internalType": "uint256",
          "name": "matchRangePerMinute",
          "type": "uint256"
        }
      ],
      "name": "setMatchRange",
      "outputs": [],
      "stateMutability": "nonpayable",
      "type": "function"
    },
    {
      "inputs": [
        {
          "internalType": "address",
          "name": "rewardPoolAddress",
          "type": "address"
        }
      ],
      "name": "setRewardPoolAddress",
      "outputs": [],
      "stateMutability": "nonpayable",
      "type": "function"
    },
    {
      "inputs": [
        {
          "internalType": "bytes4",
          "name": "interfaceId",
          "type": "bytes4"
        }
      ],
      "name": "supportsInterface",
      "outputs": [
        {
          "internalType": "bool",
          "name": "",
          "type": "bool"
        }
      ],
      "stateMutability": "view",
      "type": "function"
    },
    {
      "inputs": [
        {
          "internalType": "uint256",
          "name": "",
          "type": "uint256"
        }
      ],
      "name": "waitingDecks",
      "outputs": [
        {
          "internalType": "uint256",
          "name": "deckId",
          "type": "uint256"
        },
        {
          "internalType": "uint256",
          "name": "enterTimestamp",
          "type": "uint256"
        }
      ],
      "stateMutability": "view",
      "type": "function"
    }
  ],
  "transactionHash": "0x764d47204ab550e51ed325bc92be2238f2a219792e5d1e25c8914760b4b60398",
  "args": [
    2000,
    "0xCBfA151dfCA576EA333C04497B5D723ffEEf1559",
    "0x12EaA00470d8160DC43C11c32fD8c30E5fca0C05",
    "0x73Bb65Bf7Cd268207C5E4D30e7C3eddab3e861f4"
  ],
  "numDeployments": 2,
  "solcInputHash": "a4b97d3957c946c2c416b4d6de3c4a12",
  "bytecode": "0x60a060405261012c600455600160055560106006553480156200002157600080fd5b50604051620027c8380380620027c8833981016040819052620000449162000194565b6200004f336200009f565b608093909352600180546001600160a01b03199081166001600160a01b03948516179091556002805482169284169290921790915560038054909116919092161760ff60a01b19169055620001e7565b620000ba816000620000f160201b62000b701790919060201c565b6040516001600160a01b038216907f44d6d25963f097ad14f29f06854a01f575648a1ef82f30e562ccd3889717e33990600090a250565b6001600160a01b0381166200010557600080fd5b62000111828262000141565b156200011c57600080fd5b6001600160a01b0316600090815260209190915260409020805460ff19166001179055565b60006001600160a01b0382166200015757600080fd5b506001600160a01b03166000908152602091909152604090205460ff1690565b80516001600160a01b03811681146200018f57600080fd5b919050565b60008060008060808587031215620001aa578384fd5b84519350620001bc6020860162000177565b9250620001cc6040860162000177565b9150620001dc6060860162000177565b905092959194509250565b6080516125c562000203600039600061085001526125c56000f3fe608060405234801561001057600080fd5b50600436106101585760003560e01c80638a062ab7116100c3578063bc197c811161007c578063bc197c81146102df578063d671581f146102f2578063d8963fc414610305578063f23a6e6114610318578063fa6285cc1461032b578063fd12a4d21461034c57610158565b80638a062ab7146102835780638a78c340146102965780638bad0c0a1461029e57806396dc76c4146102a6578063a59f3e0c146102b9578063b24cf5d7146102cc57610158565b806346864cd81161011557806346864cd8146101f657806359509b7a1461020957806364375d291461022a578063704802751461023d5780637f8661a114610250578063889f00471461026357610158565b806301ffc9a71461015d578063086f99d414610186578063150b7a021461019b57806324d7806c146101bb5780633174d507146101ce57806345887038146101e3575b600080fd5b61017061016b366004611e69565b61035f565b60405161017d91906121ea565b60405180910390f35b610199610194366004611c92565b61038c565b005b6101ae6101a9366004611d7a565b6103c0565b60405161017d91906121f5565b6101706101c9366004611c92565b6103d0565b6101d66103dc565b60405161017d91906123e9565b6101996101f1366004611f28565b6103e2565b610199610204366004611c92565b6103ff565b61021c610217366004611ef8565b610433565b60405161017d929190612409565b6101d6610238366004611f28565b610461565b61019961024b366004611c92565b61047c565b61019961025e366004611ef8565b61049a565b610276610271366004611ef8565b610553565b60405161017d91906120f6565b610199610291366004611ef8565b61057d565b6101d6610594565b61019961059a565b6101d66102b4366004611c92565b6105a5565b6101996102c7366004611ef8565b6105b7565b6101996102da366004611c92565b6108ea565b6101ae6102ed366004611cd1565b61091e565b610276610300366004611ef8565b61092f565b610199610313366004611e49565b61094a565b6101ae610326366004611de3565b61097a565b61033e610339366004611f28565b61098b565b60405161017d929190612167565b61019961035a366004611ef8565b610b5e565b60006001600160e01b03198216630271189760e51b1480610384575061038482610bbc565b90505b919050565b610395336103d0565b61039e57600080fd5b600280546001600160a01b0319166001600160a01b0392909216919091179055565b630a85bd0160e11b949350505050565b60006103848183610bd5565b60095490565b6103eb336103d0565b6103f457600080fd5b600491909155600555565b610408336103d0565b61041157600080fd5b600180546001600160a01b0319166001600160a01b0392909216919091179055565b6009818154811061044357600080fd5b60009182526020909120600290910201805460019091015490915082565b60008061047384846064600654610c0a565b50949350505050565b610485336103d0565b61048e57600080fd5b61049781610cfe565b50565b600954158015906104ef57506000818152600760205260409020546009805490919081106104d857634e487b7160e01b600052603260045260246000fd5b906000526020600020906002020160000154600014155b6105145760405162461bcd60e51b815260040161050b9061220a565b60405180910390fd5b6000818152600860205260409020546001600160a01b0316331461054a5760405162461bcd60e51b815260040161050b90612320565b61049781610d40565b600b818154811061056357600080fd5b6000918252602090912001546001600160a01b0316905081565b610586336103d0565b61058f57600080fd5b600655565b600b5490565b6105a333610f0d565b565b600a6020526000908152604090205481565b6002546040516331a9108f60e11b81526001600160a01b0390911690636352211e906105e79084906004016123e9565b60206040518083038186803b1580156105ff57600080fd5b505afa158015610613573d6000803e3d6000fd5b505050506040513d601f19601f820116820180604052508101906106379190611cb5565b6001600160a01b0316336001600160a01b0316146106675760405162461bcd60e51b815260040161050b90612320565b6002546040516352637b1f60e11b81526001600160a01b039091169063a4c6f63e906106979084906004016123e9565b60206040518083038186803b1580156106af57600080fd5b505afa1580156106c3573d6000803e3d6000fd5b505050506040513d601f19601f820116820180604052508101906106e79190611f10565b6107035760405162461bcd60e51b815260040161050b90612290565b60025460405163a090195d60e01b81526000916001600160a01b03169063a090195d906107349085906004016123e9565b604080518083038186803b15801561074b57600080fd5b505afa15801561075f573d6000803e3d6000fd5b505050506040513d601f19601f820116820180604052508101906107839190611f49565b915050600260009054906101000a90046001600160a01b03166001600160a01b03166330ecf94e6040518163ffffffff1660e01b815260040160206040518083038186803b1580156107d457600080fd5b505afa1580156107e8573d6000803e3d6000fd5b505050506040513d601f19601f8201168201806040525081019061080c9190611f10565b81101561082b5760405162461bcd60e51b815260040161050b906122d5565b336000908152600a60205260409020546108b157336000818152600a602052604081207f00000000000000000000000000000000000000000000000000000000000000009055600b805460018101825591527f0175b7a638427703f0dbe7bb9bbf987a2551717b34e79f33b5b1008d1fa01db90180546001600160a01b03191690911790555b60006108bc83610f4f565b905080156108dc576108ce8382611147565b6108d781610d40565b6108e5565b6108e583611309565b505050565b6108f3336103d0565b6108fc57600080fd5b600380546001600160a01b0319166001600160a01b0392909216919091179055565b63bc197c8160e01b95945050505050565b6008602052600090815260409020546001600160a01b031681565b610953336103d0565b61095c57600080fd5b60038054911515600160a01b0260ff60a01b19909216919091179055565b63f23a6e6160e01b95945050505050565b600b54606090819083106109b15760405162461bcd60e51b815260040161050b90612355565b600b546109be84866124f6565b11156109ca57600b5493505b836001600160401b038111156109f057634e487b7160e01b600052604160045260246000fd5b604051908082528060200260200182016040528015610a19578160200160208202803683370190505b509150836001600160401b03811115610a4257634e487b7160e01b600052604160045260246000fd5b604051908082528060200260200182016040528015610a6b578160200160208202803683370190505b509050825b610a7a8585612460565b811015610b56576000600b8281548110610aa457634e487b7160e01b600052603260045260246000fd5b6000918252602090912001546001600160a01b031690508084610ac787856124f6565b81518110610ae557634e487b7160e01b600052603260045260246000fd5b6001600160a01b039283166020918202929092018101919091529082166000908152600a909152604090205483610b1c87856124f6565b81518110610b3a57634e487b7160e01b600052603260045260246000fd5b602090810291909101015250610b4f8161250d565b9050610a70565b509250929050565b610b67336103d0565b61054a57600080fd5b6001600160a01b038116610b8357600080fd5b610b8d8282610bd5565b15610b9757600080fd5b6001600160a01b0316600090815260209190915260409020805460ff19166001179055565b6001600160e01b031981166301ffc9a760e01b14919050565b60006001600160a01b038216610bea57600080fd5b506001600160a01b03166000908152602091909152604090205460ff1690565b60008061271083028686108281610c2357888803610c27565b8789035b90506104668110610c4a5760405162461bcd60e51b815260040161050b90612259565b8115610c71576103208110610c715760405162461bcd60e51b815260040161050b90612259565b600080600080600086610c88578561032001610c8e565b85610320035b9450610ca0600a60198704600161141a565b9350610cab846114d8565b9250826064018881610ccd57634e487b7160e01b600052601260045260246000fd5b0491508b8b029050818110985088610ce757818103610ceb565b8082035b9950505050505050505094509492505050565b610d09600082610b70565b6040516001600160a01b038216907f44d6d25963f097ad14f29f06854a01f575648a1ef82f30e562ccd3889717e33990600090a250565b60025460008281526008602052604090819020549051635c46a7ef60e11b81526001600160a01b039283169263b88d4fde92610d8692309290911690869060040161210a565b600060405180830381600087803b158015610da057600080fd5b505af1158015610db4573d6000803e3d6000fd5b505050600082815260086020526040812080546001600160a01b0319169055600954909150610de5906001906124f6565b9050600060098281548110610e0a57634e487b7160e01b600052603260045260246000fd5b600091825260208083206002909202909101548583526007909152604080832054828452922091909155600980549192509083908110610e5a57634e487b7160e01b600052603260045260246000fd5b90600052602060002090600202016009600760008681526020019081526020016000205481548110610e9c57634e487b7160e01b600052603260045260246000fd5b6000918252602090912082546002909202019081556001918201549101556009805480610ed957634e487b7160e01b600052603160045260246000fd5b6000828152602080822060026000199094019384020182815560010182905591909255938152600790935250506040812055565b610f186000826114f1565b6040516001600160a01b038216907fa3b62bc36326052d97ea62d63c3d60308ed4c3ea8ac079dd8499f1e9c4f80c0f90600090a250565b6000805b60095481101561113e57600060098281548110610f8057634e487b7160e01b600052603260045260246000fd5b906000526020600020906002020160000154905083821480610fcd5750600354600160a01b900460ff16158015610fcd57506000818152600860205260409020546001600160a01b031633145b15610fd8575061112e565b6000603c60098481548110610ffd57634e487b7160e01b600052603260045260246000fd5b9060005260206000209060020201600101544261101a91906124f6565b611025906078612498565b61102f9190612478565b905060006078600554836110439190612498565b61104d9190612478565b60045461105a9190612460565b6000848152600860209081526040808320546001600160a01b03168352600a90915290205490915061108d9082906124f6565b336000908152600a60205260409020541180156110e757506000838152600860209081526040808320546001600160a01b03168352600a9091529020546110d5908290612460565b336000908152600a6020526040902054105b1561112a576009848154811061110d57634e487b7160e01b600052603260045260246000fd5b906000526020600020906002020160000154945050505050610387565b5050505b6111378161250d565b9050610f53565b50600092915050565b60008060006111568585611539565b925092509250816001600160a01b0316836001600160a01b03167f9b5363c49f40791b738dbe0ba63e6fa52ed52213cf8d4a2f3724e1389d72f14f8360405161119f91906123e9565b60405180910390a36003546040516331f27b0760e01b81526001600160a01b03909116906331f27b07906111d990849087906004016123f2565b600060405180830381600087803b1580156111f357600080fd5b505af1158015611207573d6000803e3d6000fd5b5050506001600160a01b038085166000908152600a602052604080822054928616825281205490925060649161123c91610461565b6112469190612478565b6001600160a01b0385166000908152600a6020526040812080549293508392909190611273908490612460565b90915550506001600160a01b0383166000908152600a602052604081205461129c9083906124b7565b13156112e4576001600160a01b0383166000908152600a60205260409020546112c69082906124f6565b6001600160a01b0384166000908152600a6020526040902055611301565b6001600160a01b0383166000908152600a60205260409020600190555b505050505050565b6000818152600860205260409081902080546001600160a01b031916339081179091556002549151635c46a7ef60e11b81526001600160a01b03929092169163b88d4fde9161135e913090869060040161210a565b600060405180830381600087803b15801561137857600080fd5b505af115801561138c573d6000803e3d6000fd5b505060098054600085815260076020908152604080832084905580518082019091529687524290870190815260018301845592905293517f6e1540171b6c0c960b71a7020d9f60077f6af931a8bbf590da0223dacf75c7af600290950294850155517f6e1540171b6c0c960b71a7020d9f60077f6af931a8bbf590da0223dacf75c7b0909301929092555050565b60008380156114ba5760018416801561143557859250611439565b8392505b508260011c8460011c94505b84156114b4578560801c1561145957600080fd5b8586028181018181101561146c57600080fd5b85900496505060018516156114a957858302838782041461149257861561149257600080fd5b818101818110156114a257600080fd5b8590049350505b8460011c9450611445565b506114d0565b8380156114ca57600092506114ce565b8392505b505b509392505050565b60006103846114ec6114ec6114ec856116aa565b6116aa565b6001600160a01b03811661150457600080fd5b61150e8282610bd5565b61151757600080fd5b6001600160a01b0316600090815260209190915260409020805460ff19169055565b6001546000828152600860205260408082205490516331acd38760e21b8152919283928392839283926001600160a01b039182169263c6b34e1c926115889233928d9216908c9060040161213d565b611c2060405180830381600087803b1580156115a357600080fd5b505af11580156115b7573d6000803e3d6000fd5b505050506040513d601f19601f820116820180604052508101906115db9190611eca565b60015460405163abd6b07560e01b81529294509092506000916001600160a01b039091169063abd6b0759061161490869060040161237d565b611c206040518083038186803b15801561162d57600080fd5b505afa158015611641573d6000803e3d6000fd5b505050506040513d601f19601f820116820180604052508101906116659190611e91565b9150600090506001600160a01b0382163314611681573361169a565b6000888152600860205260409020546001600160a01b03165b9199919850919650945050505050565b600181600160801b81106116c35760409190911b9060801c5b6801000000000000000081106116de5760209190911b9060401c5b64010000000081106116f55760109190911b9060201c5b62010000811061170a5760089190911b9060101c5b610100811061171e5760049190911b9060081c5b601081106117315760029190911b9060041c5b60088110611740578160011b91505b5080820401600190811c80830401811c80830401811c80830401811c80830401811c80830401811c80830401901c8082048181101561177d578091505b50919050565b600082601f830112611793578081fd5b60056117a66117a182612440565b612417565b8084866103c0870111156117b8578485fd5b845b848110156118915781880360c0808212156117d3578788fd5b604080518181016001600160401b0382821081831117156117f6576117f6612554565b9083528651825260209060a0601f198701811315611812578c8dfd5b84519650808701878110838211171561182d5761182d612554565b855288830151875288850151878401526060808a015190925060068110611852578d8efd5b80868901525060809450611867858a01611a69565b918701919091528701519285019290925280820193909352918652940193909101906001016117ba565b50909695505050505050565b600082601f8301126118ad578081fd5b6040516107808082018281106001600160401b03821117156118d1576118d1612554565b60405281848281018710156118e4578485fd5b8492505b603c831015611908578051825260019290920191602091820191016118e8565b509195945050505050565b600082601f830112611923578081fd5b6040516101008082018281106001600160401b038211171561194757611947612554565b604052818482810187101561195a578485fd5b8492505b60088310156119085780518252600192909201916020918201910161195e565b600082601f83011261198e578081fd5b813560206001600160401b038211156119a9576119a9612554565b8082026119b7828201612417565b8381528281019086840183880185018910156119d1578687fd5b8693505b858410156119f35780358352600193909301929184019184016119d5565b50979650505050505050565b600082601f830112611a0f578081fd5b81356001600160401b03811115611a2857611a28612554565b611a3b601f8201601f1916602001612417565b818152846020838601011115611a4f578283fd5b816020850160208301379081016020019190915292915050565b80516002811061038757600080fd5b6000611c008284031215611a8a578081fd5b60405160c081018181106001600160401b0382111715611aac57611aac612554565b60405282518152905080611ac38460208501611b89565b6020820152611ad684610de08501611b89565b6040820152611ba08301516060820152611af3611bc08401611a69565b6080820152611b05611be08401611a69565b60a08201525092915050565b600060c08284031215611b22578081fd5b60405160c081018181106001600160401b0382111715611b4457611b44612554565b8060405250809150825181526020830151602082015260408301516040820152606083015160608201526080830151608082015260a083015160a08201525092915050565b6000818303610dc0811215611b9c578182fd5b6040805160a081016001600160401b038282108183111715611bc057611bc0612554565b81845282955086519150611bd38261257a565b818352602087015160208401526105e0603f1986011215611bf357600080fd5b8351945060c0850191508482108183111715611c1157611c11612554565b50825284820151835260608501516020840152611c318660808701611b11565b82840152611c43866101408701611913565b60608401526102408501516080840152611c61866102608701611783565b60a08401528282820152611c7986610620870161189d565b6060820152610da0850151608082015250505092915050565b600060208284031215611ca3578081fd5b8135611cae8161257a565b9392505050565b600060208284031215611cc6578081fd5b8151611cae8161257a565b600080600080600060a08688031215611ce8578081fd5b8535611cf38161257a565b94506020860135611d038161257a565b935060408601356001600160401b0380821115611d1e578283fd5b611d2a89838a0161197e565b94506060880135915080821115611d3f578283fd5b611d4b89838a0161197e565b93506080880135915080821115611d60578283fd5b50611d6d888289016119ff565b9150509295509295909350565b60008060008060808587031215611d8f578182fd5b8435611d9a8161257a565b93506020850135611daa8161257a565b92506040850135915060608501356001600160401b03811115611dcb578182fd5b611dd7878288016119ff565b91505092959194509250565b600080600080600060a08688031215611dfa578283fd5b8535611e058161257a565b94506020860135611e158161257a565b9350604086013592506060860135915060808601356001600160401b03811115611e3d578182fd5b611d6d888289016119ff565b600060208284031215611e5a578081fd5b81358015158114611cae578182fd5b600060208284031215611e7a578081fd5b81356001600160e01b031981168114611cae578182fd5b600080611c208385031215611ea4578182fd5b611eae8484611a78565b9150611c00830151611ebf8161257a565b809150509250929050565b600080611c208385031215611edd578182fd5b611ee78484611a78565b9150611c0083015190509250929050565b600060208284031215611f09578081fd5b5035919050565b600060208284031215611f21578081fd5b5051919050565b60008060408385031215611f3a578182fd5b50508035926020909101359150565b60008060408385031215611f5b578182fd5b505080516020909101519092909150565b8060005b6005811015611fe95781518051855260209081015180518287015280820151604080880191909152810151909190606060068210611fb057611fb061253e565b878101919091528201516080611fc58261256a565b87810191909152919091015160a086015260c0909401939190910190600101611f70565b50505050565b8060005b603c811015611fe9578151845260209384019390910190600101611ff3565b8060005b6008811015611fe9578151845260209384019390910190600101612016565b60018060a01b0381511682526020810151602083015260408101518051604084015260208101516060840152604081015180516080850152602081015160a0850152604081015160c0850152606081015160e0850152608081015161010085015260a08101516101208501525060608101516120b5610140850182612012565b50608081015161024084015260a001516120d3610260840182611f6c565b5060608101516120e7610620840182611fef565b5060800151610da09190910152565b6001600160a01b0391909116815260200190565b6001600160a01b039384168152919092166020820152604081019190915260806060820181905260009082015260a00190565b6001600160a01b039485168152602081019390935292166040820152606081019190915260800190565b604080825283519082018190526000906020906060840190828701845b828110156121a95781516001600160a01b031684529284019290840190600101612184565b50505083810382850152845180825285830191830190845b818110156121dd578351835292840192918401916001016121c1565b5090979650505050505050565b901515815260200190565b6001600160e01b031991909116815260200190565b6020808252602f908201527f506570656d6f6e4d617463686d616b65723a204465636b206973206e6f74206960408201526e1b881d1a19481dd85a5d081b1a5cdd608a1b606082015260800190565b6020808252601b908201527f526174696e6720646966666572656e636520746f6f206c617267650000000000604082015260600190565b60208082526025908201527f506570656d6f6e4d617463686d616b65723a20496e76616c696420626174746c6040820152641958d85c9960da1b606082015260800190565b6020808252602b908201527f506570656d6f6e4d617463686d616b65723a204e6f7420656e6f75676820737560408201526a70706f727420636172647360a81b606082015260800190565b6020808252818101527f506570656d6f6e4d617463686d616b65723a204e6f7420796f7572206465636b604082015260600190565b6020808252600e908201526d125b9d985b1a59081bd9999cd95d60921b604082015260600190565b81518152602080830151611c0083019161239990840182612035565b5060408301516123ad610de0840182612035565b506060830151611ba083015260808301516123c78161256a565b611bc083015260a08301516123db8161256a565b80611be08401525092915050565b90815260200190565b9182526001600160a01b0316602082015260400190565b918252602082015260400190565b6040518181016001600160401b038111828210171561243857612438612554565b604052919050565b60006001600160401b0382111561245957612459612554565b5060200290565b6000821982111561247357612473612528565b500190565b60008261249357634e487b7160e01b81526012600452602481fd5b500490565b60008160001904831182151516156124b2576124b2612528565b500290565b60008083128015600160ff1b8501841216156124d5576124d5612528565b6001600160ff1b03840183138116156124f0576124f0612528565b50500390565b60008282101561250857612508612528565b500390565b600060001982141561252157612521612528565b5060010190565b634e487b7160e01b600052601160045260246000fd5b634e487b7160e01b600052602160045260246000fd5b634e487b7160e01b600052604160045260246000fd5b600281106104975761049761253e565b6001600160a01b038116811461049757600080fdfea264697066735822122054c0437e3659e2a46b85826c11026c77b49b0365318b8ffbb2d4a2911d79653264736f6c63430008000033",
  "devdoc": {
    "kind": "dev",
    "methods": {
      "enter(uint256)": {
        "params": {
          "deckId": "The Deck of who called this function"
        }
      },
      "exit(uint256)": {
        "params": {
          "deckId": "The Deck of the owner"
        }
      },
      "getEloRatingChange(uint256,uint256)": {
        "details": "The returned number has 2 decimals of precision, so 1501 = 15.01 Elo change"
      },
      "getPlayersRankings(uint256,uint256)": {
        "details": "Returns the rankings and addresses of players on the leaderboard, within a given range of indices.Requires that `count` is less than or equal to the number of players on the leaderboard minus `offset`, and that `offset` is less than the number of players on the leaderboard.",
        "params": {
          "count": "The number of rankings to return.",
          "offset": "The index of the first ranking to return."
        },
        "returns": {
          "addresses": "An array of player addresses corresponding to the returned rankings.",
          "rankings": "An array of ranking values for the returned players."
        }
      },
      "leaderboardPlayersCount()": {
        "details": "Returns the number of players currently on the leaderboard.",
        "returns": {
          "_0": "The number of players currently on the leaderboard."
        }
      },
      "onERC721Received(address,address,uint256,bytes)": {
        "details": "See {IERC721Receiver-onERC721Received}. Always returns `IERC721Receiver.onERC721Received.selector`."
      },
      "setKFactor(uint256)": {
        "details": "Dictates the rate of change, has a direct influence on how much a player wins/loses in the ranking",
        "params": {
          "kFactor": "Value used to calculate the rate of change in getEloRatingChange"
        }
      },
      "supportsInterface(bytes4)": {
        "details": "See {IERC165-supportsInterface}."
      }
    },
    "version": 1
  },
  "userdoc": {
    "kind": "user",
    "methods": {
      "enter(uint256)": {
        "notice": "Tries to initiate a battle using a specified deck. If no opponents are found, the deck is placed in a wait list."
      },
      "exit(uint256)": {
        "notice": "Transfers a deck back to its owner and removes from the wait list"
      },
      "getEloRatingChange(uint256,uint256)": {
        "notice": "Calculates the Elo change based on the winner's and loser's ratings."
      },
      "getWaitingCount()": {
        "notice": "Retrieves the number of waiting decks"
      }
    },
    "version": 1
  },
  "storageLayout": {
    "storage": [
      {
        "astId": 7156,
        "contract": "contracts/PepemonMatchmaker.sol:PepemonMatchmaker",
        "label": "admins",
        "offset": 0,
        "slot": "0",
        "type": "t_struct(Role)7662_storage"
      },
      {
        "astId": 6333,
        "contract": "contracts/PepemonMatchmaker.sol:PepemonMatchmaker",
        "label": "_battleAddress",
        "offset": 0,
        "slot": "1",
        "type": "t_address"
      },
      {
        "astId": 6335,
        "contract": "contracts/PepemonMatchmaker.sol:PepemonMatchmaker",
        "label": "_deckAddress",
        "offset": 0,
        "slot": "2",
        "type": "t_address"
      },
      {
        "astId": 6337,
        "contract": "contracts/PepemonMatchmaker.sol:PepemonMatchmaker",
        "label": "_rewardPoolAddress",
        "offset": 0,
        "slot": "3",
        "type": "t_address"
      },
      {
        "astId": 6339,
        "contract": "contracts/PepemonMatchmaker.sol:PepemonMatchmaker",
        "label": "_allowBattleAgainstOneself",
        "offset": 20,
        "slot": "3",
        "type": "t_bool"
      },
      {
        "astId": 6344,
        "contract": "contracts/PepemonMatchmaker.sol:PepemonMatchmaker",
        "label": "_matchRange",
        "offset": 0,
        "slot": "4",
        "type": "t_uint256"
      },
      {
        "astId": 6347,
        "contract": "contracts/PepemonMatchmaker.sol:PepemonMatchmaker",
        "label": "_matchRangePerMinute",
        "offset": 0,
        "slot": "5",
        "type": "t_uint256"
      },
      {
        "astId": 6350,
        "contract": "contracts/PepemonMatchmaker.sol:PepemonMatchmaker",
        "label": "_kFactor",
        "offset": 0,
        "slot": "6",
        "type": "t_uint256"
      },
      {
        "astId": 6354,
        "contract": "contracts/PepemonMatchmaker.sol:PepemonMatchmaker",
        "label": "_waitingDecksIndex",
        "offset": 0,
        "slot": "7",
        "type": "t_mapping(t_uint256,t_uint256)"
      },
      {
        "astId": 6358,
        "contract": "contracts/PepemonMatchmaker.sol:PepemonMatchmaker",
        "label": "deckOwner",
        "offset": 0,
        "slot": "8",
        "type": "t_mapping(t_uint256,t_address)"
      },
      {
        "astId": 6362,
        "contract": "contracts/PepemonMatchmaker.sol:PepemonMatchmaker",
        "label": "waitingDecks",
        "offset": 0,
        "slot": "9",
        "type": "t_array(t_struct(waitingDeckData)6331_storage)dyn_storage"
      },
      {
        "astId": 6366,
        "contract": "contracts/PepemonMatchmaker.sol:PepemonMatchmaker",
        "label": "playerRanking",
        "offset": 0,
        "slot": "10",
        "type": "t_mapping(t_address,t_uint256)"
      },
      {
        "astId": 6369,
        "contract": "contracts/PepemonMatchmaker.sol:PepemonMatchmaker",
        "label": "leaderboardPlayers",
        "offset": 0,
        "slot": "11",
        "type": "t_array(t_address)dyn_storage"
      }
    ],
    "types": {
      "t_address": {
        "encoding": "inplace",
        "label": "address",
        "numberOfBytes": "20"
      },
      "t_array(t_address)dyn_storage": {
        "base": "t_address",
        "encoding": "dynamic_array",
        "label": "address[]",
        "numberOfBytes": "32"
      },
      "t_array(t_struct(waitingDeckData)6331_storage)dyn_storage": {
        "base": "t_struct(waitingDeckData)6331_storage",
        "encoding": "dynamic_array",
        "label": "struct PepemonMatchmaker.waitingDeckData[]",
        "numberOfBytes": "32"
      },
      "t_bool": {
        "encoding": "inplace",
        "label": "bool",
        "numberOfBytes": "1"
      },
      "t_mapping(t_address,t_bool)": {
        "encoding": "mapping",
        "key": "t_address",
        "label": "mapping(address => bool)",
        "numberOfBytes": "32",
        "value": "t_bool"
      },
      "t_mapping(t_address,t_uint256)": {
        "encoding": "mapping",
        "key": "t_address",
        "label": "mapping(address => uint256)",
        "numberOfBytes": "32",
        "value": "t_uint256"
      },
      "t_mapping(t_uint256,t_address)": {
        "encoding": "mapping",
        "key": "t_uint256",
        "label": "mapping(uint256 => address)",
        "numberOfBytes": "32",
        "value": "t_address"
      },
      "t_mapping(t_uint256,t_uint256)": {
        "encoding": "mapping",
        "key": "t_uint256",
        "label": "mapping(uint256 => uint256)",
        "numberOfBytes": "32",
        "value": "t_uint256"
      },
      "t_struct(Role)7662_storage": {
        "encoding": "inplace",
        "label": "struct Roles.Role",
        "members": [
          {
            "astId": 7661,
            "contract": "contracts/PepemonMatchmaker.sol:PepemonMatchmaker",
            "label": "bearer",
            "offset": 0,
            "slot": "0",
            "type": "t_mapping(t_address,t_bool)"
          }
        ],
        "numberOfBytes": "32"
      },
      "t_struct(waitingDeckData)6331_storage": {
        "encoding": "inplace",
        "label": "struct PepemonMatchmaker.waitingDeckData",
        "members": [
          {
            "astId": 6328,
            "contract": "contracts/PepemonMatchmaker.sol:PepemonMatchmaker",
            "label": "deckId",
            "offset": 0,
            "slot": "0",
            "type": "t_uint256"
          },
          {
            "astId": 6330,
            "contract": "contracts/PepemonMatchmaker.sol:PepemonMatchmaker",
            "label": "enterTimestamp",
            "offset": 0,
            "slot": "1",
            "type": "t_uint256"
          }
        ],
        "numberOfBytes": "64"
      },
      "t_uint256": {
        "encoding": "inplace",
        "label": "uint256",
        "numberOfBytes": "32"
      }
    }
  }
}