{
  "address": "0xC8A27e449f2e87B770f442A423B7591006847b3F",
  "abi": [
    {
      "inputs": [
        {
          "internalType": "uint256",
          "name": "defaultRanking",
          "type": "uint256"
        },
        {
          "internalType": "address",
          "name": "battleAddress",
          "type": "address"
        },
        {
          "internalType": "address",
          "name": "deckAddress",
          "type": "address"
        },
        {
          "internalType": "address",
          "name": "rewardPoolAddress",
          "type": "address"
        }
      ],
      "stateMutability": "nonpayable",
      "type": "constructor"
    },
    {
      "anonymous": false,
      "inputs": [
        {
          "indexed": true,
          "internalType": "address",
          "name": "account",
          "type": "address"
        }
      ],
      "name": "AdminAdded",
      "type": "event"
    },
    {
      "anonymous": false,
      "inputs": [
        {
          "indexed": true,
          "internalType": "address",
          "name": "account",
          "type": "address"
        }
      ],
      "name": "AdminRemoved",
      "type": "event"
    },
    {
      "anonymous": false,
      "inputs": [
        {
          "indexed": true,
          "internalType": "address",
          "name": "winner",
          "type": "address"
        },
        {
          "indexed": true,
          "internalType": "address",
          "name": "loser",
          "type": "address"
        },
        {
          "indexed": false,
          "internalType": "uint256",
          "name": "battleId",
          "type": "uint256"
        }
      ],
      "name": "BattleFinished",
      "type": "event"
    },
    {
      "inputs": [
        {
          "internalType": "address",
          "name": "account",
          "type": "address"
        }
      ],
      "name": "addAdmin",
      "outputs": [],
      "stateMutability": "nonpayable",
      "type": "function"
    },
    {
      "inputs": [
        {
          "internalType": "uint256",
          "name": "deckId",
          "type": "uint256"
        }
      ],
      "name": "addPveDeck",
      "outputs": [],
      "stateMutability": "nonpayable",
      "type": "function"
    },
    {
      "inputs": [
        {
          "internalType": "uint256",
          "name": "",
          "type": "uint256"
        }
      ],
      "name": "deckOwner",
      "outputs": [
        {
          "internalType": "address",
          "name": "",
          "type": "address"
        }
      ],
      "stateMutability": "view",
      "type": "function"
    },
    {
      "inputs": [
        {
          "internalType": "uint256",
          "name": "deckId",
          "type": "uint256"
        }
      ],
      "name": "enter",
      "outputs": [],
      "stateMutability": "nonpayable",
      "type": "function"
    },
    {
      "inputs": [
        {
          "internalType": "uint256",
          "name": "deckId",
          "type": "uint256"
        }
      ],
      "name": "enterPve",
      "outputs": [],
      "stateMutability": "nonpayable",
      "type": "function"
    },
    {
      "inputs": [
        {
          "internalType": "uint256",
          "name": "deckId",
          "type": "uint256"
        }
      ],
      "name": "exit",
      "outputs": [],
      "stateMutability": "nonpayable",
      "type": "function"
    },
    {
      "inputs": [
        {
          "internalType": "uint256",
          "name": "deckId",
          "type": "uint256"
        }
      ],
      "name": "forceExit",
      "outputs": [],
      "stateMutability": "nonpayable",
      "type": "function"
    },
    {
      "inputs": [
        {
          "internalType": "uint256",
          "name": "winnerRating",
          "type": "uint256"
        },
        {
          "internalType": "uint256",
          "name": "loserRating",
          "type": "uint256"
        }
      ],
      "name": "getEloRatingChange",
      "outputs": [
        {
          "internalType": "uint256",
          "name": "",
          "type": "uint256"
        }
      ],
      "stateMutability": "view",
      "type": "function"
    },
    {
      "inputs": [
        {
          "internalType": "uint256",
          "name": "count",
          "type": "uint256"
        },
        {
          "internalType": "uint256",
          "name": "offset",
          "type": "uint256"
        }
      ],
      "name": "getPlayersRankings",
      "outputs": [
        {
          "internalType": "address[]",
          "name": "addresses",
          "type": "address[]"
        },
        {
          "internalType": "uint256[]",
          "name": "rankings",
          "type": "uint256[]"
        }
      ],
      "stateMutability": "view",
      "type": "function"
    },
    {
      "inputs": [],
      "name": "getWaitingCount",
      "outputs": [
        {
          "internalType": "uint256",
          "name": "",
          "type": "uint256"
        }
      ],
      "stateMutability": "view",
      "type": "function"
    },
    {
      "inputs": [
        {
          "internalType": "address",
          "name": "account",
          "type": "address"
        }
      ],
      "name": "isAdmin",
      "outputs": [
        {
          "internalType": "bool",
          "name": "",
          "type": "bool"
        }
      ],
      "stateMutability": "view",
      "type": "function"
    },
    {
      "inputs": [],
      "name": "isPveMode",
      "outputs": [
        {
          "internalType": "bool",
          "name": "",
          "type": "bool"
        }
      ],
      "stateMutability": "view",
      "type": "function"
    },
    {
      "inputs": [
        {
          "internalType": "uint256",
          "name": "",
          "type": "uint256"
        }
      ],
      "name": "leaderboardPlayers",
      "outputs": [
        {
          "internalType": "address",
          "name": "",
          "type": "address"
        }
      ],
      "stateMutability": "view",
      "type": "function"
    },
    {
      "inputs": [],
      "name": "leaderboardPlayersCount",
      "outputs": [
        {
          "internalType": "uint256",
          "name": "",
          "type": "uint256"
        }
      ],
      "stateMutability": "view",
      "type": "function"
    },
    {
      "inputs": [
        {
          "internalType": "address",
          "name": "",
          "type": "address"
        },
        {
          "internalType": "address",
          "name": "",
          "type": "address"
        },
        {
          "internalType": "uint256[]",
          "name": "",
          "type": "uint256[]"
        },
        {
          "internalType": "uint256[]",
          "name": "",
          "type": "uint256[]"
        },
        {
          "internalType": "bytes",
          "name": "",
          "type": "bytes"
        }
      ],
      "name": "onERC1155BatchReceived",
      "outputs": [
        {
          "internalType": "bytes4",
          "name": "",
          "type": "bytes4"
        }
      ],
      "stateMutability": "nonpayable",
      "type": "function"
    },
    {
      "inputs": [
        {
          "internalType": "address",
          "name": "",
          "type": "address"
        },
        {
          "internalType": "address",
          "name": "",
          "type": "address"
        },
        {
          "internalType": "uint256",
          "name": "",
          "type": "uint256"
        },
        {
          "internalType": "uint256",
          "name": "",
          "type": "uint256"
        },
        {
          "internalType": "bytes",
          "name": "",
          "type": "bytes"
        }
      ],
      "name": "onERC1155Received",
      "outputs": [
        {
          "internalType": "bytes4",
          "name": "",
          "type": "bytes4"
        }
      ],
      "stateMutability": "nonpayable",
      "type": "function"
    },
    {
      "inputs": [
        {
          "internalType": "address",
          "name": "",
          "type": "address"
        },
        {
          "internalType": "address",
          "name": "",
          "type": "address"
        },
        {
          "internalType": "uint256",
          "name": "",
          "type": "uint256"
        },
        {
          "internalType": "bytes",
          "name": "",
          "type": "bytes"
        }
      ],
      "name": "onERC721Received",
      "outputs": [
        {
          "internalType": "bytes4",
          "name": "",
          "type": "bytes4"
        }
      ],
      "stateMutability": "nonpayable",
      "type": "function"
    },
    {
      "inputs": [
        {
          "internalType": "address",
          "name": "",
          "type": "address"
        }
      ],
      "name": "playerRanking",
      "outputs": [
        {
          "internalType": "uint256",
          "name": "",
          "type": "uint256"
        }
      ],
      "stateMutability": "view",
      "type": "function"
    },
    {
      "inputs": [
        {
          "internalType": "uint256",
          "name": "deckId",
          "type": "uint256"
        }
      ],
      "name": "removePveDeck",
      "outputs": [],
      "stateMutability": "nonpayable",
      "type": "function"
    },
    {
      "inputs": [],
      "name": "renounceAdmin",
      "outputs": [],
      "stateMutability": "nonpayable",
      "type": "function"
    },
    {
      "inputs": [
        {
          "internalType": "bool",
          "name": "allow",
          "type": "bool"
        }
      ],
      "name": "setAllowBattleAgainstOneself",
      "outputs": [],
      "stateMutability": "nonpayable",
      "type": "function"
    },
    {
      "inputs": [
        {
          "internalType": "address",
          "name": "battleContractAddress",
          "type": "address"
        }
      ],
      "name": "setBattleContractAddress",
      "outputs": [],
      "stateMutability": "nonpayable",
      "type": "function"
    },
    {
      "inputs": [
        {
          "internalType": "address",
          "name": "deckContractAddress",
          "type": "address"
        }
      ],
      "name": "setDeckContractAddress",
      "outputs": [],
      "stateMutability": "nonpayable",
      "type": "function"
    },
    {
      "inputs": [
        {
          "internalType": "uint256",
          "name": "kFactor",
          "type": "uint256"
        }
      ],
      "name": "setKFactor",
      "outputs": [],
      "stateMutability": "nonpayable",
      "type": "function"
    },
    {
      "inputs": [
        {
          "internalType": "uint256",
          "name": "matchRange",
          "type": "uint256"
        },
        {
          "internalType": "uint256",
          "name": "matchRangePerMinute",
          "type": "uint256"
        }
      ],
      "name": "setMatchRange",
      "outputs": [],
      "stateMutability": "nonpayable",
      "type": "function"
    },
    {
      "inputs": [
        {
          "internalType": "bool",
          "name": "enable",
          "type": "bool"
        }
      ],
      "name": "setPveMode",
      "outputs": [],
      "stateMutability": "nonpayable",
      "type": "function"
    },
    {
      "inputs": [
        {
          "internalType": "address",
          "name": "rewardPoolAddress",
          "type": "address"
        }
      ],
      "name": "setRewardPoolAddress",
      "outputs": [],
      "stateMutability": "nonpayable",
      "type": "function"
    },
    {
      "inputs": [
        {
          "internalType": "bytes4",
          "name": "interfaceId",
          "type": "bytes4"
        }
      ],
      "name": "supportsInterface",
      "outputs": [
        {
          "internalType": "bool",
          "name": "",
          "type": "bool"
        }
      ],
      "stateMutability": "view",
      "type": "function"
    },
    {
      "inputs": [
        {
          "internalType": "uint256",
          "name": "",
          "type": "uint256"
        }
      ],
      "name": "waitingDecks",
      "outputs": [
        {
          "internalType": "uint256",
          "name": "deckId",
          "type": "uint256"
        },
        {
          "internalType": "uint256",
          "name": "enterTimestamp",
          "type": "uint256"
        }
      ],
      "stateMutability": "view",
      "type": "function"
    }
  ],
  "transactionHash": "0x129d470b33a5d7cf4348d2a755687894d79d83c4a7afa6bb0d1fffa4d231f83f",
  "args": [
    2000,
    "0xA1E3aeE45Aa74349cD9A1eC290A41F218Ff34EaD",
    "0x12EaA00470d8160DC43C11c32fD8c30E5fca0C05",
    "0x656c2E46D10cf128DfC22AA6F05C0E1953B2388D"
  ],
  "numDeployments": 1,
  "solcInputHash": "b9b93199ea8619af6479b4e254f0afc6",
  "bytecode": "0x60a060405261012c600455600160055560106006553480156200002157600080fd5b5060405162002d6238038062002d62833981016040819052620000449162000195565b6200004f33620000a0565b608093909352600180546001600160a01b039384166001600160a01b0319918216179091556002805492841692909116919091179055600380546001600160a81b03191691909216179055620001e9565b620000bb816000620000f260201b6200119a1790919060201c565b6040516001600160a01b038216907f44d6d25963f097ad14f29f06854a01f575648a1ef82f30e562ccd3889717e33990600090a250565b6001600160a01b0381166200010657600080fd5b62000112828262000142565b156200011d57600080fd5b6001600160a01b0316600090815260209190915260409020805460ff19166001179055565b60006001600160a01b0382166200015857600080fd5b506001600160a01b03166000908152602091909152604090205460ff1690565b80516001600160a01b03811681146200019057600080fd5b919050565b60008060008060808587031215620001ac57600080fd5b84519350620001be6020860162000178565b9250620001ce6040860162000178565b9150620001de6060860162000178565b905092959194509250565b608051612b4f620002136000396000818161083b01528181610b100152610eb90152612b4f6000f3fe608060405234801561001057600080fd5b50600436106101cf5760003560e01c8063889f004711610104578063b24cf5d7116100a2578063e19e89ab11610071578063e19e89ab1461042f578063f23a6e6114610441578063fa6285cc14610460578063fd12a4d21461048157600080fd5b8063b24cf5d7146103c1578063bc197c81146103d4578063d671581f146103f3578063d8963fc41461041c57600080fd5b80638bad0c0a116100de5780638bad0c0a1461037357806396dc76c41461037b578063a59f3e0c1461039b578063b2152aed146103ae57600080fd5b8063889f00471461032d5780638a062ab7146103585780638a78c3401461036b57600080fd5b8063458870381161017157806364375d291161014b57806364375d29146102e157806370480275146102f45780637f8661a11461030757806386db4df71461031a57600080fd5b8063458870381461029357806346864cd8146102a657806359509b7a146102b957600080fd5b8063150b7a02116101ad578063150b7a021461022457806324d7806c1461025b5780632acc9a9c1461026e5780633174d5071461028157600080fd5b806301ffc9a7146101d4578063086f99d4146101fc5780630a96263214610211575b600080fd5b6101e76101e236600461249e565b610494565b60405190151581526020015b60405180910390f35b61020f61020a3660046122bb565b6104cb565b005b61020f61021f36600461247c565b6104ff565b6102426102323660046123a9565b630a85bd0160e11b949350505050565b6040516001600160e01b031990911681526020016101f3565b6101e76102693660046122bb565b61052f565b61020f61027c366004612531565b61053b565b6009545b6040519081526020016101f3565b61020f6102a1366004612563565b61091c565b61020f6102b43660046122bb565b610939565b6102cc6102c7366004612531565b61096d565b604080519283526020830191909152016101f3565b6102856102ef366004612563565b61099b565b61020f6103023660046122bb565b6109b6565b61020f610315366004612531565b6109d4565b61020f610328366004612531565b610abe565b61034061033b366004612531565b610b7a565b6040516001600160a01b0390911681526020016101f3565b61020f610366366004612531565b610ba4565b600b54610285565b61020f610bbb565b6102856103893660046122bb565b600a6020526000908152604090205481565b61020f6103a9366004612531565b610bc6565b61020f6103bc366004612531565b610f49565b61020f6103cf3660046122bb565b610f76565b6102426103e23660046122fc565b63bc197c8160e01b95945050505050565b610340610401366004612531565b6008602052600090815260409020546001600160a01b031681565b61020f61042a36600461247c565b610faa565b600354600160a81b900460ff166101e7565b61024261044f366004612414565b63f23a6e6160e01b95945050505050565b61047361046e366004612563565b610fda565b6040516101f3929190612742565b61020f61048f366004612531565b611188565b60006001600160e01b03198216630271189760e51b14806104c557506301ffc9a760e01b6001600160e01b03198316145b92915050565b6104d43361052f565b6104dd57600080fd5b600280546001600160a01b0319166001600160a01b0392909216919091179055565b6105083361052f565b61051157600080fd5b60038054911515600160a81b0260ff60a81b19909216919091179055565b60006104c581836111e6565b6002546040516331a9108f60e11b8152600481018390526001600160a01b0390911690636352211e9060240160206040518083038186803b15801561057f57600080fd5b505afa158015610593573d6000803e3d6000fd5b505050506040513d601f19601f820116820180604052508101906105b791906122df565b6001600160a01b0316336001600160a01b0316146105f05760405162461bcd60e51b81526004016105e790612856565b60405180910390fd5b6002546040516352637b1f60e11b8152600481018390526001600160a01b039091169063a4c6f63e9060240160206040518083038186803b15801561063457600080fd5b505afa158015610648573d6000803e3d6000fd5b505050506040513d601f19601f8201168201806040525081019061066c919061254a565b6106885760405162461bcd60e51b81526004016105e7906127c6565b600354600160a81b900460ff1615156001146106f25760405162461bcd60e51b8152602060048201526024808201527f506570656d6f6e4d617463686d616b65723a20507645206d6f64652064697361604482015263189b195960e21b60648201526084016105e7565b60025460405163a090195d60e01b8152600481018390526000916001600160a01b03169063a090195d90602401604080518083038186803b15801561073657600080fd5b505afa15801561074a573d6000803e3d6000fd5b505050506040513d601f19601f8201168201806040525081019061076e9190612585565b915050600260009054906101000a90046001600160a01b03166001600160a01b03166330ecf94e6040518163ffffffff1660e01b815260040160206040518083038186803b1580156107bf57600080fd5b505afa1580156107d3573d6000803e3d6000fd5b505050506040513d601f19601f820116820180604052508101906107f7919061254a565b8110156108165760405162461bcd60e51b81526004016105e79061280b565b336000908152600a602052604090205461089c57336000818152600a602052604081207f00000000000000000000000000000000000000000000000000000000000000009055600b805460018101825591527f0175b7a638427703f0dbe7bb9bbf987a2551717b34e79f33b5b1008d1fa01db90180546001600160a01b03191690911790555b60006108a78361121b565b905080156108be576108b983826112a0565b505050565b60405162461bcd60e51b815260206004820152602d60248201527f506570656d6f6e4d617463686d616b65723a204e6f20507645206f70706f6e6560448201526c6e747320617661696c61626c6560981b60648201526084016105e7565b6109253361052f565b61092e57600080fd5b600491909155600555565b6109423361052f565b61094b57600080fd5b600180546001600160a01b0319166001600160a01b0392909216919091179055565b6009818154811061097d57600080fd5b60009182526020909120600290910201805460019091015490915082565b6000806109ad84846064600654611466565b50949350505050565b6109bf3361052f565b6109c857600080fd5b6109d1816115ac565b50565b60095415801590610a1b5750600081815260076020526040902054600980549091908110610a0457610a04612abb565b906000526020600020906002020160000154600014155b610a7f5760405162461bcd60e51b815260206004820152602f60248201527f506570656d6f6e4d617463686d616b65723a204465636b206973206e6f74206960448201526e1b881d1a19481dd85a5d081b1a5cdd608a1b60648201526084016105e7565b6000818152600860205260409020546001600160a01b03163314610ab55760405162461bcd60e51b81526004016105e790612856565b6109d1816115ee565b610ac73361052f565b610ad057600080fd5b600354600160a81b900460ff161515600114610aeb57600080fd5b336000908152600a6020526040902054610b7157336000818152600a602052604081207f00000000000000000000000000000000000000000000000000000000000000009055600b805460018101825591527f0175b7a638427703f0dbe7bb9bbf987a2551717b34e79f33b5b1008d1fa01db90180546001600160a01b03191690911790555b6109d181611795565b600b8181548110610b8a57600080fd5b6000918252602090912001546001600160a01b0316905081565b610bad3361052f565b610bb657600080fd5b600655565b610bc4336118b9565b565b6002546040516331a9108f60e11b8152600481018390526001600160a01b0390911690636352211e9060240160206040518083038186803b158015610c0a57600080fd5b505afa158015610c1e573d6000803e3d6000fd5b505050506040513d601f19601f82011682018060405250810190610c4291906122df565b6001600160a01b0316336001600160a01b031614610c725760405162461bcd60e51b81526004016105e790612856565b6002546040516352637b1f60e11b8152600481018390526001600160a01b039091169063a4c6f63e9060240160206040518083038186803b158015610cb657600080fd5b505afa158015610cca573d6000803e3d6000fd5b505050506040513d601f19601f82011682018060405250810190610cee919061254a565b610d0a5760405162461bcd60e51b81526004016105e7906127c6565b600354600160a81b900460ff1615610d705760405162461bcd60e51b815260206004820152602360248201527f506570656d6f6e4d617463686d616b65723a20507645206d6f646520656e61626044820152621b195960ea1b60648201526084016105e7565b60025460405163a090195d60e01b8152600481018390526000916001600160a01b03169063a090195d90602401604080518083038186803b158015610db457600080fd5b505afa158015610dc8573d6000803e3d6000fd5b505050506040513d601f19601f82011682018060405250810190610dec9190612585565b915050600260009054906101000a90046001600160a01b03166001600160a01b03166330ecf94e6040518163ffffffff1660e01b815260040160206040518083038186803b158015610e3d57600080fd5b505afa158015610e51573d6000803e3d6000fd5b505050506040513d601f19601f82011682018060405250810190610e75919061254a565b811015610e945760405162461bcd60e51b81526004016105e79061280b565b336000908152600a6020526040902054610f1a57336000818152600a602052604081207f00000000000000000000000000000000000000000000000000000000000000009055600b805460018101825591527f0175b7a638427703f0dbe7bb9bbf987a2551717b34e79f33b5b1008d1fa01db90180546001600160a01b03191690911790555b6000610f25836118fb565b90508015610f4057610f3783826112a0565b6108b9816115ee565b6108b983611795565b610f523361052f565b610f5b57600080fd5b600354600160a81b900460ff161515600114610ab557600080fd5b610f7f3361052f565b610f8857600080fd5b600380546001600160a01b0319166001600160a01b0392909216919091179055565b610fb33361052f565b610fbc57600080fd5b60038054911515600160a01b0260ff60a01b19909216919091179055565b600b54606090819083106110215760405162461bcd60e51b815260206004820152600e60248201526d125b9d985b1a59081bd9999cd95d60921b60448201526064016105e7565b600b5461102e8486612a1d565b111561103a57600b5493505b836001600160401b0381111561105257611052612ad1565b60405190808252806020026020018201604052801561107b578160200160208202803683370190505b509150836001600160401b0381111561109657611096612ad1565b6040519080825280602002602001820160405280156110bf578160200160208202803683370190505b509050825b6110ce8585612993565b811015611180576000600b82815481106110ea576110ea612abb565b6000918252602090912001546001600160a01b03169050808461110d8785612a1d565b8151811061111d5761111d612abb565b6001600160a01b039283166020918202929092018101919091529082166000908152600a9091526040902054836111548785612a1d565b8151811061116457611164612abb565b60209081029190910101525061117981612a34565b90506110c4565b509250929050565b6111913361052f565b610ab557600080fd5b6001600160a01b0381166111ad57600080fd5b6111b782826111e6565b156111c157600080fd5b6001600160a01b0316600090815260209190915260409020805460ff19166001179055565b60006001600160a01b0382166111fb57600080fd5b506001600160a01b03166000908152602091909152604090205460ff1690565b60095460009061122d57506000919050565b60095460408051603f6020820152908101849052426060820152600091906080016040516020818303038152906040528051906020012060001c6112719190612a4f565b90506009818154811061128657611286612abb565b906000526020600020906002020160000154915050919050565b60008060006112af8585611ac1565b925092509250816001600160a01b0316836001600160a01b03167f9b5363c49f40791b738dbe0ba63e6fa52ed52213cf8d4a2f3724e1389d72f14f836040516112fa91815260200190565b60405180910390a36003546040516331f27b0760e01b8152600481018390526001600160a01b038581166024830152909116906331f27b0790604401600060405180830381600087803b15801561135057600080fd5b505af1158015611364573d6000803e3d6000fd5b5050506001600160a01b038085166000908152600a60205260408082205492861682528120549092506064916113999161099b565b6113a391906129ab565b6001600160a01b0385166000908152600a60205260408120805492935083929091906113d0908490612993565b90915550506001600160a01b0383166000908152600a60205260408120546113f99083906129de565b1315611441576001600160a01b0383166000908152600a6020526040902054611423908290612a1d565b6001600160a01b0384166000908152600a602052604090205561145e565b6001600160a01b0383166000908152600a60205260409020600190555b505050505050565b6000806127108302868610828161147f57888803611483565b8789035b905061046681106114d65760405162461bcd60e51b815260206004820152601b60248201527f526174696e6720646966666572656e636520746f6f206c61726765000000000060448201526064016105e7565b811561152d57610320811061152d5760405162461bcd60e51b815260206004820152601b60248201527f526174696e6720646966666572656e636520746f6f206c61726765000000000060448201526064016105e7565b60008060008060008661154457856103200161154a565b85610320035b945061155c600a601987046001611c3c565b935061156784611cfa565b925082606401888161157b5761157b612a79565b0491508b8b02905081811098508861159557818103611599565b8082035b9950505050505050505094509492505050565b6115b760008261119a565b6040516001600160a01b038216907f44d6d25963f097ad14f29f06854a01f575648a1ef82f30e562ccd3889717e33990600090a250565b600254600082815260086020526040808220549051635c46a7ef60e11b81523060048201526001600160a01b039182166024820152604481018590526080606482015260848101929092529091169063b88d4fde9060a401600060405180830381600087803b15801561166057600080fd5b505af1158015611674573d6000803e3d6000fd5b505050600082815260086020526040812080546001600160a01b03191690556009549091506116a590600190612a1d565b90506000600982815481106116bc576116bc612abb565b6000918252602080832060029092029091015485835260079091526040808320548284529220919091556009805491925090839081106116fe576116fe612abb565b9060005260206000209060020201600960076000868152602001908152602001600020548154811061173257611732612abb565b600091825260209091208254600290920201908155600191820154910155600980548061176157611761612aa5565b6000828152602080822060026000199094019384020182815560010182905591909255938152600790935250506040812055565b60008181526008602052604080822080546001600160a01b031916339081179091556002549151635c46a7ef60e11b81526004810191909152306024820152604481018490526080606482015260848101929092526001600160a01b03169063b88d4fde9060a401600060405180830381600087803b15801561181757600080fd5b505af115801561182b573d6000803e3d6000fd5b505060098054600085815260076020908152604080832084905580518082019091529687524290870190815260018301845592905293517f6e1540171b6c0c960b71a7020d9f60077f6af931a8bbf590da0223dacf75c7af600290950294850155517f6e1540171b6c0c960b71a7020d9f60077f6af931a8bbf590da0223dacf75c7b0909301929092555050565b6118c4600082611d13565b6040516001600160a01b038216907fa3b62bc36326052d97ea62d63c3d60308ed4c3ea8ac079dd8499f1e9c4f80c0f90600090a250565b6000805b600954811015611ab85760006009828154811061191e5761191e612abb565b90600052602060002090600202016000015490508382148061196b5750600354600160a01b900460ff1615801561196b57506000818152600860205260409020546001600160a01b031633145b156119765750611aa8565b6000603c6009848154811061198d5761198d612abb565b906000526020600020906002020160010154426119aa9190612a1d565b6119b59060786129bf565b6119bf91906129ab565b905060006078600554836119d391906129bf565b6119dd91906129ab565b6004546119ea9190612993565b6000848152600860209081526040808320546001600160a01b03168352600a9091528082205433835291205491925090611a25908390612993565b118015611a6f57506000838152600860209081526040808320546001600160a01b03168352600a909152902054611a5d908290612993565b336000908152600a6020526040902054105b15611aa45760098481548110611a8757611a87612abb565b906000526020600020906002020160000154945050505050919050565b5050505b611ab181612a34565b90506118ff565b50600092915050565b6001546000828152600860205260408082205490516331acd38760e21b8152336004820152602481018690526001600160a01b039182166044820152606481018590529192839283928392839291169063c6b34e1c90608401611c2060405180830381600087803b158015611b3557600080fd5b505af1158015611b49573d6000803e3d6000fd5b505050506040513d601f19601f82011682018060405250810190611b6d9190612502565b600154604051637cdb32cd60e01b81529294509092506000916001600160a01b0390911690637cdb32cd90611ba690869060040161288b565b611c206040518083038186803b158015611bbf57600080fd5b505afa158015611bd3573d6000803e3d6000fd5b505050506040513d601f19601f82011682018060405250810190611bf791906124c8565b9150600090506001600160a01b0382163314611c135733611c2c565b6000888152600860205260409020546001600160a01b03165b9199919850919650945050505050565b6000838015611cdc57600184168015611c5757859250611c5b565b8392505b508260011c8460011c94505b8415611cd6578560801c15611c7b57600080fd5b85860281810181811015611c8e57600080fd5b8590049650506001851615611ccb578583028387820414611cb4578615611cb457600080fd5b81810181811015611cc457600080fd5b8590049350505b8460011c9450611c67565b50611cf2565b838015611cec5760009250611cf0565b8392505b505b509392505050565b60006104c5611d0e611d0e611d0e85611d5b565b611d5b565b6001600160a01b038116611d2657600080fd5b611d3082826111e6565b611d3957600080fd5b6001600160a01b0316600090815260209190915260409020805460ff19169055565b600181600160801b8110611d745760409190911b9060801c5b680100000000000000008110611d8f5760209190911b9060401c5b6401000000008110611da65760109190911b9060201c5b620100008110611dbb5760089190911b9060101c5b6101008110611dcf5760049190911b9060081c5b60108110611de25760029190911b9060041c5b60088110611df1578160011b91505b5080820401600190811c80830401811c80830401811c80830401811c80830401811c80830401811c80830401901c80820481811015611e2e578091505b50919050565b600082601f830112611e4557600080fd5b611e4d61291f565b8083856103c086011115611e6057600080fd5b60005b6005811015611f265781870360c080821215611e7e57600080fd5b611e866128f7565b84518152602060a080601f1986011215611e9f57600080fd5b611ea761291f565b9450818701518060010b8114611ebc57600080fd5b85526040611ecb8882016122a4565b8387015260608089015160068110611ee257600080fd5b8083890152506080915081890151611ef981612b0c565b90870152611f088883016122a4565b90860152508181019390935286529401939190910190600101611e63565b509095945050505050565b600082601f830112611f4257600080fd5b6040516107808082018281106001600160401b0382111715611f6657611f66612ad1565b6040528184828101871015611f7a57600080fd5b600092505b603c831015611f9f57805182526001929092019160209182019101611f7f565b509195945050505050565b600082601f830112611fbb57600080fd5b6040516101008082018281106001600160401b0382111715611fdf57611fdf612ad1565b6040528184828101871015611ff357600080fd5b600092505b6008831015611f9f57805182526001929092019160209182019101611ff8565b600082601f83011261202957600080fd5b813560206001600160401b0382111561204457612044612ad1565b8160051b612053828201612963565b83815282810190868401838801850189101561206e57600080fd5b600093505b85841015612091578035835260019390930192918401918401612073565b50979650505050505050565b600082601f8301126120ae57600080fd5b81356001600160401b038111156120c7576120c7612ad1565b6120da601f8201601f1916602001612963565b8181528460208386010111156120ef57600080fd5b816020850160208301376000918101602001919091529392505050565b6000611c00828403121561211f57600080fd5b612127612941565b90508151815261213a836020840161218b565b602082015261214d83610de0840161218b565b6040820152611ba08201516060820152611bc082015161216c81612b0c565b6080820152611be082015161218081612b0c565b60a082015292915050565b6000818303610dc081121561219f57600080fd5b6121a761291f565b915082516121b481612af7565b8252602083810151908301526105e0603f19820112156121d357600080fd5b6121db612941565b604084015181526060840151602082015260c0607f19830112156121fe57600080fd5b612206612941565b91506080840151825260a0840151602083015260c0840151604083015260e08401516060830152610100840151608083015261012084015160a0830152816040820152612257856101408601611faa565b60608201526102408401516080820152612275856102608601611e34565b60a082015260408301525061228e836106208401611f31565b6060820152610da0820151608082015292915050565b805161ffff811681146122b657600080fd5b919050565b6000602082840312156122cd57600080fd5b81356122d881612af7565b9392505050565b6000602082840312156122f157600080fd5b81516122d881612af7565b600080600080600060a0868803121561231457600080fd5b853561231f81612af7565b9450602086013561232f81612af7565b935060408601356001600160401b038082111561234b57600080fd5b61235789838a01612018565b9450606088013591508082111561236d57600080fd5b61237989838a01612018565b9350608088013591508082111561238f57600080fd5b5061239c8882890161209d565b9150509295509295909350565b600080600080608085870312156123bf57600080fd5b84356123ca81612af7565b935060208501356123da81612af7565b92506040850135915060608501356001600160401b038111156123fc57600080fd5b6124088782880161209d565b91505092959194509250565b600080600080600060a0868803121561242c57600080fd5b853561243781612af7565b9450602086013561244781612af7565b9350604086013592506060860135915060808601356001600160401b0381111561247057600080fd5b61239c8882890161209d565b60006020828403121561248e57600080fd5b813580151581146122d857600080fd5b6000602082840312156124b057600080fd5b81356001600160e01b0319811681146122d857600080fd5b600080611c2083850312156124dc57600080fd5b6124e6848461210c565b9150611c008301516124f781612af7565b809150509250929050565b600080611c20838503121561251657600080fd5b612520848461210c565b9150611c0083015190509250929050565b60006020828403121561254357600080fd5b5035919050565b60006020828403121561255c57600080fd5b5051919050565b6000806040838503121561257657600080fd5b50508035926020909101359150565b6000806040838503121561259857600080fd5b505080516020909101519092909150565b8060005b6005811015612635578151805185526020808201519150815160010b8187015280820151604061ffff808316828a015281850151925060609150600683106125f7576125f7612a8f565b888201929092528301519060809061260e83612ae7565b88820192909252929092015190911660a086015260c09094019391909101906001016125ad565b50505050565b8060005b603c81101561263557815184526020938401939091019060010161263f565b8060005b6008811015612635578151845260209384019390910190600101612662565b60018060a01b0381511682526020810151602083015260408101518051604084015260208101516060840152604081015180516080850152602081015160a0850152604081015160c0850152606081015160e0850152608081015161010085015260a081015161012085015250606081015161270161014085018261265e565b50608081015161024084015260a0015161271f6102608401826125a9565b50606081015161273361062084018261263b565b5060800151610da09190910152565b604080825283519082018190526000906020906060840190828701845b828110156127845781516001600160a01b03168452928401929084019060010161275f565b5050508381038285015284518082528583019183019060005b818110156127b95783518352928401929184019160010161279d565b5090979650505050505050565b60208082526025908201527f506570656d6f6e4d617463686d616b65723a20496e76616c696420626174746c6040820152641958d85c9960da1b606082015260800190565b6020808252602b908201527f506570656d6f6e4d617463686d616b65723a204e6f7420656e6f75676820737560408201526a70706f727420636172647360a81b606082015260800190565b6020808252818101527f506570656d6f6e4d617463686d616b65723a204e6f7420796f7572206465636b604082015260600190565b81518152602080830151611c008301916128a790840182612681565b5060408301516128bb610de0840182612681565b506060830151611ba083015260808301516128d581612ae7565b611bc083015260a08301516128e981612ae7565b80611be08401525092915050565b604080519081016001600160401b038111828210171561291957612919612ad1565b60405290565b60405160a081016001600160401b038111828210171561291957612919612ad1565b60405160c081016001600160401b038111828210171561291957612919612ad1565b604051601f8201601f191681016001600160401b038111828210171561298b5761298b612ad1565b604052919050565b600082198211156129a6576129a6612a63565b500190565b6000826129ba576129ba612a79565b500490565b60008160001904831182151516156129d9576129d9612a63565b500290565b60008083128015600160ff1b8501841216156129fc576129fc612a63565b6001600160ff1b0384018313811615612a1757612a17612a63565b50500390565b600082821015612a2f57612a2f612a63565b500390565b6000600019821415612a4857612a48612a63565b5060010190565b600082612a5e57612a5e612a79565b500690565b634e487b7160e01b600052601160045260246000fd5b634e487b7160e01b600052601260045260246000fd5b634e487b7160e01b600052602160045260246000fd5b634e487b7160e01b600052603160045260246000fd5b634e487b7160e01b600052603260045260246000fd5b634e487b7160e01b600052604160045260246000fd5b600281106109d1576109d1612a8f565b6001600160a01b03811681146109d157600080fd5b600281106109d157600080fdfea2646970667358221220da53cd4092cb817bb4f1dd5f902c186cf7f337810a46e7737b8a6fb07915bc4164736f6c63430008060033",
  "devdoc": {
    "kind": "dev",
    "methods": {
      "enter(uint256)": {
        "details": "This function cannot be used if _pveMode is set to true, players should join using \"enterPve\" instead.",
        "params": {
          "deckId": "The Deck of who called this function"
        }
      },
      "enterPve(uint256)": {
        "details": "This function cannot be used if _pveMode is set to false. In that case, players should join using \"enter\" instead, which  allows them to fight each other.",
        "params": {
          "deckId": "The Deck of who called this function"
        }
      },
      "exit(uint256)": {
        "params": {
          "deckId": "The Deck of the owner"
        }
      },
      "getEloRatingChange(uint256,uint256)": {
        "details": "The returned number has 2 decimals of precision, so 1501 = 15.01 Elo change"
      },
      "getPlayersRankings(uint256,uint256)": {
        "details": "Returns the rankings and addresses of players on the leaderboard, within a given range of indices.Requires that `count` is less than or equal to the number of players on the leaderboard minus `offset`, and that `offset` is less than the number of players on the leaderboard.",
        "params": {
          "count": "The number of rankings to return.",
          "offset": "The index of the first ranking to return."
        },
        "returns": {
          "addresses": "An array of player addresses corresponding to the returned rankings.",
          "rankings": "An array of ranking values for the returned players."
        }
      },
      "leaderboardPlayersCount()": {
        "details": "Returns the number of players currently on the leaderboard.",
        "returns": {
          "_0": "The number of players currently on the leaderboard."
        }
      },
      "onERC721Received(address,address,uint256,bytes)": {
        "details": "See {IERC721Receiver-onERC721Received}. Always returns `IERC721Receiver.onERC721Received.selector`."
      },
      "setKFactor(uint256)": {
        "details": "Dictates the rate of change, has a direct influence on how much a player wins/loses in the ranking",
        "params": {
          "kFactor": "Value used to calculate the rate of change in getEloRatingChange"
        }
      },
      "supportsInterface(bytes4)": {
        "details": "See {IERC165-supportsInterface}."
      }
    },
    "version": 1
  },
  "userdoc": {
    "kind": "user",
    "methods": {
      "enter(uint256)": {
        "notice": "Tries to initiate a battle using a specified deck. If no opponents are found, the deck is placed in a wait list."
      },
      "enterPve(uint256)": {
        "notice": "Tries to initiate a battle using a specified deck. Opponents are not other players but a set of decks added by admins."
      },
      "exit(uint256)": {
        "notice": "Transfers a deck back to its owner and removes from the wait list"
      },
      "getEloRatingChange(uint256,uint256)": {
        "notice": "Calculates the Elo change based on the winner's and loser's ratings."
      },
      "getWaitingCount()": {
        "notice": "Retrieves the number of waiting decks"
      },
      "isPveMode()": {
        "notice": "Tells whether or not this contract is operating in PvE mode. When in PvE mode, players cannot fight against each other (because PvE is the opposite of PvP)."
      }
    },
    "version": 1
  },
  "storageLayout": {
    "storage": [
      {
        "astId": 7509,
        "contract": "contracts/PepemonMatchmaker.sol:PepemonMatchmaker",
        "label": "admins",
        "offset": 0,
        "slot": "0",
        "type": "t_struct(Role)8015_storage"
      },
      {
        "astId": 6208,
        "contract": "contracts/PepemonMatchmaker.sol:PepemonMatchmaker",
        "label": "_battleAddress",
        "offset": 0,
        "slot": "1",
        "type": "t_address"
      },
      {
        "astId": 6210,
        "contract": "contracts/PepemonMatchmaker.sol:PepemonMatchmaker",
        "label": "_deckAddress",
        "offset": 0,
        "slot": "2",
        "type": "t_address"
      },
      {
        "astId": 6212,
        "contract": "contracts/PepemonMatchmaker.sol:PepemonMatchmaker",
        "label": "_rewardPoolAddress",
        "offset": 0,
        "slot": "3",
        "type": "t_address"
      },
      {
        "astId": 6214,
        "contract": "contracts/PepemonMatchmaker.sol:PepemonMatchmaker",
        "label": "_allowBattleAgainstOneself",
        "offset": 20,
        "slot": "3",
        "type": "t_bool"
      },
      {
        "astId": 6216,
        "contract": "contracts/PepemonMatchmaker.sol:PepemonMatchmaker",
        "label": "_pveMode",
        "offset": 21,
        "slot": "3",
        "type": "t_bool"
      },
      {
        "astId": 6221,
        "contract": "contracts/PepemonMatchmaker.sol:PepemonMatchmaker",
        "label": "_matchRange",
        "offset": 0,
        "slot": "4",
        "type": "t_uint256"
      },
      {
        "astId": 6224,
        "contract": "contracts/PepemonMatchmaker.sol:PepemonMatchmaker",
        "label": "_matchRangePerMinute",
        "offset": 0,
        "slot": "5",
        "type": "t_uint256"
      },
      {
        "astId": 6227,
        "contract": "contracts/PepemonMatchmaker.sol:PepemonMatchmaker",
        "label": "_kFactor",
        "offset": 0,
        "slot": "6",
        "type": "t_uint256"
      },
      {
        "astId": 6231,
        "contract": "contracts/PepemonMatchmaker.sol:PepemonMatchmaker",
        "label": "_waitingDecksIndex",
        "offset": 0,
        "slot": "7",
        "type": "t_mapping(t_uint256,t_uint256)"
      },
      {
        "astId": 6235,
        "contract": "contracts/PepemonMatchmaker.sol:PepemonMatchmaker",
        "label": "deckOwner",
        "offset": 0,
        "slot": "8",
        "type": "t_mapping(t_uint256,t_address)"
      },
      {
        "astId": 6239,
        "contract": "contracts/PepemonMatchmaker.sol:PepemonMatchmaker",
        "label": "waitingDecks",
        "offset": 0,
        "slot": "9",
        "type": "t_array(t_struct(waitingDeckData)6206_storage)dyn_storage"
      },
      {
        "astId": 6243,
        "contract": "contracts/PepemonMatchmaker.sol:PepemonMatchmaker",
        "label": "playerRanking",
        "offset": 0,
        "slot": "10",
        "type": "t_mapping(t_address,t_uint256)"
      },
      {
        "astId": 6246,
        "contract": "contracts/PepemonMatchmaker.sol:PepemonMatchmaker",
        "label": "leaderboardPlayers",
        "offset": 0,
        "slot": "11",
        "type": "t_array(t_address)dyn_storage"
      }
    ],
    "types": {
      "t_address": {
        "encoding": "inplace",
        "label": "address",
        "numberOfBytes": "20"
      },
      "t_array(t_address)dyn_storage": {
        "base": "t_address",
        "encoding": "dynamic_array",
        "label": "address[]",
        "numberOfBytes": "32"
      },
      "t_array(t_struct(waitingDeckData)6206_storage)dyn_storage": {
        "base": "t_struct(waitingDeckData)6206_storage",
        "encoding": "dynamic_array",
        "label": "struct PepemonMatchmaker.waitingDeckData[]",
        "numberOfBytes": "32"
      },
      "t_bool": {
        "encoding": "inplace",
        "label": "bool",
        "numberOfBytes": "1"
      },
      "t_mapping(t_address,t_bool)": {
        "encoding": "mapping",
        "key": "t_address",
        "label": "mapping(address => bool)",
        "numberOfBytes": "32",
        "value": "t_bool"
      },
      "t_mapping(t_address,t_uint256)": {
        "encoding": "mapping",
        "key": "t_address",
        "label": "mapping(address => uint256)",
        "numberOfBytes": "32",
        "value": "t_uint256"
      },
      "t_mapping(t_uint256,t_address)": {
        "encoding": "mapping",
        "key": "t_uint256",
        "label": "mapping(uint256 => address)",
        "numberOfBytes": "32",
        "value": "t_address"
      },
      "t_mapping(t_uint256,t_uint256)": {
        "encoding": "mapping",
        "key": "t_uint256",
        "label": "mapping(uint256 => uint256)",
        "numberOfBytes": "32",
        "value": "t_uint256"
      },
      "t_struct(Role)8015_storage": {
        "encoding": "inplace",
        "label": "struct Roles.Role",
        "members": [
          {
            "astId": 8014,
            "contract": "contracts/PepemonMatchmaker.sol:PepemonMatchmaker",
            "label": "bearer",
            "offset": 0,
            "slot": "0",
            "type": "t_mapping(t_address,t_bool)"
          }
        ],
        "numberOfBytes": "32"
      },
      "t_struct(waitingDeckData)6206_storage": {
        "encoding": "inplace",
        "label": "struct PepemonMatchmaker.waitingDeckData",
        "members": [
          {
            "astId": 6203,
            "contract": "contracts/PepemonMatchmaker.sol:PepemonMatchmaker",
            "label": "deckId",
            "offset": 0,
            "slot": "0",
            "type": "t_uint256"
          },
          {
            "astId": 6205,
            "contract": "contracts/PepemonMatchmaker.sol:PepemonMatchmaker",
            "label": "enterTimestamp",
            "offset": 0,
            "slot": "1",
            "type": "t_uint256"
          }
        ],
        "numberOfBytes": "64"
      },
      "t_uint256": {
        "encoding": "inplace",
        "label": "uint256",
        "numberOfBytes": "32"
      }
    }
  }
}