{
  "address": "0x25e8db00C55b9da7C999Fdc0A9d098Cb0b3aAFfc",
  "abi": [
    {
      "inputs": [],
      "stateMutability": "nonpayable",
      "type": "constructor"
    },
    {
      "anonymous": false,
      "inputs": [
        {
          "indexed": true,
          "internalType": "address",
          "name": "account",
          "type": "address"
        },
        {
          "indexed": true,
          "internalType": "address",
          "name": "operator",
          "type": "address"
        },
        {
          "indexed": false,
          "internalType": "bool",
          "name": "approved",
          "type": "bool"
        }
      ],
      "name": "ApprovalForAll",
      "type": "event"
    },
    {
      "anonymous": false,
      "inputs": [
        {
          "indexed": true,
          "internalType": "address",
          "name": "account",
          "type": "address"
        }
      ],
      "name": "MinterAdded",
      "type": "event"
    },
    {
      "anonymous": false,
      "inputs": [
        {
          "indexed": true,
          "internalType": "address",
          "name": "account",
          "type": "address"
        }
      ],
      "name": "MinterRemoved",
      "type": "event"
    },
    {
      "anonymous": false,
      "inputs": [
        {
          "indexed": true,
          "internalType": "address",
          "name": "previousOwner",
          "type": "address"
        },
        {
          "indexed": true,
          "internalType": "address",
          "name": "newOwner",
          "type": "address"
        }
      ],
      "name": "OwnershipTransferred",
      "type": "event"
    },
    {
      "anonymous": false,
      "inputs": [
        {
          "indexed": true,
          "internalType": "address",
          "name": "operator",
          "type": "address"
        },
        {
          "indexed": true,
          "internalType": "address",
          "name": "from",
          "type": "address"
        },
        {
          "indexed": true,
          "internalType": "address",
          "name": "to",
          "type": "address"
        },
        {
          "indexed": false,
          "internalType": "uint256[]",
          "name": "ids",
          "type": "uint256[]"
        },
        {
          "indexed": false,
          "internalType": "uint256[]",
          "name": "values",
          "type": "uint256[]"
        }
      ],
      "name": "TransferBatch",
      "type": "event"
    },
    {
      "anonymous": false,
      "inputs": [
        {
          "indexed": true,
          "internalType": "address",
          "name": "operator",
          "type": "address"
        },
        {
          "indexed": true,
          "internalType": "address",
          "name": "from",
          "type": "address"
        },
        {
          "indexed": true,
          "internalType": "address",
          "name": "to",
          "type": "address"
        },
        {
          "indexed": false,
          "internalType": "uint256",
          "name": "id",
          "type": "uint256"
        },
        {
          "indexed": false,
          "internalType": "uint256",
          "name": "value",
          "type": "uint256"
        }
      ],
      "name": "TransferSingle",
      "type": "event"
    },
    {
      "anonymous": false,
      "inputs": [
        {
          "indexed": false,
          "internalType": "string",
          "name": "value",
          "type": "string"
        },
        {
          "indexed": true,
          "internalType": "uint256",
          "name": "id",
          "type": "uint256"
        }
      ],
      "name": "URI",
      "type": "event"
    },
    {
      "anonymous": false,
      "inputs": [
        {
          "indexed": true,
          "internalType": "address",
          "name": "account",
          "type": "address"
        }
      ],
      "name": "WhitelistAdminAdded",
      "type": "event"
    },
    {
      "anonymous": false,
      "inputs": [
        {
          "indexed": true,
          "internalType": "address",
          "name": "account",
          "type": "address"
        }
      ],
      "name": "WhitelistAdminRemoved",
      "type": "event"
    },
    {
      "inputs": [
        {
          "internalType": "address",
          "name": "account",
          "type": "address"
        }
      ],
      "name": "addMinter",
      "outputs": [],
      "stateMutability": "nonpayable",
      "type": "function"
    },
    {
      "inputs": [
        {
          "internalType": "address",
          "name": "account",
          "type": "address"
        }
      ],
      "name": "addWhitelistAdmin",
      "outputs": [],
      "stateMutability": "nonpayable",
      "type": "function"
    },
    {
      "inputs": [
        {
          "internalType": "uint256",
          "name": "_id",
          "type": "uint256"
        },
        {
          "internalType": "address[]",
          "name": "_addresses",
          "type": "address[]"
        }
      ],
      "name": "airdrop",
      "outputs": [],
      "stateMutability": "nonpayable",
      "type": "function"
    },
    {
      "inputs": [
        {
          "internalType": "address",
          "name": "_owner",
          "type": "address"
        },
        {
          "internalType": "uint256",
          "name": "_id",
          "type": "uint256"
        }
      ],
      "name": "balanceOf",
      "outputs": [
        {
          "internalType": "uint256",
          "name": "",
          "type": "uint256"
        }
      ],
      "stateMutability": "view",
      "type": "function"
    },
    {
      "inputs": [
        {
          "internalType": "address[]",
          "name": "_owners",
          "type": "address[]"
        },
        {
          "internalType": "uint256[]",
          "name": "_ids",
          "type": "uint256[]"
        }
      ],
      "name": "balanceOfBatch",
      "outputs": [
        {
          "internalType": "uint256[]",
          "name": "",
          "type": "uint256[]"
        }
      ],
      "stateMutability": "view",
      "type": "function"
    },
    {
      "inputs": [],
      "name": "baseMetadataURI",
      "outputs": [
        {
          "internalType": "string",
          "name": "",
          "type": "string"
        }
      ],
      "stateMutability": "view",
      "type": "function"
    },
    {
      "inputs": [
        {
          "internalType": "uint256",
          "name": "start",
          "type": "uint256"
        },
        {
          "internalType": "uint256",
          "name": "end",
          "type": "uint256"
        },
        {
          "internalType": "address",
          "name": "to",
          "type": "address"
        }
      ],
      "name": "batchMint",
      "outputs": [],
      "stateMutability": "nonpayable",
      "type": "function"
    },
    {
      "inputs": [
        {
          "internalType": "uint256",
          "name": "",
          "type": "uint256"
        }
      ],
      "name": "battleCardStats",
      "outputs": [
        {
          "internalType": "uint16",
          "name": "element",
          "type": "uint16"
        },
        {
          "internalType": "uint16",
          "name": "hp",
          "type": "uint16"
        },
        {
          "internalType": "uint16",
          "name": "speed",
          "type": "uint16"
        },
        {
          "internalType": "uint16",
          "name": "intelligence",
          "type": "uint16"
        },
        {
          "internalType": "uint16",
          "name": "defense",
          "type": "uint16"
        },
        {
          "internalType": "uint16",
          "name": "attack",
          "type": "uint16"
        },
        {
          "internalType": "uint16",
          "name": "specialAttack",
          "type": "uint16"
        },
        {
          "internalType": "uint16",
          "name": "specialDefense",
          "type": "uint16"
        },
        {
          "internalType": "uint16",
          "name": "level",
          "type": "uint16"
        },
        {
          "internalType": "string",
          "name": "name",
          "type": "string"
        },
        {
          "internalType": "string",
          "name": "description",
          "type": "string"
        },
        {
          "internalType": "string",
          "name": "ipfsAddr",
          "type": "string"
        },
        {
          "internalType": "string",
          "name": "rarity",
          "type": "string"
        }
      ],
      "stateMutability": "view",
      "type": "function"
    },
    {
      "inputs": [
        {
          "internalType": "address",
          "name": "_account",
          "type": "address"
        },
        {
          "internalType": "uint256",
          "name": "_id",
          "type": "uint256"
        },
        {
          "internalType": "uint256",
          "name": "_amount",
          "type": "uint256"
        }
      ],
      "name": "burn",
      "outputs": [],
      "stateMutability": "nonpayable",
      "type": "function"
    },
    {
      "inputs": [],
      "name": "contractURI",
      "outputs": [
        {
          "internalType": "string",
          "name": "",
          "type": "string"
        }
      ],
      "stateMutability": "view",
      "type": "function"
    },
    {
      "inputs": [
        {
          "internalType": "int16[14]",
          "name": "arr",
          "type": "int16[14]"
        }
      ],
      "name": "convert",
      "outputs": [
        {
          "internalType": "bytes32",
          "name": "",
          "type": "bytes32"
        }
      ],
      "stateMutability": "pure",
      "type": "function"
    },
    {
      "inputs": [
        {
          "components": [
            {
              "internalType": "uint16",
              "name": "element",
              "type": "uint16"
            },
            {
              "internalType": "uint16",
              "name": "hp",
              "type": "uint16"
            },
            {
              "internalType": "uint16",
              "name": "speed",
              "type": "uint16"
            },
            {
              "internalType": "uint16",
              "name": "intelligence",
              "type": "uint16"
            },
            {
              "internalType": "uint16",
              "name": "defense",
              "type": "uint16"
            },
            {
              "internalType": "uint16",
              "name": "attack",
              "type": "uint16"
            },
            {
              "internalType": "uint16",
              "name": "specialAttack",
              "type": "uint16"
            },
            {
              "internalType": "uint16",
              "name": "specialDefense",
              "type": "uint16"
            },
            {
              "internalType": "uint16",
              "name": "level",
              "type": "uint16"
            },
            {
              "internalType": "string",
              "name": "name",
              "type": "string"
            },
            {
              "internalType": "string",
              "name": "description",
              "type": "string"
            },
            {
              "internalType": "string",
              "name": "ipfsAddr",
              "type": "string"
            },
            {
              "internalType": "string",
              "name": "rarity",
              "type": "string"
            }
          ],
          "internalType": "struct PepemonStats.BattleCardStats",
          "name": "_stats",
          "type": "tuple"
        },
        {
          "internalType": "uint256",
          "name": "_maxSupply",
          "type": "uint256"
        },
        {
          "internalType": "uint256",
          "name": "_initialSupply",
          "type": "uint256"
        },
        {
          "internalType": "string",
          "name": "_uri",
          "type": "string"
        },
        {
          "internalType": "bytes",
          "name": "_data",
          "type": "bytes"
        }
      ],
      "name": "createBattleCard",
      "outputs": [
        {
          "internalType": "uint256",
          "name": "tokenId",
          "type": "uint256"
        }
      ],
      "stateMutability": "nonpayable",
      "type": "function"
    },
    {
      "inputs": [
        {
          "components": [
            {
              "internalType": "bytes32",
              "name": "currentRoundChanges",
              "type": "bytes32"
            },
            {
              "internalType": "bytes32",
              "name": "nextRoundChanges",
              "type": "bytes32"
            },
            {
              "internalType": "uint256",
              "name": "specialCode",
              "type": "uint256"
            },
            {
              "internalType": "uint16",
              "name": "modifierNumberOfNextTurns",
              "type": "uint16"
            },
            {
              "internalType": "bool",
              "name": "isOffense",
              "type": "bool"
            },
            {
              "internalType": "bool",
              "name": "isNormal",
              "type": "bool"
            },
            {
              "internalType": "bool",
              "name": "isStackable",
              "type": "bool"
            },
            {
              "internalType": "string",
              "name": "name",
              "type": "string"
            },
            {
              "internalType": "string",
              "name": "description",
              "type": "string"
            },
            {
              "internalType": "string",
              "name": "ipfsAddr",
              "type": "string"
            },
            {
              "internalType": "string",
              "name": "rarity",
              "type": "string"
            }
          ],
          "internalType": "struct PepemonStats.SupportCardStats",
          "name": "_stats",
          "type": "tuple"
        },
        {
          "internalType": "uint256",
          "name": "_maxSupply",
          "type": "uint256"
        },
        {
          "internalType": "uint256",
          "name": "_initialSupply",
          "type": "uint256"
        },
        {
          "internalType": "string",
          "name": "_uri",
          "type": "string"
        },
        {
          "internalType": "bytes",
          "name": "_data",
          "type": "bytes"
        }
      ],
      "name": "createSupportCard",
      "outputs": [
        {
          "internalType": "uint256",
          "name": "tokenId",
          "type": "uint256"
        }
      ],
      "stateMutability": "nonpayable",
      "type": "function"
    },
    {
      "inputs": [
        {
          "internalType": "uint256",
          "name": "",
          "type": "uint256"
        }
      ],
      "name": "creators",
      "outputs": [
        {
          "internalType": "address",
          "name": "",
          "type": "address"
        }
      ],
      "stateMutability": "view",
      "type": "function"
    },
    {
      "inputs": [
        {
          "internalType": "bytes32",
          "name": "num",
          "type": "bytes32"
        }
      ],
      "name": "deconvert",
      "outputs": [
        {
          "internalType": "int16[14]",
          "name": "",
          "type": "int16[14]"
        }
      ],
      "stateMutability": "pure",
      "type": "function"
    },
    {
      "inputs": [
        {
          "internalType": "uint16",
          "name": "",
          "type": "uint16"
        }
      ],
      "name": "elementDecode",
      "outputs": [
        {
          "internalType": "string",
          "name": "",
          "type": "string"
        }
      ],
      "stateMutability": "view",
      "type": "function"
    },
    {
      "inputs": [
        {
          "internalType": "uint256",
          "name": "_id",
          "type": "uint256"
        }
      ],
      "name": "endMinting",
      "outputs": [],
      "stateMutability": "nonpayable",
      "type": "function"
    },
    {
      "inputs": [
        {
          "internalType": "address",
          "name": "_owner",
          "type": "address"
        },
        {
          "internalType": "address",
          "name": "_operator",
          "type": "address"
        }
      ],
      "name": "isApprovedForAll",
      "outputs": [
        {
          "internalType": "bool",
          "name": "isOperator",
          "type": "bool"
        }
      ],
      "stateMutability": "view",
      "type": "function"
    },
    {
      "inputs": [
        {
          "internalType": "address",
          "name": "account",
          "type": "address"
        }
      ],
      "name": "isMinter",
      "outputs": [
        {
          "internalType": "bool",
          "name": "",
          "type": "bool"
        }
      ],
      "stateMutability": "view",
      "type": "function"
    },
    {
      "inputs": [
        {
          "internalType": "address",
          "name": "account",
          "type": "address"
        }
      ],
      "name": "isWhitelistAdmin",
      "outputs": [
        {
          "internalType": "bool",
          "name": "",
          "type": "bool"
        }
      ],
      "stateMutability": "view",
      "type": "function"
    },
    {
      "inputs": [
        {
          "internalType": "uint256",
          "name": "_id",
          "type": "uint256"
        }
      ],
      "name": "maxSupply",
      "outputs": [
        {
          "internalType": "uint256",
          "name": "",
          "type": "uint256"
        }
      ],
      "stateMutability": "view",
      "type": "function"
    },
    {
      "inputs": [
        {
          "internalType": "address",
          "name": "_to",
          "type": "address"
        },
        {
          "internalType": "uint256",
          "name": "_id",
          "type": "uint256"
        },
        {
          "internalType": "uint256",
          "name": "_quantity",
          "type": "uint256"
        },
        {
          "internalType": "bytes",
          "name": "_data",
          "type": "bytes"
        }
      ],
      "name": "mint",
      "outputs": [],
      "stateMutability": "nonpayable",
      "type": "function"
    },
    {
      "inputs": [],
      "name": "name",
      "outputs": [
        {
          "internalType": "string",
          "name": "",
          "type": "string"
        }
      ],
      "stateMutability": "view",
      "type": "function"
    },
    {
      "inputs": [],
      "name": "owner",
      "outputs": [
        {
          "internalType": "address",
          "name": "",
          "type": "address"
        }
      ],
      "stateMutability": "view",
      "type": "function"
    },
    {
      "inputs": [
        {
          "internalType": "address",
          "name": "account",
          "type": "address"
        }
      ],
      "name": "removeMinter",
      "outputs": [],
      "stateMutability": "nonpayable",
      "type": "function"
    },
    {
      "inputs": [
        {
          "internalType": "address",
          "name": "account",
          "type": "address"
        }
      ],
      "name": "removeWhitelistAdmin",
      "outputs": [],
      "stateMutability": "nonpayable",
      "type": "function"
    },
    {
      "inputs": [],
      "name": "renounceMinter",
      "outputs": [],
      "stateMutability": "nonpayable",
      "type": "function"
    },
    {
      "inputs": [],
      "name": "renounceOwnership",
      "outputs": [],
      "stateMutability": "nonpayable",
      "type": "function"
    },
    {
      "inputs": [],
      "name": "renounceWhitelistAdmin",
      "outputs": [],
      "stateMutability": "nonpayable",
      "type": "function"
    },
    {
      "inputs": [
        {
          "internalType": "address",
          "name": "_from",
          "type": "address"
        },
        {
          "internalType": "address",
          "name": "_to",
          "type": "address"
        },
        {
          "internalType": "uint256[]",
          "name": "_ids",
          "type": "uint256[]"
        },
        {
          "internalType": "uint256[]",
          "name": "_amounts",
          "type": "uint256[]"
        },
        {
          "internalType": "bytes",
          "name": "_data",
          "type": "bytes"
        }
      ],
      "name": "safeBatchTransferFrom",
      "outputs": [],
      "stateMutability": "nonpayable",
      "type": "function"
    },
    {
      "inputs": [
        {
          "internalType": "address",
          "name": "_from",
          "type": "address"
        },
        {
          "internalType": "address",
          "name": "_to",
          "type": "address"
        },
        {
          "internalType": "uint256",
          "name": "_id",
          "type": "uint256"
        },
        {
          "internalType": "uint256",
          "name": "_amount",
          "type": "uint256"
        },
        {
          "internalType": "bytes",
          "name": "_data",
          "type": "bytes"
        }
      ],
      "name": "safeTransferFrom",
      "outputs": [],
      "stateMutability": "nonpayable",
      "type": "function"
    },
    {
      "inputs": [
        {
          "internalType": "address",
          "name": "_operator",
          "type": "address"
        },
        {
          "internalType": "bool",
          "name": "_approved",
          "type": "bool"
        }
      ],
      "name": "setApprovalForAll",
      "outputs": [],
      "stateMutability": "nonpayable",
      "type": "function"
    },
    {
      "inputs": [
        {
          "internalType": "string",
          "name": "newURI",
          "type": "string"
        }
      ],
      "name": "setBaseMetadataURI",
      "outputs": [],
      "stateMutability": "nonpayable",
      "type": "function"
    },
    {
      "inputs": [
        {
          "internalType": "uint256",
          "name": "id",
          "type": "uint256"
        },
        {
          "components": [
            {
              "internalType": "uint16",
              "name": "element",
              "type": "uint16"
            },
            {
              "internalType": "uint16",
              "name": "hp",
              "type": "uint16"
            },
            {
              "internalType": "uint16",
              "name": "speed",
              "type": "uint16"
            },
            {
              "internalType": "uint16",
              "name": "intelligence",
              "type": "uint16"
            },
            {
              "internalType": "uint16",
              "name": "defense",
              "type": "uint16"
            },
            {
              "internalType": "uint16",
              "name": "attack",
              "type": "uint16"
            },
            {
              "internalType": "uint16",
              "name": "specialAttack",
              "type": "uint16"
            },
            {
              "internalType": "uint16",
              "name": "specialDefense",
              "type": "uint16"
            },
            {
              "internalType": "uint16",
              "name": "level",
              "type": "uint16"
            },
            {
              "internalType": "string",
              "name": "name",
              "type": "string"
            },
            {
              "internalType": "string",
              "name": "description",
              "type": "string"
            },
            {
              "internalType": "string",
              "name": "ipfsAddr",
              "type": "string"
            },
            {
              "internalType": "string",
              "name": "rarity",
              "type": "string"
            }
          ],
          "internalType": "struct PepemonStats.BattleCardStats",
          "name": "x",
          "type": "tuple"
        }
      ],
      "name": "setBattleCardStats",
      "outputs": [],
      "stateMutability": "nonpayable",
      "type": "function"
    },
    {
      "inputs": [
        {
          "internalType": "string",
          "name": "newURI",
          "type": "string"
        }
      ],
      "name": "setContractURI",
      "outputs": [],
      "stateMutability": "nonpayable",
      "type": "function"
    },
    {
      "inputs": [
        {
          "internalType": "uint16",
          "name": "element",
          "type": "uint16"
        },
        {
          "internalType": "string",
          "name": "x",
          "type": "string"
        }
      ],
      "name": "setElementDecode",
      "outputs": [],
      "stateMutability": "nonpayable",
      "type": "function"
    },
    {
      "inputs": [
        {
          "internalType": "uint256",
          "name": "id",
          "type": "uint256"
        },
        {
          "components": [
            {
              "internalType": "bytes32",
              "name": "currentRoundChanges",
              "type": "bytes32"
            },
            {
              "internalType": "bytes32",
              "name": "nextRoundChanges",
              "type": "bytes32"
            },
            {
              "internalType": "uint256",
              "name": "specialCode",
              "type": "uint256"
            },
            {
              "internalType": "uint16",
              "name": "modifierNumberOfNextTurns",
              "type": "uint16"
            },
            {
              "internalType": "bool",
              "name": "isOffense",
              "type": "bool"
            },
            {
              "internalType": "bool",
              "name": "isNormal",
              "type": "bool"
            },
            {
              "internalType": "bool",
              "name": "isStackable",
              "type": "bool"
            },
            {
              "internalType": "string",
              "name": "name",
              "type": "string"
            },
            {
              "internalType": "string",
              "name": "description",
              "type": "string"
            },
            {
              "internalType": "string",
              "name": "ipfsAddr",
              "type": "string"
            },
            {
              "internalType": "string",
              "name": "rarity",
              "type": "string"
            }
          ],
          "internalType": "struct PepemonStats.SupportCardStats",
          "name": "x",
          "type": "tuple"
        }
      ],
      "name": "setSupportCardStats",
      "outputs": [],
      "stateMutability": "nonpayable",
      "type": "function"
    },
    {
      "inputs": [
        {
          "internalType": "uint16",
          "name": "element",
          "type": "uint16"
        },
        {
          "components": [
            {
              "internalType": "uint16",
              "name": "weakness",
              "type": "uint16"
            },
            {
              "internalType": "uint16",
              "name": "resistance",
              "type": "uint16"
            }
          ],
          "internalType": "struct PepemonStats.elementWR",
          "name": "x",
          "type": "tuple"
        }
      ],
      "name": "setWeakResist",
      "outputs": [],
      "stateMutability": "nonpayable",
      "type": "function"
    },
    {
      "inputs": [
        {
          "internalType": "uint256",
          "name": "",
          "type": "uint256"
        }
      ],
      "name": "supportCardStats",
      "outputs": [
        {
          "internalType": "bytes32",
          "name": "currentRoundChanges",
          "type": "bytes32"
        },
        {
          "internalType": "bytes32",
          "name": "nextRoundChanges",
          "type": "bytes32"
        },
        {
          "internalType": "uint256",
          "name": "specialCode",
          "type": "uint256"
        },
        {
          "internalType": "uint16",
          "name": "modifierNumberOfNextTurns",
          "type": "uint16"
        },
        {
          "internalType": "bool",
          "name": "isOffense",
          "type": "bool"
        },
        {
          "internalType": "bool",
          "name": "isNormal",
          "type": "bool"
        },
        {
          "internalType": "bool",
          "name": "isStackable",
          "type": "bool"
        },
        {
          "internalType": "string",
          "name": "name",
          "type": "string"
        },
        {
          "internalType": "string",
          "name": "description",
          "type": "string"
        },
        {
          "internalType": "string",
          "name": "ipfsAddr",
          "type": "string"
        },
        {
          "internalType": "string",
          "name": "rarity",
          "type": "string"
        }
      ],
      "stateMutability": "view",
      "type": "function"
    },
    {
      "inputs": [
        {
          "internalType": "bytes4",
          "name": "_interfaceID",
          "type": "bytes4"
        }
      ],
      "name": "supportsInterface",
      "outputs": [
        {
          "internalType": "bool",
          "name": "",
          "type": "bool"
        }
      ],
      "stateMutability": "pure",
      "type": "function"
    },
    {
      "inputs": [],
      "name": "symbol",
      "outputs": [
        {
          "internalType": "string",
          "name": "",
          "type": "string"
        }
      ],
      "stateMutability": "view",
      "type": "function"
    },
    {
      "inputs": [
        {
          "internalType": "uint256",
          "name": "",
          "type": "uint256"
        }
      ],
      "name": "tokenMaxSupply",
      "outputs": [
        {
          "internalType": "uint256",
          "name": "",
          "type": "uint256"
        }
      ],
      "stateMutability": "view",
      "type": "function"
    },
    {
      "inputs": [
        {
          "internalType": "uint256",
          "name": "",
          "type": "uint256"
        }
      ],
      "name": "tokenSupply",
      "outputs": [
        {
          "internalType": "uint256",
          "name": "",
          "type": "uint256"
        }
      ],
      "stateMutability": "view",
      "type": "function"
    },
    {
      "inputs": [
        {
          "internalType": "uint256",
          "name": "_id",
          "type": "uint256"
        }
      ],
      "name": "totalSupply",
      "outputs": [
        {
          "internalType": "uint256",
          "name": "",
          "type": "uint256"
        }
      ],
      "stateMutability": "view",
      "type": "function"
    },
    {
      "inputs": [
        {
          "internalType": "address",
          "name": "newOwner",
          "type": "address"
        }
      ],
      "name": "transferOwnership",
      "outputs": [],
      "stateMutability": "nonpayable",
      "type": "function"
    },
    {
      "inputs": [
        {
          "internalType": "uint256",
          "name": "_id",
          "type": "uint256"
        }
      ],
      "name": "uri",
      "outputs": [
        {
          "internalType": "string",
          "name": "",
          "type": "string"
        }
      ],
      "stateMutability": "view",
      "type": "function"
    },
    {
      "inputs": [
        {
          "internalType": "uint16",
          "name": "",
          "type": "uint16"
        }
      ],
      "name": "weakResist",
      "outputs": [
        {
          "internalType": "uint16",
          "name": "weakness",
          "type": "uint16"
        },
        {
          "internalType": "uint16",
          "name": "resistance",
          "type": "uint16"
        }
      ],
      "stateMutability": "view",
      "type": "function"
    }
  ],
  "transactionHash": "0xfe03d9a3cdf3f3468abbbfedc44b5771d16a3b756f3341b2349cbe27ccf80ffd",
  "args": [],
  "numDeployments": 1,
  "solcInputHash": "eb2319ddc22cf797eb7bf64758dba0fb",
  "bytecode": "0x608060405260006009553480156200001657600080fd5b506040518060400160405280601481526020017f506570656d6f6e426174746c65466163746f72790000000000000000000000008152506040518060400160405280600a81526020016950455045424154544c4560b01b8152506200008a620000846200080360201b60201c565b62000807565b620000953362000859565b620000a033620008ab565b620000bf73104e989923417d765215b48e03baa4af222f3f6d620008ab565b6040805180820190915260048152634669726560e01b6020808301918252600160005260079052905162000115917fb39221ace053465ec3453ce2b36430bd138b997ecea25c1043da0c366812b8289162000a1f565b50604080518082019091526005815264477261737360d81b602080830191825260026000526007905290516200016d917fb7c774451310d1be4108bc180d1b52823cb0ee0274a6c0081bcaf94f115fb96d9162000a1f565b506040805180820190915260058152642bb0ba32b960d91b60208083019182526003600052600790529051620001c5917f3be6fd20d5acfde5b873b48692cd31f4d3c7e8ee8a813af4696af8859e5ca6c69162000a1f565b506040805180820190915260088152674c69676874696e6760c01b6020808301918252600460005260079052905162000220917fb805995a7ec585a251200611a61d179cfd7fb105e1ab17dc415a7336783786f79162000a1f565b5060408051808201909152600481526315da5b9960e21b6020808301918252600560005260079052905162000277917fbcdda56b5d08466ec462cbbe0adfa57cb0a15fcc8940ef68f702f21b787bc9359162000a1f565b50604080518082019091526006808252652837b4b9b7b760d11b602080840191825260009290925260079091529051620002d3917f55c5b153ab560fcde54a63b18c7f53d75501706907cef8767fbded79ab9997c79162000a1f565b5060408051808201909152600581526411da1bdcdd60da1b602080830191825260076000819052905290516200032b917fb7c49cceb9f85950584035457a41ebbd8cf93b9b612733ad25aa9731ac43aad69162000a1f565b50604080518082019091526005815264466169727960d81b6020808301918252600860005260079052905162000383917f4b1bf46c9f1bd48ff8274d40bad76a6615cb6c59a637d451a3994194b2db86be9162000a1f565b5060408051808201909152600581526408ac2e4e8d60db1b60208083019182526009600052600790529051620003db917ff1f3e9c34634a546b3672c043f73844d83d55591bbe61b8e7e3a72bca1a812bf9162000a1f565b50604080518082019091526007808252662ab735b737bbb760c91b6020808401918252600a60005291909152905162000436917f3ed157e83ab1bb1f6b7b3760b3368106283d4e15d1f1b08e20d06576445a99949162000a1f565b5060408051808201825260038082526002602080840182815260016000818152600880855296517fad67d757c34507f157cacfa2e3153e9f260a2244f30428821be7be64587ac55f8054945161ffff92831663ffffffff1996871617620100009184168202179091558951808b018b528481528087018981528885528a885290517f6add646517a5b0f6793cd5891b7937d28a5b2981a5d88ebc7cd776088fea9041805492519185169288169290921790841683021790558951808b018b526004808252818801958652988452898752517f625b35f5e76f098dd7c3a05b10e2e5e78a4a01228d60c3b143426cdf36d2645580549551918416958716959095179083168202179093558851808a018a52600980825260058288018181529985528a885291517f9321edea6e3be4df59a344b401fab4f888b556fda1f954244cff9204bad624b880549a519185169a88169a909a179084168602179098558951808b018b5260068082528188018a81529285528a885290517f91238f30f286c9a1c6e901c4eda3b214c381c846e3dbe48df95c21488e8e1fdb80549351918516938816939093179084168602179091558951808b018b528981528087018881528285528a885290517f13acf3fc7bed94759963f076d5d3443d88732026bffc8253bdf4a6e65f21ecc5805492519185169288169290921790841686021790558951808b018b5289815280870191825260078085528a885290517f24cd397636bedc6cf9b490d0edd57c769c19b367fb7d5c2344ae1ddc7d21c14480549351918516938816939093179084168602179091558951808b018b528181528087018a81528a85528a885290517fe4c2e8be66af8dd2d277000f4f830a10546f8b14e45cd850b875c98ba0f0d2cd805492519185169288169290921790841686021790558951808b018b5296875286860190815296825287855294517f82c9e868e45873bb5a4f47c09e14a12f6a6314e13aabd611e4374762bb4e8b3680549751918716978516979097179086168302179095558651808801909752848752868301858152600a90955294825294517f586689db7536874b78a6eac0f58556a56a106985743f7c16a699b27bb02f88bd805494519184169490961693909317929091169092021790915582516200078f91600d919085019062000a1f565b508051620007a590600e90602084019062000a1f565b505050620007cc6040518060600160405280602281526020016200604260229139620008fd565b6040518060600160405280602b815260200162006017602b91398051620007fc9160109160209091019062000a1f565b5062000b02565b3390565b600280546001600160a01b038381166001600160a01b0319831681179093556040519116919082907f8be0079c531659141344cd1fd0a4f28419497f9722a3daafe3b4186f6b6457e090600090a35050565b620008748160036200091660201b62001a2b1790919060201c565b6040516001600160a01b038216907f6ae172837ea30b801fbfcdd4108aa1d5bf8ff775444fd70256b44e6bf3dfc3f690600090a250565b620008c68160046200091660201b62001a2b1790919060201c565b6040516001600160a01b038216907f22380c05984257a1cb900161c713dd71d39e74820f1aea43bd3f1bdd2096129990600090a250565b80516200091290600f90602084019062000a1f565b5050565b6200092282826200099a565b15620009755760405162461bcd60e51b815260206004820152601f60248201527f526f6c65733a206163636f756e7420616c72656164792068617320726f6c650060448201526064015b60405180910390fd5b6001600160a01b0316600090815260209190915260409020805460ff19166001179055565b60006001600160a01b038216620009ff5760405162461bcd60e51b815260206004820152602260248201527f526f6c65733a206163636f756e7420697320746865207a65726f206164647265604482015261737360f01b60648201526084016200096c565b506001600160a01b03166000908152602091909152604090205460ff1690565b82805462000a2d9062000ac5565b90600052602060002090601f01602090048101928262000a51576000855562000a9c565b82601f1062000a6c57805160ff191683800117855562000a9c565b8280016001018555821562000a9c579182015b8281111562000a9c57825182559160200191906001019062000a7f565b5062000aaa92915062000aae565b5090565b5b8082111562000aaa576000815560010162000aaf565b600181811c9082168062000ada57607f821691505b6020821081141562000afc57634e487b7160e01b600052602260045260246000fd5b50919050565b6155058062000b126000396000f3fe608060405234801561001057600080fd5b50600436106102935760003560e01c80637e518ec811610167578063aa271e1a116100ce578063e8a3d48511610087578063e8a3d48514610690578063e985e9c514610698578063eaaaada3146106ab578063f242432a146106be578063f2fde38b146106d1578063f5298aca146106e457600080fd5b8063aa271e1a146105fb578063bb5f747b1461060e578063bbe79cb514610621578063bd85b03914610634578063bdf7a8e614610654578063cd53d08e1461066757600080fd5b806394dd28691161012057806394dd28691461059f57806395d89b41146105b2578063983b2d56146105ba57806398650275146105cd578063a11bf921146105d5578063a22cb465146105e857600080fd5b80637e518ec8146104f55780637ed7f93b146105085780637faef6fd14610534578063869f7594146105475780638da5cb5b14610567578063938e3d7b1461058c57600080fd5b80633ef009ef1161020b5780636cc43e05116101c45780636cc43e05146104585780636d6055cd1461046b578063715018a6146104b4578063731133e9146104bc5780637362d9c8146104cf5780637ad67d60146104e257600080fd5b80633ef009ef146103d85780634c5a628c146103eb5780634e1273f4146103f35780634e84f9bb146104135780635b2bd79e1461043d5780636897e9741461044557600080fd5b80631390053c1161025d5780631390053c1461034a5780632693ebf21461036a5780632eb2c2d61461038a5780633092afd51461039f5780633debfaca146103b25780633df39242146103c557600080fd5b80624221f014610298578062fdd58e146102cb57806301ffc9a7146102ff57806306fdde03146103225780630e89341c14610337575b600080fd5b6102b86102a6366004613fad565b600c6020526000908152604090205481565b6040519081526020015b60405180910390f35b6102b86102d9366004613e62565b6001600160a01b0391909116600090815260208181526040808320938352929052205490565b61031261030d366004613fc6565b6106f7565b60405190151581526020016102c2565b61032a61073d565b6040516102c29190614c25565b61032a610345366004613fad565b6107cb565b61035d610358366004613fad565b610855565b6040516102c29190614b10565b6102b8610378366004613fad565b600b6020526000908152604090205481565b61039d610398366004613d1e565b6108b7565b005b61039d6103ad366004613cd0565b6109c6565b6102b86103c0366004614112565b6109fc565b6102b86103d3366004613f82565b610ab2565b61039d6103e63660046142b6565b610b0e565b61039d610b70565b610406610401366004613f1f565b610b7b565b6040516102c29190614b45565b610426610421366004613fad565b610cd5565b6040516102c29b9a99989796959493929190614b86565b61032a610f5e565b61039d610453366004613cd0565b610f6b565b61039d6104663660046141c1565b610f9e565b610499610479366004614150565b60086020526000908152604090205461ffff808216916201000090041682565b6040805161ffff9384168152929091166020830152016102c2565b61039d610fe2565b61039d6104ca366004613ebf565b611016565b61039d6104dd366004613cd0565b611047565b61039d6104f036600461416d565b61108b565b61039d610503366004614023565b6110ce565b61051b610516366004613fad565b6110fc565b6040516102c29d9c9b9a99989796959493929190614d1b565b61039d61054236600461427a565b6113a3565b6102b8610555366004613fad565b6000908152600c602052604090205490565b6002546001600160a01b03165b6040516001600160a01b0390911681526020016102c2565b61039d61059a366004614023565b6113e2565b61039d6105ad366004613fad565b61141e565b61032a611460565b61039d6105c8366004613cd0565b61146d565b61039d6114b1565b61039d6105e336600461423e565b6114ba565b61039d6105f6366004613e2b565b6114f9565b610312610609366004613cd0565b611565565b61031261061c366004613cd0565b611572565b6102b861062f36600461406b565b61157f565b6102b8610642366004613fad565b6000908152600b602052604090205490565b61039d610662366004614202565b611629565b610574610675366004613fad565b600a602052600090815260409020546001600160a01b031681565b61032a61171b565b6103126106a6366004613ceb565b6117ad565b61032a6106b9366004614150565b6117db565b61039d6106cc366004613dc7565b6117f4565b61039d6106df366004613cd0565b6118f2565b61039d6106f2366004613e8c565b61198a565b60006001600160e01b031982166301ffc9a760e01b148061072857506001600160e01b03198216636cdb3d1360e11b145b1561073557506001919050565b506000919050565b600d805461074a9061500a565b80601f01602080910402602001604051908101604052809291908181526020018280546107769061500a565b80156107c35780601f10610798576101008083540402835291602001916107c3565b820191906000526020600020905b8154815290600101906020018083116107a657829003601f168201915b505050505081565b6000818152600a60205260409020546060906001600160a01b03166108465760405162461bcd60e51b815260206004820152602660248201527f455243313135355472616461626c65237572693a204e4f4e4558495354454e546044820152652faa27a5a2a760d11b60648201526084015b60405180910390fd5b61084f82611aa7565b92915050565b61085d6139c2565b6108656139c2565b60005b600e8110156108b05761ffff84168282600e81106108885761088861509a565b600192830b90920b6020909202015260109390931c92806108a88161503f565b915050610868565b5092915050565b336001600160a01b03861614806108d357506108d385336117ad565b6109375760405162461bcd60e51b815260206004820152602f60248201527f45524331313535237361666542617463685472616e7366657246726f6d3a204960448201526e272b20a624a22fa7a822a920aa27a960891b606482015260840161083d565b6001600160a01b0384166109a65760405162461bcd60e51b815260206004820152603060248201527f45524331313535237361666542617463685472616e7366657246726f6d3a204960448201526f13959053125117d49150d2541251539560821b606482015260840161083d565b6109b285858585611ae0565b6109bf8585858585611d58565b5050505050565b6002546001600160a01b031633146109f05760405162461bcd60e51b815260040161083d90614c88565b6109f981611e81565b50565b6000610a0733611572565b610a235760405162461bcd60e51b815260040161083d90614cbd565b6000610a9a888888888080601f01602080910402602001604051908101604052809392919081815260200183838082843760009201919091525050604080516020601f8c018190048102820181019092528a815292508a9150899081908401838280828437600092019190915250611ec392505050565b9050610aa6818a6113a3565b98975050505050505050565b60008060005b600e8110156108b057610acc816010614ea3565b8482600e8110610ade57610ade61509a565b602002016020810190610af19190614000565b61ffff16901b919091179080610b068161503f565b915050610ab8565b610b1733611565565b610b335760405162461bcd60e51b815260040161083d90614c38565b825b828111610b6a57610b588282600160405180602001604052806000815250611fd7565b80610b628161503f565b915050610b35565b50505050565b610b793361208a565b565b60608151835114610be35760405162461bcd60e51b815260206004820152602c60248201527f455243313135352362616c616e63654f6642617463683a20494e56414c49445f60448201526b082a4a482b2be988a9c8ea8960a31b606482015260840161083d565b600083516001600160401b03811115610bfe57610bfe6150b0565b604051908082528060200260200182016040528015610c27578160200160208202803683370190505b50905060005b8451811015610ccd57600080868381518110610c4b57610c4b61509a565b60200260200101516001600160a01b03166001600160a01b031681526020019081526020016000206000858381518110610c8757610c8761509a565b6020026020010151815260200190815260200160002054828281518110610cb057610cb061509a565b602090810291909101015280610cc58161503f565b915050610c2d565b509392505050565b6006602052600090815260409020805460018201546002830154600384015460048501805494959394929361ffff83169360ff62010000850481169463010000008104821694600160201b9091049091169291610d319061500a565b80601f0160208091040260200160405190810160405280929190818152602001828054610d5d9061500a565b8015610daa5780601f10610d7f57610100808354040283529160200191610daa565b820191906000526020600020905b815481529060010190602001808311610d8d57829003601f168201915b505050505090806005018054610dbf9061500a565b80601f0160208091040260200160405190810160405280929190818152602001828054610deb9061500a565b8015610e385780601f10610e0d57610100808354040283529160200191610e38565b820191906000526020600020905b815481529060010190602001808311610e1b57829003601f168201915b505050505090806006018054610e4d9061500a565b80601f0160208091040260200160405190810160405280929190818152602001828054610e799061500a565b8015610ec65780601f10610e9b57610100808354040283529160200191610ec6565b820191906000526020600020905b815481529060010190602001808311610ea957829003601f168201915b505050505090806007018054610edb9061500a565b80601f0160208091040260200160405190810160405280929190818152602001828054610f079061500a565b8015610f545780601f10610f2957610100808354040283529160200191610f54565b820191906000526020600020905b815481529060010190602001808311610f3757829003601f168201915b505050505090508b565b600f805461074a9061500a565b6002546001600160a01b03163314610f955760405162461bcd60e51b815260040161083d90614c88565b6109f98161208a565b610fa733611572565b610fc35760405162461bcd60e51b815260040161083d90614cbd565b61ffff821660009081526008602052604090208190610b6a8282615416565b6002546001600160a01b0316331461100c5760405162461bcd60e51b815260040161083d90614c88565b610b7960006120cc565b61101f33611565565b61103b5760405162461bcd60e51b815260040161083d90614c38565b610b6a84848484611fd7565b61105033611572565b61106c5760405162461bcd60e51b815260040161083d90614cbd565b6001600160a01b03811630141561108257600080fd5b6109f98161211e565b61109433611572565b6110b05760405162461bcd60e51b815260040161083d90614cbd565b61ffff83166000908152600760205260409020610b6a9083836139e1565b6110d733611572565b6110f35760405162461bcd60e51b815260040161083d90614cbd565b6109f981612160565b6005602052600090815260409020805460018201805461ffff80841694620100008504821694600160201b8104831694600160301b8204841694600160401b8304851694600160501b8404811694600160601b8504821694600160701b8104831694600160801b909104909216929091906111769061500a565b80601f01602080910402602001604051908101604052809291908181526020018280546111a29061500a565b80156111ef5780601f106111c4576101008083540402835291602001916111ef565b820191906000526020600020905b8154815290600101906020018083116111d257829003601f168201915b5050505050908060020180546112049061500a565b80601f01602080910402602001604051908101604052809291908181526020018280546112309061500a565b801561127d5780601f106112525761010080835404028352916020019161127d565b820191906000526020600020905b81548152906001019060200180831161126057829003601f168201915b5050505050908060030180546112929061500a565b80601f01602080910402602001604051908101604052809291908181526020018280546112be9061500a565b801561130b5780601f106112e05761010080835404028352916020019161130b565b820191906000526020600020905b8154815290600101906020018083116112ee57829003601f168201915b5050505050908060040180546113209061500a565b80601f016020809104026020016040519081016040528092919081815260200182805461134c9061500a565b80156113995780601f1061136e57610100808354040283529160200191611399565b820191906000526020600020905b81548152906001019060200180831161137c57829003601f168201915b505050505090508d565b6113ac33611572565b6113c85760405162461bcd60e51b815260040161083d90614cbd565b60008281526006602052604090208190610b6a82826152ee565b6113eb33611572565b6114075760405162461bcd60e51b815260040161083d90614cbd565b805161141a906010906020840190613a65565b5050565b61142733611572565b6114435760405162461bcd60e51b815260040161083d90614cbd565b6000908152600b6020908152604080832054600c90925290912055565b600e805461074a9061500a565b61147633611565565b6114925760405162461bcd60e51b815260040161083d90614c38565b6001600160a01b0381163014156114a857600080fd5b6109f981612173565b610b7933611e81565b6114c333611572565b6114df5760405162461bcd60e51b815260040161083d90614cbd565b60008281526005602052604090208190610b6a82826150e0565b3360008181526001602090815260408083206001600160a01b03871680855290835292819020805460ff191686151590811790915590519081529192917f17307eab39ab6107e8899845ad3d59bd9653f200f220920489ca2b5937696c31910160405180910390a35050565b600061084f6003836121b5565b600061084f6004836121b5565b600061158a33611572565b6115a65760405162461bcd60e51b815260040161083d90614cbd565b600061161d888888888080601f01602080910402602001604051908101604052809392919081815260200183838082843760009201919091525050604080516020601f8c018190048102820181019092528a815292508a9150899081908401838280828437600092019190915250611ec392505050565b9050610aa6818a6114ba565b61163233611565565b61164e5760405162461bcd60e51b815260040161083d90614c38565b80516000838152600b6020908152604080832054600c909252909120546116759190614ec2565b10156116c35760405162461bcd60e51b815260206004820152601a60248201527f43616e74206d696e742061626f7665206d617820737570706c79000000000000604482015260640161083d565b60005b8151811015611716576117048282815181106116e4576116e461509a565b602002602001015184600160405180602001604052806000815250611016565b8061170e8161503f565b9150506116c6565b505050565b60606010805461172a9061500a565b80601f01602080910402602001604051908101604052809291908181526020018280546117569061500a565b80156117a35780601f10611778576101008083540402835291602001916117a3565b820191906000526020600020905b81548152906001019060200180831161178657829003601f168201915b5050505050905090565b6001600160a01b03918216600090815260016020908152604080832093909416825291909152205460ff1690565b6007602052600090815260409020805461074a9061500a565b336001600160a01b0386161480611810575061181085336117ad565b61186f5760405162461bcd60e51b815260206004820152602a60248201527f4552433131353523736166655472616e7366657246726f6d3a20494e56414c49604482015269222fa7a822a920aa27a960b11b606482015260840161083d565b6001600160a01b0384166118d95760405162461bcd60e51b815260206004820152602b60248201527f4552433131353523736166655472616e7366657246726f6d3a20494e56414c4960448201526a1117d49150d2541251539560aa1b606482015260840161083d565b6118e585858585612238565b6109bf8585858585612314565b6002546001600160a01b0316331461191c5760405162461bcd60e51b815260040161083d90614c88565b6001600160a01b0381166119815760405162461bcd60e51b815260206004820152602660248201527f4f776e61626c653a206e6577206f776e657220697320746865207a65726f206160448201526564647265737360d01b606482015260840161083d565b6109f9816120cc565b61199333611565565b6119af5760405162461bcd60e51b815260040161083d90614c38565b6001600160a01b038316600090815260208181526040808320858452909152902054811115611a205760405162461bcd60e51b815260206004820181905260248201527f43616e6e6f74206275726e206d6f7265207468616e2061646472657320686173604482015260640161083d565b611716838383612435565b611a3582826121b5565b15611a825760405162461bcd60e51b815260206004820152601f60248201527f526f6c65733a206163636f756e7420616c72656164792068617320726f6c6500604482015260640161083d565b6001600160a01b0316600090815260209190915260409020805460ff19166001179055565b6060611aba611ab5836124c6565b61252b565b604051602001611aca9190614a34565b6040516020818303038152906040529050919050565b8051825114611b4f5760405162461bcd60e51b815260206004820152603560248201527f45524331313535235f7361666542617463685472616e7366657246726f6d3a206044820152740929cac82989288be82a4a482b2a6be988a9c8ea89605b1b606482015260840161083d565b815160005b81811015611cf957828181518110611b6e57611b6e61509a565b6020026020010151600080886001600160a01b03166001600160a01b031681526020019081526020016000206000868481518110611bae57611bae61509a565b6020026020010151815260200190815260200160002054611bcf9190614ec2565b600080886001600160a01b03166001600160a01b031681526020019081526020016000206000868481518110611c0757611c0761509a565b6020026020010151815260200190815260200160002081905550828181518110611c3357611c3361509a565b6020026020010151600080876001600160a01b03166001600160a01b031681526020019081526020016000206000868481518110611c7357611c7361509a565b6020026020010151815260200190815260200160002054611c949190614e77565b600080876001600160a01b03166001600160a01b031681526020019081526020016000206000868481518110611ccc57611ccc61509a565b60200260200101518152602001908152602001600020819055508080611cf19061503f565b915050611b54565b50836001600160a01b0316856001600160a01b0316336001600160a01b03167f4a39dc06d4c0dbc64b70af90fd698a233a518aa5d07e595d983b8c0526c8f7fb8686604051611d49929190614b58565b60405180910390a45050505050565b6001600160a01b0384163b156109bf5760405163bc197c8160e01b81526000906001600160a01b0386169063bc197c8190611d9f9033908a90899089908990600401614a79565b602060405180830381600087803b158015611db957600080fd5b505af1158015611dcd573d6000803e3d6000fd5b505050506040513d601f19601f82011682018060405250810190611df19190613fe3565b90506001600160e01b0319811663bc197c8160e01b14611e795760405162461bcd60e51b815260206004820152603f60248201527f45524331313535235f63616c6c6f6e455243313135354261746368526563656960448201527f7665643a20494e56414c49445f4f4e5f524543454956455f4d45535341474500606482015260840161083d565b505050505050565b611e8c600382612690565b6040516001600160a01b038216907fe94479a9f7e1952cc78f2d6baab678adc1b772d936c6583def489e524cb6669290600090a250565b600084841115611f2b5760405162461bcd60e51b815260206004820152602d60248201527f496e697469616c20737570706c792063616e6e6f74206265206d6f726520746860448201526c616e206d617820737570706c7960981b606482015260840161083d565b6000611f35612712565b9050611f3f612728565b6000818152600a6020526040902080546001600160a01b03191633179055835115611f9d57807f6bb7ff708619ba0610cba295a58592e0451dee2622938c8755667688daf3529b85604051611f949190614c25565b60405180910390a25b8415611faf57611faf3382878661273f565b6000818152600b60209081526040808320889055600c90915290208690559050949350505050565b6000838152600b6020526040812054849190611ff4908590614e77565b6000838152600c602052604090205490915081111561204a5760405162461bcd60e51b815260206004820152601260248201527113585e081cdd5c1c1b1e481c995858da195960721b604482015260640161083d565b6120568686868661273f565b6000858152600b6020526040902054612070908590614e77565b6000958652600b6020526040909520949094555050505050565b612095600482612690565b6040516001600160a01b038216907f0a8eb35e5ca14b3d6f28e4abf2f128dbab231a58b56e89beb5d636115001e16590600090a250565b600280546001600160a01b038381166001600160a01b0319831681179093556040519116919082907f8be0079c531659141344cd1fd0a4f28419497f9722a3daafe3b4186f6b6457e090600090a35050565b612129600482611a2b565b6040516001600160a01b038216907f22380c05984257a1cb900161c713dd71d39e74820f1aea43bd3f1bdd2096129990600090a250565b805161141a90600f906020840190613a65565b61217e600382611a2b565b6040516001600160a01b038216907f6ae172837ea30b801fbfcdd4108aa1d5bf8ff775444fd70256b44e6bf3dfc3f690600090a250565b60006001600160a01b0382166122185760405162461bcd60e51b815260206004820152602260248201527f526f6c65733a206163636f756e7420697320746865207a65726f206164647265604482015261737360f01b606482015260840161083d565b506001600160a01b03166000908152602091909152604090205460ff1690565b6001600160a01b038416600090815260208181526040808320858452909152902054612265908290614ec2565b6001600160a01b03808616600090815260208181526040808320878452825280832094909455918616815280825282812085825290915220546122a9908290614e77565b6001600160a01b0384811660008181526020818152604080832088845282529182902094909455805186815293840185905290929187169133917fc3d58168c5ae7397731d063d5bbf3d657854427343f4c083240f7aacaa2d0f62910160405180910390a450505050565b6001600160a01b0384163b156109bf5760405163f23a6e6160e01b81526000906001600160a01b0386169063f23a6e619061235b9033908a90899089908990600401614acb565b602060405180830381600087803b15801561237557600080fd5b505af1158015612389573d6000803e3d6000fd5b505050506040513d601f19601f820116820180604052508101906123ad9190613fe3565b90506001600160e01b0319811663f23a6e6160e01b14611e795760405162461bcd60e51b815260206004820152603a60248201527f45524331313535235f63616c6c6f6e4552433131353552656365697665643a2060448201527f494e56414c49445f4f4e5f524543454956455f4d455353414745000000000000606482015260840161083d565b6001600160a01b038316600090815260208181526040808320858452909152902054612462908290614ec2565b6001600160a01b0384166000818152602081815260408083208784528252808320949094558351868152908101859052909233917fc3d58168c5ae7397731d063d5bbf3d657854427343f4c083240f7aacaa2d0f62910160405180910390a4505050565b60008181526005602052604090205460609062010000900461ffff166124ef5761084f826127db565b6124f882612af6565b61250183612e55565b61250a846131a0565b612513856134d7565b604051602001611aca9493929190614452565b919050565b80516060908061254b575050604080516020810190915260008152919050565b6000600361255a836002614e77565b6125649190614e8f565b61256f906004614ea3565b9050600061257e826020614e77565b6001600160401b03811115612595576125956150b0565b6040519080825280601f01601f1916602001820160405280156125bf576020820181803683370190505b5090506000604051806060016040528060408152602001615490604091399050600181016020830160005b8681101561264b576003818a01810151603f601282901c8116860151600c83901c8216870151600684901c831688015192909316870151600891821b60ff94851601821b92841692909201901b91160160e01b8352600490920191016125ea565b506003860660018114612665576002811461267657612682565b613d3d60f01b600119830152612682565b603d60f81b6000198301525b505050918152949350505050565b61269a82826121b5565b6126f05760405162461bcd60e51b815260206004820152602160248201527f526f6c65733a206163636f756e7420646f6573206e6f74206861766520726f6c6044820152606560f81b606482015260840161083d565b6001600160a01b0316600090815260209190915260409020805460ff19169055565b600060095460016127239190614e77565b905090565b600980549060006127388361503f565b9190505550565b6001600160a01b03841660009081526020818152604080832086845290915290205461276c908390614e77565b6001600160a01b03851660008181526020818152604080832088845282528083209490945583518781529081018690529192909133917fc3d58168c5ae7397731d063d5bbf3d657854427343f4c083240f7aacaa2d0f62910160405180910390a4610b6a600085858585612314565b600081815260066020908152604080832081516101608101835281548152600182015493810193909352600281015491830191909152600381015461ffff811660608481019190915260ff620100008304811615156080860152630100000083048116151560a0860152600160201b909204909116151560c0840152600482018054919493929160e0840191906128719061500a565b80601f016020809104026020016040519081016040528092919081815260200182805461289d9061500a565b80156128ea5780601f106128bf576101008083540402835291602001916128ea565b820191906000526020600020905b8154815290600101906020018083116128cd57829003601f168201915b505050505081526020016005820180546129039061500a565b80601f016020809104026020016040519081016040528092919081815260200182805461292f9061500a565b801561297c5780601f106129515761010080835404028352916020019161297c565b820191906000526020600020905b81548152906001019060200180831161295f57829003601f168201915b505050505081526020016006820180546129959061500a565b80601f01602080910402602001604051908101604052809291908181526020018280546129c19061500a565b8015612a0e5780601f106129e357610100808354040283529160200191612a0e565b820191906000526020600020905b8154815290600101906020018083116129f157829003601f168201915b50505050508152602001600782018054612a279061500a565b80601f0160208091040260200160405190810160405280929190818152602001828054612a539061500a565b8015612aa05780601f10612a7557610100808354040283529160200191612aa0565b820191906000526020600020905b815481529060010190602001808311612a8357829003601f168201915b50505050508152505090508061012001518160e00151826101000151836101400151612acb8561380e565b604051602001612adf9594939291906146e6565b604051602081830303815290604052915050919050565b600081815260056020908152604080832081516101a081018352815461ffff8082168352620100008204811695830195909552600160201b8104851693820193909352600160301b83048416606082810191909152600160401b840485166080830152600160501b8404851660a0830152600160601b8404851660c0830152600160701b8404851660e0830152600160801b9093049093166101008401526001810180549294939261012084019190612bae9061500a565b80601f0160208091040260200160405190810160405280929190818152602001828054612bda9061500a565b8015612c275780601f10612bfc57610100808354040283529160200191612c27565b820191906000526020600020905b815481529060010190602001808311612c0a57829003601f168201915b50505050508152602001600282018054612c409061500a565b80601f0160208091040260200160405190810160405280929190818152602001828054612c6c9061500a565b8015612cb95780601f10612c8e57610100808354040283529160200191612cb9565b820191906000526020600020905b815481529060010190602001808311612c9c57829003601f168201915b50505050508152602001600382018054612cd29061500a565b80601f0160208091040260200160405190810160405280929190818152602001828054612cfe9061500a565b8015612d4b5780601f10612d2057610100808354040283529160200191612d4b565b820191906000526020600020905b815481529060010190602001808311612d2e57829003601f168201915b50505050508152602001600482018054612d649061500a565b80601f0160208091040260200160405190810160405280929190818152602001828054612d909061500a565b8015612ddd5780601f10612db257610100808354040283529160200191612ddd565b820191906000526020600020905b815481529060010190602001808311612dc057829003601f168201915b5050505050815250509050600081600001519050816101600151826101200151836101400151612e1585610100015161ffff166138bd565b61ffff85166000908152600760209081526040918290209151612e3d96959493929101614569565b60405160208183030381529060405292505050919050565b600081815260056020908152604080832081516101a081018352815461ffff8082168352620100008204811695830195909552600160201b8104851693820193909352600160301b83048416606082810191909152600160401b840485166080830152600160501b8404851660a0830152600160601b8404851660c0830152600160701b8404851660e0830152600160801b9093049093166101008401526001810180549294939261012084019190612f0d9061500a565b80601f0160208091040260200160405190810160405280929190818152602001828054612f399061500a565b8015612f865780601f10612f5b57610100808354040283529160200191612f86565b820191906000526020600020905b815481529060010190602001808311612f6957829003601f168201915b50505050508152602001600282018054612f9f9061500a565b80601f0160208091040260200160405190810160405280929190818152602001828054612fcb9061500a565b80156130185780601f10612fed57610100808354040283529160200191613018565b820191906000526020600020905b815481529060010190602001808311612ffb57829003601f168201915b505050505081526020016003820180546130319061500a565b80601f016020809104026020016040519081016040528092919081815260200182805461305d9061500a565b80156130aa5780601f1061307f576101008083540402835291602001916130aa565b820191906000526020600020905b81548152906001019060200180831161308d57829003601f168201915b505050505081526020016004820180546130c39061500a565b80601f01602080910402602001604051908101604052809291908181526020018280546130ef9061500a565b801561313c5780601f106131115761010080835404028352916020019161313c565b820191906000526020600020905b81548152906001019060200180831161311f57829003601f168201915b505050919092525050815161ffff8082166000908152600860209081526040808320548085168452600783528184206201000090910485168452922090860151959650929490935061318e91166138bd565b604051602001612e3d939291906144d8565b600081815260056020908152604080832081516101a081018352815461ffff8082168352620100008204811695830195909552600160201b8104851693820193909352600160301b83048416606082810191909152600160401b840485166080830152600160501b8404851660a0830152600160601b8404851660c0830152600160701b8404851660e0830152600160801b90930490931661010084015260018101805492949392610120840191906132589061500a565b80601f01602080910402602001604051908101604052809291908181526020018280546132849061500a565b80156132d15780601f106132a6576101008083540402835291602001916132d1565b820191906000526020600020905b8154815290600101906020018083116132b457829003601f168201915b505050505081526020016002820180546132ea9061500a565b80601f01602080910402602001604051908101604052809291908181526020018280546133169061500a565b80156133635780601f1061333857610100808354040283529160200191613363565b820191906000526020600020905b81548152906001019060200180831161334657829003601f168201915b5050505050815260200160038201805461337c9061500a565b80601f01602080910402602001604051908101604052809291908181526020018280546133a89061500a565b80156133f55780601f106133ca576101008083540402835291602001916133f5565b820191906000526020600020905b8154815290600101906020018083116133d857829003601f168201915b5050505050815260200160048201805461340e9061500a565b80601f016020809104026020016040519081016040528092919081815260200182805461343a9061500a565b80156134875780601f1061345c57610100808354040283529160200191613487565b820191906000526020600020905b81548152906001019060200180831161346a57829003601f168201915b50505050508152505090506134a3816040015161ffff166138bd565b6134b4826060015161ffff166138bd565b6134c5836080015161ffff166138bd565b604051602001612adf93929190614958565b600081815260056020908152604080832081516101a081018352815461ffff8082168352620100008204811695830195909552600160201b8104851693820193909352600160301b83048416606082810191909152600160401b840485166080830152600160501b8404851660a0830152600160601b8404851660c0830152600160701b8404851660e0830152600160801b909304909316610100840152600181018054929493926101208401919061358f9061500a565b80601f01602080910402602001604051908101604052809291908181526020018280546135bb9061500a565b80156136085780601f106135dd57610100808354040283529160200191613608565b820191906000526020600020905b8154815290600101906020018083116135eb57829003601f168201915b505050505081526020016002820180546136219061500a565b80601f016020809104026020016040519081016040528092919081815260200182805461364d9061500a565b801561369a5780601f1061366f5761010080835404028352916020019161369a565b820191906000526020600020905b81548152906001019060200180831161367d57829003601f168201915b505050505081526020016003820180546136b39061500a565b80601f01602080910402602001604051908101604052809291908181526020018280546136df9061500a565b801561372c5780601f106137015761010080835404028352916020019161372c565b820191906000526020600020905b81548152906001019060200180831161370f57829003601f168201915b505050505081526020016004820180546137459061500a565b80601f01602080910402602001604051908101604052809291908181526020018280546137719061500a565b80156137be5780601f10613793576101008083540402835291602001916137be565b820191906000526020600020905b8154815290600101906020018083116137a157829003601f168201915b50505050508152505090506137da8160a0015161ffff166138bd565b6137eb8260c0015161ffff166138bd565b6137fc8360e0015161ffff166138bd565b604051602001612adf93929190614859565b604080518082018252600881526702232b332b739b2960c51b60208083019190915282518084019093526009835268285370656369616c2960b81b908301526080830151606092901561387f5760405180604001604052806008815260200167027b33332b739b2960c51b81525091505b8360a00151156138aa5750604080518082019091526008815267284e6f726d616c2960c01b60208201525b8181604051602001612e3d9291906144a9565b6060816138e15750506040805180820190915260018152600360fc1b602082015290565b8160005b811561390b57806138f58161503f565b91506139049050600a83614e8f565b91506138e5565b6000816001600160401b03811115613925576139256150b0565b6040519080825280601f01601f19166020018201604052801561394f576020820181803683370190505b5090505b84156139ba57613964600183614ec2565b9150613971600a8661505a565b61397c906030614e77565b60f81b8183815181106139915761399161509a565b60200101906001600160f81b031916908160001a9053506139b3600a86614e8f565b9450613953565b949350505050565b604051806101c00160405280600e906020820280368337509192915050565b8280546139ed9061500a565b90600052602060002090601f016020900481019282613a0f5760008555613a55565b82601f10613a285782800160ff19823516178555613a55565b82800160010185558215613a55579182015b82811115613a55578235825591602001919060010190613a3a565b50613a61929150613ad9565b5090565b828054613a719061500a565b90600052602060002090601f016020900481019282613a935760008555613a55565b82601f10613aac57805160ff1916838001178555613a55565b82800160010185558215613a55579182015b82811115613a55578251825591602001919060010190613abe565b5b80821115613a615760008155600101613ada565b60006001600160401b03831115613b0757613b076150b0565b613b1a601f8401601f1916602001614e24565b9050828152838383011115613b2e57600080fd5b828260208301376000602084830101529392505050565b80356001600160a01b038116811461252657600080fd5b600082601f830112613b6d57600080fd5b81356020613b82613b7d83614e54565b614e24565b80838252828201915082860187848660051b8901011115613ba257600080fd5b60005b85811015613bc857613bb682613b45565b84529284019290840190600101613ba5565b5090979650505050505050565b600082601f830112613be657600080fd5b81356020613bf6613b7d83614e54565b80838252828201915082860187848660051b8901011115613c1657600080fd5b60005b85811015613bc857813584529284019290840190600101613c19565b60008083601f840112613c4757600080fd5b5081356001600160401b03811115613c5e57600080fd5b602083019150836020828501011115613c7657600080fd5b9250929050565b600082601f830112613c8e57600080fd5b613c9d83833560208501613aee565b9392505050565b60006101a08284031215613cb757600080fd5b50919050565b60006101608284031215613cb757600080fd5b600060208284031215613ce257600080fd5b613c9d82613b45565b60008060408385031215613cfe57600080fd5b613d0783613b45565b9150613d1560208401613b45565b90509250929050565b600080600080600060a08688031215613d3657600080fd5b613d3f86613b45565b9450613d4d60208701613b45565b935060408601356001600160401b0380821115613d6957600080fd5b613d7589838a01613bd5565b94506060880135915080821115613d8b57600080fd5b613d9789838a01613bd5565b93506080880135915080821115613dad57600080fd5b50613dba88828901613c7d565b9150509295509295909350565b600080600080600060a08688031215613ddf57600080fd5b613de886613b45565b9450613df660208701613b45565b9350604086013592506060860135915060808601356001600160401b03811115613e1f57600080fd5b613dba88828901613c7d565b60008060408385031215613e3e57600080fd5b613e4783613b45565b91506020830135613e578161545b565b809150509250929050565b60008060408385031215613e7557600080fd5b613e7e83613b45565b946020939093013593505050565b600080600060608486031215613ea157600080fd5b613eaa84613b45565b95602085013595506040909401359392505050565b60008060008060808587031215613ed557600080fd5b613ede85613b45565b9350602085013592506040850135915060608501356001600160401b03811115613f0757600080fd5b613f1387828801613c7d565b91505092959194509250565b60008060408385031215613f3257600080fd5b82356001600160401b0380821115613f4957600080fd5b613f5586838701613b5c565b93506020850135915080821115613f6b57600080fd5b50613f7885828601613bd5565b9150509250929050565b60006101c0808385031215613f9657600080fd5b838184011115613fa557600080fd5b509092915050565b600060208284031215613fbf57600080fd5b5035919050565b600060208284031215613fd857600080fd5b8135613c9d81615469565b600060208284031215613ff557600080fd5b8151613c9d81615469565b60006020828403121561401257600080fd5b81358060010b8114613c9d57600080fd5b60006020828403121561403557600080fd5b81356001600160401b0381111561404b57600080fd5b8201601f8101841361405c57600080fd5b6139ba84823560208401613aee565b600080600080600080600060a0888a03121561408657600080fd5b87356001600160401b038082111561409d57600080fd5b6140a98b838c01613ca4565b985060208a0135975060408a0135965060608a01359150808211156140cd57600080fd5b6140d98b838c01613c35565b909650945060808a01359150808211156140f257600080fd5b506140ff8a828b01613c35565b989b979a50959850939692959293505050565b600080600080600080600060a0888a03121561412d57600080fd5b87356001600160401b038082111561414457600080fd5b6140a98b838c01613cbd565b60006020828403121561416257600080fd5b8135613c9d8161547f565b60008060006040848603121561418257600080fd5b833561418d8161547f565b925060208401356001600160401b038111156141a857600080fd5b6141b486828701613c35565b9497909650939450505050565b60008082840360608112156141d557600080fd5b83356141e08161547f565b92506040601f19820112156141f457600080fd5b506020830190509250929050565b6000806040838503121561421557600080fd5b8235915060208301356001600160401b0381111561423257600080fd5b613f7885828601613b5c565b6000806040838503121561425157600080fd5b8235915060208301356001600160401b0381111561426e57600080fd5b613f7885828601613ca4565b6000806040838503121561428d57600080fd5b8235915060208301356001600160401b038111156142aa57600080fd5b613f7885828601613cbd565b6000806000606084860312156142cb57600080fd5b83359250602084013591506142e260408501613b45565b90509250925092565b600081518084526020808501945080840160005b8381101561431b578151875295820195908201906001016142ff565b509495945050505050565b6000815180845261433e816020860160208601614fde565b601f01601f19169290920160200192915050565b60008151614364818560208601614fde565b9290920192915050565b6000815461437b8161500a565b6001828116801561439357600181146143a4576143d3565b60ff198416875282870194506143d3565b8560005260208060002060005b858110156143ca5781548a8201529084019082016143b1565b50505082870194505b5050505092915050565b7f7b22706f6f6c223a207b226e616d65223a2022726f6f74222c22706f696e747381527f223a20317d2c2265787465726e616c5f75726c223a202268747470733a2f2f7060208201527f6570656d6f6e2e776f726c642f222c22696d616765223a202200000000000000604082015260590190565b60008551614464818460208a01614fde565b855190830190614478818360208a01614fde565b855191019061448b818360208901614fde565b845191019061449e818360208801614fde565b019695505050505050565b600083516144bb818460208801614fde565b8351908301906144cf818360208801614fde565b01949350505050565b60006144e4828661436e565b7f227d2c7b2274726169745f74797065223a22526573697374616e6365222c227681526630b63ab2911d1160c91b6020820152614524602782018661436e565b90507f227d2c7b2274726169745f74797065223a224850222c2276616c7565223a00008152835161455c81601e840160208801614fde565b01601e0195945050505050565b6000614574826143dd565b8751614584818360208c01614fde565b6a1116113730b6b2911d101160a91b910190815286516145ab81600b840160208b01614fde565b711116113232b9b1b934b83a34b7b7111d101160711b600b929091019182015285516145de81601d840160208a01614fde565b7f222c2261747472696275746573223a5b7b2274726169745f74797065223a2253601d92909101918201527f6574222c2276616c7565223a22506570656d6f6e20426174746c65227d2c7b22603d8201527f74726169745f74797065223a224c6576656c222c2276616c7565223a00000000605d8201528451614668816079840160208901614fde565b7f7d2c7b2274726169745f74797065223a22456c656d656e74222c2276616c75656079929091019182015262111d1160e91b6099820152610aa66146af609c83018661436e565b7f227d2c7b2274726169745f74797065223a225765616b6e657373222c2276616c8152643ab2911d1160d91b602082015260250190565b60006146f1826143dd565b8751614701818360208c01614fde565b6a1116113730b6b2911d101160a91b9101908152865161472881600b840160208b01614fde565b711116113232b9b1b934b83a34b7b7111d101160711b600b9290910191820152855161475b81601d840160208a01614fde565b7f222c2261747472696275746573223a205b7b2274726169745f74797065223a20601d92909101918201527f22536574222c2276616c7565223a2022506570656d6f6e20537570706f727422603d8201527f7d2c7b2274726169745f74797065223a2022526172697479222c2276616c7565605d82015263111d101160e11b607d82015284516147f2816081840160208901614fde565b61484c61483c6148366081848601017f227d2c7b2274726169745f74797065223a202254797065222c2276616c7565228152621d101160e91b602082015260230190565b87614352565b63227d5d7d60e01b815260040190565b9998505050505050505050565b7f7d2c7b2274726169745f74797065223a2241747461636b222c2276616c7565228152601d60f91b60208201526000845161489b816021850160208901614fde565b7f7d2c7b2274726169745f74797065223a225370656369616c2041747461636b226021918401918201526816113b30b63ab2911d60b91b604182015284516148ea81604a840160208901614fde565b7f7d2c7b2274726169745f74797065223a225370656369616c20446566656e7365604a9290910191820152691116113b30b63ab2911d60b11b606a820152835161493b816074840160208801614fde565b627d5d7d60e81b6074929091019182015260770195945050505050565b7f7d2c7b2274726169745f74797065223a225370656564222c2276616c7565223a815260008451614990816020850160208901614fde565b80830190507f7d2c7b2274726169745f74797065223a22496e74656c6c6967656e6365222c226020820152663b30b63ab2911d60c91b604082015284516149de816047840160208901614fde565b7f7d2c7b2274726169745f74797065223a22446566656e7365222c2276616c75656047929091019182015261111d60f11b60678201528351614a27816069840160208801614fde565b0160690195945050505050565b7f646174613a6170706c69636174696f6e2f6a736f6e3b6261736536340d0a0d0a815260008251614a6c816020850160208701614fde565b9190910160200192915050565b6001600160a01b0386811682528516602082015260a060408201819052600090614aa5908301866142eb565b8281036060840152614ab781866142eb565b90508281036080840152610aa68185614326565b6001600160a01b03868116825285166020820152604081018490526060810183905260a060808201819052600090614b0590830184614326565b979650505050505050565b6101c08101818360005b600e811015614b3c578151600190810b84526020938401939092019101614b1a565b50505092915050565b602081526000613c9d60208301846142eb565b604081526000614b6b60408301856142eb565b8281036020840152614b7d81856142eb565b95945050505050565b60006101608d83528c60208401528b604084015261ffff8b166060840152891515608084015288151560a0840152614bc260c084018915159052565b8060e0840152614bd481840188614326565b9050828103610100840152614be98187614326565b9050828103610120840152614bfe8186614326565b9050828103610140840152614c138185614326565b9e9d5050505050505050505050505050565b602081526000613c9d6020830184614326565b60208082526030908201527f4d696e746572526f6c653a2063616c6c657220646f6573206e6f74206861766560408201526f20746865204d696e74657220726f6c6560801b606082015260800190565b6020808252818101527f4f776e61626c653a2063616c6c6572206973206e6f7420746865206f776e6572604082015260600190565b602080825260409082018190527f57686974656c69737441646d696e526f6c653a2063616c6c657220646f657320908201527f6e6f742068617665207468652057686974656c69737441646d696e20726f6c65606082015260800190565b61ffff8e16815261ffff8d16602082015261ffff8c16604082015261ffff8b16606082015261ffff8a16608082015261ffff891660a082015261ffff881660c082015261ffff871660e082015261ffff86166101008201526101a06101208201526000614d8c6101a0830187614326565b828103610140840152614d9f8187614326565b9050828103610160840152614db48186614326565b9050828103610180840152614dc98185614326565b9150509e9d5050505050505050505050505050565b6000808335601e19843603018112614df557600080fd5b8301803591506001600160401b03821115614e0f57600080fd5b602001915036819003821315613c7657600080fd5b604051601f8201601f191681016001600160401b0381118282101715614e4c57614e4c6150b0565b604052919050565b60006001600160401b03821115614e6d57614e6d6150b0565b5060051b60200190565b60008219821115614e8a57614e8a61506e565b500190565b600082614e9e57614e9e615084565b500490565b6000816000190483118215151615614ebd57614ebd61506e565b500290565b600082821015614ed457614ed461506e565b500390565b601f82111561171657600081815260208120601f850160051c81016020861015614f005750805b601f850160051c820191505b81811015611e7957828155600101614f0c565b6001600160401b03831115614f3657614f366150b0565b614f4a83614f44835461500a565b83614ed9565b6000601f841160018114614f7e5760008515614f665750838201355b600019600387901b1c1916600186901b1783556109bf565b600083815260209020601f19861690835b82811015614faf5786850135825560209485019460019092019101614f8f565b5086821015614fcc5760001960f88860031b161c19848701351681555b505060018560011b0183555050505050565b60005b83811015614ff9578181015183820152602001614fe1565b83811115610b6a5750506000910152565b600181811c9082168061501e57607f821691505b60208210811415613cb757634e487b7160e01b600052602260045260246000fd5b60006000198214156150535761505361506e565b5060010190565b60008261506957615069615084565b500690565b634e487b7160e01b600052601160045260246000fd5b634e487b7160e01b600052601260045260246000fd5b634e487b7160e01b600052603260045260246000fd5b634e487b7160e01b600052604160045260246000fd5b6000813561084f8161545b565b6000813561084f8161547f565b6150ff6150ec836150d3565b825461ffff191661ffff91909116178255565b61512861510e602084016150d3565b825463ffff0000191660109190911b63ffff000016178255565b615155615137604084016150d3565b825465ffff00000000191660209190911b65ffff0000000016178255565b615186615164606084016150d3565b825467ffff000000000000191660309190911b67ffff00000000000016178255565b6151bb615195608084016150d3565b825469ffff0000000000000000191660409190911b69ffff000000000000000016178255565b6151ea6151ca60a084016150d3565b82805461ffff60501b191660509290921b61ffff60501b16919091179055565b6152196151f960c084016150d3565b82805461ffff60601b191660609290921b61ffff60601b16919091179055565b61524861522860e084016150d3565b82805461ffff60701b191660709290921b61ffff60701b16919091179055565b61527861525861010084016150d3565b82805461ffff60801b191660809290921b61ffff60801b16919091179055565b615286610120830183614dde565b615294818360018601614f1f565b50506152a4610140830183614dde565b6152b2818360028601614f1f565b50506152c2610160830183614dde565b6152d0818360038601614f1f565b50506152e0610180830183614dde565b610b6a818360048601614f1f565b813581556020820135600182015560408201356002820155600381016153196150ec606085016150d3565b615344615328608085016150c6565b82805462ff0000191691151560101b62ff000016919091179055565b61537161535360a085016150c6565b82805463ff000000191691151560181b63ff00000016919091179055565b6153a061538060c085016150c6565b82805464ff00000000191691151560201b64ff0000000016919091179055565b506153ae60e0830183614dde565b6153bc818360048601614f1f565b50506153cc610100830183614dde565b6153da818360058601614f1f565b50506153ea610120830183614dde565b6153f8818360068601614f1f565b5050615408610140830183614dde565b610b6a818360078601614f1f565b81356154218161547f565b815461ffff191661ffff821617825550602082013561543f8161547f565b815463ffff00001916601082901b63ffff000016178255505050565b80151581146109f957600080fd5b6001600160e01b0319811681146109f957600080fd5b61ffff811681146109f957600080fdfe4142434445464748494a4b4c4d4e4f505152535455565758595a6162636465666768696a6b6c6d6e6f707172737475767778797a303132333435363738392b2fa264697066735822122046348f319b2408f4b498ac741aa0ef06bfee673261ca4982bb5160d84e1bd06e64736f6c6343000806003368747470733a2f2f706570656d6f6e2e66696e616e63652f6170692f706570656d6f6e2d6572633131353568747470733a2f2f706570656d6f6e2e66696e616e63652f6170692f63617264732f",
  "devdoc": {
    "kind": "dev",
    "methods": {
      "balanceOf(address,uint256)": {
        "params": {
          "_id": "ID of the Token",
          "_owner": "The address of the token holder"
        },
        "returns": {
          "_0": "The _owner's balance of the Token type requested"
        }
      },
      "balanceOfBatch(address[],uint256[])": {
        "params": {
          "_ids": "ID of the Tokens",
          "_owners": "The addresses of the token holders"
        },
        "returns": {
          "_0": "The _owner's balance of the Token types requested (i.e. balance for each (owner, id) pair)"
        }
      },
      "endMinting(uint256)": {
        "details": "Ends minting of token",
        "params": {
          "_id": "Token ID for which minting will end"
        }
      },
      "isApprovedForAll(address,address)": {
        "params": {
          "_operator": "Address of authorized operator",
          "_owner": "The owner of the Tokens"
        },
        "returns": {
          "isOperator": "True if the operator is approved, false if not"
        }
      },
      "maxSupply(uint256)": {
        "details": "Returns the max quantity for a token ID",
        "params": {
          "_id": "uint256 ID of the token to query"
        },
        "returns": {
          "_0": "amount of token in existence"
        }
      },
      "mint(address,uint256,uint256,bytes)": {
        "details": "Mints some amount of tokens to an address",
        "params": {
          "_data": "Data to pass if receiver is contract",
          "_id": "Token ID to mint",
          "_quantity": "Amount of tokens to mint",
          "_to": "Address of the future owner of the token"
        }
      },
      "owner()": {
        "details": "Returns the address of the current owner."
      },
      "renounceOwnership()": {
        "details": "Leaves the contract without owner. It will not be possible to call `onlyOwner` functions anymore. Can only be called by the current owner. NOTE: Renouncing ownership will leave the contract without an owner, thereby removing any functionality that is only available to the owner."
      },
      "safeBatchTransferFrom(address,address,uint256[],uint256[],bytes)": {
        "params": {
          "_amounts": "Transfer amounts per token type",
          "_data": "Additional data with no specified format, sent in call to `_to`",
          "_from": "Source addresses",
          "_ids": "IDs of each token type",
          "_to": "Target addresses"
        }
      },
      "safeTransferFrom(address,address,uint256,uint256,bytes)": {
        "params": {
          "_amount": "Transfered amount",
          "_data": "Additional data with no specified format, sent in call to `_to`",
          "_from": "Source address",
          "_id": "ID of the token type",
          "_to": "Target address"
        }
      },
      "setApprovalForAll(address,bool)": {
        "params": {
          "_approved": "True if the operator is approved, false to revoke approval",
          "_operator": "Address to add to the set of authorized operators"
        }
      },
      "supportsInterface(bytes4)": {
        "params": {
          "_interfaceID": "The interface identifier, as specified in ERC-165"
        },
        "returns": {
          "_0": "`true` if the contract implements `_interfaceID` and"
        }
      },
      "totalSupply(uint256)": {
        "details": "Returns the total quantity for a token ID",
        "params": {
          "_id": "uint256 ID of the token to query"
        },
        "returns": {
          "_0": "amount of token in existence"
        }
      },
      "transferOwnership(address)": {
        "details": "Transfers ownership of the contract to a new account (`newOwner`). Can only be called by the current owner."
      }
    },
    "title": "Pepemon Factory PEPEMON - gotta farm em all",
    "version": 1
  },
  "userdoc": {
    "kind": "user",
    "methods": {
      "airdrop(uint256,address[])": {
        "notice": "Mint NFT and send those to the list of given addresses"
      },
      "balanceOf(address,uint256)": {
        "notice": "Get the balance of an account's Tokens"
      },
      "balanceOfBatch(address[],uint256[])": {
        "notice": "Get the balance of multiple account/token pairs"
      },
      "isApprovedForAll(address,address)": {
        "notice": "Queries the approval status of an operator for a given owner"
      },
      "safeBatchTransferFrom(address,address,uint256[],uint256[],bytes)": {
        "notice": "Send multiple types of Tokens from the _from address to the _to address (with safety call)"
      },
      "safeTransferFrom(address,address,uint256,uint256,bytes)": {
        "notice": "Transfers amount amount of an _id from the _from address to the _to address specified"
      },
      "setApprovalForAll(address,bool)": {
        "notice": "Enable or disable approval for a third party (\"operator\") to manage all of caller's tokens"
      },
      "supportsInterface(bytes4)": {
        "notice": "Query if a contract implements an interface"
      }
    },
    "version": 1
  },
  "storageLayout": {
    "storage": [
      {
        "astId": 14042,
        "contract": "contracts/PepemonFactory.sol:PepemonFactory",
        "label": "balances",
        "offset": 0,
        "slot": "0",
        "type": "t_mapping(t_address,t_mapping(t_uint256,t_uint256))"
      },
      {
        "astId": 14048,
        "contract": "contracts/PepemonFactory.sol:PepemonFactory",
        "label": "operators",
        "offset": 0,
        "slot": "1",
        "type": "t_mapping(t_address,t_mapping(t_address,t_bool))"
      },
      {
        "astId": 15595,
        "contract": "contracts/PepemonFactory.sol:PepemonFactory",
        "label": "_owner",
        "offset": 0,
        "slot": "2",
        "type": "t_address"
      },
      {
        "astId": 15490,
        "contract": "contracts/PepemonFactory.sol:PepemonFactory",
        "label": "_minters",
        "offset": 0,
        "slot": "3",
        "type": "t_struct(Role)16472_storage"
      },
      {
        "astId": 16575,
        "contract": "contracts/PepemonFactory.sol:PepemonFactory",
        "label": "_whitelistAdmins",
        "offset": 0,
        "slot": "4",
        "type": "t_struct(Role)16472_storage"
      },
      {
        "astId": 15757,
        "contract": "contracts/PepemonFactory.sol:PepemonFactory",
        "label": "battleCardStats",
        "offset": 0,
        "slot": "5",
        "type": "t_mapping(t_uint256,t_struct(BattleCardStats)15724_storage)"
      },
      {
        "astId": 15762,
        "contract": "contracts/PepemonFactory.sol:PepemonFactory",
        "label": "supportCardStats",
        "offset": 0,
        "slot": "6",
        "type": "t_mapping(t_uint256,t_struct(SupportCardStats)15747_storage)"
      },
      {
        "astId": 15766,
        "contract": "contracts/PepemonFactory.sol:PepemonFactory",
        "label": "elementDecode",
        "offset": 0,
        "slot": "7",
        "type": "t_mapping(t_uint16,t_string_storage)"
      },
      {
        "astId": 15771,
        "contract": "contracts/PepemonFactory.sol:PepemonFactory",
        "label": "weakResist",
        "offset": 0,
        "slot": "8",
        "type": "t_mapping(t_uint16,t_struct(elementWR)15752_storage)"
      },
      {
        "astId": 14924,
        "contract": "contracts/PepemonFactory.sol:PepemonFactory",
        "label": "_currentTokenID",
        "offset": 0,
        "slot": "9",
        "type": "t_uint256"
      },
      {
        "astId": 14928,
        "contract": "contracts/PepemonFactory.sol:PepemonFactory",
        "label": "creators",
        "offset": 0,
        "slot": "10",
        "type": "t_mapping(t_uint256,t_address)"
      },
      {
        "astId": 14932,
        "contract": "contracts/PepemonFactory.sol:PepemonFactory",
        "label": "tokenSupply",
        "offset": 0,
        "slot": "11",
        "type": "t_mapping(t_uint256,t_uint256)"
      },
      {
        "astId": 14936,
        "contract": "contracts/PepemonFactory.sol:PepemonFactory",
        "label": "tokenMaxSupply",
        "offset": 0,
        "slot": "12",
        "type": "t_mapping(t_uint256,t_uint256)"
      },
      {
        "astId": 14938,
        "contract": "contracts/PepemonFactory.sol:PepemonFactory",
        "label": "name",
        "offset": 0,
        "slot": "13",
        "type": "t_string_storage"
      },
      {
        "astId": 14940,
        "contract": "contracts/PepemonFactory.sol:PepemonFactory",
        "label": "symbol",
        "offset": 0,
        "slot": "14",
        "type": "t_string_storage"
      },
      {
        "astId": 14942,
        "contract": "contracts/PepemonFactory.sol:PepemonFactory",
        "label": "baseMetadataURI",
        "offset": 0,
        "slot": "15",
        "type": "t_string_storage"
      },
      {
        "astId": 11958,
        "contract": "contracts/PepemonFactory.sol:PepemonFactory",
        "label": "_contractURI",
        "offset": 0,
        "slot": "16",
        "type": "t_string_storage"
      }
    ],
    "types": {
      "t_address": {
        "encoding": "inplace",
        "label": "address",
        "numberOfBytes": "20"
      },
      "t_bool": {
        "encoding": "inplace",
        "label": "bool",
        "numberOfBytes": "1"
      },
      "t_bytes32": {
        "encoding": "inplace",
        "label": "bytes32",
        "numberOfBytes": "32"
      },
      "t_mapping(t_address,t_bool)": {
        "encoding": "mapping",
        "key": "t_address",
        "label": "mapping(address => bool)",
        "numberOfBytes": "32",
        "value": "t_bool"
      },
      "t_mapping(t_address,t_mapping(t_address,t_bool))": {
        "encoding": "mapping",
        "key": "t_address",
        "label": "mapping(address => mapping(address => bool))",
        "numberOfBytes": "32",
        "value": "t_mapping(t_address,t_bool)"
      },
      "t_mapping(t_address,t_mapping(t_uint256,t_uint256))": {
        "encoding": "mapping",
        "key": "t_address",
        "label": "mapping(address => mapping(uint256 => uint256))",
        "numberOfBytes": "32",
        "value": "t_mapping(t_uint256,t_uint256)"
      },
      "t_mapping(t_uint16,t_string_storage)": {
        "encoding": "mapping",
        "key": "t_uint16",
        "label": "mapping(uint16 => string)",
        "numberOfBytes": "32",
        "value": "t_string_storage"
      },
      "t_mapping(t_uint16,t_struct(elementWR)15752_storage)": {
        "encoding": "mapping",
        "key": "t_uint16",
        "label": "mapping(uint16 => struct PepemonStats.elementWR)",
        "numberOfBytes": "32",
        "value": "t_struct(elementWR)15752_storage"
      },
      "t_mapping(t_uint256,t_address)": {
        "encoding": "mapping",
        "key": "t_uint256",
        "label": "mapping(uint256 => address)",
        "numberOfBytes": "32",
        "value": "t_address"
      },
      "t_mapping(t_uint256,t_struct(BattleCardStats)15724_storage)": {
        "encoding": "mapping",
        "key": "t_uint256",
        "label": "mapping(uint256 => struct PepemonStats.BattleCardStats)",
        "numberOfBytes": "32",
        "value": "t_struct(BattleCardStats)15724_storage"
      },
      "t_mapping(t_uint256,t_struct(SupportCardStats)15747_storage)": {
        "encoding": "mapping",
        "key": "t_uint256",
        "label": "mapping(uint256 => struct PepemonStats.SupportCardStats)",
        "numberOfBytes": "32",
        "value": "t_struct(SupportCardStats)15747_storage"
      },
      "t_mapping(t_uint256,t_uint256)": {
        "encoding": "mapping",
        "key": "t_uint256",
        "label": "mapping(uint256 => uint256)",
        "numberOfBytes": "32",
        "value": "t_uint256"
      },
      "t_string_storage": {
        "encoding": "bytes",
        "label": "string",
        "numberOfBytes": "32"
      },
      "t_struct(BattleCardStats)15724_storage": {
        "encoding": "inplace",
        "label": "struct PepemonStats.BattleCardStats",
        "members": [
          {
            "astId": 15699,
            "contract": "contracts/PepemonFactory.sol:PepemonFactory",
            "label": "element",
            "offset": 0,
            "slot": "0",
            "type": "t_uint16"
          },
          {
            "astId": 15701,
            "contract": "contracts/PepemonFactory.sol:PepemonFactory",
            "label": "hp",
            "offset": 2,
            "slot": "0",
            "type": "t_uint16"
          },
          {
            "astId": 15703,
            "contract": "contracts/PepemonFactory.sol:PepemonFactory",
            "label": "speed",
            "offset": 4,
            "slot": "0",
            "type": "t_uint16"
          },
          {
            "astId": 15705,
            "contract": "contracts/PepemonFactory.sol:PepemonFactory",
            "label": "intelligence",
            "offset": 6,
            "slot": "0",
            "type": "t_uint16"
          },
          {
            "astId": 15707,
            "contract": "contracts/PepemonFactory.sol:PepemonFactory",
            "label": "defense",
            "offset": 8,
            "slot": "0",
            "type": "t_uint16"
          },
          {
            "astId": 15709,
            "contract": "contracts/PepemonFactory.sol:PepemonFactory",
            "label": "attack",
            "offset": 10,
            "slot": "0",
            "type": "t_uint16"
          },
          {
            "astId": 15711,
            "contract": "contracts/PepemonFactory.sol:PepemonFactory",
            "label": "specialAttack",
            "offset": 12,
            "slot": "0",
            "type": "t_uint16"
          },
          {
            "astId": 15713,
            "contract": "contracts/PepemonFactory.sol:PepemonFactory",
            "label": "specialDefense",
            "offset": 14,
            "slot": "0",
            "type": "t_uint16"
          },
          {
            "astId": 15715,
            "contract": "contracts/PepemonFactory.sol:PepemonFactory",
            "label": "level",
            "offset": 16,
            "slot": "0",
            "type": "t_uint16"
          },
          {
            "astId": 15717,
            "contract": "contracts/PepemonFactory.sol:PepemonFactory",
            "label": "name",
            "offset": 0,
            "slot": "1",
            "type": "t_string_storage"
          },
          {
            "astId": 15719,
            "contract": "contracts/PepemonFactory.sol:PepemonFactory",
            "label": "description",
            "offset": 0,
            "slot": "2",
            "type": "t_string_storage"
          },
          {
            "astId": 15721,
            "contract": "contracts/PepemonFactory.sol:PepemonFactory",
            "label": "ipfsAddr",
            "offset": 0,
            "slot": "3",
            "type": "t_string_storage"
          },
          {
            "astId": 15723,
            "contract": "contracts/PepemonFactory.sol:PepemonFactory",
            "label": "rarity",
            "offset": 0,
            "slot": "4",
            "type": "t_string_storage"
          }
        ],
        "numberOfBytes": "160"
      },
      "t_struct(Role)16472_storage": {
        "encoding": "inplace",
        "label": "struct Roles.Role",
        "members": [
          {
            "astId": 16471,
            "contract": "contracts/PepemonFactory.sol:PepemonFactory",
            "label": "bearer",
            "offset": 0,
            "slot": "0",
            "type": "t_mapping(t_address,t_bool)"
          }
        ],
        "numberOfBytes": "32"
      },
      "t_struct(SupportCardStats)15747_storage": {
        "encoding": "inplace",
        "label": "struct PepemonStats.SupportCardStats",
        "members": [
          {
            "astId": 15726,
            "contract": "contracts/PepemonFactory.sol:PepemonFactory",
            "label": "currentRoundChanges",
            "offset": 0,
            "slot": "0",
            "type": "t_bytes32"
          },
          {
            "astId": 15728,
            "contract": "contracts/PepemonFactory.sol:PepemonFactory",
            "label": "nextRoundChanges",
            "offset": 0,
            "slot": "1",
            "type": "t_bytes32"
          },
          {
            "astId": 15730,
            "contract": "contracts/PepemonFactory.sol:PepemonFactory",
            "label": "specialCode",
            "offset": 0,
            "slot": "2",
            "type": "t_uint256"
          },
          {
            "astId": 15732,
            "contract": "contracts/PepemonFactory.sol:PepemonFactory",
            "label": "modifierNumberOfNextTurns",
            "offset": 0,
            "slot": "3",
            "type": "t_uint16"
          },
          {
            "astId": 15734,
            "contract": "contracts/PepemonFactory.sol:PepemonFactory",
            "label": "isOffense",
            "offset": 2,
            "slot": "3",
            "type": "t_bool"
          },
          {
            "astId": 15736,
            "contract": "contracts/PepemonFactory.sol:PepemonFactory",
            "label": "isNormal",
            "offset": 3,
            "slot": "3",
            "type": "t_bool"
          },
          {
            "astId": 15738,
            "contract": "contracts/PepemonFactory.sol:PepemonFactory",
            "label": "isStackable",
            "offset": 4,
            "slot": "3",
            "type": "t_bool"
          },
          {
            "astId": 15740,
            "contract": "contracts/PepemonFactory.sol:PepemonFactory",
            "label": "name",
            "offset": 0,
            "slot": "4",
            "type": "t_string_storage"
          },
          {
            "astId": 15742,
            "contract": "contracts/PepemonFactory.sol:PepemonFactory",
            "label": "description",
            "offset": 0,
            "slot": "5",
            "type": "t_string_storage"
          },
          {
            "astId": 15744,
            "contract": "contracts/PepemonFactory.sol:PepemonFactory",
            "label": "ipfsAddr",
            "offset": 0,
            "slot": "6",
            "type": "t_string_storage"
          },
          {
            "astId": 15746,
            "contract": "contracts/PepemonFactory.sol:PepemonFactory",
            "label": "rarity",
            "offset": 0,
            "slot": "7",
            "type": "t_string_storage"
          }
        ],
        "numberOfBytes": "256"
      },
      "t_struct(elementWR)15752_storage": {
        "encoding": "inplace",
        "label": "struct PepemonStats.elementWR",
        "members": [
          {
            "astId": 15749,
            "contract": "contracts/PepemonFactory.sol:PepemonFactory",
            "label": "weakness",
            "offset": 0,
            "slot": "0",
            "type": "t_uint16"
          },
          {
            "astId": 15751,
            "contract": "contracts/PepemonFactory.sol:PepemonFactory",
            "label": "resistance",
            "offset": 2,
            "slot": "0",
            "type": "t_uint16"
          }
        ],
        "numberOfBytes": "32"
      },
      "t_uint16": {
        "encoding": "inplace",
        "label": "uint16",
        "numberOfBytes": "2"
      },
      "t_uint256": {
        "encoding": "inplace",
        "label": "uint256",
        "numberOfBytes": "32"
      }
    }
  }
}