{
  "address": "0xBe973123CF4ECC840fbA3aE14DACC6aD80Aaa2A9",
  "abi": [
    {
      "inputs": [
        {
          "internalType": "address",
          "name": "cardOracleAddress",
          "type": "address"
        },
        {
          "internalType": "address",
          "name": "deckOracleAddress",
          "type": "address"
        },
        {
          "internalType": "address",
          "name": "randOracleAddress",
          "type": "address"
        }
      ],
      "stateMutability": "nonpayable",
      "type": "constructor"
    },
    {
      "anonymous": false,
      "inputs": [
        {
          "indexed": true,
          "internalType": "address",
          "name": "account",
          "type": "address"
        }
      ],
      "name": "AdminAdded",
      "type": "event"
    },
    {
      "anonymous": false,
      "inputs": [
        {
          "indexed": true,
          "internalType": "address",
          "name": "account",
          "type": "address"
        }
      ],
      "name": "AdminRemoved",
      "type": "event"
    },
    {
      "anonymous": false,
      "inputs": [
        {
          "indexed": true,
          "internalType": "address",
          "name": "player1Addr",
          "type": "address"
        },
        {
          "indexed": true,
          "internalType": "address",
          "name": "player2Addr",
          "type": "address"
        },
        {
          "indexed": false,
          "internalType": "uint256",
          "name": "battleId",
          "type": "uint256"
        },
        {
          "indexed": false,
          "internalType": "uint256",
          "name": "p1DeckId",
          "type": "uint256"
        },
        {
          "indexed": false,
          "internalType": "uint256",
          "name": "p2DeckId",
          "type": "uint256"
        }
      ],
      "name": "BattleCreated",
      "type": "event"
    },
    {
      "inputs": [
        {
          "internalType": "address",
          "name": "account",
          "type": "address"
        }
      ],
      "name": "addAdmin",
      "outputs": [],
      "stateMutability": "nonpayable",
      "type": "function"
    },
    {
      "inputs": [
        {
          "internalType": "uint256",
          "name": "",
          "type": "uint256"
        }
      ],
      "name": "battleIdRNGSeed",
      "outputs": [
        {
          "internalType": "uint256",
          "name": "",
          "type": "uint256"
        }
      ],
      "stateMutability": "view",
      "type": "function"
    },
    {
      "inputs": [
        {
          "components": [
            {
              "internalType": "int256",
              "name": "health",
              "type": "int256"
            },
            {
              "internalType": "uint256",
              "name": "battleCardId",
              "type": "uint256"
            },
            {
              "components": [
                {
                  "internalType": "int256",
                  "name": "spd",
                  "type": "int256"
                },
                {
                  "internalType": "uint256",
                  "name": "inte",
                  "type": "uint256"
                },
                {
                  "internalType": "int256",
                  "name": "def",
                  "type": "int256"
                },
                {
                  "internalType": "int256",
                  "name": "atk",
                  "type": "int256"
                },
                {
                  "internalType": "int256",
                  "name": "sAtk",
                  "type": "int256"
                },
                {
                  "internalType": "int256",
                  "name": "sDef",
                  "type": "int256"
                }
              ],
              "internalType": "struct PepemonBattle.CurrentBattleCardStats",
              "name": "currentBCstats",
              "type": "tuple"
            },
            {
              "internalType": "uint256[8]",
              "name": "supportCardInHandIds",
              "type": "uint256[8]"
            },
            {
              "internalType": "uint256",
              "name": "tableSupportCardStats",
              "type": "uint256"
            },
            {
              "components": [
                {
                  "internalType": "uint256",
                  "name": "supportCardId",
                  "type": "uint256"
                },
                {
                  "components": [
                    {
                      "internalType": "int16",
                      "name": "power",
                      "type": "int16"
                    },
                    {
                      "internalType": "uint16",
                      "name": "numTurns",
                      "type": "uint16"
                    },
                    {
                      "internalType": "enum IPepemonCardOracle.EffectTo",
                      "name": "effectTo",
                      "type": "uint8"
                    },
                    {
                      "internalType": "enum IPepemonCardOracle.EffectFor",
                      "name": "effectFor",
                      "type": "uint8"
                    },
                    {
                      "internalType": "uint16",
                      "name": "reqCode",
                      "type": "uint16"
                    }
                  ],
                  "internalType": "struct IPepemonCardOracle.EffectMany",
                  "name": "effectMany",
                  "type": "tuple"
                }
              ],
              "internalType": "struct PepemonBattle.TableSupportCardStats[5]",
              "name": "tableSupportCards",
              "type": "tuple[5]"
            }
          ],
          "internalType": "struct PepemonBattle.Hand",
          "name": "atkHand",
          "type": "tuple"
        },
        {
          "components": [
            {
              "internalType": "int256",
              "name": "health",
              "type": "int256"
            },
            {
              "internalType": "uint256",
              "name": "battleCardId",
              "type": "uint256"
            },
            {
              "components": [
                {
                  "internalType": "int256",
                  "name": "spd",
                  "type": "int256"
                },
                {
                  "internalType": "uint256",
                  "name": "inte",
                  "type": "uint256"
                },
                {
                  "internalType": "int256",
                  "name": "def",
                  "type": "int256"
                },
                {
                  "internalType": "int256",
                  "name": "atk",
                  "type": "int256"
                },
                {
                  "internalType": "int256",
                  "name": "sAtk",
                  "type": "int256"
                },
                {
                  "internalType": "int256",
                  "name": "sDef",
                  "type": "int256"
                }
              ],
              "internalType": "struct PepemonBattle.CurrentBattleCardStats",
              "name": "currentBCstats",
              "type": "tuple"
            },
            {
              "internalType": "uint256[8]",
              "name": "supportCardInHandIds",
              "type": "uint256[8]"
            },
            {
              "internalType": "uint256",
              "name": "tableSupportCardStats",
              "type": "uint256"
            },
            {
              "components": [
                {
                  "internalType": "uint256",
                  "name": "supportCardId",
                  "type": "uint256"
                },
                {
                  "components": [
                    {
                      "internalType": "int16",
                      "name": "power",
                      "type": "int16"
                    },
                    {
                      "internalType": "uint16",
                      "name": "numTurns",
                      "type": "uint16"
                    },
                    {
                      "internalType": "enum IPepemonCardOracle.EffectTo",
                      "name": "effectTo",
                      "type": "uint8"
                    },
                    {
                      "internalType": "enum IPepemonCardOracle.EffectFor",
                      "name": "effectFor",
                      "type": "uint8"
                    },
                    {
                      "internalType": "uint16",
                      "name": "reqCode",
                      "type": "uint16"
                    }
                  ],
                  "internalType": "struct IPepemonCardOracle.EffectMany",
                  "name": "effectMany",
                  "type": "tuple"
                }
              ],
              "internalType": "struct PepemonBattle.TableSupportCardStats[5]",
              "name": "tableSupportCards",
              "type": "tuple[5]"
            }
          ],
          "internalType": "struct PepemonBattle.Hand",
          "name": "defHand",
          "type": "tuple"
        }
      ],
      "name": "calSupportCardsInHand",
      "outputs": [
        {
          "components": [
            {
              "internalType": "int256",
              "name": "health",
              "type": "int256"
            },
            {
              "internalType": "uint256",
              "name": "battleCardId",
              "type": "uint256"
            },
            {
              "components": [
                {
                  "internalType": "int256",
                  "name": "spd",
                  "type": "int256"
                },
                {
                  "internalType": "uint256",
                  "name": "inte",
                  "type": "uint256"
                },
                {
                  "internalType": "int256",
                  "name": "def",
                  "type": "int256"
                },
                {
                  "internalType": "int256",
                  "name": "atk",
                  "type": "int256"
                },
                {
                  "internalType": "int256",
                  "name": "sAtk",
                  "type": "int256"
                },
                {
                  "internalType": "int256",
                  "name": "sDef",
                  "type": "int256"
                }
              ],
              "internalType": "struct PepemonBattle.CurrentBattleCardStats",
              "name": "currentBCstats",
              "type": "tuple"
            },
            {
              "internalType": "uint256[8]",
              "name": "supportCardInHandIds",
              "type": "uint256[8]"
            },
            {
              "internalType": "uint256",
              "name": "tableSupportCardStats",
              "type": "uint256"
            },
            {
              "components": [
                {
                  "internalType": "uint256",
                  "name": "supportCardId",
                  "type": "uint256"
                },
                {
                  "components": [
                    {
                      "internalType": "int16",
                      "name": "power",
                      "type": "int16"
                    },
                    {
                      "internalType": "uint16",
                      "name": "numTurns",
                      "type": "uint16"
                    },
                    {
                      "internalType": "enum IPepemonCardOracle.EffectTo",
                      "name": "effectTo",
                      "type": "uint8"
                    },
                    {
                      "internalType": "enum IPepemonCardOracle.EffectFor",
                      "name": "effectFor",
                      "type": "uint8"
                    },
                    {
                      "internalType": "uint16",
                      "name": "reqCode",
                      "type": "uint16"
                    }
                  ],
                  "internalType": "struct IPepemonCardOracle.EffectMany",
                  "name": "effectMany",
                  "type": "tuple"
                }
              ],
              "internalType": "struct PepemonBattle.TableSupportCardStats[5]",
              "name": "tableSupportCards",
              "type": "tuple[5]"
            }
          ],
          "internalType": "struct PepemonBattle.Hand",
          "name": "",
          "type": "tuple"
        },
        {
          "components": [
            {
              "internalType": "int256",
              "name": "health",
              "type": "int256"
            },
            {
              "internalType": "uint256",
              "name": "battleCardId",
              "type": "uint256"
            },
            {
              "components": [
                {
                  "internalType": "int256",
                  "name": "spd",
                  "type": "int256"
                },
                {
                  "internalType": "uint256",
                  "name": "inte",
                  "type": "uint256"
                },
                {
                  "internalType": "int256",
                  "name": "def",
                  "type": "int256"
                },
                {
                  "internalType": "int256",
                  "name": "atk",
                  "type": "int256"
                },
                {
                  "internalType": "int256",
                  "name": "sAtk",
                  "type": "int256"
                },
                {
                  "internalType": "int256",
                  "name": "sDef",
                  "type": "int256"
                }
              ],
              "internalType": "struct PepemonBattle.CurrentBattleCardStats",
              "name": "currentBCstats",
              "type": "tuple"
            },
            {
              "internalType": "uint256[8]",
              "name": "supportCardInHandIds",
              "type": "uint256[8]"
            },
            {
              "internalType": "uint256",
              "name": "tableSupportCardStats",
              "type": "uint256"
            },
            {
              "components": [
                {
                  "internalType": "uint256",
                  "name": "supportCardId",
                  "type": "uint256"
                },
                {
                  "components": [
                    {
                      "internalType": "int16",
                      "name": "power",
                      "type": "int16"
                    },
                    {
                      "internalType": "uint16",
                      "name": "numTurns",
                      "type": "uint16"
                    },
                    {
                      "internalType": "enum IPepemonCardOracle.EffectTo",
                      "name": "effectTo",
                      "type": "uint8"
                    },
                    {
                      "internalType": "enum IPepemonCardOracle.EffectFor",
                      "name": "effectFor",
                      "type": "uint8"
                    },
                    {
                      "internalType": "uint16",
                      "name": "reqCode",
                      "type": "uint16"
                    }
                  ],
                  "internalType": "struct IPepemonCardOracle.EffectMany",
                  "name": "effectMany",
                  "type": "tuple"
                }
              ],
              "internalType": "struct PepemonBattle.TableSupportCardStats[5]",
              "name": "tableSupportCards",
              "type": "tuple[5]"
            }
          ],
          "internalType": "struct PepemonBattle.Hand",
          "name": "",
          "type": "tuple"
        }
      ],
      "stateMutability": "view",
      "type": "function"
    },
    {
      "inputs": [
        {
          "components": [
            {
              "internalType": "uint256",
              "name": "battleId",
              "type": "uint256"
            },
            {
              "components": [
                {
                  "internalType": "address",
                  "name": "playerAddr",
                  "type": "address"
                },
                {
                  "internalType": "uint256",
                  "name": "deckId",
                  "type": "uint256"
                },
                {
                  "components": [
                    {
                      "internalType": "int256",
                      "name": "health",
                      "type": "int256"
                    },
                    {
                      "internalType": "uint256",
                      "name": "battleCardId",
                      "type": "uint256"
                    },
                    {
                      "components": [
                        {
                          "internalType": "int256",
                          "name": "spd",
                          "type": "int256"
                        },
                        {
                          "internalType": "uint256",
                          "name": "inte",
                          "type": "uint256"
                        },
                        {
                          "internalType": "int256",
                          "name": "def",
                          "type": "int256"
                        },
                        {
                          "internalType": "int256",
                          "name": "atk",
                          "type": "int256"
                        },
                        {
                          "internalType": "int256",
                          "name": "sAtk",
                          "type": "int256"
                        },
                        {
                          "internalType": "int256",
                          "name": "sDef",
                          "type": "int256"
                        }
                      ],
                      "internalType": "struct PepemonBattle.CurrentBattleCardStats",
                      "name": "currentBCstats",
                      "type": "tuple"
                    },
                    {
                      "internalType": "uint256[8]",
                      "name": "supportCardInHandIds",
                      "type": "uint256[8]"
                    },
                    {
                      "internalType": "uint256",
                      "name": "tableSupportCardStats",
                      "type": "uint256"
                    },
                    {
                      "components": [
                        {
                          "internalType": "uint256",
                          "name": "supportCardId",
                          "type": "uint256"
                        },
                        {
                          "components": [
                            {
                              "internalType": "int16",
                              "name": "power",
                              "type": "int16"
                            },
                            {
                              "internalType": "uint16",
                              "name": "numTurns",
                              "type": "uint16"
                            },
                            {
                              "internalType": "enum IPepemonCardOracle.EffectTo",
                              "name": "effectTo",
                              "type": "uint8"
                            },
                            {
                              "internalType": "enum IPepemonCardOracle.EffectFor",
                              "name": "effectFor",
                              "type": "uint8"
                            },
                            {
                              "internalType": "uint16",
                              "name": "reqCode",
                              "type": "uint16"
                            }
                          ],
                          "internalType": "struct IPepemonCardOracle.EffectMany",
                          "name": "effectMany",
                          "type": "tuple"
                        }
                      ],
                      "internalType": "struct PepemonBattle.TableSupportCardStats[5]",
                      "name": "tableSupportCards",
                      "type": "tuple[5]"
                    }
                  ],
                  "internalType": "struct PepemonBattle.Hand",
                  "name": "hand",
                  "type": "tuple"
                },
                {
                  "internalType": "uint256[60]",
                  "name": "totalSupportCardIds",
                  "type": "uint256[60]"
                },
                {
                  "internalType": "uint256",
                  "name": "playedCardCount",
                  "type": "uint256"
                }
              ],
              "internalType": "struct PepemonBattle.Player",
              "name": "player1",
              "type": "tuple"
            },
            {
              "components": [
                {
                  "internalType": "address",
                  "name": "playerAddr",
                  "type": "address"
                },
                {
                  "internalType": "uint256",
                  "name": "deckId",
                  "type": "uint256"
                },
                {
                  "components": [
                    {
                      "internalType": "int256",
                      "name": "health",
                      "type": "int256"
                    },
                    {
                      "internalType": "uint256",
                      "name": "battleCardId",
                      "type": "uint256"
                    },
                    {
                      "components": [
                        {
                          "internalType": "int256",
                          "name": "spd",
                          "type": "int256"
                        },
                        {
                          "internalType": "uint256",
                          "name": "inte",
                          "type": "uint256"
                        },
                        {
                          "internalType": "int256",
                          "name": "def",
                          "type": "int256"
                        },
                        {
                          "internalType": "int256",
                          "name": "atk",
                          "type": "int256"
                        },
                        {
                          "internalType": "int256",
                          "name": "sAtk",
                          "type": "int256"
                        },
                        {
                          "internalType": "int256",
                          "name": "sDef",
                          "type": "int256"
                        }
                      ],
                      "internalType": "struct PepemonBattle.CurrentBattleCardStats",
                      "name": "currentBCstats",
                      "type": "tuple"
                    },
                    {
                      "internalType": "uint256[8]",
                      "name": "supportCardInHandIds",
                      "type": "uint256[8]"
                    },
                    {
                      "internalType": "uint256",
                      "name": "tableSupportCardStats",
                      "type": "uint256"
                    },
                    {
                      "components": [
                        {
                          "internalType": "uint256",
                          "name": "supportCardId",
                          "type": "uint256"
                        },
                        {
                          "components": [
                            {
                              "internalType": "int16",
                              "name": "power",
                              "type": "int16"
                            },
                            {
                              "internalType": "uint16",
                              "name": "numTurns",
                              "type": "uint16"
                            },
                            {
                              "internalType": "enum IPepemonCardOracle.EffectTo",
                              "name": "effectTo",
                              "type": "uint8"
                            },
                            {
                              "internalType": "enum IPepemonCardOracle.EffectFor",
                              "name": "effectFor",
                              "type": "uint8"
                            },
                            {
                              "internalType": "uint16",
                              "name": "reqCode",
                              "type": "uint16"
                            }
                          ],
                          "internalType": "struct IPepemonCardOracle.EffectMany",
                          "name": "effectMany",
                          "type": "tuple"
                        }
                      ],
                      "internalType": "struct PepemonBattle.TableSupportCardStats[5]",
                      "name": "tableSupportCards",
                      "type": "tuple[5]"
                    }
                  ],
                  "internalType": "struct PepemonBattle.Hand",
                  "name": "hand",
                  "type": "tuple"
                },
                {
                  "internalType": "uint256[60]",
                  "name": "totalSupportCardIds",
                  "type": "uint256[60]"
                },
                {
                  "internalType": "uint256",
                  "name": "playedCardCount",
                  "type": "uint256"
                }
              ],
              "internalType": "struct PepemonBattle.Player",
              "name": "player2",
              "type": "tuple"
            },
            {
              "internalType": "uint256",
              "name": "currentTurn",
              "type": "uint256"
            },
            {
              "internalType": "enum PepemonBattle.Attacker",
              "name": "attacker",
              "type": "uint8"
            },
            {
              "internalType": "enum PepemonBattle.TurnHalves",
              "name": "turnHalves",
              "type": "uint8"
            }
          ],
          "internalType": "struct PepemonBattle.Battle",
          "name": "battle",
          "type": "tuple"
        }
      ],
      "name": "checkIfBattleEnded",
      "outputs": [
        {
          "internalType": "bool",
          "name": "",
          "type": "bool"
        },
        {
          "internalType": "address",
          "name": "",
          "type": "address"
        }
      ],
      "stateMutability": "pure",
      "type": "function"
    },
    {
      "inputs": [
        {
          "internalType": "address",
          "name": "p1Addr",
          "type": "address"
        },
        {
          "internalType": "uint256",
          "name": "p1DeckId",
          "type": "uint256"
        },
        {
          "internalType": "address",
          "name": "p2Addr",
          "type": "address"
        },
        {
          "internalType": "uint256",
          "name": "p2DeckId",
          "type": "uint256"
        }
      ],
      "name": "createBattle",
      "outputs": [
        {
          "components": [
            {
              "internalType": "uint256",
              "name": "battleId",
              "type": "uint256"
            },
            {
              "components": [
                {
                  "internalType": "address",
                  "name": "playerAddr",
                  "type": "address"
                },
                {
                  "internalType": "uint256",
                  "name": "deckId",
                  "type": "uint256"
                },
                {
                  "components": [
                    {
                      "internalType": "int256",
                      "name": "health",
                      "type": "int256"
                    },
                    {
                      "internalType": "uint256",
                      "name": "battleCardId",
                      "type": "uint256"
                    },
                    {
                      "components": [
                        {
                          "internalType": "int256",
                          "name": "spd",
                          "type": "int256"
                        },
                        {
                          "internalType": "uint256",
                          "name": "inte",
                          "type": "uint256"
                        },
                        {
                          "internalType": "int256",
                          "name": "def",
                          "type": "int256"
                        },
                        {
                          "internalType": "int256",
                          "name": "atk",
                          "type": "int256"
                        },
                        {
                          "internalType": "int256",
                          "name": "sAtk",
                          "type": "int256"
                        },
                        {
                          "internalType": "int256",
                          "name": "sDef",
                          "type": "int256"
                        }
                      ],
                      "internalType": "struct PepemonBattle.CurrentBattleCardStats",
                      "name": "currentBCstats",
                      "type": "tuple"
                    },
                    {
                      "internalType": "uint256[8]",
                      "name": "supportCardInHandIds",
                      "type": "uint256[8]"
                    },
                    {
                      "internalType": "uint256",
                      "name": "tableSupportCardStats",
                      "type": "uint256"
                    },
                    {
                      "components": [
                        {
                          "internalType": "uint256",
                          "name": "supportCardId",
                          "type": "uint256"
                        },
                        {
                          "components": [
                            {
                              "internalType": "int16",
                              "name": "power",
                              "type": "int16"
                            },
                            {
                              "internalType": "uint16",
                              "name": "numTurns",
                              "type": "uint16"
                            },
                            {
                              "internalType": "enum IPepemonCardOracle.EffectTo",
                              "name": "effectTo",
                              "type": "uint8"
                            },
                            {
                              "internalType": "enum IPepemonCardOracle.EffectFor",
                              "name": "effectFor",
                              "type": "uint8"
                            },
                            {
                              "internalType": "uint16",
                              "name": "reqCode",
                              "type": "uint16"
                            }
                          ],
                          "internalType": "struct IPepemonCardOracle.EffectMany",
                          "name": "effectMany",
                          "type": "tuple"
                        }
                      ],
                      "internalType": "struct PepemonBattle.TableSupportCardStats[5]",
                      "name": "tableSupportCards",
                      "type": "tuple[5]"
                    }
                  ],
                  "internalType": "struct PepemonBattle.Hand",
                  "name": "hand",
                  "type": "tuple"
                },
                {
                  "internalType": "uint256[60]",
                  "name": "totalSupportCardIds",
                  "type": "uint256[60]"
                },
                {
                  "internalType": "uint256",
                  "name": "playedCardCount",
                  "type": "uint256"
                }
              ],
              "internalType": "struct PepemonBattle.Player",
              "name": "player1",
              "type": "tuple"
            },
            {
              "components": [
                {
                  "internalType": "address",
                  "name": "playerAddr",
                  "type": "address"
                },
                {
                  "internalType": "uint256",
                  "name": "deckId",
                  "type": "uint256"
                },
                {
                  "components": [
                    {
                      "internalType": "int256",
                      "name": "health",
                      "type": "int256"
                    },
                    {
                      "internalType": "uint256",
                      "name": "battleCardId",
                      "type": "uint256"
                    },
                    {
                      "components": [
                        {
                          "internalType": "int256",
                          "name": "spd",
                          "type": "int256"
                        },
                        {
                          "internalType": "uint256",
                          "name": "inte",
                          "type": "uint256"
                        },
                        {
                          "internalType": "int256",
                          "name": "def",
                          "type": "int256"
                        },
                        {
                          "internalType": "int256",
                          "name": "atk",
                          "type": "int256"
                        },
                        {
                          "internalType": "int256",
                          "name": "sAtk",
                          "type": "int256"
                        },
                        {
                          "internalType": "int256",
                          "name": "sDef",
                          "type": "int256"
                        }
                      ],
                      "internalType": "struct PepemonBattle.CurrentBattleCardStats",
                      "name": "currentBCstats",
                      "type": "tuple"
                    },
                    {
                      "internalType": "uint256[8]",
                      "name": "supportCardInHandIds",
                      "type": "uint256[8]"
                    },
                    {
                      "internalType": "uint256",
                      "name": "tableSupportCardStats",
                      "type": "uint256"
                    },
                    {
                      "components": [
                        {
                          "internalType": "uint256",
                          "name": "supportCardId",
                          "type": "uint256"
                        },
                        {
                          "components": [
                            {
                              "internalType": "int16",
                              "name": "power",
                              "type": "int16"
                            },
                            {
                              "internalType": "uint16",
                              "name": "numTurns",
                              "type": "uint16"
                            },
                            {
                              "internalType": "enum IPepemonCardOracle.EffectTo",
                              "name": "effectTo",
                              "type": "uint8"
                            },
                            {
                              "internalType": "enum IPepemonCardOracle.EffectFor",
                              "name": "effectFor",
                              "type": "uint8"
                            },
                            {
                              "internalType": "uint16",
                              "name": "reqCode",
                              "type": "uint16"
                            }
                          ],
                          "internalType": "struct IPepemonCardOracle.EffectMany",
                          "name": "effectMany",
                          "type": "tuple"
                        }
                      ],
                      "internalType": "struct PepemonBattle.TableSupportCardStats[5]",
                      "name": "tableSupportCards",
                      "type": "tuple[5]"
                    }
                  ],
                  "internalType": "struct PepemonBattle.Hand",
                  "name": "hand",
                  "type": "tuple"
                },
                {
                  "internalType": "uint256[60]",
                  "name": "totalSupportCardIds",
                  "type": "uint256[60]"
                },
                {
                  "internalType": "uint256",
                  "name": "playedCardCount",
                  "type": "uint256"
                }
              ],
              "internalType": "struct PepemonBattle.Player",
              "name": "player2",
              "type": "tuple"
            },
            {
              "internalType": "uint256",
              "name": "currentTurn",
              "type": "uint256"
            },
            {
              "internalType": "enum PepemonBattle.Attacker",
              "name": "attacker",
              "type": "uint8"
            },
            {
              "internalType": "enum PepemonBattle.TurnHalves",
              "name": "turnHalves",
              "type": "uint8"
            }
          ],
          "internalType": "struct PepemonBattle.Battle",
          "name": "",
          "type": "tuple"
        },
        {
          "internalType": "uint256",
          "name": "battleId",
          "type": "uint256"
        }
      ],
      "stateMutability": "nonpayable",
      "type": "function"
    },
    {
      "inputs": [
        {
          "components": [
            {
              "internalType": "uint256",
              "name": "battleId",
              "type": "uint256"
            },
            {
              "components": [
                {
                  "internalType": "address",
                  "name": "playerAddr",
                  "type": "address"
                },
                {
                  "internalType": "uint256",
                  "name": "deckId",
                  "type": "uint256"
                },
                {
                  "components": [
                    {
                      "internalType": "int256",
                      "name": "health",
                      "type": "int256"
                    },
                    {
                      "internalType": "uint256",
                      "name": "battleCardId",
                      "type": "uint256"
                    },
                    {
                      "components": [
                        {
                          "internalType": "int256",
                          "name": "spd",
                          "type": "int256"
                        },
                        {
                          "internalType": "uint256",
                          "name": "inte",
                          "type": "uint256"
                        },
                        {
                          "internalType": "int256",
                          "name": "def",
                          "type": "int256"
                        },
                        {
                          "internalType": "int256",
                          "name": "atk",
                          "type": "int256"
                        },
                        {
                          "internalType": "int256",
                          "name": "sAtk",
                          "type": "int256"
                        },
                        {
                          "internalType": "int256",
                          "name": "sDef",
                          "type": "int256"
                        }
                      ],
                      "internalType": "struct PepemonBattle.CurrentBattleCardStats",
                      "name": "currentBCstats",
                      "type": "tuple"
                    },
                    {
                      "internalType": "uint256[8]",
                      "name": "supportCardInHandIds",
                      "type": "uint256[8]"
                    },
                    {
                      "internalType": "uint256",
                      "name": "tableSupportCardStats",
                      "type": "uint256"
                    },
                    {
                      "components": [
                        {
                          "internalType": "uint256",
                          "name": "supportCardId",
                          "type": "uint256"
                        },
                        {
                          "components": [
                            {
                              "internalType": "int16",
                              "name": "power",
                              "type": "int16"
                            },
                            {
                              "internalType": "uint16",
                              "name": "numTurns",
                              "type": "uint16"
                            },
                            {
                              "internalType": "enum IPepemonCardOracle.EffectTo",
                              "name": "effectTo",
                              "type": "uint8"
                            },
                            {
                              "internalType": "enum IPepemonCardOracle.EffectFor",
                              "name": "effectFor",
                              "type": "uint8"
                            },
                            {
                              "internalType": "uint16",
                              "name": "reqCode",
                              "type": "uint16"
                            }
                          ],
                          "internalType": "struct IPepemonCardOracle.EffectMany",
                          "name": "effectMany",
                          "type": "tuple"
                        }
                      ],
                      "internalType": "struct PepemonBattle.TableSupportCardStats[5]",
                      "name": "tableSupportCards",
                      "type": "tuple[5]"
                    }
                  ],
                  "internalType": "struct PepemonBattle.Hand",
                  "name": "hand",
                  "type": "tuple"
                },
                {
                  "internalType": "uint256[60]",
                  "name": "totalSupportCardIds",
                  "type": "uint256[60]"
                },
                {
                  "internalType": "uint256",
                  "name": "playedCardCount",
                  "type": "uint256"
                }
              ],
              "internalType": "struct PepemonBattle.Player",
              "name": "player1",
              "type": "tuple"
            },
            {
              "components": [
                {
                  "internalType": "address",
                  "name": "playerAddr",
                  "type": "address"
                },
                {
                  "internalType": "uint256",
                  "name": "deckId",
                  "type": "uint256"
                },
                {
                  "components": [
                    {
                      "internalType": "int256",
                      "name": "health",
                      "type": "int256"
                    },
                    {
                      "internalType": "uint256",
                      "name": "battleCardId",
                      "type": "uint256"
                    },
                    {
                      "components": [
                        {
                          "internalType": "int256",
                          "name": "spd",
                          "type": "int256"
                        },
                        {
                          "internalType": "uint256",
                          "name": "inte",
                          "type": "uint256"
                        },
                        {
                          "internalType": "int256",
                          "name": "def",
                          "type": "int256"
                        },
                        {
                          "internalType": "int256",
                          "name": "atk",
                          "type": "int256"
                        },
                        {
                          "internalType": "int256",
                          "name": "sAtk",
                          "type": "int256"
                        },
                        {
                          "internalType": "int256",
                          "name": "sDef",
                          "type": "int256"
                        }
                      ],
                      "internalType": "struct PepemonBattle.CurrentBattleCardStats",
                      "name": "currentBCstats",
                      "type": "tuple"
                    },
                    {
                      "internalType": "uint256[8]",
                      "name": "supportCardInHandIds",
                      "type": "uint256[8]"
                    },
                    {
                      "internalType": "uint256",
                      "name": "tableSupportCardStats",
                      "type": "uint256"
                    },
                    {
                      "components": [
                        {
                          "internalType": "uint256",
                          "name": "supportCardId",
                          "type": "uint256"
                        },
                        {
                          "components": [
                            {
                              "internalType": "int16",
                              "name": "power",
                              "type": "int16"
                            },
                            {
                              "internalType": "uint16",
                              "name": "numTurns",
                              "type": "uint16"
                            },
                            {
                              "internalType": "enum IPepemonCardOracle.EffectTo",
                              "name": "effectTo",
                              "type": "uint8"
                            },
                            {
                              "internalType": "enum IPepemonCardOracle.EffectFor",
                              "name": "effectFor",
                              "type": "uint8"
                            },
                            {
                              "internalType": "uint16",
                              "name": "reqCode",
                              "type": "uint16"
                            }
                          ],
                          "internalType": "struct IPepemonCardOracle.EffectMany",
                          "name": "effectMany",
                          "type": "tuple"
                        }
                      ],
                      "internalType": "struct PepemonBattle.TableSupportCardStats[5]",
                      "name": "tableSupportCards",
                      "type": "tuple[5]"
                    }
                  ],
                  "internalType": "struct PepemonBattle.Hand",
                  "name": "hand",
                  "type": "tuple"
                },
                {
                  "internalType": "uint256[60]",
                  "name": "totalSupportCardIds",
                  "type": "uint256[60]"
                },
                {
                  "internalType": "uint256",
                  "name": "playedCardCount",
                  "type": "uint256"
                }
              ],
              "internalType": "struct PepemonBattle.Player",
              "name": "player2",
              "type": "tuple"
            },
            {
              "internalType": "uint256",
              "name": "currentTurn",
              "type": "uint256"
            },
            {
              "internalType": "enum PepemonBattle.Attacker",
              "name": "attacker",
              "type": "uint8"
            },
            {
              "internalType": "enum PepemonBattle.TurnHalves",
              "name": "turnHalves",
              "type": "uint8"
            }
          ],
          "internalType": "struct PepemonBattle.Battle",
          "name": "battle",
          "type": "tuple"
        }
      ],
      "name": "fight",
      "outputs": [
        {
          "components": [
            {
              "internalType": "uint256",
              "name": "battleId",
              "type": "uint256"
            },
            {
              "components": [
                {
                  "internalType": "address",
                  "name": "playerAddr",
                  "type": "address"
                },
                {
                  "internalType": "uint256",
                  "name": "deckId",
                  "type": "uint256"
                },
                {
                  "components": [
                    {
                      "internalType": "int256",
                      "name": "health",
                      "type": "int256"
                    },
                    {
                      "internalType": "uint256",
                      "name": "battleCardId",
                      "type": "uint256"
                    },
                    {
                      "components": [
                        {
                          "internalType": "int256",
                          "name": "spd",
                          "type": "int256"
                        },
                        {
                          "internalType": "uint256",
                          "name": "inte",
                          "type": "uint256"
                        },
                        {
                          "internalType": "int256",
                          "name": "def",
                          "type": "int256"
                        },
                        {
                          "internalType": "int256",
                          "name": "atk",
                          "type": "int256"
                        },
                        {
                          "internalType": "int256",
                          "name": "sAtk",
                          "type": "int256"
                        },
                        {
                          "internalType": "int256",
                          "name": "sDef",
                          "type": "int256"
                        }
                      ],
                      "internalType": "struct PepemonBattle.CurrentBattleCardStats",
                      "name": "currentBCstats",
                      "type": "tuple"
                    },
                    {
                      "internalType": "uint256[8]",
                      "name": "supportCardInHandIds",
                      "type": "uint256[8]"
                    },
                    {
                      "internalType": "uint256",
                      "name": "tableSupportCardStats",
                      "type": "uint256"
                    },
                    {
                      "components": [
                        {
                          "internalType": "uint256",
                          "name": "supportCardId",
                          "type": "uint256"
                        },
                        {
                          "components": [
                            {
                              "internalType": "int16",
                              "name": "power",
                              "type": "int16"
                            },
                            {
                              "internalType": "uint16",
                              "name": "numTurns",
                              "type": "uint16"
                            },
                            {
                              "internalType": "enum IPepemonCardOracle.EffectTo",
                              "name": "effectTo",
                              "type": "uint8"
                            },
                            {
                              "internalType": "enum IPepemonCardOracle.EffectFor",
                              "name": "effectFor",
                              "type": "uint8"
                            },
                            {
                              "internalType": "uint16",
                              "name": "reqCode",
                              "type": "uint16"
                            }
                          ],
                          "internalType": "struct IPepemonCardOracle.EffectMany",
                          "name": "effectMany",
                          "type": "tuple"
                        }
                      ],
                      "internalType": "struct PepemonBattle.TableSupportCardStats[5]",
                      "name": "tableSupportCards",
                      "type": "tuple[5]"
                    }
                  ],
                  "internalType": "struct PepemonBattle.Hand",
                  "name": "hand",
                  "type": "tuple"
                },
                {
                  "internalType": "uint256[60]",
                  "name": "totalSupportCardIds",
                  "type": "uint256[60]"
                },
                {
                  "internalType": "uint256",
                  "name": "playedCardCount",
                  "type": "uint256"
                }
              ],
              "internalType": "struct PepemonBattle.Player",
              "name": "player1",
              "type": "tuple"
            },
            {
              "components": [
                {
                  "internalType": "address",
                  "name": "playerAddr",
                  "type": "address"
                },
                {
                  "internalType": "uint256",
                  "name": "deckId",
                  "type": "uint256"
                },
                {
                  "components": [
                    {
                      "internalType": "int256",
                      "name": "health",
                      "type": "int256"
                    },
                    {
                      "internalType": "uint256",
                      "name": "battleCardId",
                      "type": "uint256"
                    },
                    {
                      "components": [
                        {
                          "internalType": "int256",
                          "name": "spd",
                          "type": "int256"
                        },
                        {
                          "internalType": "uint256",
                          "name": "inte",
                          "type": "uint256"
                        },
                        {
                          "internalType": "int256",
                          "name": "def",
                          "type": "int256"
                        },
                        {
                          "internalType": "int256",
                          "name": "atk",
                          "type": "int256"
                        },
                        {
                          "internalType": "int256",
                          "name": "sAtk",
                          "type": "int256"
                        },
                        {
                          "internalType": "int256",
                          "name": "sDef",
                          "type": "int256"
                        }
                      ],
                      "internalType": "struct PepemonBattle.CurrentBattleCardStats",
                      "name": "currentBCstats",
                      "type": "tuple"
                    },
                    {
                      "internalType": "uint256[8]",
                      "name": "supportCardInHandIds",
                      "type": "uint256[8]"
                    },
                    {
                      "internalType": "uint256",
                      "name": "tableSupportCardStats",
                      "type": "uint256"
                    },
                    {
                      "components": [
                        {
                          "internalType": "uint256",
                          "name": "supportCardId",
                          "type": "uint256"
                        },
                        {
                          "components": [
                            {
                              "internalType": "int16",
                              "name": "power",
                              "type": "int16"
                            },
                            {
                              "internalType": "uint16",
                              "name": "numTurns",
                              "type": "uint16"
                            },
                            {
                              "internalType": "enum IPepemonCardOracle.EffectTo",
                              "name": "effectTo",
                              "type": "uint8"
                            },
                            {
                              "internalType": "enum IPepemonCardOracle.EffectFor",
                              "name": "effectFor",
                              "type": "uint8"
                            },
                            {
                              "internalType": "uint16",
                              "name": "reqCode",
                              "type": "uint16"
                            }
                          ],
                          "internalType": "struct IPepemonCardOracle.EffectMany",
                          "name": "effectMany",
                          "type": "tuple"
                        }
                      ],
                      "internalType": "struct PepemonBattle.TableSupportCardStats[5]",
                      "name": "tableSupportCards",
                      "type": "tuple[5]"
                    }
                  ],
                  "internalType": "struct PepemonBattle.Hand",
                  "name": "hand",
                  "type": "tuple"
                },
                {
                  "internalType": "uint256[60]",
                  "name": "totalSupportCardIds",
                  "type": "uint256[60]"
                },
                {
                  "internalType": "uint256",
                  "name": "playedCardCount",
                  "type": "uint256"
                }
              ],
              "internalType": "struct PepemonBattle.Player",
              "name": "player2",
              "type": "tuple"
            },
            {
              "internalType": "uint256",
              "name": "currentTurn",
              "type": "uint256"
            },
            {
              "internalType": "enum PepemonBattle.Attacker",
              "name": "attacker",
              "type": "uint8"
            },
            {
              "internalType": "enum PepemonBattle.TurnHalves",
              "name": "turnHalves",
              "type": "uint8"
            }
          ],
          "internalType": "struct PepemonBattle.Battle",
          "name": "",
          "type": "tuple"
        }
      ],
      "stateMutability": "view",
      "type": "function"
    },
    {
      "inputs": [
        {
          "components": [
            {
              "internalType": "uint256",
              "name": "battleId",
              "type": "uint256"
            },
            {
              "components": [
                {
                  "internalType": "address",
                  "name": "playerAddr",
                  "type": "address"
                },
                {
                  "internalType": "uint256",
                  "name": "deckId",
                  "type": "uint256"
                },
                {
                  "components": [
                    {
                      "internalType": "int256",
                      "name": "health",
                      "type": "int256"
                    },
                    {
                      "internalType": "uint256",
                      "name": "battleCardId",
                      "type": "uint256"
                    },
                    {
                      "components": [
                        {
                          "internalType": "int256",
                          "name": "spd",
                          "type": "int256"
                        },
                        {
                          "internalType": "uint256",
                          "name": "inte",
                          "type": "uint256"
                        },
                        {
                          "internalType": "int256",
                          "name": "def",
                          "type": "int256"
                        },
                        {
                          "internalType": "int256",
                          "name": "atk",
                          "type": "int256"
                        },
                        {
                          "internalType": "int256",
                          "name": "sAtk",
                          "type": "int256"
                        },
                        {
                          "internalType": "int256",
                          "name": "sDef",
                          "type": "int256"
                        }
                      ],
                      "internalType": "struct PepemonBattle.CurrentBattleCardStats",
                      "name": "currentBCstats",
                      "type": "tuple"
                    },
                    {
                      "internalType": "uint256[8]",
                      "name": "supportCardInHandIds",
                      "type": "uint256[8]"
                    },
                    {
                      "internalType": "uint256",
                      "name": "tableSupportCardStats",
                      "type": "uint256"
                    },
                    {
                      "components": [
                        {
                          "internalType": "uint256",
                          "name": "supportCardId",
                          "type": "uint256"
                        },
                        {
                          "components": [
                            {
                              "internalType": "int16",
                              "name": "power",
                              "type": "int16"
                            },
                            {
                              "internalType": "uint16",
                              "name": "numTurns",
                              "type": "uint16"
                            },
                            {
                              "internalType": "enum IPepemonCardOracle.EffectTo",
                              "name": "effectTo",
                              "type": "uint8"
                            },
                            {
                              "internalType": "enum IPepemonCardOracle.EffectFor",
                              "name": "effectFor",
                              "type": "uint8"
                            },
                            {
                              "internalType": "uint16",
                              "name": "reqCode",
                              "type": "uint16"
                            }
                          ],
                          "internalType": "struct IPepemonCardOracle.EffectMany",
                          "name": "effectMany",
                          "type": "tuple"
                        }
                      ],
                      "internalType": "struct PepemonBattle.TableSupportCardStats[5]",
                      "name": "tableSupportCards",
                      "type": "tuple[5]"
                    }
                  ],
                  "internalType": "struct PepemonBattle.Hand",
                  "name": "hand",
                  "type": "tuple"
                },
                {
                  "internalType": "uint256[60]",
                  "name": "totalSupportCardIds",
                  "type": "uint256[60]"
                },
                {
                  "internalType": "uint256",
                  "name": "playedCardCount",
                  "type": "uint256"
                }
              ],
              "internalType": "struct PepemonBattle.Player",
              "name": "player1",
              "type": "tuple"
            },
            {
              "components": [
                {
                  "internalType": "address",
                  "name": "playerAddr",
                  "type": "address"
                },
                {
                  "internalType": "uint256",
                  "name": "deckId",
                  "type": "uint256"
                },
                {
                  "components": [
                    {
                      "internalType": "int256",
                      "name": "health",
                      "type": "int256"
                    },
                    {
                      "internalType": "uint256",
                      "name": "battleCardId",
                      "type": "uint256"
                    },
                    {
                      "components": [
                        {
                          "internalType": "int256",
                          "name": "spd",
                          "type": "int256"
                        },
                        {
                          "internalType": "uint256",
                          "name": "inte",
                          "type": "uint256"
                        },
                        {
                          "internalType": "int256",
                          "name": "def",
                          "type": "int256"
                        },
                        {
                          "internalType": "int256",
                          "name": "atk",
                          "type": "int256"
                        },
                        {
                          "internalType": "int256",
                          "name": "sAtk",
                          "type": "int256"
                        },
                        {
                          "internalType": "int256",
                          "name": "sDef",
                          "type": "int256"
                        }
                      ],
                      "internalType": "struct PepemonBattle.CurrentBattleCardStats",
                      "name": "currentBCstats",
                      "type": "tuple"
                    },
                    {
                      "internalType": "uint256[8]",
                      "name": "supportCardInHandIds",
                      "type": "uint256[8]"
                    },
                    {
                      "internalType": "uint256",
                      "name": "tableSupportCardStats",
                      "type": "uint256"
                    },
                    {
                      "components": [
                        {
                          "internalType": "uint256",
                          "name": "supportCardId",
                          "type": "uint256"
                        },
                        {
                          "components": [
                            {
                              "internalType": "int16",
                              "name": "power",
                              "type": "int16"
                            },
                            {
                              "internalType": "uint16",
                              "name": "numTurns",
                              "type": "uint16"
                            },
                            {
                              "internalType": "enum IPepemonCardOracle.EffectTo",
                              "name": "effectTo",
                              "type": "uint8"
                            },
                            {
                              "internalType": "enum IPepemonCardOracle.EffectFor",
                              "name": "effectFor",
                              "type": "uint8"
                            },
                            {
                              "internalType": "uint16",
                              "name": "reqCode",
                              "type": "uint16"
                            }
                          ],
                          "internalType": "struct IPepemonCardOracle.EffectMany",
                          "name": "effectMany",
                          "type": "tuple"
                        }
                      ],
                      "internalType": "struct PepemonBattle.TableSupportCardStats[5]",
                      "name": "tableSupportCards",
                      "type": "tuple[5]"
                    }
                  ],
                  "internalType": "struct PepemonBattle.Hand",
                  "name": "hand",
                  "type": "tuple"
                },
                {
                  "internalType": "uint256[60]",
                  "name": "totalSupportCardIds",
                  "type": "uint256[60]"
                },
                {
                  "internalType": "uint256",
                  "name": "playedCardCount",
                  "type": "uint256"
                }
              ],
              "internalType": "struct PepemonBattle.Player",
              "name": "player2",
              "type": "tuple"
            },
            {
              "internalType": "uint256",
              "name": "currentTurn",
              "type": "uint256"
            },
            {
              "internalType": "enum PepemonBattle.Attacker",
              "name": "attacker",
              "type": "uint8"
            },
            {
              "internalType": "enum PepemonBattle.TurnHalves",
              "name": "turnHalves",
              "type": "uint8"
            }
          ],
          "internalType": "struct PepemonBattle.Battle",
          "name": "battle",
          "type": "tuple"
        }
      ],
      "name": "goForBattle",
      "outputs": [
        {
          "components": [
            {
              "internalType": "uint256",
              "name": "battleId",
              "type": "uint256"
            },
            {
              "components": [
                {
                  "internalType": "address",
                  "name": "playerAddr",
                  "type": "address"
                },
                {
                  "internalType": "uint256",
                  "name": "deckId",
                  "type": "uint256"
                },
                {
                  "components": [
                    {
                      "internalType": "int256",
                      "name": "health",
                      "type": "int256"
                    },
                    {
                      "internalType": "uint256",
                      "name": "battleCardId",
                      "type": "uint256"
                    },
                    {
                      "components": [
                        {
                          "internalType": "int256",
                          "name": "spd",
                          "type": "int256"
                        },
                        {
                          "internalType": "uint256",
                          "name": "inte",
                          "type": "uint256"
                        },
                        {
                          "internalType": "int256",
                          "name": "def",
                          "type": "int256"
                        },
                        {
                          "internalType": "int256",
                          "name": "atk",
                          "type": "int256"
                        },
                        {
                          "internalType": "int256",
                          "name": "sAtk",
                          "type": "int256"
                        },
                        {
                          "internalType": "int256",
                          "name": "sDef",
                          "type": "int256"
                        }
                      ],
                      "internalType": "struct PepemonBattle.CurrentBattleCardStats",
                      "name": "currentBCstats",
                      "type": "tuple"
                    },
                    {
                      "internalType": "uint256[8]",
                      "name": "supportCardInHandIds",
                      "type": "uint256[8]"
                    },
                    {
                      "internalType": "uint256",
                      "name": "tableSupportCardStats",
                      "type": "uint256"
                    },
                    {
                      "components": [
                        {
                          "internalType": "uint256",
                          "name": "supportCardId",
                          "type": "uint256"
                        },
                        {
                          "components": [
                            {
                              "internalType": "int16",
                              "name": "power",
                              "type": "int16"
                            },
                            {
                              "internalType": "uint16",
                              "name": "numTurns",
                              "type": "uint16"
                            },
                            {
                              "internalType": "enum IPepemonCardOracle.EffectTo",
                              "name": "effectTo",
                              "type": "uint8"
                            },
                            {
                              "internalType": "enum IPepemonCardOracle.EffectFor",
                              "name": "effectFor",
                              "type": "uint8"
                            },
                            {
                              "internalType": "uint16",
                              "name": "reqCode",
                              "type": "uint16"
                            }
                          ],
                          "internalType": "struct IPepemonCardOracle.EffectMany",
                          "name": "effectMany",
                          "type": "tuple"
                        }
                      ],
                      "internalType": "struct PepemonBattle.TableSupportCardStats[5]",
                      "name": "tableSupportCards",
                      "type": "tuple[5]"
                    }
                  ],
                  "internalType": "struct PepemonBattle.Hand",
                  "name": "hand",
                  "type": "tuple"
                },
                {
                  "internalType": "uint256[60]",
                  "name": "totalSupportCardIds",
                  "type": "uint256[60]"
                },
                {
                  "internalType": "uint256",
                  "name": "playedCardCount",
                  "type": "uint256"
                }
              ],
              "internalType": "struct PepemonBattle.Player",
              "name": "player1",
              "type": "tuple"
            },
            {
              "components": [
                {
                  "internalType": "address",
                  "name": "playerAddr",
                  "type": "address"
                },
                {
                  "internalType": "uint256",
                  "name": "deckId",
                  "type": "uint256"
                },
                {
                  "components": [
                    {
                      "internalType": "int256",
                      "name": "health",
                      "type": "int256"
                    },
                    {
                      "internalType": "uint256",
                      "name": "battleCardId",
                      "type": "uint256"
                    },
                    {
                      "components": [
                        {
                          "internalType": "int256",
                          "name": "spd",
                          "type": "int256"
                        },
                        {
                          "internalType": "uint256",
                          "name": "inte",
                          "type": "uint256"
                        },
                        {
                          "internalType": "int256",
                          "name": "def",
                          "type": "int256"
                        },
                        {
                          "internalType": "int256",
                          "name": "atk",
                          "type": "int256"
                        },
                        {
                          "internalType": "int256",
                          "name": "sAtk",
                          "type": "int256"
                        },
                        {
                          "internalType": "int256",
                          "name": "sDef",
                          "type": "int256"
                        }
                      ],
                      "internalType": "struct PepemonBattle.CurrentBattleCardStats",
                      "name": "currentBCstats",
                      "type": "tuple"
                    },
                    {
                      "internalType": "uint256[8]",
                      "name": "supportCardInHandIds",
                      "type": "uint256[8]"
                    },
                    {
                      "internalType": "uint256",
                      "name": "tableSupportCardStats",
                      "type": "uint256"
                    },
                    {
                      "components": [
                        {
                          "internalType": "uint256",
                          "name": "supportCardId",
                          "type": "uint256"
                        },
                        {
                          "components": [
                            {
                              "internalType": "int16",
                              "name": "power",
                              "type": "int16"
                            },
                            {
                              "internalType": "uint16",
                              "name": "numTurns",
                              "type": "uint16"
                            },
                            {
                              "internalType": "enum IPepemonCardOracle.EffectTo",
                              "name": "effectTo",
                              "type": "uint8"
                            },
                            {
                              "internalType": "enum IPepemonCardOracle.EffectFor",
                              "name": "effectFor",
                              "type": "uint8"
                            },
                            {
                              "internalType": "uint16",
                              "name": "reqCode",
                              "type": "uint16"
                            }
                          ],
                          "internalType": "struct IPepemonCardOracle.EffectMany",
                          "name": "effectMany",
                          "type": "tuple"
                        }
                      ],
                      "internalType": "struct PepemonBattle.TableSupportCardStats[5]",
                      "name": "tableSupportCards",
                      "type": "tuple[5]"
                    }
                  ],
                  "internalType": "struct PepemonBattle.Hand",
                  "name": "hand",
                  "type": "tuple"
                },
                {
                  "internalType": "uint256[60]",
                  "name": "totalSupportCardIds",
                  "type": "uint256[60]"
                },
                {
                  "internalType": "uint256",
                  "name": "playedCardCount",
                  "type": "uint256"
                }
              ],
              "internalType": "struct PepemonBattle.Player",
              "name": "player2",
              "type": "tuple"
            },
            {
              "internalType": "uint256",
              "name": "currentTurn",
              "type": "uint256"
            },
            {
              "internalType": "enum PepemonBattle.Attacker",
              "name": "attacker",
              "type": "uint8"
            },
            {
              "internalType": "enum PepemonBattle.TurnHalves",
              "name": "turnHalves",
              "type": "uint8"
            }
          ],
          "internalType": "struct PepemonBattle.Battle",
          "name": "",
          "type": "tuple"
        },
        {
          "internalType": "address",
          "name": "winner",
          "type": "address"
        }
      ],
      "stateMutability": "view",
      "type": "function"
    },
    {
      "inputs": [
        {
          "internalType": "address",
          "name": "account",
          "type": "address"
        }
      ],
      "name": "isAdmin",
      "outputs": [
        {
          "internalType": "bool",
          "name": "",
          "type": "bool"
        }
      ],
      "stateMutability": "view",
      "type": "function"
    },
    {
      "inputs": [],
      "name": "renounceAdmin",
      "outputs": [],
      "stateMutability": "nonpayable",
      "type": "function"
    },
    {
      "inputs": [
        {
          "internalType": "bool",
          "name": "allow",
          "type": "bool"
        }
      ],
      "name": "setAllowBattleAgainstOneself",
      "outputs": [],
      "stateMutability": "nonpayable",
      "type": "function"
    },
    {
      "inputs": [
        {
          "internalType": "address",
          "name": "deckOracleAddress",
          "type": "address"
        }
      ],
      "name": "setBattleContractAddress",
      "outputs": [],
      "stateMutability": "nonpayable",
      "type": "function"
    },
    {
      "inputs": [
        {
          "internalType": "address",
          "name": "cardOracleAddress",
          "type": "address"
        }
      ],
      "name": "setCardContractAddress",
      "outputs": [],
      "stateMutability": "nonpayable",
      "type": "function"
    },
    {
      "inputs": [
        {
          "internalType": "address",
          "name": "randOracleAddress",
          "type": "address"
        }
      ],
      "name": "setRandNrGenContractAddress",
      "outputs": [],
      "stateMutability": "nonpayable",
      "type": "function"
    }
  ],
  "transactionHash": "0x6c26f22d82c6599666036737c82cb834439c77cbb58bdab9010866fb18391952",
  "args": [
    "0x4339A4f375c554379D1F3d9eDDe884C8b2c23210",
    "0x12EaA00470d8160DC43C11c32fD8c30E5fca0C05",
    "0xEB872fb86882Af5Ac3e920cCabB0F3dFe84428cb"
  ],
  "numDeployments": 3,
  "solcInputHash": "77074ce4823b83efbddac551ba8baad0",
  "bytecode": "0x60806040523480156200001157600080fd5b5060405162003b7c38038062003b7c833981016040819052620000349162000191565b6200003f336200009c565b60038054600480546001600160a01b03199081166001600160a01b0396871617909155600580549091169385169390931790925560016002556001600160a81b0319909116610100939092169290920260ff1916179055620001db565b620000b7816000620000ee60201b620011c61790919060201c565b6040516001600160a01b038216907f44d6d25963f097ad14f29f06854a01f575648a1ef82f30e562ccd3889717e33990600090a250565b6001600160a01b0381166200010257600080fd5b6200010e82826200013e565b156200011957600080fd5b6001600160a01b0316600090815260209190915260409020805460ff19166001179055565b60006001600160a01b0382166200015457600080fd5b506001600160a01b03166000908152602091909152604090205460ff1690565b80516001600160a01b03811681146200018c57600080fd5b919050565b600080600060608486031215620001a757600080fd5b620001b28462000174565b9250620001c26020850162000174565b9150620001d26040850162000174565b90509250925092565b61399180620001eb6000396000f3fe608060405234801561001057600080fd5b50600436106100cf5760003560e01c80637cdb32cd1161008c578063c6b34e1c11610066578063c6b34e1c146101c6578063d8963fc4146101e7578063daf98120146101fa578063ee56b3911461021a57600080fd5b80637cdb32cd1461018a57806380cfb679146101ab5780638bad0c0a146101be57600080fd5b8063108a3b42146100d457806320de985c1461010b57806324d7806c1461012c5780632c1e3c391461014f57806346864cd8146101645780637048027514610177575b600080fd5b6100e76100e236600461313b565b610248565b6040805192151583526001600160a01b039091166020830152015b60405180910390f35b61011e6101193660046131b9565b610292565b604051610102929190613601565b61013f61013a366004612f41565b610ac2565b6040519015158152602001610102565b61016261015d366004612f41565b610ad4565b005b610162610172366004612f41565b610b08565b610162610185366004612f41565b610b3c565b61019d61019836600461313b565b610b5a565b6040516101029291906135bc565b6101626101b9366004612f41565b610bfa565b610162610c34565b6101d96101d4366004612f63565b610c3f565b6040516101029291906135e4565b6101626101f5366004613054565b611051565b61020d61020836600461313b565b611076565b60405161010291906135ad565b61023a610228366004613339565b60016020526000908152604090205481565b604051908152602001610102565b6000806000836020015160400151600001511361026b5750506020015151600191565b6040808401510151516000126102875750506040015151600191565b506000928392509050565b61029a612955565b6102a2612955565b60008060005b866040015160200151811015610694576000876060015182600881106102d0576102d06138d8565b6020020151600354604051634ca7d96360e11b8152600481018390529192506000916101009091046001600160a01b03169063994fb2c6906024016101c06040518083038186803b15801561032457600080fd5b505afa158015610338573d6000803e3d6000fd5b505050506040513d601f19601f8201168201806040525081019061035c91906131f0565b9050600081602001516003811115610376576103766138c2565b14156104305760008160400151905060008061039d8c8c856080015161ffff166001611212565b9150915081156103f65780836020015160010b6103ba919061375f565b8c604001516060018181516103cf9190613706565b90525060208301516103e590829060010b61375f565b6103ef9088613706565b9650610428565b826000015160010b8c604001516060018181516104139190613706565b90525082516104259060010b88613706565b96505b50505061067f565b600181602001516003811115610448576104486138c2565b14156106785780608001511561050d57600160005b848110156104a2578a60600151816008811061047b5761047b6138d8565b602002015184141561049057600091506104a2565b8061049a8161386f565b91505061045d565b50806104b057505050610682565b60005b8a608001518110156104fd578a60a0015181600581106104d5576104d56138d8565b6020020151518414156104eb57600091506104fd565b806104f58161386f565b9150506104b3565b508061050b57505050610682565b505b60008160400151905060008061052e8c8c856080015161ffff166001611212565b9150915081156105e05760018111156105715780836020015160010b610554919061375f565b8c604001516060018181516105699190613706565b905250610612565b600183604001516005811115610589576105896138c2565b14156105a957505050506040880151608081015160609091015250610682565b602083015160010b6105c357600197505050505050610682565b826020015160010b8c604001516060018181516105699190613706565b826000015160010b8c604001516060018181516105fd9190613706565b905250825161060f9060010b88613706565b96505b60608401515160010b156104285760058c60800151101561042857604080518082019091528581526060850151602082015260a08d015160808e018051906106598261386f565b90526005811061066b5761066b6138d8565b602002015250505061067f565b5050610682565b50505b8061068c8161386f565b9150506102a8565b5081156106b5578086604001516060018181516106b19190613706565b9052505b506000905080805b856040015160200151811015610a97576000866060015182600881106106e5576106e56138d8565b6020020151600354604051634ca7d96360e11b8152600481018390529192506000916101009091046001600160a01b03169063994fb2c6906024016101c06040518083038186803b15801561073957600080fd5b505afa15801561074d573d6000803e3d6000fd5b505050506040513d601f19601f8201168201806040525081019061077191906131f0565b905060028160200151600381111561078b5761078b6138c2565b1415610845576000816040015190506000806107b28c8c856080015161ffff166000611212565b91509150811561080b5780836020015160010b6107cf919061375f565b8b604001516040018181516107e49190613706565b90525060208301516107fa90829060010b61375f565b6108049088613706565b965061083d565b826000015160010b8b604001516040018181516108289190613706565b905250825161083a9060010b88613706565b96505b505050610a82565b60038160200151600381111561085d5761085d6138c2565b1415610a7b5780608001511561091557600160005b848110156108b75789606001518160088110610890576108906138d8565b60200201518414156108a557600091506108b7565b806108af8161386f565b915050610872565b5060005b8960800151811015610905578960a0015181600581106108dd576108dd6138d8565b6020020151518414156108f35760009150610905565b806108fd8161386f565b9150506108bb565b508061091357505050610a85565b505b6000816040015190506000806109368c8c856080015161ffff166000611212565b9150915081156109e35780156109765780836020015160010b610959919061375f565b8b6040015160400181815161096e9190613706565b905250610a15565b60038360400151600581111561098e5761098e6138c2565b14156109ac575050505060408781015160a081015191015250610a85565b602083015160010b6109c657600197505050505050610a85565b826020015160010b8b6040015160400181815161096e9190613706565b826000015160010b8b60400151604001818151610a009190613706565b9052508251610a129060010b88613706565b96505b60608401515160010b1561083d5760058b60800151101561083d57604080518082019091528581526060850151602082015260a08c015160808d01805190610a5c8261386f565b905260058110610a6e57610a6e6138d8565b6020020152505050610a82565b5050610a85565b50505b80610a8f8161386f565b9150506106bd565b508115610ab857808560400151604001818151610ab49190613706565b9052505b5093949293505050565b6000610ace818361152d565b92915050565b610add33610ac2565b610ae657600080fd5b600580546001600160a01b0319166001600160a01b0392909216919091179055565b610b1133610ac2565b610b1a57600080fd5b600480546001600160a01b0319166001600160a01b0392909216919091179055565b610b4533610ac2565b610b4e57600080fd5b610b5781611562565b50565b610b6261299c565b600080610b9984602001516040015160200151856040015160400151602001518660200151602001518760400151602001516115a4565b9050610ba584826118f8565b935060005b610bb385611c5c565b9450610bbe85611076565b9450600080610bcc87610248565b915091508115610bdf579150610bf29050565b610be98785611dc9565b96505050610baa565b939492505050565b610c0333610ac2565b610c0c57600080fd5b600380546001600160a01b0390921661010002610100600160a81b0319909216919091179055565b610c3d33611e0f565b565b610c4761299c565b6000610c5233610ac2565b610c5b57600080fd5b60035460ff1680610c7e5750836001600160a01b0316866001600160a01b031614155b610cdc5760405162461bcd60e51b815260206004820152602560248201527f506570656d6f6e426174746c653a2043616e6e6f7420626174746c6520796f756044820152643939b2b63360d91b606482015260840160405180910390fd5b6004805460405163a090195d60e01b81529182018790526000916001600160a01b039091169063a090195d90602401604080518083038186803b158015610d2257600080fd5b505afa158015610d36573d6000803e3d6000fd5b505050506040513d601f19601f82011682018060405250810190610d5a919061336b565b506004805460405163a090195d60e01b81529182018790529192506000916001600160a01b03169063a090195d90602401604080518083038186803b158015610da257600080fd5b505afa158015610db6573d6000803e3d6000fd5b505050506040513d601f19601f82011682018060405250810190610dda919061336b565b50600354604051632552294360e11b8152600481018590529192506000916101009091046001600160a01b031690634aa45286906024016101206040518083038186803b158015610e2a57600080fd5b505afa158015610e3e573d6000803e3d6000fd5b505050506040513d601f19601f82011682018060405250810190610e62919061308c565b600354604051632552294360e11b8152600481018590529192506000916101009091046001600160a01b031690634aa45286906024016101206040518083038186803b158015610eb157600080fd5b505afa158015610ec5573d6000803e3d6000fd5b505050506040513d601f19601f82011682018060405250810190610ee9919061308c565b9050610ef361299c565b600254816000018181525050826040015161ffff1681602001516040015160000181815250508481602001516040015160200181815250508a8160200151600001906001600160a01b031690816001600160a01b0316815250508981602001516020018181525050816040015161ffff168160400151604001516000018181525050838160400151604001516020018181525050888160400151600001906001600160a01b031690816001600160a01b0316815250508781604001516020018181525050610fc081611e51565b6002805460009081526001602090815260409182902093909355905481519081529182018c905281018990526001600160a01b03808b1691908d16907f120b95ba2da84b9e69c1acba6099b801de6f291523db8bdf56b0c268b6f2c42c9060600160405180910390a3600280548291600061103a8361386f565b919050559650965050505050505b94509492505050565b61105a33610ac2565b61106357600080fd5b6003805460ff1916911515919091179055565b61107e61299c565b611086612955565b61108e612955565b6000846080015160018111156110a6576110a66138c2565b14156110c757836020015160400151915083604001516040015190506110de565b836040015160400151915083602001516040015190505b6110e88282610292565b90925090506110f78282611f37565b826040015160600181815161110c9190613706565b905250604080820151810151908301516060015113156111595780604001516040015182604001516060015161114291906137e4565b815182906111519083906137e4565b905250611170565b60018160000181815161116c91906137e4565b9052505b600084608001516001811115611188576111886138c2565b14156111a8576020840151604090810183905280850151018190526111be565b6020840151604090810182905280850151018290525b509192915050565b6001600160a01b0381166111d957600080fd5b6111e3828261152d565b156111ed57600080fd5b6001600160a01b0316600090815260209190915260409020805460ff19166001179055565b600080806001856112265760019150611520565b856001141561124357600588604001516020015111159150611520565b8560021415611346576001915060005b87604001516020015181101561134057600354606089015160009161010090046001600160a01b031690634bcb9613908460088110611294576112946138d8565b60200201516040518263ffffffff1660e01b81526004016112b791815260200190565b60206040518083038186803b1580156112cf57600080fd5b505afa1580156112e3573d6000803e3d6000fd5b505050506040513d601f19601f820116820180604052508101906113079190613071565b9050600281600381111561131d5761131d6138c2565b141561132d576000935050611340565b50806113388161386f565b915050611253565b50611520565b85600314156113675761135c88600060026121e1565b935093505050611048565b856004141561137d5761135c88600060036121e1565b85600514156113925761135c886000806121e1565b85600614156113a85761135c87600260036121e1565b85600714156113be5761135c87600260046121e1565b85600814156113db57600587604001516020015111159150611520565b85600914156113f857600787604001516020015110159150611520565b85600a14156115005760005b8860400151602001518110156114f65760035460608a015160009161010090046001600160a01b03169063994fb2c6908460088110611445576114456138d8565b60200201516040518263ffffffff1660e01b815260040161146891815260200190565b6101c06040518083038186803b15801561148157600080fd5b505afa158015611495573d6000803e3d6000fd5b505050506040513d601f19601f820116820180604052508101906114b991906131f0565b90506001816020015160038111156114d3576114d36138c2565b14156114e35760019350506114f6565b50806114ee8161386f565b915050611404565b5060019050611520565b85600b14156115205761151d85611517578761231e565b8861231e565b91505b9097909650945050505050565b60006001600160a01b03821661154257600080fd5b506001600160a01b03166000908152602091909152604090205460ff1690565b61156d6000826111c6565b6040516001600160a01b038216907f44d6d25963f097ad14f29f06854a01f575648a1ef82f30e562ccd3889717e33990600090a250565b6115ac6129ee565b600354604051632552294360e11b81526004810187905260009161010090046001600160a01b031690634aa45286906024016101206040518083038186803b1580156115f757600080fd5b505afa15801561160b573d6000803e3d6000fd5b505050506040513d601f19601f8201168201806040525081019061162f919061308c565b600354604051632552294360e11b8152600481018890529192506000916101009091046001600160a01b031690634aa45286906024016101206040518083038186803b15801561167e57600080fd5b505afa158015611692573d6000803e3d6000fd5b505050506040513d601f19601f820116820180604052508101906116b6919061308c565b600480546040516337260b2960e11b81529182018890529192506000916001600160a01b031690636e4c16529060240160006040518083038186803b1580156116fe57600080fd5b505afa158015611712573d6000803e3d6000fd5b505050506040513d6000823e601f3d908101601f1916820160405261173a9190810190612fa7565b600480546040516337260b2960e11b81529182018890529192506000916001600160a01b031690636e4c16529060240160006040518083038186803b15801561178257600080fd5b505afa158015611796573d6000803e3d6000fd5b505050506040513d6000823e601f3d908101601f191682016040526117be9190810190612fa7565b60048054604051639895d74960e01b81529182018a90529192506000916001600160a01b031690639895d7499060240160206040518083038186803b15801561180657600080fd5b505afa15801561181a573d6000803e3d6000fd5b505050506040513d601f19601f8201168201806040525081019061183e9190613352565b60048054604051639895d74960e01b81529182018a90529192506000916001600160a01b031690639895d7499060240160206040518083038186803b15801561188657600080fd5b505afa15801561189a573d6000803e3d6000fd5b505050506040513d601f19601f820116820180604052508101906118be9190613352565b6040805160c08101825293845260208401919091528201959095526060810193909352608083019190915260a08201529695505050505050565b61190061299c565b602083015160408085015190840151611918906123c8565b6040808401510152606084015161192e906123c8565b60408083015101528351602085015160608701516000906119519060059061388a565b1590508015611a4a576000611974886080015161196f60458c61242e565b61248b565b905060005b848110156119c857818181518110611993576119936138d8565b6020026020010151876060015182603c81106119b1576119b16138d8565b6020020152806119c08161386f565b915050611979565b5060006080870181905260a08901516119e79061196f6101a48d61242e565b905060005b84811015611a3b57818181518110611a0657611a066138d8565b6020026020010151876060015182603c8110611a2457611a246138d8565b602002015280611a338161386f565b9150506119ec565b50506000608086015250611a76565b611a5c85604001518560400151612576565b6040808701829052850151611a7091612576565b60408501525b6000856080015184611a889190613823565b9050856040015160400151602001518110611aaf5785604001516040015160200151611ab1565b805b60408088015101516020015260005b86604001516040015160200151811015611b2e5760608701516080880151611ae89083613747565b603c8110611af857611af86138d8565b60200201518760400151606001518260088110611b1757611b176138d8565b602002015280611b268161386f565b915050611ac0565b508560400151604001516020015186608001818151611b4d9190613747565b9052506080850151611b5f9084613823565b9050846040015160400151602001518110611b865784604001516040015160200151611b88565b805b60408087015101516020015260005b85604001516040015160200151811015611c055760608601516080870151611bbf9083613747565b603c8110611bcf57611bcf6138d8565b60200201518660400151606001518260088110611bee57611bee6138d8565b602002015280611bfd8161386f565b915050611b97565b508460400151604001516020015185608001818151611c249190613747565b905250602089018690526040890185905260608901805190611c458261386f565b90525050600060a089015250959695505050505050565b611c6461299c565b6020820151604090810151810151818401518201519091015160008460a001516001811115611c9557611c956138c2565b1415611d6e57805182511315611cb557600060808501815b9052506111be565b805182511215611cd9576080840160015b90816001811115611cad57611cad6138c2565b806020015182602001511115611cf457608084016000611cc6565b806020015182602001511015611d0f57608084016001611cc6565b60006002611d2062010f2c8761242e565b611d2a919061388a565b90508015611d39576001611d3c565b60005b85608001906001811115611d5257611d526138c2565b90816001811115611d6557611d656138c2565b905250506111be565b600084608001516001811115611d8657611d866138c2565b14611d92576000611d95565b60015b84608001906001811115611dab57611dab6138c2565b90816001811115611dbe57611dbe6138c2565b905250509192915050565b611dd161299c565b60008360a001516001811115611de957611de96138c2565b1415611dfb57600160a0840152611e08565b611e0583836118f8565b92505b5090919050565b611e1a60008261290d565b6040516001600160a01b038216907fa3b62bc36326052d97ea62d63c3d60308ed4c3ea8ac079dd8499f1e9c4f80c0f90600090a250565b600080600560009054906101000a90046001600160a01b03166001600160a01b031663dbdff2c16040518163ffffffff1660e01b815260040160206040518083038186803b158015611ea257600080fd5b505afa158015611eb6573d6000803e3d6000fd5b505050506040513d601f19601f82011682018060405250810190611eda9190613352565b602084810151516040958601515186514381850152808801949094526bffffffffffffffffffffffff19606092831b811683860152911b166074830152845180830360680181526088909201909452805193019290922092915050565b60208281015190820151600354604051632552294360e11b815260048101849052600093849390929091849161010090046001600160a01b031690634aa45286906024016101206040518083038186803b158015611f9457600080fd5b505afa158015611fa8573d6000803e3d6000fd5b505050506040513d601f19601f82011682018060405250810190611fcc919061308c565b60200151600354604051632552294360e11b8152600481018590529192506000916101009091046001600160a01b031690634aa45286906024016101206040518083038186803b15801561201f57600080fd5b505afa158015612033573d6000803e3d6000fd5b505050506040513d601f19601f82011682018060405250810190612057919061308c565b6020015160035460405163b230345360e01b81529192506000916101009091046001600160a01b03169063b230345390612095908590600401613593565b604080518083038186803b1580156120ac57600080fd5b505afa1580156120c0573d6000803e3d6000fd5b505050506040513d601f19601f820116820180604052508101906120e491906132de565b5160035460405163b230345360e01b81529192506000916101009091046001600160a01b03169063b23034539061211f908690600401613593565b604080518083038186803b15801561213657600080fd5b505afa15801561214a573d6000803e3d6000fd5b505050506040513d601f19601f8201168201806040525081019061216e91906132de565b60200151905081600a811115612186576121866138c2565b84600a811115612198576121986138c2565b14156121a357600296505b80600a8111156121b5576121b56138c2565b84600a8111156121c7576121c76138c2565b14156121d35760011996505b509498975050505050505050565b6000806000805b86604001516020015181101561230f57600354606088015160009161010090046001600160a01b03169063994fb2c6908460088110612229576122296138d8565b60200201516040518263ffffffff1660e01b815260040161224c91815260200190565b6101c06040518083038186803b15801561226557600080fd5b505afa158015612279573d6000803e3d6000fd5b505050506040513d601f19601f8201168201806040525081019061229d91906131f0565b90508660038111156122b1576122b16138c2565b816020015160038111156122c7576122c76138c2565b146122d257506122fd565b6040810151805160010b8714806122e7575086155b156122fa57836122f68161386f565b9450505b50505b806123078161386f565b9150506121e8565b50801515969095509350505050565b6003546020820151604051632552294360e11b8152600481019190915260009161010090046001600160a01b031690634aa45286906024016101206040518083038186803b15801561236f57600080fd5b505afa158015612383573d6000803e3d6000fd5b505050506040513d601f19601f820116820180604052508101906123a7919061308c565b6040015161ffff16826000015160026123c0919061375f565b131592915050565b6123d0612a30565b6123d8612a30565b60608084015161ffff90811683526080808601518216602085015260a0808701518316604086015260c087015183169385019390935260e086015182169084015261010090940151909316928101929092525090565b6060810151815160009081526001602090815260408083205490519293849361246b93889391019283526020830191909152604082015260600190565b60408051808303601f190181529190528051602090910120949350505050565b606060005b83518110156111be5760008185516124a89190613823565b6124b2908561388a565b6124bc9083613747565b905060008582815181106124d2576124d26138d8565b602002602001015190508583815181106124ee576124ee6138d8565b6020026020010151868381518110612508576125086138d8565b60200260200101818152505080868481518110612527576125276138d8565b6020026020010181815250508460405160200161254691815260200190565b6040516020818303038152906040528051906020012060001c94505050808061256e9061386f565b915050612490565b61257e612955565b60005b83608001518110156111be5760008460a0015182600581106125a5576125a56138d8565b602002015190506000816020015190506001816020015161ffff16106128f8576000816060015160018111156125dd576125dd6138c2565b141561270d576000816040015160058111156125fb576125fb6138c2565b141561262657806000015160010b866040015160600181815161261e9190613706565b90525061282a565b60028160400151600581111561263e5761263e6138c2565b141561266157806000015160010b866040015160400181815161261e9190613706565b600481604001516005811115612679576126796138c2565b141561269c57806000015160010b866040015160000181815161261e9190613706565b6005816040015160058111156126b4576126b46138c2565b1415612708576000816000015160010b8760400151602001516126d79190613706565b9050600881136126e757806126ea565b60085b9050600081136126fb5760006126fd565b805b604088015160200152505b61282a565b600081604001516005811115612725576127256138c2565b141561274857806000015160010b856040015160600181815161261e9190613706565b600281604001516005811115612760576127606138c2565b141561278357806000015160010b856040015160400181815161261e9190613706565b60048160400151600581111561279b5761279b6138c2565b14156127be57806000015160010b856040015160000181815161261e9190613706565b6005816040015160058111156127d6576127d66138c2565b141561282a576000816000015160010b8660400151602001516127f99190613706565b905060088113612809578061280c565b60085b90506000811361281d57600061281f565b805b604087015160200152505b6020810180519061283a8261383a565b61ffff908116909152602083015116151590506128f857600186608001516128629190613823565b8310156128b0578560a001516001876080015161287f9190613823565b6005811061288f5761288f6138d8565b60200201518660a0015184600581106128aa576128aa6138d8565b60200201525b8560a00151600187608001516128c69190613823565b600581106128d6576128d66138d8565b602002016128e2612a66565b9052608086018051906128f482613858565b9052505b505080806129059061386f565b915050612581565b6001600160a01b03811661292057600080fd5b61292a828261152d565b61293357600080fd5b6001600160a01b0316600090815260209190915260409020805460ff19169055565b6040518060c001604052806000815260200160008152602001612976612a30565b8152602001612983612aaa565b815260200160008152602001612997612ac9565b905290565b6040518060c00160405280600081526020016129b6612af6565b81526020016129c3612af6565b815260200160008152602001600060018111156129e2576129e26138c2565b81526020016000905290565b6040518060c001604052806000815260200160008152602001612a0f612b2f565b8152602001612a1c612b2f565b815260200160608152602001606081525090565b6040518060c001604052806000815260200160008152602001600081526020016000815260200160008152602001600081525090565b6040518060400160405280600081526020016129976040805160a0810182526000808252602082018190529091820190815260200160008152600060209091015290565b6040518061010001604052806008906020820280368337509192915050565b6040518060a001604052806005905b612ae0612a66565b815260200190600190039081612ad85790505090565b6040805160a08101825260008082526020820152908101612b15612955565b8152602001612b22612b7c565b8152602001600081525090565b60408051610120810190915260008082526020820190815260006020820181905260408201819052606082018190526080820181905260a0820181905260c0820181905260e09091015290565b604051806107800160405280603c906020820280368337509192915050565b80356001600160a01b0381168114612bb257600080fd5b919050565b600082601f830112612bc857600080fd5b612bd0613647565b8083856103c086011115612be357600080fd5b60005b6005811015612ca25781870360c080821215612c0157600080fd5b612c0961361e565b84358152602060a080601f1986011215612c2257600080fd5b612c2a613647565b945081870135612c398161393c565b8552604087810135612c4a8161394b565b86840152606088810135612c5d8161392f565b8083890152506080915081890135612c7481613922565b908701529087013590612c868261394b565b8501528181019390935286529401939190910190600101612be6565b509095945050505050565b600082601f830112612cbe57600080fd5b60405161010080820182811067ffffffffffffffff82111715612ce357612ce36138ee565b6040528184828101871015612cf757600080fd5b600092505b6008831015612d1c57803582526001929092019160209182019101612cfc565b509195945050505050565b8051612bb281613914565b8051600b8110612bb257600080fd5b805160048110612bb257600080fd5b600060a08284031215612d6257600080fd5b612d6a613647565b90508151612d778161393c565b81526020820151612d878161394b565b60208201526040820151612d9a8161392f565b60408201526060820151612dad81613922565b60608201526080820151612dc08161394b565b608082015292915050565b60008183036105e0811215612ddf57600080fd5b612de761366a565b9150823582526020830135602083015260c0603f1982011215612e0957600080fd5b50612e1261366a565b60408301358152606083013560208201526080830135604082015260a0830135606082015260c0830135608082015260e083013560a082015280604083015250612e60836101008401612cad565b60608201526102008201356080820152612e7e836102208401612bb7565b60a082015292915050565b6000610dc08284031215612e9c57600080fd5b612ea4613647565b9050612eaf82612b9b565b815260208083013581830152612ec88460408501612dcb565b60408301528361063f840112612edd57600080fd5b612ee56136b1565b806106208501610da0860187811115612efd57600080fd5b60005b603c811015612f1d57823585529385019391850191600101612f00565b5082606087015280356080870152505050505092915050565b8051612bb28161394b565b600060208284031215612f5357600080fd5b612f5c82612b9b565b9392505050565b60008060008060808587031215612f7957600080fd5b612f8285612b9b565b935060208501359250612f9760408601612b9b565b9396929550929360600135925050565b60006020808385031215612fba57600080fd5b825167ffffffffffffffff80821115612fd257600080fd5b818501915085601f830112612fe657600080fd5b815181811115612ff857612ff86138ee565b8060051b91506130098483016136d5565b8181528481019084860184860187018a101561302457600080fd5b600095505b83861015613047578051835260019590950194918601918601613029565b5098975050505050505050565b60006020828403121561306657600080fd5b8135612f5c81613914565b60006020828403121561308357600080fd5b612f5c82612d41565b6000610120828403121561309f57600080fd5b6130a761368d565b825181526130b760208401612d32565b60208201526130c860408401612f36565b60408201526130d960608401612f36565b60608201526130ea60808401612f36565b60808201526130fb60a08401612f36565b60a082015261310c60c08401612f36565b60c082015261311d60e08401612f36565b60e0820152610100613130818501612f36565b908201529392505050565b6000611c00828403121561314e57600080fd5b61315661366a565b823581526131678460208501612e89565b602082015261317a84610de08501612e89565b6040820152611ba08301356060820152611bc083013561319981613922565b6080820152611be08301356131ad81613922565b60a08201529392505050565b600080610bc083850312156131cd57600080fd5b6131d78484612dcb565b91506131e7846105e08501612dcb565b90509250929050565b60008183036101c081121561320457600080fd5b61320c61366a565b8351815261321c60208501612d41565b602082015260a0603f198301121561323357600080fd5b61323b613647565b9150604084015161324b8161393c565b8252606084015161325b8161393c565b6020830152608084015161326e8161392f565b604083015260a084015161328181613922565b606083015260c08401516132948161394b565b6080830152604081018290526132ad8560e08601612d50565b60608201526132bf6101808501612d27565b60808201526132d16101a08501612d27565b60a0820152949350505050565b6000604082840312156132f057600080fd5b6040516040810181811067ffffffffffffffff82111715613313576133136138ee565b60405261331f83612d32565b815261332d60208401612d32565b60208201529392505050565b60006020828403121561334b57600080fd5b5035919050565b60006020828403121561336457600080fd5b5051919050565b6000806040838503121561337e57600080fd5b505080516020909101519092909150565b8060005b600581101561341b578151805185526020808201519150815160010b8187015280820151604061ffff808316828a015281850151925060609150600683106133dd576133dd6138c2565b88820192909252830151906080906133f483613904565b88820192909252929092015190911660a086015260c0909401939190910190600101613393565b50505050565b8060005b600881101561341b578151845260209384019390910190600101613425565b80518252602081015161345a602084018261352c565b50604081015161346e610de084018261352c565b506060810151611ba0830152608081015161348881613904565b611bc083015260a081015161349c81613904565b80611be0840152505050565b80518252602081015160208301526040810151805160408401526020810151606084015260408101516080840152606081015160a0840152608081015160c084015260a081015160e0840152506060810151613508610100840182613421565b50608081015161020083015260a081015161352761022084018261338f565b505050565b80516001600160a01b031682526020808201518184015260408083015190613556908501826134a8565b506060820151610620840160005b603c81101561358157825182529183019190830190600101613564565b5050505060800151610da09190910152565b60208101600b83106135a7576135a76138c2565b91905290565b611c008101610ace8284613444565b611c2081016135cb8285613444565b6001600160a01b0392909216611c009190910152919050565b611c2081016135f38285613444565b82611c008301529392505050565b610bc0810161361082856134a8565b612f5c6105e08301846134a8565b6040805190810167ffffffffffffffff81118282101715613641576136416138ee565b60405290565b60405160a0810167ffffffffffffffff81118282101715613641576136416138ee565b60405160c0810167ffffffffffffffff81118282101715613641576136416138ee565b604051610120810167ffffffffffffffff81118282101715613641576136416138ee565b604051610780810167ffffffffffffffff81118282101715613641576136416138ee565b604051601f8201601f1916810167ffffffffffffffff811182821017156136fe576136fe6138ee565b604052919050565b600080821280156001600160ff1b0384900385131615613728576137286138ac565b600160ff1b8390038412811615613741576137416138ac565b50500190565b6000821982111561375a5761375a6138ac565b500190565b60006001600160ff1b0381841382841380821686840486111615613785576137856138ac565b600160ff1b60008712828116878305891216156137a4576137a46138ac565b600087129250878205871284841616156137c0576137c06138ac565b878505871281841616156137d6576137d66138ac565b505050929093029392505050565b60008083128015600160ff1b850184121615613802576138026138ac565b6001600160ff1b038401831381161561381d5761381d6138ac565b50500390565b600082821015613835576138356138ac565b500390565b600061ffff82168061384e5761384e6138ac565b6000190192915050565b600081613867576138676138ac565b506000190190565b6000600019821415613883576138836138ac565b5060010190565b6000826138a757634e487b7160e01b600052601260045260246000fd5b500690565b634e487b7160e01b600052601160045260246000fd5b634e487b7160e01b600052602160045260246000fd5b634e487b7160e01b600052603260045260246000fd5b634e487b7160e01b600052604160045260246000fd5b60028110610b5757610b576138c2565b8015158114610b5757600080fd5b60028110610b5757600080fd5b60068110610b5757600080fd5b8060010b8114610b5757600080fd5b61ffff81168114610b5757600080fdfea26469706673582212207187cf3e85ac7037eee66a303af0d2762e733c1cc737e743f331a5270299308b64736f6c63430008060033",
  "devdoc": {
    "kind": "dev",
    "methods": {
      "createBattle(address,uint256,address,uint256)": {
        "details": "Create battle",
        "params": {
          "p1Addr": "address player1",
          "p1DeckId": "uint256",
          "p2Addr": "address player2",
          "p2DeckId": "uint256"
        }
      }
    },
    "version": 1
  },
  "userdoc": {
    "kind": "user",
    "methods": {},
    "version": 1
  },
  "storageLayout": {
    "storage": [
      {
        "astId": 8463,
        "contract": "contracts/PepemonBattle.sol:PepemonBattle",
        "label": "admins",
        "offset": 0,
        "slot": "0",
        "type": "t_struct(Role)8969_storage"
      },
      {
        "astId": 2436,
        "contract": "contracts/PepemonBattle.sol:PepemonBattle",
        "label": "battleIdRNGSeed",
        "offset": 0,
        "slot": "1",
        "type": "t_mapping(t_uint256,t_uint256)"
      },
      {
        "astId": 2539,
        "contract": "contracts/PepemonBattle.sol:PepemonBattle",
        "label": "_nextBattleId",
        "offset": 0,
        "slot": "2",
        "type": "t_uint256"
      },
      {
        "astId": 2541,
        "contract": "contracts/PepemonBattle.sol:PepemonBattle",
        "label": "_allowBattleAgainstOneself",
        "offset": 0,
        "slot": "3",
        "type": "t_bool"
      },
      {
        "astId": 2544,
        "contract": "contracts/PepemonBattle.sol:PepemonBattle",
        "label": "_cardContract",
        "offset": 1,
        "slot": "3",
        "type": "t_contract(IPepemonCardOracle)8391"
      },
      {
        "astId": 2547,
        "contract": "contracts/PepemonBattle.sol:PepemonBattle",
        "label": "_deckContract",
        "offset": 0,
        "slot": "4",
        "type": "t_contract(PepemonCardDeck)6177"
      },
      {
        "astId": 2550,
        "contract": "contracts/PepemonBattle.sol:PepemonBattle",
        "label": "_randNrGenContract",
        "offset": 0,
        "slot": "5",
        "type": "t_contract(ChainLinkRngOracle)8765"
      }
    ],
    "types": {
      "t_address": {
        "encoding": "inplace",
        "label": "address",
        "numberOfBytes": "20"
      },
      "t_bool": {
        "encoding": "inplace",
        "label": "bool",
        "numberOfBytes": "1"
      },
      "t_contract(ChainLinkRngOracle)8765": {
        "encoding": "inplace",
        "label": "contract ChainLinkRngOracle",
        "numberOfBytes": "20"
      },
      "t_contract(IPepemonCardOracle)8391": {
        "encoding": "inplace",
        "label": "contract IPepemonCardOracle",
        "numberOfBytes": "20"
      },
      "t_contract(PepemonCardDeck)6177": {
        "encoding": "inplace",
        "label": "contract PepemonCardDeck",
        "numberOfBytes": "20"
      },
      "t_mapping(t_address,t_bool)": {
        "encoding": "mapping",
        "key": "t_address",
        "label": "mapping(address => bool)",
        "numberOfBytes": "32",
        "value": "t_bool"
      },
      "t_mapping(t_uint256,t_uint256)": {
        "encoding": "mapping",
        "key": "t_uint256",
        "label": "mapping(uint256 => uint256)",
        "numberOfBytes": "32",
        "value": "t_uint256"
      },
      "t_struct(Role)8969_storage": {
        "encoding": "inplace",
        "label": "struct Roles.Role",
        "members": [
          {
            "astId": 8968,
            "contract": "contracts/PepemonBattle.sol:PepemonBattle",
            "label": "bearer",
            "offset": 0,
            "slot": "0",
            "type": "t_mapping(t_address,t_bool)"
          }
        ],
        "numberOfBytes": "32"
      },
      "t_uint256": {
        "encoding": "inplace",
        "label": "uint256",
        "numberOfBytes": "32"
      }
    }
  }
}