{
  "address": "0xEB872fb86882Af5Ac3e920cCabB0F3dFe84428cb",
  "abi": [
    {
      "anonymous": false,
      "inputs": [
        {
          "indexed": true,
          "internalType": "address",
          "name": "account",
          "type": "address"
        }
      ],
      "name": "AdminAdded",
      "type": "event"
    },
    {
      "anonymous": false,
      "inputs": [
        {
          "indexed": true,
          "internalType": "address",
          "name": "account",
          "type": "address"
        }
      ],
      "name": "AdminRemoved",
      "type": "event"
    },
    {
      "inputs": [
        {
          "internalType": "address",
          "name": "account",
          "type": "address"
        }
      ],
      "name": "addAdmin",
      "outputs": [],
      "stateMutability": "nonpayable",
      "type": "function"
    },
    {
      "inputs": [
        {
          "internalType": "bytes32",
          "name": "_requestId",
          "type": "bytes32"
        }
      ],
      "name": "fetchNumberByRequestId",
      "outputs": [
        {
          "internalType": "uint256",
          "name": "",
          "type": "uint256"
        }
      ],
      "stateMutability": "view",
      "type": "function"
    },
    {
      "inputs": [],
      "name": "getNewRandomNumber",
      "outputs": [
        {
          "internalType": "bytes32",
          "name": "requestId",
          "type": "bytes32"
        }
      ],
      "stateMutability": "nonpayable",
      "type": "function"
    },
    {
      "inputs": [],
      "name": "getRandomNumber",
      "outputs": [
        {
          "internalType": "uint256",
          "name": "",
          "type": "uint256"
        }
      ],
      "stateMutability": "view",
      "type": "function"
    },
    {
      "inputs": [
        {
          "internalType": "address",
          "name": "account",
          "type": "address"
        }
      ],
      "name": "isAdmin",
      "outputs": [
        {
          "internalType": "bool",
          "name": "",
          "type": "bool"
        }
      ],
      "stateMutability": "view",
      "type": "function"
    },
    {
      "inputs": [],
      "name": "lastRequestId",
      "outputs": [
        {
          "internalType": "bytes32",
          "name": "",
          "type": "bytes32"
        }
      ],
      "stateMutability": "view",
      "type": "function"
    },
    {
      "inputs": [
        {
          "internalType": "bytes32",
          "name": "requestId",
          "type": "bytes32"
        },
        {
          "internalType": "uint256",
          "name": "randomness",
          "type": "uint256"
        }
      ],
      "name": "rawFulfillRandomness",
      "outputs": [],
      "stateMutability": "nonpayable",
      "type": "function"
    },
    {
      "inputs": [],
      "name": "renounceAdmin",
      "outputs": [],
      "stateMutability": "nonpayable",
      "type": "function"
    }
  ],
  "transactionHash": "0x96ff0f151a2bb9ea785eef1cd74772a7b45fd3581f0e5a76f294c0a149ba30ab",
  "args": [],
  "numDeployments": 2,
  "solcInputHash": "eb2319ddc22cf797eb7bf64758dba0fb",
  "bytecode": "0x60e060405234801561001057600080fd5b507fbd13f08b8352a3635218ab9418e340c60d6eb41800000000000000000000000060a0527ffafedb041c0dd4fa2dc0d87a6b0979ee6fa7af5f00000000000000000000000060805261006233610096565b7f121a143066e0f2f08b620784af77cccb35c6242460b4a8ee251b4b416abaebd460c05266038d7ea4c68000600355610166565b6100ae8160016100e560201b61034c1790919060201c565b6040516001600160a01b038216907f44d6d25963f097ad14f29f06854a01f575648a1ef82f30e562ccd3889717e33990600090a250565b6001600160a01b0381166100f857600080fd5b6101028282610131565b1561010c57600080fd5b6001600160a01b0316600090815260209190915260409020805460ff19166001179055565b60006001600160a01b03821661014657600080fd5b506001600160a01b03166000908152602091909152604090205460ff1690565b60805160601c60a05160601c60c0516107906101a960003960006102680152600081816102cd015261040001526000818161017a01526103d101526107906000f3fe608060405234801561001057600080fd5b50600436106100885760003560e01c80638bad0c0a1161005b5780638bad0c0a1461010057806394985ddd14610108578063dbdff2c11461011b578063fc2a88c31461013257600080fd5b806324d7806c1461008d578063391d1c09146100b55780634b1c8d65146100e357806370480275146100eb575b600080fd5b6100a061009b366004610622565b61013b565b60405190151581526020015b60405180910390f35b6100d56100c3366004610674565b60009081526004602052604090205490565b6040519081526020016100ac565b6100d561014e565b6100fe6100f9366004610622565b610299565b005b6100fe6102b7565b6100fe61011636600461068d565b6102c2565b6002546000908152600460205260409020546100d5565b6100d560025481565b6000610148600183610398565b92915050565b60006101593361013b565b61016257600080fd5b6003546040516370a0823160e01b81523060048201527f00000000000000000000000000000000000000000000000000000000000000006001600160a01b0316906370a082319060240160206040518083038186803b1580156101c457600080fd5b505afa1580156101d8573d6000803e3d6000fd5b505050506040513d601f19601f820116820180604052508101906101fc91906106af565b10156102635760405162461bcd60e51b815260206004820152602b60248201527f4e6f7420656e6f756768204c494e4b202d2066696c6c20636f6e74726163742060448201526a1dda5d1a0819985d58d95d60aa1b60648201526084015b60405180910390fd5b61028f7f00000000000000000000000000000000000000000000000000000000000000006003546103cd565b6002819055905090565b6102a23361013b565b6102ab57600080fd5b6102b481610556565b50565b6102c033610598565b565b336001600160a01b037f0000000000000000000000000000000000000000000000000000000000000000161461033a5760405162461bcd60e51b815260206004820152601f60248201527f4f6e6c7920565246436f6f7264696e61746f722063616e2066756c66696c6c00604482015260640161025a565b60009182526004602052604090912055565b6001600160a01b03811661035f57600080fd5b6103698282610398565b1561037357600080fd5b6001600160a01b0316600090815260209190915260409020805460ff19166001179055565b60006001600160a01b0382166103ad57600080fd5b506001600160a01b03166000908152602091909152604090205460ff1690565b60007f00000000000000000000000000000000000000000000000000000000000000006001600160a01b0316634000aea07f00000000000000000000000000000000000000000000000000000000000000008486600060405160200161043d929190918252602082015260400190565b6040516020818303038152906040526040518463ffffffff1660e01b815260040161046a939291906106c8565b602060405180830381600087803b15801561048457600080fd5b505af1158015610498573d6000803e3d6000fd5b505050506040513d601f19601f820116820180604052508101906104bc9190610652565b5060008381526020818152604080832054815180840188905280830185905230606082015260808082018390528351808303909101815260a090910190925281519183019190912086845292909152610516906001610734565b6000858152602081815260409182902092909255805180830187905280820184905281518082038301815260609091019091528051910120949350505050565b61056160018261034c565b6040516001600160a01b038216907f44d6d25963f097ad14f29f06854a01f575648a1ef82f30e562ccd3889717e33990600090a250565b6105a36001826105da565b6040516001600160a01b038216907fa3b62bc36326052d97ea62d63c3d60308ed4c3ea8ac079dd8499f1e9c4f80c0f90600090a250565b6001600160a01b0381166105ed57600080fd5b6105f78282610398565b61060057600080fd5b6001600160a01b0316600090815260209190915260409020805460ff19169055565b60006020828403121561063457600080fd5b81356001600160a01b038116811461064b57600080fd5b9392505050565b60006020828403121561066457600080fd5b8151801515811461064b57600080fd5b60006020828403121561068657600080fd5b5035919050565b600080604083850312156106a057600080fd5b50508035926020909101359150565b6000602082840312156106c157600080fd5b5051919050565b60018060a01b038416815260006020848184015260606040840152835180606085015260005b8181101561070a578581018301518582016080015282016106ee565b8181111561071c576000608083870101525b50601f01601f19169290920160800195945050505050565b6000821982111561075557634e487b7160e01b600052601160045260246000fd5b50019056fea2646970667358221220295b3ba6e3dc0caf98dcb61b19a1fec6f4b39f4669ea1724593099e6a816a67664736f6c63430008060033",
  "devdoc": {
    "kind": "dev",
    "methods": {},
    "version": 1
  },
  "userdoc": {
    "kind": "user",
    "methods": {},
    "version": 1
  },
  "storageLayout": {
    "storage": [
      {
        "astId": 79,
        "contract": "contracts/SampleChainLinkRngOracle.sol:SampleChainLinkRngOracle",
        "label": "nonces",
        "offset": 0,
        "slot": "0",
        "type": "t_mapping(t_bytes32,t_uint256)"
      },
      {
        "astId": 16946,
        "contract": "contracts/SampleChainLinkRngOracle.sol:SampleChainLinkRngOracle",
        "label": "admins",
        "offset": 0,
        "slot": "1",
        "type": "t_struct(Role)17452_storage"
      },
      {
        "astId": 17119,
        "contract": "contracts/SampleChainLinkRngOracle.sol:SampleChainLinkRngOracle",
        "label": "lastRequestId",
        "offset": 0,
        "slot": "2",
        "type": "t_bytes32"
      },
      {
        "astId": 17121,
        "contract": "contracts/SampleChainLinkRngOracle.sol:SampleChainLinkRngOracle",
        "label": "fee",
        "offset": 0,
        "slot": "3",
        "type": "t_uint256"
      },
      {
        "astId": 17161,
        "contract": "contracts/SampleChainLinkRngOracle.sol:SampleChainLinkRngOracle",
        "label": "results",
        "offset": 0,
        "slot": "4",
        "type": "t_mapping(t_bytes32,t_uint256)"
      }
    ],
    "types": {
      "t_address": {
        "encoding": "inplace",
        "label": "address",
        "numberOfBytes": "20"
      },
      "t_bool": {
        "encoding": "inplace",
        "label": "bool",
        "numberOfBytes": "1"
      },
      "t_bytes32": {
        "encoding": "inplace",
        "label": "bytes32",
        "numberOfBytes": "32"
      },
      "t_mapping(t_address,t_bool)": {
        "encoding": "mapping",
        "key": "t_address",
        "label": "mapping(address => bool)",
        "numberOfBytes": "32",
        "value": "t_bool"
      },
      "t_mapping(t_bytes32,t_uint256)": {
        "encoding": "mapping",
        "key": "t_bytes32",
        "label": "mapping(bytes32 => uint256)",
        "numberOfBytes": "32",
        "value": "t_uint256"
      },
      "t_struct(Role)17452_storage": {
        "encoding": "inplace",
        "label": "struct Roles.Role",
        "members": [
          {
            "astId": 17451,
            "contract": "contracts/SampleChainLinkRngOracle.sol:SampleChainLinkRngOracle",
            "label": "bearer",
            "offset": 0,
            "slot": "0",
            "type": "t_mapping(t_address,t_bool)"
          }
        ],
        "numberOfBytes": "32"
      },
      "t_uint256": {
        "encoding": "inplace",
        "label": "uint256",
        "numberOfBytes": "32"
      }
    }
  }
}