{
  "address": "0x0C6bBc1F6a6157d92F4b10BE41aA752458F78078",
  "abi": [
    {
      "anonymous": false,
      "inputs": [
        {
          "indexed": true,
          "internalType": "address",
          "name": "account",
          "type": "address"
        }
      ],
      "name": "AdminAdded",
      "type": "event"
    },
    {
      "anonymous": false,
      "inputs": [
        {
          "indexed": true,
          "internalType": "address",
          "name": "account",
          "type": "address"
        }
      ],
      "name": "AdminRemoved",
      "type": "event"
    },
    {
      "inputs": [
        {
          "internalType": "address",
          "name": "account",
          "type": "address"
        }
      ],
      "name": "addAdmin",
      "outputs": [],
      "stateMutability": "nonpayable",
      "type": "function"
    },
    {
      "inputs": [
        {
          "internalType": "bytes32",
          "name": "_requestId",
          "type": "bytes32"
        }
      ],
      "name": "fetchNumberByRequestId",
      "outputs": [
        {
          "internalType": "uint256",
          "name": "",
          "type": "uint256"
        }
      ],
      "stateMutability": "view",
      "type": "function"
    },
    {
      "inputs": [],
      "name": "getNewRandomNumber",
      "outputs": [
        {
          "internalType": "bytes32",
          "name": "requestId",
          "type": "bytes32"
        }
      ],
      "stateMutability": "nonpayable",
      "type": "function"
    },
    {
      "inputs": [],
      "name": "getRandomNumber",
      "outputs": [
        {
          "internalType": "uint256",
          "name": "",
          "type": "uint256"
        }
      ],
      "stateMutability": "view",
      "type": "function"
    },
    {
      "inputs": [
        {
          "internalType": "address",
          "name": "account",
          "type": "address"
        }
      ],
      "name": "isAdmin",
      "outputs": [
        {
          "internalType": "bool",
          "name": "",
          "type": "bool"
        }
      ],
      "stateMutability": "view",
      "type": "function"
    },
    {
      "inputs": [],
      "name": "lastRequestId",
      "outputs": [
        {
          "internalType": "bytes32",
          "name": "",
          "type": "bytes32"
        }
      ],
      "stateMutability": "view",
      "type": "function"
    },
    {
      "inputs": [
        {
          "internalType": "bytes32",
          "name": "requestId",
          "type": "bytes32"
        },
        {
          "internalType": "uint256",
          "name": "randomness",
          "type": "uint256"
        }
      ],
      "name": "rawFulfillRandomness",
      "outputs": [],
      "stateMutability": "nonpayable",
      "type": "function"
    },
    {
      "inputs": [],
      "name": "renounceAdmin",
      "outputs": [],
      "stateMutability": "nonpayable",
      "type": "function"
    }
  ],
  "transactionHash": "0x134312d4130dfcc5f2f06cd9cc8d8f6ec7fbf99507ef55fc3235de7fc1512024",
  "args": [],
  "numDeployments": 1,
  "solcInputHash": "8dfff4585042d6c4c6f3c638cee8b6ac",
  "bytecode": "0x60e060405234801561001057600080fd5b507fbd13f08b8352a3635218ab9418e340c60d6eb41800000000000000000000000060a0527ffafedb041c0dd4fa2dc0d87a6b0979ee6fa7af5f00000000000000000000000060805261006233610096565b7f121a143066e0f2f08b620784af77cccb35c6242460b4a8ee251b4b416abaebd460c05266038d7ea4c68000600355610166565b6100ae8160016100e560201b6102ea1790919060201c565b6040516001600160a01b038216907f44d6d25963f097ad14f29f06854a01f575648a1ef82f30e562ccd3889717e33990600090a250565b6001600160a01b0381166100f857600080fd5b6101028282610131565b1561010c57600080fd5b6001600160a01b0316600090815260209190915260409020805460ff19166001179055565b60006001600160a01b03821661014657600080fd5b506001600160a01b03166000908152602091909152604090205460ff1690565b60805160601c60a05160601c60c05161083b6101a96000396000610222015260008181610287015261039e015260008181610171015261036f015261083b6000f3fe608060405234801561001057600080fd5b50600436106100885760003560e01c80638bad0c0a1161005b5780638bad0c0a146100f357806394985ddd146100fb578063dbdff2c11461010e578063fc2a88c31461011657610088565b806324d7806c1461008d578063391d1c09146100b65780634b1c8d65146100d657806370480275146100de575b600080fd5b6100a061009b3660046105fc565b61011e565b6040516100ad9190610727565b60405180910390f35b6100c96100c436600461064a565b610131565b6040516100ad9190610732565b6100c9610143565b6100f16100ec3660046105fc565b610253565b005b6100f1610271565b6100f1610109366004610662565b61027c565b6100c96102d2565b6100c96102e4565b600061012b600183610336565b92915050565b60009081526004602052604090205490565b600061014e3361011e565b61015757600080fd5b6003546040516370a0823160e01b81526001600160a01b037f000000000000000000000000000000000000000000000000000000000000000016906370a08231906101a69030906004016106a9565b60206040518083038186803b1580156101be57600080fd5b505afa1580156101d2573d6000803e3d6000fd5b505050506040513d601f19601f820116820180604052508101906101f69190610683565b101561021d5760405162461bcd60e51b81526004016102149061075f565b60405180910390fd5b6102497f000000000000000000000000000000000000000000000000000000000000000060035461036b565b6002819055905090565b61025c3361011e565b61026557600080fd5b61026e816104b1565b50565b61027a336104f3565b565b336001600160a01b037f000000000000000000000000000000000000000000000000000000000000000016146102c45760405162461bcd60e51b8152600401610214906107aa565b6102ce8282610535565b5050565b60006102df600254610131565b905090565b60025481565b6001600160a01b0381166102fd57600080fd5b6103078282610336565b1561031157600080fd5b6001600160a01b0316600090815260209190915260409020805460ff19166001179055565b60006001600160a01b03821661034b57600080fd5b506001600160a01b03166000908152602091909152604090205460ff1690565b60007f00000000000000000000000000000000000000000000000000000000000000006001600160a01b0316634000aea07f0000000000000000000000000000000000000000000000000000000000000000848660006040516020016103d292919061069b565b6040516020818303038152906040526040518463ffffffff1660e01b81526004016103ff939291906106bd565b602060405180830381600087803b15801561041957600080fd5b505af115801561042d573d6000803e3d6000fd5b505050506040513d601f19601f82011682018060405250810190610451919061062a565b5060006104738460003060008089815260200190815260200160002054610547565b6000858152602081905260409020549091506104909060016107e1565b6000858152602081905260409020556104a98482610581565b949350505050565b6104bc6001826102ea565b6040516001600160a01b038216907f44d6d25963f097ad14f29f06854a01f575648a1ef82f30e562ccd3889717e33990600090a250565b6104fe6001826105b4565b6040516001600160a01b038216907fa3b62bc36326052d97ea62d63c3d60308ed4c3ea8ac079dd8499f1e9c4f80c0f90600090a250565b60009182526004602052604090912055565b600084848484604051602001610560949392919061073b565b60408051601f19818403018152919052805160209091012095945050505050565b6000828260405160200161059692919061069b565b60405160208183030381529060405280519060200120905092915050565b6001600160a01b0381166105c757600080fd5b6105d18282610336565b6105da57600080fd5b6001600160a01b0316600090815260209190915260409020805460ff19169055565b60006020828403121561060d578081fd5b81356001600160a01b0381168114610623578182fd5b9392505050565b60006020828403121561063b578081fd5b81518015158114610623578182fd5b60006020828403121561065b578081fd5b5035919050565b60008060408385031215610674578081fd5b50508035926020909101359150565b600060208284031215610694578081fd5b5051919050565b918252602082015260400190565b6001600160a01b0391909116815260200190565b600060018060a01b038516825260208481840152606060408401528351806060850152825b818110156106fe578581018301518582016080015282016106e2565b8181111561070f5783608083870101525b50601f01601f19169290920160800195945050505050565b901515815260200190565b90815260200190565b93845260208401929092526001600160a01b03166040830152606082015260800190565b6020808252602b908201527f4e6f7420656e6f756768204c494e4b202d2066696c6c20636f6e74726163742060408201526a1dda5d1a0819985d58d95d60aa1b606082015260800190565b6020808252601f908201527f4f6e6c7920565246436f6f7264696e61746f722063616e2066756c66696c6c00604082015260600190565b6000821982111561080057634e487b7160e01b81526011600452602481fd5b50019056fea264697066735822122012d9fce014498e8b3be6ad2a0239678d77e7b135a71c4a9690770000f184d09664736f6c63430008000033",
  "devdoc": {
    "kind": "dev",
    "methods": {},
    "version": 1
  },
  "userdoc": {
    "kind": "user",
    "methods": {},
    "version": 1
  },
  "storageLayout": {
    "storage": [
      {
        "astId": 79,
        "contract": "contracts/SampleChainLinkRngOracle.sol:SampleChainLinkRngOracle",
        "label": "nonces",
        "offset": 0,
        "slot": "0",
        "type": "t_mapping(t_bytes32,t_uint256)"
      },
      {
        "astId": 9218,
        "contract": "contracts/SampleChainLinkRngOracle.sol:SampleChainLinkRngOracle",
        "label": "admins",
        "offset": 0,
        "slot": "1",
        "type": "t_struct(Role)9724_storage"
      },
      {
        "astId": 9391,
        "contract": "contracts/SampleChainLinkRngOracle.sol:SampleChainLinkRngOracle",
        "label": "lastRequestId",
        "offset": 0,
        "slot": "2",
        "type": "t_bytes32"
      },
      {
        "astId": 9393,
        "contract": "contracts/SampleChainLinkRngOracle.sol:SampleChainLinkRngOracle",
        "label": "fee",
        "offset": 0,
        "slot": "3",
        "type": "t_uint256"
      },
      {
        "astId": 9433,
        "contract": "contracts/SampleChainLinkRngOracle.sol:SampleChainLinkRngOracle",
        "label": "results",
        "offset": 0,
        "slot": "4",
        "type": "t_mapping(t_bytes32,t_uint256)"
      }
    ],
    "types": {
      "t_address": {
        "encoding": "inplace",
        "label": "address",
        "numberOfBytes": "20"
      },
      "t_bool": {
        "encoding": "inplace",
        "label": "bool",
        "numberOfBytes": "1"
      },
      "t_bytes32": {
        "encoding": "inplace",
        "label": "bytes32",
        "numberOfBytes": "32"
      },
      "t_mapping(t_address,t_bool)": {
        "encoding": "mapping",
        "key": "t_address",
        "label": "mapping(address => bool)",
        "numberOfBytes": "32",
        "value": "t_bool"
      },
      "t_mapping(t_bytes32,t_uint256)": {
        "encoding": "mapping",
        "key": "t_bytes32",
        "label": "mapping(bytes32 => uint256)",
        "numberOfBytes": "32",
        "value": "t_uint256"
      },
      "t_struct(Role)9724_storage": {
        "encoding": "inplace",
        "label": "struct Roles.Role",
        "members": [
          {
            "astId": 9723,
            "contract": "contracts/SampleChainLinkRngOracle.sol:SampleChainLinkRngOracle",
            "label": "bearer",
            "offset": 0,
            "slot": "0",
            "type": "t_mapping(t_address,t_bool)"
          }
        ],
        "numberOfBytes": "32"
      },
      "t_uint256": {
        "encoding": "inplace",
        "label": "uint256",
        "numberOfBytes": "32"
      }
    }
  }
}