{
  "address": "0x2dB79068b357A1E61ff61507950EA82064461D34",
  "abi": [
    {
      "anonymous": false,
      "inputs": [
        {
          "indexed": true,
          "internalType": "address",
          "name": "account",
          "type": "address"
        }
      ],
      "name": "AdminAdded",
      "type": "event"
    },
    {
      "anonymous": false,
      "inputs": [
        {
          "indexed": true,
          "internalType": "address",
          "name": "account",
          "type": "address"
        }
      ],
      "name": "AdminRemoved",
      "type": "event"
    },
    {
      "inputs": [
        {
          "internalType": "address",
          "name": "account",
          "type": "address"
        }
      ],
      "name": "addAdmin",
      "outputs": [],
      "stateMutability": "nonpayable",
      "type": "function"
    },
    {
      "inputs": [
        {
          "internalType": "address",
          "name": "tokenAddress",
          "type": "address"
        },
        {
          "internalType": "uint256",
          "name": "tokenId",
          "type": "uint256"
        }
      ],
      "name": "addReward",
      "outputs": [],
      "stateMutability": "nonpayable",
      "type": "function"
    },
    {
      "inputs": [
        {
          "internalType": "address",
          "name": "tokenAddress",
          "type": "address"
        },
        {
          "internalType": "uint256",
          "name": "tokenId",
          "type": "uint256"
        },
        {
          "internalType": "uint256",
          "name": "amount",
          "type": "uint256"
        }
      ],
      "name": "addRewards",
      "outputs": [],
      "stateMutability": "nonpayable",
      "type": "function"
    },
    {
      "inputs": [
        {
          "internalType": "address[]",
          "name": "tokenAddresses",
          "type": "address[]"
        },
        {
          "internalType": "uint256[]",
          "name": "tokenIds",
          "type": "uint256[]"
        },
        {
          "internalType": "uint256[]",
          "name": "amounts",
          "type": "uint256[]"
        }
      ],
      "name": "addRewardsBatch",
      "outputs": [],
      "stateMutability": "nonpayable",
      "type": "function"
    },
    {
      "inputs": [
        {
          "internalType": "address",
          "name": "account",
          "type": "address"
        }
      ],
      "name": "isAdmin",
      "outputs": [
        {
          "internalType": "bool",
          "name": "",
          "type": "bool"
        }
      ],
      "stateMutability": "view",
      "type": "function"
    },
    {
      "inputs": [
        {
          "internalType": "address",
          "name": "",
          "type": "address"
        },
        {
          "internalType": "address",
          "name": "",
          "type": "address"
        },
        {
          "internalType": "uint256[]",
          "name": "",
          "type": "uint256[]"
        },
        {
          "internalType": "uint256[]",
          "name": "",
          "type": "uint256[]"
        },
        {
          "internalType": "bytes",
          "name": "",
          "type": "bytes"
        }
      ],
      "name": "onERC1155BatchReceived",
      "outputs": [
        {
          "internalType": "bytes4",
          "name": "",
          "type": "bytes4"
        }
      ],
      "stateMutability": "nonpayable",
      "type": "function"
    },
    {
      "inputs": [
        {
          "internalType": "address",
          "name": "",
          "type": "address"
        },
        {
          "internalType": "address",
          "name": "",
          "type": "address"
        },
        {
          "internalType": "uint256",
          "name": "",
          "type": "uint256"
        },
        {
          "internalType": "uint256",
          "name": "",
          "type": "uint256"
        },
        {
          "internalType": "bytes",
          "name": "",
          "type": "bytes"
        }
      ],
      "name": "onERC1155Received",
      "outputs": [
        {
          "internalType": "bytes4",
          "name": "",
          "type": "bytes4"
        }
      ],
      "stateMutability": "nonpayable",
      "type": "function"
    },
    {
      "inputs": [],
      "name": "renounceAdmin",
      "outputs": [],
      "stateMutability": "nonpayable",
      "type": "function"
    },
    {
      "inputs": [
        {
          "internalType": "uint256",
          "name": "rngSeed",
          "type": "uint256"
        },
        {
          "internalType": "address",
          "name": "account",
          "type": "address"
        }
      ],
      "name": "sendReward",
      "outputs": [],
      "stateMutability": "nonpayable",
      "type": "function"
    },
    {
      "inputs": [
        {
          "internalType": "bytes4",
          "name": "interfaceId",
          "type": "bytes4"
        }
      ],
      "name": "supportsInterface",
      "outputs": [
        {
          "internalType": "bool",
          "name": "",
          "type": "bool"
        }
      ],
      "stateMutability": "view",
      "type": "function"
    }
  ],
  "transactionHash": "0x553b4d93d4be53f902cca1454edb27201173a643e138c21a8320332bcc408a92",
  "args": [],
  "numDeployments": 1,
  "solcInputHash": "8dfff4585042d6c4c6f3c638cee8b6ac",
  "bytecode": "0x608060405234801561001057600080fd5b5061001a3361001f565b6100ef565b61003781600061006e60201b6109fa1790919060201c565b6040516001600160a01b038216907f44d6d25963f097ad14f29f06854a01f575648a1ef82f30e562ccd3889717e33990600090a250565b6001600160a01b03811661008157600080fd5b61008b82826100ba565b1561009557600080fd5b6001600160a01b0316600090815260209190915260409020805460ff19166001179055565b60006001600160a01b0382166100cf57600080fd5b506001600160a01b03166000908152602091909152604090205460ff1690565b611188806100fe6000396000f3fe608060405234801561001057600080fd5b506004361061009e5760003560e01c80639feb8f50116100665780639feb8f501461010f578063bc197c8114610122578063c1aaa53c14610142578063c34db08514610155578063f23a6e61146101685761009e565b806301ffc9a7146100a357806324d7806c146100cc57806331f27b07146100df57806370480275146100f45780638bad0c0a14610107575b600080fd5b6100b66100b1366004610ec8565b61017b565b6040516100c39190610f92565b60405180910390f35b6100b66100da366004610cad565b6101a8565b6100f26100ed366004610f08565b6101b4565b005b6100f2610102366004610cad565b6103d8565b6100f26103f6565b6100f261011d366004610dd7565b610401565b610135610130366004610cce565b6105b1565b6040516100c39190610f9d565b6100f2610150366004610e00565b6105c2565b6100f2610163366004610e32565b6107aa565b610135610176366004610d74565b6109e9565b60006001600160e01b03198216630271189760e51b14806101a057506101a082610a46565b90505b919050565b60006101a08183610a5f565b6101bd336101a8565b6101c657600080fd5b6001546101d2576103d4565b600154604051600091906101ed90602a908690602001610f33565b6040516020818303038152906040528051906020012060001c6102109190611106565b905060006001828154811061023557634e487b7160e01b600052603260045260246000fd5b600091825260208220600160029092020181015481546001600160a01b0390911693508490811061027657634e487b7160e01b600052603260045260246000fd5b9060005260206000209060020201600001549050600180808054905061029c91906110d4565b815481106102ba57634e487b7160e01b600052603260045260246000fd5b9060005260206000209060020201600184815481106102e957634e487b7160e01b600052603260045260246000fd5b60009182526020909120825460029092020190815560019182015490820180546001600160a01b0319166001600160a01b0390921691909117905580548061034157634e487b7160e01b600052603160045260246000fd5b600082815260208120600260001990930192830201908155600190810180546001600160a01b03191690559155604051637921219560e11b81526001600160a01b0384169163f242432a9161039e91309189918791600401610f41565b600060405180830381600087803b1580156103b857600080fd5b505af11580156103cc573d6000803e3d6000fd5b505050505050505b5050565b6103e1336101a8565b6103ea57600080fd5b6103f381610a94565b50565b6103ff33610ad6565b565b61040a336101a8565b61041357600080fd5b604051627eeac760e11b81526000906001600160a01b0384169062fdd58e906104429033908690600401610f79565b60206040518083038186803b15801561045a57600080fd5b505afa15801561046e573d6000803e3d6000fd5b505050506040513d601f19601f820116820180604052508101906104929190610ef0565b116104b85760405162461bcd60e51b81526004016104af90611002565b60405180910390fd5b604051637921219560e11b81526001600160a01b0383169063f242432a906104eb90339030908690600190600401610f41565b600060405180830381600087803b15801561050557600080fd5b505af1158015610519573d6000803e3d6000fd5b50506040805180820190915292835250506001600160a01b039182166020820190815260018054808201825560009190915291517fb10e2d527612073b26eecdfd717e6a320cf44b4afac2b0732d9fcbe2b7fa0cf6600290930292830155517fb10e2d527612073b26eecdfd717e6a320cf44b4afac2b0732d9fcbe2b7fa0cf790910180546001600160a01b03191691909216179055565b63bc197c8160e01b95945050505050565b6105cb336101a8565b6105d457600080fd5b604051627eeac760e11b81526000906001600160a01b0385169062fdd58e906106039033908790600401610f79565b60206040518083038186803b15801561061b57600080fd5b505afa15801561062f573d6000803e3d6000fd5b505050506040513d601f19601f820116820180604052508101906106539190610ef0565b116106705760405162461bcd60e51b81526004016104af90611002565b600081116106905760405162461bcd60e51b81526004016104af90610fb2565b604051637921219560e11b81526001600160a01b0384169063f242432a906106c2903390309087908790600401610f41565b600060405180830381600087803b1580156106dc57600080fd5b505af11580156106f0573d6000803e3d6000fd5b5050505060005b818110156107a457604080518082019091528381526001600160a01b038581166020830190815260018054808201825560009190915292517fb10e2d527612073b26eecdfd717e6a320cf44b4afac2b0732d9fcbe2b7fa0cf6600290940293840155517fb10e2d527612073b26eecdfd717e6a320cf44b4afac2b0732d9fcbe2b7fa0cf790920180546001600160a01b0319169290911691909117905561079d816110eb565b90506106f7565b50505050565b6107b3336101a8565b6107bc57600080fd5b84831480156107ca57508281145b6107e65760405162461bcd60e51b81526004016104af90611058565b60005b858110156109e05786868281811061081157634e487b7160e01b600052603260045260246000fd5b90506020020160208101906108269190610cad565b6001600160a01b031663f242432a333088888681811061085657634e487b7160e01b600052603260045260246000fd5b9050602002013587878781811061087d57634e487b7160e01b600052603260045260246000fd5b905060200201356040518563ffffffff1660e01b81526004016108a39493929190610f41565b600060405180830381600087803b1580156108bd57600080fd5b505af11580156108d1573d6000803e3d6000fd5b5050505060005b8383838181106108f857634e487b7160e01b600052603260045260246000fd5b905060200201358110156109cf576001604051806040016040528088888681811061093357634e487b7160e01b600052603260045260246000fd5b9050602002013581526020018a8a8681811061095f57634e487b7160e01b600052603260045260246000fd5b90506020020160208101906109749190610cad565b6001600160a01b03908116909152825460018181018555600094855260209485902084516002909302019182559390920151919092018054919092166001600160a01b03199091161790556109c8816110eb565b90506108d8565b506109d9816110eb565b90506107e9565b50505050505050565b63f23a6e6160e01b95945050505050565b6001600160a01b038116610a0d57600080fd5b610a178282610a5f565b15610a2157600080fd5b6001600160a01b0316600090815260209190915260409020805460ff19166001179055565b6001600160e01b031981166301ffc9a760e01b14919050565b60006001600160a01b038216610a7457600080fd5b506001600160a01b03166000908152602091909152604090205460ff1690565b610a9f6000826109fa565b6040516001600160a01b038216907f44d6d25963f097ad14f29f06854a01f575648a1ef82f30e562ccd3889717e33990600090a250565b610ae1600082610b18565b6040516001600160a01b038216907fa3b62bc36326052d97ea62d63c3d60308ed4c3ea8ac079dd8499f1e9c4f80c0f90600090a250565b6001600160a01b038116610b2b57600080fd5b610b358282610a5f565b610b3e57600080fd5b6001600160a01b0316600090815260209190915260409020805460ff19169055565b80356001600160a01b03811681146101a357600080fd5b60008083601f840112610b88578182fd5b50813567ffffffffffffffff811115610b9f578182fd5b6020830191508360208083028501011115610bb957600080fd5b9250929050565b600082601f830112610bd0578081fd5b8135602067ffffffffffffffff821115610bec57610bec61113c565b808202610bfa8282016110aa565b838152828101908684018388018501891015610c14578687fd5b8693505b85841015610c36578035835260019390930192918401918401610c18565b50979650505050505050565b600082601f830112610c52578081fd5b813567ffffffffffffffff811115610c6c57610c6c61113c565b610c7f601f8201601f19166020016110aa565b818152846020838601011115610c93578283fd5b816020850160208301379081016020019190915292915050565b600060208284031215610cbe578081fd5b610cc782610b60565b9392505050565b600080600080600060a08688031215610ce5578081fd5b610cee86610b60565b9450610cfc60208701610b60565b9350604086013567ffffffffffffffff80821115610d18578283fd5b610d2489838a01610bc0565b94506060880135915080821115610d39578283fd5b610d4589838a01610bc0565b93506080880135915080821115610d5a578283fd5b50610d6788828901610c42565b9150509295509295909350565b600080600080600060a08688031215610d8b578081fd5b610d9486610b60565b9450610da260208701610b60565b93506040860135925060608601359150608086013567ffffffffffffffff811115610dcb578182fd5b610d6788828901610c42565b60008060408385031215610de9578182fd5b610df283610b60565b946020939093013593505050565b600080600060608486031215610e14578283fd5b610e1d84610b60565b95602085013595506040909401359392505050565b60008060008060008060608789031215610e4a578081fd5b863567ffffffffffffffff80821115610e61578283fd5b610e6d8a838b01610b77565b90985096506020890135915080821115610e85578283fd5b610e918a838b01610b77565b90965094506040890135915080821115610ea9578283fd5b50610eb689828a01610b77565b979a9699509497509295939492505050565b600060208284031215610ed9578081fd5b81356001600160e01b031981168114610cc7578182fd5b600060208284031215610f01578081fd5b5051919050565b60008060408385031215610f1a578182fd5b82359150610f2a60208401610b60565b90509250929050565b918252602082015260400190565b6001600160a01b0394851681529290931660208301526040820152606081019190915260a06080820181905260009082015260c00190565b6001600160a01b03929092168252602082015260400190565b901515815260200190565b6001600160e01b031991909116815260200190565b60208082526030908201527f506570656d6f6e526577617264506f6f6c3a20416d6f756e74206d757374206260408201526f0652067726561746572207468616e20360841b606082015260800190565b60208082526036908201527f506570656d6f6e526577617264506f6f6c3a20596f7520646f6e277420686176604082015275329032b737bab3b41037b3103a3434b9903a37b5b2b760511b606082015260800190565b60208082526032908201527f506570656d6f6e526577617264506f6f6c3a20417272617973206d757374206260408201527165206f66207468652073616d652073697a6560701b606082015260800190565b60405181810167ffffffffffffffff811182821017156110cc576110cc61113c565b604052919050565b6000828210156110e6576110e6611126565b500390565b60006000198214156110ff576110ff611126565b5060010190565b60008261112157634e487b7160e01b81526012600452602481fd5b500690565b634e487b7160e01b600052601160045260246000fd5b634e487b7160e01b600052604160045260246000fdfea2646970667358221220739ce922559cafe5cb7b4785637a90a641104c5167e29e0c44a48f16ae9cd2ff64736f6c63430008000033",
  "devdoc": {
    "kind": "dev",
    "methods": {
      "addReward(address,uint256)": {
        "details": "Adds a single reward into the pool.",
        "params": {
          "tokenAddress": "Reward address",
          "tokenId": "Reward id"
        }
      },
      "addRewards(address,uint256,uint256)": {
        "details": "Transfer an amount of a given token from the sender into the rewardPool",
        "params": {
          "amount": "The number of items to be added to the pool.",
          "tokenAddress": "Reward address",
          "tokenId": "Reward id"
        }
      },
      "addRewardsBatch(address[],uint256[],uint256[])": {
        "details": "Batch version of addRewards"
      },
      "sendReward(uint256,address)": {
        "details": "Takes a random reward from rewardPool and sends it to someone.",
        "params": {
          "account": "Address of who will receive the reward",
          "rngSeed": "RNG seed of a Battle"
        }
      },
      "supportsInterface(bytes4)": {
        "details": "See {IERC165-supportsInterface}."
      }
    },
    "version": 1
  },
  "userdoc": {
    "kind": "user",
    "methods": {},
    "version": 1
  },
  "storageLayout": {
    "storage": [
      {
        "astId": 9218,
        "contract": "contracts/PepemonRewardPool.sol:PepemonRewardPool",
        "label": "admins",
        "offset": 0,
        "slot": "0",
        "type": "t_struct(Role)9724_storage"
      },
      {
        "astId": 8882,
        "contract": "contracts/PepemonRewardPool.sol:PepemonRewardPool",
        "label": "rewardPool",
        "offset": 0,
        "slot": "1",
        "type": "t_array(t_struct(Reward)8878_storage)dyn_storage"
      }
    ],
    "types": {
      "t_address": {
        "encoding": "inplace",
        "label": "address",
        "numberOfBytes": "20"
      },
      "t_array(t_struct(Reward)8878_storage)dyn_storage": {
        "base": "t_struct(Reward)8878_storage",
        "encoding": "dynamic_array",
        "label": "struct PepemonRewardPool.Reward[]",
        "numberOfBytes": "32"
      },
      "t_bool": {
        "encoding": "inplace",
        "label": "bool",
        "numberOfBytes": "1"
      },
      "t_mapping(t_address,t_bool)": {
        "encoding": "mapping",
        "key": "t_address",
        "label": "mapping(address => bool)",
        "numberOfBytes": "32",
        "value": "t_bool"
      },
      "t_struct(Reward)8878_storage": {
        "encoding": "inplace",
        "label": "struct PepemonRewardPool.Reward",
        "members": [
          {
            "astId": 8875,
            "contract": "contracts/PepemonRewardPool.sol:PepemonRewardPool",
            "label": "tokenId",
            "offset": 0,
            "slot": "0",
            "type": "t_uint256"
          },
          {
            "astId": 8877,
            "contract": "contracts/PepemonRewardPool.sol:PepemonRewardPool",
            "label": "tokenAddress",
            "offset": 0,
            "slot": "1",
            "type": "t_address"
          }
        ],
        "numberOfBytes": "64"
      },
      "t_struct(Role)9724_storage": {
        "encoding": "inplace",
        "label": "struct Roles.Role",
        "members": [
          {
            "astId": 9723,
            "contract": "contracts/PepemonRewardPool.sol:PepemonRewardPool",
            "label": "bearer",
            "offset": 0,
            "slot": "0",
            "type": "t_mapping(t_address,t_bool)"
          }
        ],
        "numberOfBytes": "32"
      },
      "t_uint256": {
        "encoding": "inplace",
        "label": "uint256",
        "numberOfBytes": "32"
      }
    }
  }
}