{
  "address": "0xe8861AA1F5A4183b9B40aA41C302673F6Fd8395a",
  "abi": [
    {
      "inputs": [
        {
          "internalType": "uint256",
          "name": "defaultRanking",
          "type": "uint256"
        },
        {
          "internalType": "address",
          "name": "battleAddress",
          "type": "address"
        },
        {
          "internalType": "address",
          "name": "deckAddress",
          "type": "address"
        },
        {
          "internalType": "address",
          "name": "rewardPoolAddress",
          "type": "address"
        }
      ],
      "stateMutability": "nonpayable",
      "type": "constructor"
    },
    {
      "anonymous": false,
      "inputs": [
        {
          "indexed": true,
          "internalType": "address",
          "name": "account",
          "type": "address"
        }
      ],
      "name": "AdminAdded",
      "type": "event"
    },
    {
      "anonymous": false,
      "inputs": [
        {
          "indexed": true,
          "internalType": "address",
          "name": "account",
          "type": "address"
        }
      ],
      "name": "AdminRemoved",
      "type": "event"
    },
    {
      "anonymous": false,
      "inputs": [
        {
          "indexed": true,
          "internalType": "address",
          "name": "winner",
          "type": "address"
        },
        {
          "indexed": true,
          "internalType": "address",
          "name": "loser",
          "type": "address"
        },
        {
          "indexed": false,
          "internalType": "uint256",
          "name": "battleId",
          "type": "uint256"
        }
      ],
      "name": "BattleFinished",
      "type": "event"
    },
    {
      "inputs": [
        {
          "internalType": "address",
          "name": "account",
          "type": "address"
        }
      ],
      "name": "addAdmin",
      "outputs": [],
      "stateMutability": "nonpayable",
      "type": "function"
    },
    {
      "inputs": [
        {
          "internalType": "uint256",
          "name": "deckId",
          "type": "uint256"
        }
      ],
      "name": "addPveDeck",
      "outputs": [],
      "stateMutability": "nonpayable",
      "type": "function"
    },
    {
      "inputs": [
        {
          "internalType": "uint256",
          "name": "",
          "type": "uint256"
        }
      ],
      "name": "deckOwner",
      "outputs": [
        {
          "internalType": "address",
          "name": "",
          "type": "address"
        }
      ],
      "stateMutability": "view",
      "type": "function"
    },
    {
      "inputs": [
        {
          "internalType": "uint256",
          "name": "deckId",
          "type": "uint256"
        }
      ],
      "name": "enter",
      "outputs": [],
      "stateMutability": "nonpayable",
      "type": "function"
    },
    {
      "inputs": [
        {
          "internalType": "uint256",
          "name": "deckId",
          "type": "uint256"
        }
      ],
      "name": "enterPve",
      "outputs": [],
      "stateMutability": "nonpayable",
      "type": "function"
    },
    {
      "inputs": [
        {
          "internalType": "uint256",
          "name": "deckId",
          "type": "uint256"
        }
      ],
      "name": "exit",
      "outputs": [],
      "stateMutability": "nonpayable",
      "type": "function"
    },
    {
      "inputs": [
        {
          "internalType": "uint256",
          "name": "deckId",
          "type": "uint256"
        }
      ],
      "name": "forceExit",
      "outputs": [],
      "stateMutability": "nonpayable",
      "type": "function"
    },
    {
      "inputs": [
        {
          "internalType": "uint256",
          "name": "winnerRating",
          "type": "uint256"
        },
        {
          "internalType": "uint256",
          "name": "loserRating",
          "type": "uint256"
        }
      ],
      "name": "getEloRatingChange",
      "outputs": [
        {
          "internalType": "uint256",
          "name": "",
          "type": "uint256"
        }
      ],
      "stateMutability": "view",
      "type": "function"
    },
    {
      "inputs": [
        {
          "internalType": "uint256",
          "name": "count",
          "type": "uint256"
        },
        {
          "internalType": "uint256",
          "name": "offset",
          "type": "uint256"
        }
      ],
      "name": "getPlayersRankings",
      "outputs": [
        {
          "internalType": "address[]",
          "name": "addresses",
          "type": "address[]"
        },
        {
          "internalType": "uint256[]",
          "name": "rankings",
          "type": "uint256[]"
        }
      ],
      "stateMutability": "view",
      "type": "function"
    },
    {
      "inputs": [],
      "name": "getWaitingCount",
      "outputs": [
        {
          "internalType": "uint256",
          "name": "",
          "type": "uint256"
        }
      ],
      "stateMutability": "view",
      "type": "function"
    },
    {
      "inputs": [
        {
          "internalType": "address",
          "name": "account",
          "type": "address"
        }
      ],
      "name": "isAdmin",
      "outputs": [
        {
          "internalType": "bool",
          "name": "",
          "type": "bool"
        }
      ],
      "stateMutability": "view",
      "type": "function"
    },
    {
      "inputs": [],
      "name": "isPveMode",
      "outputs": [
        {
          "internalType": "bool",
          "name": "",
          "type": "bool"
        }
      ],
      "stateMutability": "view",
      "type": "function"
    },
    {
      "inputs": [
        {
          "internalType": "uint256",
          "name": "",
          "type": "uint256"
        }
      ],
      "name": "leaderboardPlayers",
      "outputs": [
        {
          "internalType": "address",
          "name": "",
          "type": "address"
        }
      ],
      "stateMutability": "view",
      "type": "function"
    },
    {
      "inputs": [],
      "name": "leaderboardPlayersCount",
      "outputs": [
        {
          "internalType": "uint256",
          "name": "",
          "type": "uint256"
        }
      ],
      "stateMutability": "view",
      "type": "function"
    },
    {
      "inputs": [
        {
          "internalType": "address",
          "name": "",
          "type": "address"
        },
        {
          "internalType": "address",
          "name": "",
          "type": "address"
        },
        {
          "internalType": "uint256[]",
          "name": "",
          "type": "uint256[]"
        },
        {
          "internalType": "uint256[]",
          "name": "",
          "type": "uint256[]"
        },
        {
          "internalType": "bytes",
          "name": "",
          "type": "bytes"
        }
      ],
      "name": "onERC1155BatchReceived",
      "outputs": [
        {
          "internalType": "bytes4",
          "name": "",
          "type": "bytes4"
        }
      ],
      "stateMutability": "nonpayable",
      "type": "function"
    },
    {
      "inputs": [
        {
          "internalType": "address",
          "name": "",
          "type": "address"
        },
        {
          "internalType": "address",
          "name": "",
          "type": "address"
        },
        {
          "internalType": "uint256",
          "name": "",
          "type": "uint256"
        },
        {
          "internalType": "uint256",
          "name": "",
          "type": "uint256"
        },
        {
          "internalType": "bytes",
          "name": "",
          "type": "bytes"
        }
      ],
      "name": "onERC1155Received",
      "outputs": [
        {
          "internalType": "bytes4",
          "name": "",
          "type": "bytes4"
        }
      ],
      "stateMutability": "nonpayable",
      "type": "function"
    },
    {
      "inputs": [
        {
          "internalType": "address",
          "name": "",
          "type": "address"
        },
        {
          "internalType": "address",
          "name": "",
          "type": "address"
        },
        {
          "internalType": "uint256",
          "name": "",
          "type": "uint256"
        },
        {
          "internalType": "bytes",
          "name": "",
          "type": "bytes"
        }
      ],
      "name": "onERC721Received",
      "outputs": [
        {
          "internalType": "bytes4",
          "name": "",
          "type": "bytes4"
        }
      ],
      "stateMutability": "nonpayable",
      "type": "function"
    },
    {
      "inputs": [
        {
          "internalType": "address",
          "name": "",
          "type": "address"
        }
      ],
      "name": "playerRanking",
      "outputs": [
        {
          "internalType": "uint256",
          "name": "",
          "type": "uint256"
        }
      ],
      "stateMutability": "view",
      "type": "function"
    },
    {
      "inputs": [
        {
          "internalType": "uint256",
          "name": "deckId",
          "type": "uint256"
        }
      ],
      "name": "removePveDeck",
      "outputs": [],
      "stateMutability": "nonpayable",
      "type": "function"
    },
    {
      "inputs": [],
      "name": "renounceAdmin",
      "outputs": [],
      "stateMutability": "nonpayable",
      "type": "function"
    },
    {
      "inputs": [
        {
          "internalType": "bool",
          "name": "allow",
          "type": "bool"
        }
      ],
      "name": "setAllowBattleAgainstOneself",
      "outputs": [],
      "stateMutability": "nonpayable",
      "type": "function"
    },
    {
      "inputs": [
        {
          "internalType": "address",
          "name": "battleContractAddress",
          "type": "address"
        }
      ],
      "name": "setBattleContractAddress",
      "outputs": [],
      "stateMutability": "nonpayable",
      "type": "function"
    },
    {
      "inputs": [
        {
          "internalType": "address",
          "name": "deckContractAddress",
          "type": "address"
        }
      ],
      "name": "setDeckContractAddress",
      "outputs": [],
      "stateMutability": "nonpayable",
      "type": "function"
    },
    {
      "inputs": [
        {
          "internalType": "uint256",
          "name": "kFactor",
          "type": "uint256"
        }
      ],
      "name": "setKFactor",
      "outputs": [],
      "stateMutability": "nonpayable",
      "type": "function"
    },
    {
      "inputs": [
        {
          "internalType": "uint256",
          "name": "matchRange",
          "type": "uint256"
        },
        {
          "internalType": "uint256",
          "name": "matchRangePerMinute",
          "type": "uint256"
        }
      ],
      "name": "setMatchRange",
      "outputs": [],
      "stateMutability": "nonpayable",
      "type": "function"
    },
    {
      "inputs": [
        {
          "internalType": "bool",
          "name": "enable",
          "type": "bool"
        }
      ],
      "name": "setPveMode",
      "outputs": [],
      "stateMutability": "nonpayable",
      "type": "function"
    },
    {
      "inputs": [
        {
          "internalType": "address",
          "name": "rewardPoolAddress",
          "type": "address"
        }
      ],
      "name": "setRewardPoolAddress",
      "outputs": [],
      "stateMutability": "nonpayable",
      "type": "function"
    },
    {
      "inputs": [
        {
          "internalType": "bytes4",
          "name": "interfaceId",
          "type": "bytes4"
        }
      ],
      "name": "supportsInterface",
      "outputs": [
        {
          "internalType": "bool",
          "name": "",
          "type": "bool"
        }
      ],
      "stateMutability": "view",
      "type": "function"
    },
    {
      "inputs": [
        {
          "internalType": "uint256",
          "name": "",
          "type": "uint256"
        }
      ],
      "name": "waitingDecks",
      "outputs": [
        {
          "internalType": "uint256",
          "name": "deckId",
          "type": "uint256"
        },
        {
          "internalType": "uint256",
          "name": "enterTimestamp",
          "type": "uint256"
        }
      ],
      "stateMutability": "view",
      "type": "function"
    }
  ],
  "transactionHash": "0xbedca22983e50d71db1a004b70899d05f5cb84cedcc10241e7c9ee7274ec85b2",
  "args": [
    2000,
    "0xCade104678081383Fd7842D0eaAfb7e2122cC3Bf",
    "0xE6DBa45B51fd511B9Da268a15A221258c8054b80",
    "0x7a139881AB9a539c7ff5F2BC67a31Ea7af593596"
  ],
  "numDeployments": 1,
  "solcInputHash": "2bb2768ae753acdbe5fabc9ee9af7450",
  "bytecode": "0x60a060405261012c600455600160055560106006553480156200002157600080fd5b5060405162002ee838038062002ee8833981016040819052620000449162000194565b6200004f336200009f565b608093909352600180546001600160a01b03199081166001600160a01b03948516179091556002805482169284169290921790915560038054909116919092161760ff60a01b19169055620001e7565b620000ba816000620000f160201b620010eb1790919060201c565b6040516001600160a01b038216907f44d6d25963f097ad14f29f06854a01f575648a1ef82f30e562ccd3889717e33990600090a250565b6001600160a01b0381166200010557600080fd5b62000111828262000141565b156200011c57600080fd5b6001600160a01b0316600090815260209190915260409020805460ff19166001179055565b60006001600160a01b0382166200015757600080fd5b506001600160a01b03166000908152602091909152604090205460ff1690565b80516001600160a01b03811681146200018f57600080fd5b919050565b60008060008060808587031215620001aa578384fd5b84519350620001bc6020860162000177565b9250620001cc6040860162000177565b9150620001dc6060860162000177565b905092959194509250565b608051612cd762000211600039600081816107a701528181610a070152610d980152612cd76000f3fe608060405234801561001057600080fd5b50600436106101cf5760003560e01c8063889f004711610104578063b24cf5d7116100a2578063e19e89ab11610071578063e19e89ab146103db578063f23a6e61146103e3578063fa6285cc146103f6578063fd12a4d214610417576101cf565b8063b24cf5d71461038f578063bc197c81146103a2578063d671581f146103b5578063d8963fc4146103c8576101cf565b80638bad0c0a116100de5780638bad0c0a1461034e57806396dc76c414610356578063a59f3e0c14610369578063b2152aed1461037c576101cf565b8063889f0047146103135780638a062ab7146103335780638a78c34014610346576101cf565b8063458870381161017157806364375d291161014b57806364375d29146102c757806370480275146102da5780637f8661a1146102ed57806386db4df714610300576101cf565b8063458870381461028057806346864cd81461029357806359509b7a146102a6576101cf565b8063150b7a02116101ad578063150b7a021461022557806324d7806c146102455780632acc9a9c146102585780633174d5071461026b576101cf565b806301ffc9a7146101d4578063086f99d4146101fd5780630a96263214610212575b600080fd5b6101e76101e2366004612473565b61042a565b6040516101f4919061280a565b60405180910390f35b61021061020b36600461229c565b610457565b005b610210610220366004612453565b61048b565b610238610233366004612384565b6104bb565b6040516101f49190612815565b6101e761025336600461229c565b6104cb565b610210610266366004612502565b6104d7565b610273610847565b6040516101f49190612add565b61021061028e366004612532565b61084d565b6102106102a136600461229c565b61086a565b6102b96102b4366004612502565b61089e565b6040516101f4929190612afd565b6102736102d5366004612532565b6108cc565b6102106102e836600461229c565b6108e7565b6102106102fb366004612502565b610905565b61021061030e366004612502565b6109b5565b610326610321366004612502565b610a71565b6040516101f49190612716565b610210610341366004612502565b610a9b565b610273610ab2565b610210610ab8565b61027361036436600461229c565b610ac3565b610210610377366004612502565b610ad5565b61021061038a366004612502565b610e28565b61021061039d36600461229c565b610e55565b6102386103b03660046122db565b610e89565b6103266103c3366004612502565b610e9a565b6102106103d6366004612453565b610eb5565b6101e7610ee5565b6102386103f13660046123ed565b610ef5565b610409610404366004612532565b610f06565b6040516101f4929190612787565b610210610425366004612502565b6110d9565b60006001600160e01b03198216630271189760e51b148061044f575061044f82611137565b90505b919050565b610460336104cb565b61046957600080fd5b600280546001600160a01b0319166001600160a01b0392909216919091179055565b610494336104cb565b61049d57600080fd5b60038054911515600160a81b0260ff60a81b19909216919091179055565b630a85bd0160e11b949350505050565b600061044f8183611150565b6002546040516331a9108f60e11b81526001600160a01b0390911690636352211e90610507908490600401612add565b60206040518083038186803b15801561051f57600080fd5b505afa158015610533573d6000803e3d6000fd5b505050506040513d601f19601f8201168201806040525081019061055791906122bf565b6001600160a01b0316336001600160a01b0316146105905760405162461bcd60e51b815260040161058790612940565b60405180910390fd5b6002546040516352637b1f60e11b81526001600160a01b039091169063a4c6f63e906105c0908490600401612add565b60206040518083038186803b1580156105d857600080fd5b505afa1580156105ec573d6000803e3d6000fd5b505050506040513d601f19601f82011682018060405250810190610610919061251a565b61062c5760405162461bcd60e51b8152600401610587906128b0565b600354600160a81b900460ff16151560011461065a5760405162461bcd60e51b815260040161058790612a2d565b60025460405163a090195d60e01b81526000916001600160a01b03169063a090195d9061068b908590600401612add565b604080518083038186803b1580156106a257600080fd5b505afa1580156106b6573d6000803e3d6000fd5b505050506040513d601f19601f820116820180604052508101906106da9190612553565b915050600260009054906101000a90046001600160a01b03166001600160a01b03166330ecf94e6040518163ffffffff1660e01b815260040160206040518083038186803b15801561072b57600080fd5b505afa15801561073f573d6000803e3d6000fd5b505050506040513d601f19601f82011682018060405250810190610763919061251a565b8110156107825760405162461bcd60e51b8152600401610587906128f5565b336000908152600a602052604090205461080857336000818152600a602052604081207f00000000000000000000000000000000000000000000000000000000000000009055600b805460018101825591527f0175b7a638427703f0dbe7bb9bbf987a2551717b34e79f33b5b1008d1fa01db90180546001600160a01b03191690911790555b600061081383611185565b9050801561082a576108258382611214565b610842565b60405162461bcd60e51b8152600401610587906129e0565b505050565b60095490565b610856336104cb565b61085f57600080fd5b600491909155600555565b610873336104cb565b61087c57600080fd5b600180546001600160a01b0319166001600160a01b0392909216919091179055565b600981815481106108ae57600080fd5b60009182526020909120600290910201805460019091015490915082565b6000806108de848460646006546113d6565b50949350505050565b6108f0336104cb565b6108f957600080fd5b610902816114ca565b50565b6009541580159061095a575060008181526007602052604090205460098054909190811061094357634e487b7160e01b600052603260045260246000fd5b906000526020600020906002020160000154600014155b6109765760405162461bcd60e51b81526004016105879061282a565b6000818152600860205260409020546001600160a01b031633146109ac5760405162461bcd60e51b815260040161058790612940565b6109028161150c565b6109be336104cb565b6109c757600080fd5b600354600160a81b900460ff1615156001146109e257600080fd5b336000908152600a6020526040902054610a6857336000818152600a602052604081207f00000000000000000000000000000000000000000000000000000000000000009055600b805460018101825591527f0175b7a638427703f0dbe7bb9bbf987a2551717b34e79f33b5b1008d1fa01db90180546001600160a01b03191690911790555b610902816116d9565b600b8181548110610a8157600080fd5b6000918252602090912001546001600160a01b0316905081565b610aa4336104cb565b610aad57600080fd5b600655565b600b5490565b610ac1336117ea565b565b600a6020526000908152604090205481565b6002546040516331a9108f60e11b81526001600160a01b0390911690636352211e90610b05908490600401612add565b60206040518083038186803b158015610b1d57600080fd5b505afa158015610b31573d6000803e3d6000fd5b505050506040513d601f19601f82011682018060405250810190610b5591906122bf565b6001600160a01b0316336001600160a01b031614610b855760405162461bcd60e51b815260040161058790612940565b6002546040516352637b1f60e11b81526001600160a01b039091169063a4c6f63e90610bb5908490600401612add565b60206040518083038186803b158015610bcd57600080fd5b505afa158015610be1573d6000803e3d6000fd5b505050506040513d601f19601f82011682018060405250810190610c05919061251a565b610c215760405162461bcd60e51b8152600401610587906128b0565b600354600160a81b900460ff1615610c4b5760405162461bcd60e51b815260040161058790612975565b60025460405163a090195d60e01b81526000916001600160a01b03169063a090195d90610c7c908590600401612add565b604080518083038186803b158015610c9357600080fd5b505afa158015610ca7573d6000803e3d6000fd5b505050506040513d601f19601f82011682018060405250810190610ccb9190612553565b915050600260009054906101000a90046001600160a01b03166001600160a01b03166330ecf94e6040518163ffffffff1660e01b815260040160206040518083038186803b158015610d1c57600080fd5b505afa158015610d30573d6000803e3d6000fd5b505050506040513d601f19601f82011682018060405250810190610d54919061251a565b811015610d735760405162461bcd60e51b8152600401610587906128f5565b336000908152600a6020526040902054610df957336000818152600a602052604081207f00000000000000000000000000000000000000000000000000000000000000009055600b805460018101825591527f0175b7a638427703f0dbe7bb9bbf987a2551717b34e79f33b5b1008d1fa01db90180546001600160a01b03191690911790555b6000610e048361182c565b90508015610e1f57610e168382611214565b6108258161150c565b610842836116d9565b610e31336104cb565b610e3a57600080fd5b600354600160a81b900460ff1615156001146109ac57600080fd5b610e5e336104cb565b610e6757600080fd5b600380546001600160a01b0319166001600160a01b0392909216919091179055565b63bc197c8160e01b95945050505050565b6008602052600090815260409020546001600160a01b031681565b610ebe336104cb565b610ec757600080fd5b60038054911515600160a01b0260ff60a01b19909216919091179055565b600354600160a81b900460ff1690565b63f23a6e6160e01b95945050505050565b600b5460609081908310610f2c5760405162461bcd60e51b8152600401610587906129b8565b600b54610f398486612bde565b1115610f4557600b5493505b836001600160401b03811115610f6b57634e487b7160e01b600052604160045260246000fd5b604051908082528060200260200182016040528015610f94578160200160208202803683370190505b509150836001600160401b03811115610fbd57634e487b7160e01b600052604160045260246000fd5b604051908082528060200260200182016040528015610fe6578160200160208202803683370190505b509050825b610ff58585612b54565b8110156110d1576000600b828154811061101f57634e487b7160e01b600052603260045260246000fd5b6000918252602090912001546001600160a01b0316905080846110428785612bde565b8151811061106057634e487b7160e01b600052603260045260246000fd5b6001600160a01b039283166020918202929092018101919091529082166000908152600a9091526040902054836110978785612bde565b815181106110b557634e487b7160e01b600052603260045260246000fd5b6020908102919091010152506110ca81612bf5565b9050610feb565b509250929050565b6110e2336104cb565b6109ac57600080fd5b6001600160a01b0381166110fe57600080fd5b6111088282611150565b1561111257600080fd5b6001600160a01b0316600090815260209190915260409020805460ff19166001179055565b6001600160e01b031981166301ffc9a760e01b14919050565b60006001600160a01b03821661116557600080fd5b506001600160a01b03166000908152602091909152604090205460ff1690565b60095460009061119757506000610452565b600954604051600091906111b490603f9086904290602001612700565b6040516020818303038152906040528051906020012060001c6111d79190612c10565b9050600981815481106111fa57634e487b7160e01b600052603260045260246000fd5b906000526020600020906002020160000154915050919050565b60008060006112238585611a24565b925092509250816001600160a01b0316836001600160a01b03167f9b5363c49f40791b738dbe0ba63e6fa52ed52213cf8d4a2f3724e1389d72f14f8360405161126c9190612add565b60405180910390a36003546040516331f27b0760e01b81526001600160a01b03909116906331f27b07906112a69084908790600401612ae6565b600060405180830381600087803b1580156112c057600080fd5b505af11580156112d4573d6000803e3d6000fd5b5050506001600160a01b038085166000908152600a6020526040808220549286168252812054909250606491611309916108cc565b6113139190612b6c565b6001600160a01b0385166000908152600a6020526040812080549293508392909190611340908490612b54565b90915550506001600160a01b0383166000908152600a6020526040812054611369908390612b9f565b13156113b1576001600160a01b0383166000908152600a6020526040902054611393908290612bde565b6001600160a01b0384166000908152600a60205260409020556113ce565b6001600160a01b0383166000908152600a60205260409020600190555b505050505050565b600080612710830286861082816113ef578888036113f3565b8789035b905061046681106114165760405162461bcd60e51b815260040161058790612879565b811561143d57610320811061143d5760405162461bcd60e51b815260040161058790612879565b60008060008060008661145457856103200161145a565b85610320035b945061146c600a601987046001611b95565b935061147784611c53565b925082606401888161149957634e487b7160e01b600052601260045260246000fd5b0491508b8b0290508181109850886114b3578181036114b7565b8082035b9950505050505050505094509492505050565b6114d56000826110eb565b6040516001600160a01b038216907f44d6d25963f097ad14f29f06854a01f575648a1ef82f30e562ccd3889717e33990600090a250565b60025460008281526008602052604090819020549051635c46a7ef60e11b81526001600160a01b039283169263b88d4fde9261155292309290911690869060040161272a565b600060405180830381600087803b15801561156c57600080fd5b505af1158015611580573d6000803e3d6000fd5b505050600082815260086020526040812080546001600160a01b03191690556009549091506115b190600190612bde565b90506000600982815481106115d657634e487b7160e01b600052603260045260246000fd5b60009182526020808320600290920290910154858352600790915260408083205482845292209190915560098054919250908390811061162657634e487b7160e01b600052603260045260246000fd5b9060005260206000209060020201600960076000868152602001908152602001600020548154811061166857634e487b7160e01b600052603260045260246000fd5b60009182526020909120825460029092020190815560019182015491015560098054806116a557634e487b7160e01b600052603160045260246000fd5b6000828152602080822060026000199094019384020182815560010182905591909255938152600790935250506040812055565b6000818152600860205260409081902080546001600160a01b031916339081179091556002549151635c46a7ef60e11b81526001600160a01b03929092169163b88d4fde9161172e913090869060040161272a565b600060405180830381600087803b15801561174857600080fd5b505af115801561175c573d6000803e3d6000fd5b505060098054600085815260076020908152604080832084905580518082019091529687524290870190815260018301845592905293517f6e1540171b6c0c960b71a7020d9f60077f6af931a8bbf590da0223dacf75c7af600290950294850155517f6e1540171b6c0c960b71a7020d9f60077f6af931a8bbf590da0223dacf75c7b0909301929092555050565b6117f5600082611c6c565b6040516001600160a01b038216907fa3b62bc36326052d97ea62d63c3d60308ed4c3ea8ac079dd8499f1e9c4f80c0f90600090a250565b6000805b600954811015611a1b5760006009828154811061185d57634e487b7160e01b600052603260045260246000fd5b9060005260206000209060020201600001549050838214806118aa5750600354600160a01b900460ff161580156118aa57506000818152600860205260409020546001600160a01b031633145b156118b55750611a0b565b6000603c600984815481106118da57634e487b7160e01b600052603260045260246000fd5b906000526020600020906002020160010154426118f79190612bde565b611902906078612b80565b61190c9190612b6c565b905060006078600554836119209190612b80565b61192a9190612b6c565b6004546119379190612b54565b6000848152600860209081526040808320546001600160a01b03168352600a90915290205490915061196a908290612bde565b336000908152600a60205260409020541180156119c457506000838152600860209081526040808320546001600160a01b03168352600a9091529020546119b2908290612b54565b336000908152600a6020526040902054105b15611a0757600984815481106119ea57634e487b7160e01b600052603260045260246000fd5b906000526020600020906002020160000154945050505050610452565b5050505b611a1481612bf5565b9050611830565b50600092915050565b6001546000828152600860205260408082205490516331acd38760e21b8152919283928392839283926001600160a01b039182169263c6b34e1c92611a739233928d9216908c9060040161275d565b611c2060405180830381600087803b158015611a8e57600080fd5b505af1158015611aa2573d6000803e3d6000fd5b505050506040513d601f19601f82011682018060405250810190611ac691906124d4565b60015460405163abd6b07560e01b81529294509092506000916001600160a01b039091169063abd6b07590611aff908690600401612a71565b611c206040518083038186803b158015611b1857600080fd5b505afa158015611b2c573d6000803e3d6000fd5b505050506040513d601f19601f82011682018060405250810190611b50919061249b565b9150600090506001600160a01b0382163314611b6c5733611b85565b6000888152600860205260409020546001600160a01b03165b9199919850919650945050505050565b6000838015611c3557600184168015611bb057859250611bb4565b8392505b508260011c8460011c94505b8415611c2f578560801c15611bd457600080fd5b85860281810181811015611be757600080fd5b8590049650506001851615611c24578583028387820414611c0d578615611c0d57600080fd5b81810181811015611c1d57600080fd5b8590049350505b8460011c9450611bc0565b50611c4b565b838015611c455760009250611c49565b8392505b505b509392505050565b600061044f611c67611c67611c6785611cb4565b611cb4565b6001600160a01b038116611c7f57600080fd5b611c898282611150565b611c9257600080fd5b6001600160a01b0316600090815260209190915260409020805460ff19169055565b600181600160801b8110611ccd5760409190911b9060801c5b680100000000000000008110611ce85760209190911b9060401c5b6401000000008110611cff5760109190911b9060201c5b620100008110611d145760089190911b9060101c5b6101008110611d285760049190911b9060081c5b60108110611d3b5760029190911b9060041c5b60088110611d4a578160011b91505b5080820401600190811c80830401811c80830401811c80830401811c80830401811c80830401811c80830401901c80820481811015611d87578091505b50919050565b600082601f830112611d9d578081fd5b6005611db0611dab82612b34565b612b0b565b8084866103c087011115611dc2578485fd5b845b84811015611e9b5781880360c080821215611ddd578788fd5b604080518181016001600160401b038282108183111715611e0057611e00612c66565b9083528651825260209060a0601f198701811315611e1c578c8dfd5b845196508087018781108382111715611e3757611e37612c66565b855288830151875288850151878401526060808a015190925060068110611e5c578d8efd5b80868901525060809450611e71858a01612073565b91870191909152870151928501929092528082019390935291865294019390910190600101611dc4565b50909695505050505050565b600082601f830112611eb7578081fd5b6040516107808082018281106001600160401b0382111715611edb57611edb612c66565b6040528184828101871015611eee578485fd5b8492505b603c831015611f1257805182526001929092019160209182019101611ef2565b509195945050505050565b600082601f830112611f2d578081fd5b6040516101008082018281106001600160401b0382111715611f5157611f51612c66565b6040528184828101871015611f64578485fd5b8492505b6008831015611f1257805182526001929092019160209182019101611f68565b600082601f830112611f98578081fd5b813560206001600160401b03821115611fb357611fb3612c66565b808202611fc1828201612b0b565b838152828101908684018388018501891015611fdb578687fd5b8693505b85841015611ffd578035835260019390930192918401918401611fdf565b50979650505050505050565b600082601f830112612019578081fd5b81356001600160401b0381111561203257612032612c66565b612045601f8201601f1916602001612b0b565b818152846020838601011115612059578283fd5b816020850160208301379081016020019190915292915050565b80516002811061045257600080fd5b6000611c008284031215612094578081fd5b60405160c081018181106001600160401b03821117156120b6576120b6612c66565b604052825181529050806120cd8460208501612193565b60208201526120e084610de08501612193565b6040820152611ba083015160608201526120fd611bc08401612073565b608082015261210f611be08401612073565b60a08201525092915050565b600060c0828403121561212c578081fd5b60405160c081018181106001600160401b038211171561214e5761214e612c66565b8060405250809150825181526020830151602082015260408301516040820152606083015160608201526080830151608082015260a083015160a08201525092915050565b6000818303610dc08112156121a6578182fd5b6040805160a081016001600160401b0382821081831117156121ca576121ca612c66565b818452829550865191506121dd82612c8c565b818352602087015160208401526105e0603f19860112156121fd57600080fd5b8351945060c085019150848210818311171561221b5761221b612c66565b5082528482015183526060850151602084015261223b866080870161211b565b8284015261224d866101408701611f1d565b6060840152610240850151608084015261226b866102608701611d8d565b60a08401528282820152612283866106208701611ea7565b6060820152610da0850151608082015250505092915050565b6000602082840312156122ad578081fd5b81356122b881612c8c565b9392505050565b6000602082840312156122d0578081fd5b81516122b881612c8c565b600080600080600060a086880312156122f2578081fd5b85356122fd81612c8c565b9450602086013561230d81612c8c565b935060408601356001600160401b0380821115612328578283fd5b61233489838a01611f88565b94506060880135915080821115612349578283fd5b61235589838a01611f88565b9350608088013591508082111561236a578283fd5b5061237788828901612009565b9150509295509295909350565b60008060008060808587031215612399578182fd5b84356123a481612c8c565b935060208501356123b481612c8c565b92506040850135915060608501356001600160401b038111156123d5578182fd5b6123e187828801612009565b91505092959194509250565b600080600080600060a08688031215612404578283fd5b853561240f81612c8c565b9450602086013561241f81612c8c565b9350604086013592506060860135915060808601356001600160401b03811115612447578182fd5b61237788828901612009565b600060208284031215612464578081fd5b813580151581146122b8578182fd5b600060208284031215612484578081fd5b81356001600160e01b0319811681146122b8578182fd5b600080611c2083850312156124ae578182fd5b6124b88484612082565b9150611c008301516124c981612c8c565b809150509250929050565b600080611c2083850312156124e7578182fd5b6124f18484612082565b9150611c0083015190509250929050565b600060208284031215612513578081fd5b5035919050565b60006020828403121561252b578081fd5b5051919050565b60008060408385031215612544578182fd5b50508035926020909101359150565b60008060408385031215612565578182fd5b505080516020909101519092909150565b8060005b60058110156125f357815180518552602090810151805182870152808201516040808801919091528101519091906060600682106125ba576125ba612c50565b8781019190915282015160806125cf82612c7c565b87810191909152919091015160a086015260c090940193919091019060010161257a565b50505050565b8060005b603c8110156125f35781518452602093840193909101906001016125fd565b8060005b60088110156125f3578151845260209384019390910190600101612620565b60018060a01b0381511682526020810151602083015260408101518051604084015260208101516060840152604081015180516080850152602081015160a0850152604081015160c0850152606081015160e0850152608081015161010085015260a08101516101208501525060608101516126bf61014085018261261c565b50608081015161024084015260a001516126dd610260840182612576565b5060608101516126f16106208401826125f9565b5060800151610da09190910152565b9283526020830191909152604082015260600190565b6001600160a01b0391909116815260200190565b6001600160a01b039384168152919092166020820152604081019190915260806060820181905260009082015260a00190565b6001600160a01b039485168152602081019390935292166040820152606081019190915260800190565b604080825283519082018190526000906020906060840190828701845b828110156127c95781516001600160a01b0316845292840192908401906001016127a4565b50505083810382850152845180825285830191830190845b818110156127fd578351835292840192918401916001016127e1565b5090979650505050505050565b901515815260200190565b6001600160e01b031991909116815260200190565b6020808252602f908201527f506570656d6f6e4d617463686d616b65723a204465636b206973206e6f74206960408201526e1b881d1a19481dd85a5d081b1a5cdd608a1b606082015260800190565b6020808252601b908201527f526174696e6720646966666572656e636520746f6f206c617267650000000000604082015260600190565b60208082526025908201527f506570656d6f6e4d617463686d616b65723a20496e76616c696420626174746c6040820152641958d85c9960da1b606082015260800190565b6020808252602b908201527f506570656d6f6e4d617463686d616b65723a204e6f7420656e6f75676820737560408201526a70706f727420636172647360a81b606082015260800190565b6020808252818101527f506570656d6f6e4d617463686d616b65723a204e6f7420796f7572206465636b604082015260600190565b60208082526023908201527f506570656d6f6e4d617463686d616b65723a20507645206d6f646520656e61626040820152621b195960ea1b606082015260800190565b6020808252600e908201526d125b9d985b1a59081bd9999cd95d60921b604082015260600190565b6020808252602d908201527f506570656d6f6e4d617463686d616b65723a204e6f20507645206f70706f6e6560408201526c6e747320617661696c61626c6560981b606082015260800190565b60208082526024908201527f506570656d6f6e4d617463686d616b65723a20507645206d6f64652064697361604082015263189b195960e21b606082015260800190565b81518152602080830151611c00830191612a8d9084018261263f565b506040830151612aa1610de084018261263f565b506060830151611ba08301526080830151612abb81612c7c565b611bc083015260a0830151612acf81612c7c565b80611be08401525092915050565b90815260200190565b9182526001600160a01b0316602082015260400190565b918252602082015260400190565b6040518181016001600160401b0381118282101715612b2c57612b2c612c66565b604052919050565b60006001600160401b03821115612b4d57612b4d612c66565b5060200290565b60008219821115612b6757612b67612c24565b500190565b600082612b7b57612b7b612c3a565b500490565b6000816000190483118215151615612b9a57612b9a612c24565b500290565b60008083128015600160ff1b850184121615612bbd57612bbd612c24565b6001600160ff1b0384018313811615612bd857612bd8612c24565b50500390565b600082821015612bf057612bf0612c24565b500390565b6000600019821415612c0957612c09612c24565b5060010190565b600082612c1f57612c1f612c3a565b500690565b634e487b7160e01b600052601160045260246000fd5b634e487b7160e01b600052601260045260246000fd5b634e487b7160e01b600052602160045260246000fd5b634e487b7160e01b600052604160045260246000fd5b6002811061090257610902612c50565b6001600160a01b038116811461090257600080fdfea264697066735822122008f510d777a0a5f3c397dffee41b0e2a208764cd1c681f9d5608dcb9136be40164736f6c63430008000033",
  "devdoc": {
    "kind": "dev",
    "methods": {
      "enter(uint256)": {
        "details": "This function cannot be used if _pveMode is set to true, players should join using \"enterPve\" instead.",
        "params": {
          "deckId": "The Deck of who called this function"
        }
      },
      "enterPve(uint256)": {
        "details": "This function cannot be used if _pveMode is set to false. In that case, players should join using \"enter\" instead, which  allows them to fight each other.",
        "params": {
          "deckId": "The Deck of who called this function"
        }
      },
      "exit(uint256)": {
        "params": {
          "deckId": "The Deck of the owner"
        }
      },
      "getEloRatingChange(uint256,uint256)": {
        "details": "The returned number has 2 decimals of precision, so 1501 = 15.01 Elo change"
      },
      "getPlayersRankings(uint256,uint256)": {
        "details": "Returns the rankings and addresses of players on the leaderboard, within a given range of indices.Requires that `count` is less than or equal to the number of players on the leaderboard minus `offset`, and that `offset` is less than the number of players on the leaderboard.",
        "params": {
          "count": "The number of rankings to return.",
          "offset": "The index of the first ranking to return."
        },
        "returns": {
          "addresses": "An array of player addresses corresponding to the returned rankings.",
          "rankings": "An array of ranking values for the returned players."
        }
      },
      "leaderboardPlayersCount()": {
        "details": "Returns the number of players currently on the leaderboard.",
        "returns": {
          "_0": "The number of players currently on the leaderboard."
        }
      },
      "onERC721Received(address,address,uint256,bytes)": {
        "details": "See {IERC721Receiver-onERC721Received}. Always returns `IERC721Receiver.onERC721Received.selector`."
      },
      "setKFactor(uint256)": {
        "details": "Dictates the rate of change, has a direct influence on how much a player wins/loses in the ranking",
        "params": {
          "kFactor": "Value used to calculate the rate of change in getEloRatingChange"
        }
      },
      "supportsInterface(bytes4)": {
        "details": "See {IERC165-supportsInterface}."
      }
    },
    "version": 1
  },
  "userdoc": {
    "kind": "user",
    "methods": {
      "enter(uint256)": {
        "notice": "Tries to initiate a battle using a specified deck. If no opponents are found, the deck is placed in a wait list."
      },
      "enterPve(uint256)": {
        "notice": "Tries to initiate a battle using a specified deck. Opponents are not other players but a set of decks added by admins."
      },
      "exit(uint256)": {
        "notice": "Transfers a deck back to its owner and removes from the wait list"
      },
      "getEloRatingChange(uint256,uint256)": {
        "notice": "Calculates the Elo change based on the winner's and loser's ratings."
      },
      "getWaitingCount()": {
        "notice": "Retrieves the number of waiting decks"
      },
      "isPveMode()": {
        "notice": "Tells whether or not this contract is operating in PvE mode. When in PvE mode, players cannot fight against each other (because PvE is the opposite of PvP)."
      }
    },
    "version": 1
  },
  "storageLayout": {
    "storage": [
      {
        "astId": 8898,
        "contract": "contracts/PepemonMatchmaker.sol:PepemonMatchmaker",
        "label": "admins",
        "offset": 0,
        "slot": "0",
        "type": "t_struct(Role)9404_storage"
      },
      {
        "astId": 7503,
        "contract": "contracts/PepemonMatchmaker.sol:PepemonMatchmaker",
        "label": "_battleAddress",
        "offset": 0,
        "slot": "1",
        "type": "t_address"
      },
      {
        "astId": 7505,
        "contract": "contracts/PepemonMatchmaker.sol:PepemonMatchmaker",
        "label": "_deckAddress",
        "offset": 0,
        "slot": "2",
        "type": "t_address"
      },
      {
        "astId": 7507,
        "contract": "contracts/PepemonMatchmaker.sol:PepemonMatchmaker",
        "label": "_rewardPoolAddress",
        "offset": 0,
        "slot": "3",
        "type": "t_address"
      },
      {
        "astId": 7509,
        "contract": "contracts/PepemonMatchmaker.sol:PepemonMatchmaker",
        "label": "_allowBattleAgainstOneself",
        "offset": 20,
        "slot": "3",
        "type": "t_bool"
      },
      {
        "astId": 7511,
        "contract": "contracts/PepemonMatchmaker.sol:PepemonMatchmaker",
        "label": "_pveMode",
        "offset": 21,
        "slot": "3",
        "type": "t_bool"
      },
      {
        "astId": 7516,
        "contract": "contracts/PepemonMatchmaker.sol:PepemonMatchmaker",
        "label": "_matchRange",
        "offset": 0,
        "slot": "4",
        "type": "t_uint256"
      },
      {
        "astId": 7519,
        "contract": "contracts/PepemonMatchmaker.sol:PepemonMatchmaker",
        "label": "_matchRangePerMinute",
        "offset": 0,
        "slot": "5",
        "type": "t_uint256"
      },
      {
        "astId": 7522,
        "contract": "contracts/PepemonMatchmaker.sol:PepemonMatchmaker",
        "label": "_kFactor",
        "offset": 0,
        "slot": "6",
        "type": "t_uint256"
      },
      {
        "astId": 7526,
        "contract": "contracts/PepemonMatchmaker.sol:PepemonMatchmaker",
        "label": "_waitingDecksIndex",
        "offset": 0,
        "slot": "7",
        "type": "t_mapping(t_uint256,t_uint256)"
      },
      {
        "astId": 7530,
        "contract": "contracts/PepemonMatchmaker.sol:PepemonMatchmaker",
        "label": "deckOwner",
        "offset": 0,
        "slot": "8",
        "type": "t_mapping(t_uint256,t_address)"
      },
      {
        "astId": 7534,
        "contract": "contracts/PepemonMatchmaker.sol:PepemonMatchmaker",
        "label": "waitingDecks",
        "offset": 0,
        "slot": "9",
        "type": "t_array(t_struct(waitingDeckData)7501_storage)dyn_storage"
      },
      {
        "astId": 7538,
        "contract": "contracts/PepemonMatchmaker.sol:PepemonMatchmaker",
        "label": "playerRanking",
        "offset": 0,
        "slot": "10",
        "type": "t_mapping(t_address,t_uint256)"
      },
      {
        "astId": 7541,
        "contract": "contracts/PepemonMatchmaker.sol:PepemonMatchmaker",
        "label": "leaderboardPlayers",
        "offset": 0,
        "slot": "11",
        "type": "t_array(t_address)dyn_storage"
      }
    ],
    "types": {
      "t_address": {
        "encoding": "inplace",
        "label": "address",
        "numberOfBytes": "20"
      },
      "t_array(t_address)dyn_storage": {
        "base": "t_address",
        "encoding": "dynamic_array",
        "label": "address[]",
        "numberOfBytes": "32"
      },
      "t_array(t_struct(waitingDeckData)7501_storage)dyn_storage": {
        "base": "t_struct(waitingDeckData)7501_storage",
        "encoding": "dynamic_array",
        "label": "struct PepemonMatchmaker.waitingDeckData[]",
        "numberOfBytes": "32"
      },
      "t_bool": {
        "encoding": "inplace",
        "label": "bool",
        "numberOfBytes": "1"
      },
      "t_mapping(t_address,t_bool)": {
        "encoding": "mapping",
        "key": "t_address",
        "label": "mapping(address => bool)",
        "numberOfBytes": "32",
        "value": "t_bool"
      },
      "t_mapping(t_address,t_uint256)": {
        "encoding": "mapping",
        "key": "t_address",
        "label": "mapping(address => uint256)",
        "numberOfBytes": "32",
        "value": "t_uint256"
      },
      "t_mapping(t_uint256,t_address)": {
        "encoding": "mapping",
        "key": "t_uint256",
        "label": "mapping(uint256 => address)",
        "numberOfBytes": "32",
        "value": "t_address"
      },
      "t_mapping(t_uint256,t_uint256)": {
        "encoding": "mapping",
        "key": "t_uint256",
        "label": "mapping(uint256 => uint256)",
        "numberOfBytes": "32",
        "value": "t_uint256"
      },
      "t_struct(Role)9404_storage": {
        "encoding": "inplace",
        "label": "struct Roles.Role",
        "members": [
          {
            "astId": 9403,
            "contract": "contracts/PepemonMatchmaker.sol:PepemonMatchmaker",
            "label": "bearer",
            "offset": 0,
            "slot": "0",
            "type": "t_mapping(t_address,t_bool)"
          }
        ],
        "numberOfBytes": "32"
      },
      "t_struct(waitingDeckData)7501_storage": {
        "encoding": "inplace",
        "label": "struct PepemonMatchmaker.waitingDeckData",
        "members": [
          {
            "astId": 7498,
            "contract": "contracts/PepemonMatchmaker.sol:PepemonMatchmaker",
            "label": "deckId",
            "offset": 0,
            "slot": "0",
            "type": "t_uint256"
          },
          {
            "astId": 7500,
            "contract": "contracts/PepemonMatchmaker.sol:PepemonMatchmaker",
            "label": "enterTimestamp",
            "offset": 0,
            "slot": "1",
            "type": "t_uint256"
          }
        ],
        "numberOfBytes": "64"
      },
      "t_uint256": {
        "encoding": "inplace",
        "label": "uint256",
        "numberOfBytes": "32"
      }
    }
  }
}