{
  "address": "0xCade104678081383Fd7842D0eaAfb7e2122cC3Bf",
  "abi": [
    {
      "inputs": [
        {
          "internalType": "address",
          "name": "cardOracleAddress",
          "type": "address"
        },
        {
          "internalType": "address",
          "name": "deckOracleAddress",
          "type": "address"
        },
        {
          "internalType": "address",
          "name": "randOracleAddress",
          "type": "address"
        }
      ],
      "stateMutability": "nonpayable",
      "type": "constructor"
    },
    {
      "anonymous": false,
      "inputs": [
        {
          "indexed": true,
          "internalType": "address",
          "name": "account",
          "type": "address"
        }
      ],
      "name": "AdminAdded",
      "type": "event"
    },
    {
      "anonymous": false,
      "inputs": [
        {
          "indexed": true,
          "internalType": "address",
          "name": "account",
          "type": "address"
        }
      ],
      "name": "AdminRemoved",
      "type": "event"
    },
    {
      "anonymous": false,
      "inputs": [
        {
          "indexed": true,
          "internalType": "address",
          "name": "player1Addr",
          "type": "address"
        },
        {
          "indexed": true,
          "internalType": "address",
          "name": "player2Addr",
          "type": "address"
        },
        {
          "indexed": false,
          "internalType": "uint256",
          "name": "battleId",
          "type": "uint256"
        },
        {
          "indexed": false,
          "internalType": "uint256",
          "name": "p1DeckId",
          "type": "uint256"
        },
        {
          "indexed": false,
          "internalType": "uint256",
          "name": "p2DeckId",
          "type": "uint256"
        }
      ],
      "name": "BattleCreated",
      "type": "event"
    },
    {
      "inputs": [
        {
          "internalType": "address",
          "name": "account",
          "type": "address"
        }
      ],
      "name": "addAdmin",
      "outputs": [],
      "stateMutability": "nonpayable",
      "type": "function"
    },
    {
      "inputs": [
        {
          "internalType": "uint256",
          "name": "",
          "type": "uint256"
        }
      ],
      "name": "battleIdRNGSeed",
      "outputs": [
        {
          "internalType": "uint256",
          "name": "",
          "type": "uint256"
        }
      ],
      "stateMutability": "view",
      "type": "function"
    },
    {
      "inputs": [
        {
          "components": [
            {
              "internalType": "int256",
              "name": "health",
              "type": "int256"
            },
            {
              "internalType": "uint256",
              "name": "battleCardId",
              "type": "uint256"
            },
            {
              "components": [
                {
                  "internalType": "int256",
                  "name": "spd",
                  "type": "int256"
                },
                {
                  "internalType": "uint256",
                  "name": "inte",
                  "type": "uint256"
                },
                {
                  "internalType": "int256",
                  "name": "def",
                  "type": "int256"
                },
                {
                  "internalType": "int256",
                  "name": "atk",
                  "type": "int256"
                },
                {
                  "internalType": "int256",
                  "name": "sAtk",
                  "type": "int256"
                },
                {
                  "internalType": "int256",
                  "name": "sDef",
                  "type": "int256"
                }
              ],
              "internalType": "struct PepemonBattle.CurrentBattleCardStats",
              "name": "currentBCstats",
              "type": "tuple"
            },
            {
              "internalType": "uint256[8]",
              "name": "supportCardInHandIds",
              "type": "uint256[8]"
            },
            {
              "internalType": "uint256",
              "name": "tableSupportCardStats",
              "type": "uint256"
            },
            {
              "components": [
                {
                  "internalType": "uint256",
                  "name": "supportCardId",
                  "type": "uint256"
                },
                {
                  "components": [
                    {
                      "internalType": "int256",
                      "name": "power",
                      "type": "int256"
                    },
                    {
                      "internalType": "uint256",
                      "name": "numTurns",
                      "type": "uint256"
                    },
                    {
                      "internalType": "enum PepemonCardOracle.EffectTo",
                      "name": "effectTo",
                      "type": "uint8"
                    },
                    {
                      "internalType": "enum PepemonCardOracle.EffectFor",
                      "name": "effectFor",
                      "type": "uint8"
                    },
                    {
                      "internalType": "uint256",
                      "name": "reqCode",
                      "type": "uint256"
                    }
                  ],
                  "internalType": "struct PepemonCardOracle.EffectMany",
                  "name": "effectMany",
                  "type": "tuple"
                }
              ],
              "internalType": "struct PepemonBattle.TableSupportCardStats[5]",
              "name": "tableSupportCards",
              "type": "tuple[5]"
            }
          ],
          "internalType": "struct PepemonBattle.Hand",
          "name": "atkHand",
          "type": "tuple"
        },
        {
          "components": [
            {
              "internalType": "int256",
              "name": "health",
              "type": "int256"
            },
            {
              "internalType": "uint256",
              "name": "battleCardId",
              "type": "uint256"
            },
            {
              "components": [
                {
                  "internalType": "int256",
                  "name": "spd",
                  "type": "int256"
                },
                {
                  "internalType": "uint256",
                  "name": "inte",
                  "type": "uint256"
                },
                {
                  "internalType": "int256",
                  "name": "def",
                  "type": "int256"
                },
                {
                  "internalType": "int256",
                  "name": "atk",
                  "type": "int256"
                },
                {
                  "internalType": "int256",
                  "name": "sAtk",
                  "type": "int256"
                },
                {
                  "internalType": "int256",
                  "name": "sDef",
                  "type": "int256"
                }
              ],
              "internalType": "struct PepemonBattle.CurrentBattleCardStats",
              "name": "currentBCstats",
              "type": "tuple"
            },
            {
              "internalType": "uint256[8]",
              "name": "supportCardInHandIds",
              "type": "uint256[8]"
            },
            {
              "internalType": "uint256",
              "name": "tableSupportCardStats",
              "type": "uint256"
            },
            {
              "components": [
                {
                  "internalType": "uint256",
                  "name": "supportCardId",
                  "type": "uint256"
                },
                {
                  "components": [
                    {
                      "internalType": "int256",
                      "name": "power",
                      "type": "int256"
                    },
                    {
                      "internalType": "uint256",
                      "name": "numTurns",
                      "type": "uint256"
                    },
                    {
                      "internalType": "enum PepemonCardOracle.EffectTo",
                      "name": "effectTo",
                      "type": "uint8"
                    },
                    {
                      "internalType": "enum PepemonCardOracle.EffectFor",
                      "name": "effectFor",
                      "type": "uint8"
                    },
                    {
                      "internalType": "uint256",
                      "name": "reqCode",
                      "type": "uint256"
                    }
                  ],
                  "internalType": "struct PepemonCardOracle.EffectMany",
                  "name": "effectMany",
                  "type": "tuple"
                }
              ],
              "internalType": "struct PepemonBattle.TableSupportCardStats[5]",
              "name": "tableSupportCards",
              "type": "tuple[5]"
            }
          ],
          "internalType": "struct PepemonBattle.Hand",
          "name": "defHand",
          "type": "tuple"
        }
      ],
      "name": "calSupportCardsInHand",
      "outputs": [
        {
          "components": [
            {
              "internalType": "int256",
              "name": "health",
              "type": "int256"
            },
            {
              "internalType": "uint256",
              "name": "battleCardId",
              "type": "uint256"
            },
            {
              "components": [
                {
                  "internalType": "int256",
                  "name": "spd",
                  "type": "int256"
                },
                {
                  "internalType": "uint256",
                  "name": "inte",
                  "type": "uint256"
                },
                {
                  "internalType": "int256",
                  "name": "def",
                  "type": "int256"
                },
                {
                  "internalType": "int256",
                  "name": "atk",
                  "type": "int256"
                },
                {
                  "internalType": "int256",
                  "name": "sAtk",
                  "type": "int256"
                },
                {
                  "internalType": "int256",
                  "name": "sDef",
                  "type": "int256"
                }
              ],
              "internalType": "struct PepemonBattle.CurrentBattleCardStats",
              "name": "currentBCstats",
              "type": "tuple"
            },
            {
              "internalType": "uint256[8]",
              "name": "supportCardInHandIds",
              "type": "uint256[8]"
            },
            {
              "internalType": "uint256",
              "name": "tableSupportCardStats",
              "type": "uint256"
            },
            {
              "components": [
                {
                  "internalType": "uint256",
                  "name": "supportCardId",
                  "type": "uint256"
                },
                {
                  "components": [
                    {
                      "internalType": "int256",
                      "name": "power",
                      "type": "int256"
                    },
                    {
                      "internalType": "uint256",
                      "name": "numTurns",
                      "type": "uint256"
                    },
                    {
                      "internalType": "enum PepemonCardOracle.EffectTo",
                      "name": "effectTo",
                      "type": "uint8"
                    },
                    {
                      "internalType": "enum PepemonCardOracle.EffectFor",
                      "name": "effectFor",
                      "type": "uint8"
                    },
                    {
                      "internalType": "uint256",
                      "name": "reqCode",
                      "type": "uint256"
                    }
                  ],
                  "internalType": "struct PepemonCardOracle.EffectMany",
                  "name": "effectMany",
                  "type": "tuple"
                }
              ],
              "internalType": "struct PepemonBattle.TableSupportCardStats[5]",
              "name": "tableSupportCards",
              "type": "tuple[5]"
            }
          ],
          "internalType": "struct PepemonBattle.Hand",
          "name": "",
          "type": "tuple"
        },
        {
          "components": [
            {
              "internalType": "int256",
              "name": "health",
              "type": "int256"
            },
            {
              "internalType": "uint256",
              "name": "battleCardId",
              "type": "uint256"
            },
            {
              "components": [
                {
                  "internalType": "int256",
                  "name": "spd",
                  "type": "int256"
                },
                {
                  "internalType": "uint256",
                  "name": "inte",
                  "type": "uint256"
                },
                {
                  "internalType": "int256",
                  "name": "def",
                  "type": "int256"
                },
                {
                  "internalType": "int256",
                  "name": "atk",
                  "type": "int256"
                },
                {
                  "internalType": "int256",
                  "name": "sAtk",
                  "type": "int256"
                },
                {
                  "internalType": "int256",
                  "name": "sDef",
                  "type": "int256"
                }
              ],
              "internalType": "struct PepemonBattle.CurrentBattleCardStats",
              "name": "currentBCstats",
              "type": "tuple"
            },
            {
              "internalType": "uint256[8]",
              "name": "supportCardInHandIds",
              "type": "uint256[8]"
            },
            {
              "internalType": "uint256",
              "name": "tableSupportCardStats",
              "type": "uint256"
            },
            {
              "components": [
                {
                  "internalType": "uint256",
                  "name": "supportCardId",
                  "type": "uint256"
                },
                {
                  "components": [
                    {
                      "internalType": "int256",
                      "name": "power",
                      "type": "int256"
                    },
                    {
                      "internalType": "uint256",
                      "name": "numTurns",
                      "type": "uint256"
                    },
                    {
                      "internalType": "enum PepemonCardOracle.EffectTo",
                      "name": "effectTo",
                      "type": "uint8"
                    },
                    {
                      "internalType": "enum PepemonCardOracle.EffectFor",
                      "name": "effectFor",
                      "type": "uint8"
                    },
                    {
                      "internalType": "uint256",
                      "name": "reqCode",
                      "type": "uint256"
                    }
                  ],
                  "internalType": "struct PepemonCardOracle.EffectMany",
                  "name": "effectMany",
                  "type": "tuple"
                }
              ],
              "internalType": "struct PepemonBattle.TableSupportCardStats[5]",
              "name": "tableSupportCards",
              "type": "tuple[5]"
            }
          ],
          "internalType": "struct PepemonBattle.Hand",
          "name": "",
          "type": "tuple"
        }
      ],
      "stateMutability": "view",
      "type": "function"
    },
    {
      "inputs": [
        {
          "components": [
            {
              "internalType": "uint256",
              "name": "battleId",
              "type": "uint256"
            },
            {
              "components": [
                {
                  "internalType": "address",
                  "name": "playerAddr",
                  "type": "address"
                },
                {
                  "internalType": "uint256",
                  "name": "deckId",
                  "type": "uint256"
                },
                {
                  "components": [
                    {
                      "internalType": "int256",
                      "name": "health",
                      "type": "int256"
                    },
                    {
                      "internalType": "uint256",
                      "name": "battleCardId",
                      "type": "uint256"
                    },
                    {
                      "components": [
                        {
                          "internalType": "int256",
                          "name": "spd",
                          "type": "int256"
                        },
                        {
                          "internalType": "uint256",
                          "name": "inte",
                          "type": "uint256"
                        },
                        {
                          "internalType": "int256",
                          "name": "def",
                          "type": "int256"
                        },
                        {
                          "internalType": "int256",
                          "name": "atk",
                          "type": "int256"
                        },
                        {
                          "internalType": "int256",
                          "name": "sAtk",
                          "type": "int256"
                        },
                        {
                          "internalType": "int256",
                          "name": "sDef",
                          "type": "int256"
                        }
                      ],
                      "internalType": "struct PepemonBattle.CurrentBattleCardStats",
                      "name": "currentBCstats",
                      "type": "tuple"
                    },
                    {
                      "internalType": "uint256[8]",
                      "name": "supportCardInHandIds",
                      "type": "uint256[8]"
                    },
                    {
                      "internalType": "uint256",
                      "name": "tableSupportCardStats",
                      "type": "uint256"
                    },
                    {
                      "components": [
                        {
                          "internalType": "uint256",
                          "name": "supportCardId",
                          "type": "uint256"
                        },
                        {
                          "components": [
                            {
                              "internalType": "int256",
                              "name": "power",
                              "type": "int256"
                            },
                            {
                              "internalType": "uint256",
                              "name": "numTurns",
                              "type": "uint256"
                            },
                            {
                              "internalType": "enum PepemonCardOracle.EffectTo",
                              "name": "effectTo",
                              "type": "uint8"
                            },
                            {
                              "internalType": "enum PepemonCardOracle.EffectFor",
                              "name": "effectFor",
                              "type": "uint8"
                            },
                            {
                              "internalType": "uint256",
                              "name": "reqCode",
                              "type": "uint256"
                            }
                          ],
                          "internalType": "struct PepemonCardOracle.EffectMany",
                          "name": "effectMany",
                          "type": "tuple"
                        }
                      ],
                      "internalType": "struct PepemonBattle.TableSupportCardStats[5]",
                      "name": "tableSupportCards",
                      "type": "tuple[5]"
                    }
                  ],
                  "internalType": "struct PepemonBattle.Hand",
                  "name": "hand",
                  "type": "tuple"
                },
                {
                  "internalType": "uint256[60]",
                  "name": "totalSupportCardIds",
                  "type": "uint256[60]"
                },
                {
                  "internalType": "uint256",
                  "name": "playedCardCount",
                  "type": "uint256"
                }
              ],
              "internalType": "struct PepemonBattle.Player",
              "name": "player1",
              "type": "tuple"
            },
            {
              "components": [
                {
                  "internalType": "address",
                  "name": "playerAddr",
                  "type": "address"
                },
                {
                  "internalType": "uint256",
                  "name": "deckId",
                  "type": "uint256"
                },
                {
                  "components": [
                    {
                      "internalType": "int256",
                      "name": "health",
                      "type": "int256"
                    },
                    {
                      "internalType": "uint256",
                      "name": "battleCardId",
                      "type": "uint256"
                    },
                    {
                      "components": [
                        {
                          "internalType": "int256",
                          "name": "spd",
                          "type": "int256"
                        },
                        {
                          "internalType": "uint256",
                          "name": "inte",
                          "type": "uint256"
                        },
                        {
                          "internalType": "int256",
                          "name": "def",
                          "type": "int256"
                        },
                        {
                          "internalType": "int256",
                          "name": "atk",
                          "type": "int256"
                        },
                        {
                          "internalType": "int256",
                          "name": "sAtk",
                          "type": "int256"
                        },
                        {
                          "internalType": "int256",
                          "name": "sDef",
                          "type": "int256"
                        }
                      ],
                      "internalType": "struct PepemonBattle.CurrentBattleCardStats",
                      "name": "currentBCstats",
                      "type": "tuple"
                    },
                    {
                      "internalType": "uint256[8]",
                      "name": "supportCardInHandIds",
                      "type": "uint256[8]"
                    },
                    {
                      "internalType": "uint256",
                      "name": "tableSupportCardStats",
                      "type": "uint256"
                    },
                    {
                      "components": [
                        {
                          "internalType": "uint256",
                          "name": "supportCardId",
                          "type": "uint256"
                        },
                        {
                          "components": [
                            {
                              "internalType": "int256",
                              "name": "power",
                              "type": "int256"
                            },
                            {
                              "internalType": "uint256",
                              "name": "numTurns",
                              "type": "uint256"
                            },
                            {
                              "internalType": "enum PepemonCardOracle.EffectTo",
                              "name": "effectTo",
                              "type": "uint8"
                            },
                            {
                              "internalType": "enum PepemonCardOracle.EffectFor",
                              "name": "effectFor",
                              "type": "uint8"
                            },
                            {
                              "internalType": "uint256",
                              "name": "reqCode",
                              "type": "uint256"
                            }
                          ],
                          "internalType": "struct PepemonCardOracle.EffectMany",
                          "name": "effectMany",
                          "type": "tuple"
                        }
                      ],
                      "internalType": "struct PepemonBattle.TableSupportCardStats[5]",
                      "name": "tableSupportCards",
                      "type": "tuple[5]"
                    }
                  ],
                  "internalType": "struct PepemonBattle.Hand",
                  "name": "hand",
                  "type": "tuple"
                },
                {
                  "internalType": "uint256[60]",
                  "name": "totalSupportCardIds",
                  "type": "uint256[60]"
                },
                {
                  "internalType": "uint256",
                  "name": "playedCardCount",
                  "type": "uint256"
                }
              ],
              "internalType": "struct PepemonBattle.Player",
              "name": "player2",
              "type": "tuple"
            },
            {
              "internalType": "uint256",
              "name": "currentTurn",
              "type": "uint256"
            },
            {
              "internalType": "enum PepemonBattle.Attacker",
              "name": "attacker",
              "type": "uint8"
            },
            {
              "internalType": "enum PepemonBattle.TurnHalves",
              "name": "turnHalves",
              "type": "uint8"
            }
          ],
          "internalType": "struct PepemonBattle.Battle",
          "name": "battle",
          "type": "tuple"
        }
      ],
      "name": "checkIfBattleEnded",
      "outputs": [
        {
          "internalType": "bool",
          "name": "",
          "type": "bool"
        },
        {
          "internalType": "address",
          "name": "",
          "type": "address"
        }
      ],
      "stateMutability": "pure",
      "type": "function"
    },
    {
      "inputs": [
        {
          "internalType": "address",
          "name": "p1Addr",
          "type": "address"
        },
        {
          "internalType": "uint256",
          "name": "p1DeckId",
          "type": "uint256"
        },
        {
          "internalType": "address",
          "name": "p2Addr",
          "type": "address"
        },
        {
          "internalType": "uint256",
          "name": "p2DeckId",
          "type": "uint256"
        }
      ],
      "name": "createBattle",
      "outputs": [
        {
          "components": [
            {
              "internalType": "uint256",
              "name": "battleId",
              "type": "uint256"
            },
            {
              "components": [
                {
                  "internalType": "address",
                  "name": "playerAddr",
                  "type": "address"
                },
                {
                  "internalType": "uint256",
                  "name": "deckId",
                  "type": "uint256"
                },
                {
                  "components": [
                    {
                      "internalType": "int256",
                      "name": "health",
                      "type": "int256"
                    },
                    {
                      "internalType": "uint256",
                      "name": "battleCardId",
                      "type": "uint256"
                    },
                    {
                      "components": [
                        {
                          "internalType": "int256",
                          "name": "spd",
                          "type": "int256"
                        },
                        {
                          "internalType": "uint256",
                          "name": "inte",
                          "type": "uint256"
                        },
                        {
                          "internalType": "int256",
                          "name": "def",
                          "type": "int256"
                        },
                        {
                          "internalType": "int256",
                          "name": "atk",
                          "type": "int256"
                        },
                        {
                          "internalType": "int256",
                          "name": "sAtk",
                          "type": "int256"
                        },
                        {
                          "internalType": "int256",
                          "name": "sDef",
                          "type": "int256"
                        }
                      ],
                      "internalType": "struct PepemonBattle.CurrentBattleCardStats",
                      "name": "currentBCstats",
                      "type": "tuple"
                    },
                    {
                      "internalType": "uint256[8]",
                      "name": "supportCardInHandIds",
                      "type": "uint256[8]"
                    },
                    {
                      "internalType": "uint256",
                      "name": "tableSupportCardStats",
                      "type": "uint256"
                    },
                    {
                      "components": [
                        {
                          "internalType": "uint256",
                          "name": "supportCardId",
                          "type": "uint256"
                        },
                        {
                          "components": [
                            {
                              "internalType": "int256",
                              "name": "power",
                              "type": "int256"
                            },
                            {
                              "internalType": "uint256",
                              "name": "numTurns",
                              "type": "uint256"
                            },
                            {
                              "internalType": "enum PepemonCardOracle.EffectTo",
                              "name": "effectTo",
                              "type": "uint8"
                            },
                            {
                              "internalType": "enum PepemonCardOracle.EffectFor",
                              "name": "effectFor",
                              "type": "uint8"
                            },
                            {
                              "internalType": "uint256",
                              "name": "reqCode",
                              "type": "uint256"
                            }
                          ],
                          "internalType": "struct PepemonCardOracle.EffectMany",
                          "name": "effectMany",
                          "type": "tuple"
                        }
                      ],
                      "internalType": "struct PepemonBattle.TableSupportCardStats[5]",
                      "name": "tableSupportCards",
                      "type": "tuple[5]"
                    }
                  ],
                  "internalType": "struct PepemonBattle.Hand",
                  "name": "hand",
                  "type": "tuple"
                },
                {
                  "internalType": "uint256[60]",
                  "name": "totalSupportCardIds",
                  "type": "uint256[60]"
                },
                {
                  "internalType": "uint256",
                  "name": "playedCardCount",
                  "type": "uint256"
                }
              ],
              "internalType": "struct PepemonBattle.Player",
              "name": "player1",
              "type": "tuple"
            },
            {
              "components": [
                {
                  "internalType": "address",
                  "name": "playerAddr",
                  "type": "address"
                },
                {
                  "internalType": "uint256",
                  "name": "deckId",
                  "type": "uint256"
                },
                {
                  "components": [
                    {
                      "internalType": "int256",
                      "name": "health",
                      "type": "int256"
                    },
                    {
                      "internalType": "uint256",
                      "name": "battleCardId",
                      "type": "uint256"
                    },
                    {
                      "components": [
                        {
                          "internalType": "int256",
                          "name": "spd",
                          "type": "int256"
                        },
                        {
                          "internalType": "uint256",
                          "name": "inte",
                          "type": "uint256"
                        },
                        {
                          "internalType": "int256",
                          "name": "def",
                          "type": "int256"
                        },
                        {
                          "internalType": "int256",
                          "name": "atk",
                          "type": "int256"
                        },
                        {
                          "internalType": "int256",
                          "name": "sAtk",
                          "type": "int256"
                        },
                        {
                          "internalType": "int256",
                          "name": "sDef",
                          "type": "int256"
                        }
                      ],
                      "internalType": "struct PepemonBattle.CurrentBattleCardStats",
                      "name": "currentBCstats",
                      "type": "tuple"
                    },
                    {
                      "internalType": "uint256[8]",
                      "name": "supportCardInHandIds",
                      "type": "uint256[8]"
                    },
                    {
                      "internalType": "uint256",
                      "name": "tableSupportCardStats",
                      "type": "uint256"
                    },
                    {
                      "components": [
                        {
                          "internalType": "uint256",
                          "name": "supportCardId",
                          "type": "uint256"
                        },
                        {
                          "components": [
                            {
                              "internalType": "int256",
                              "name": "power",
                              "type": "int256"
                            },
                            {
                              "internalType": "uint256",
                              "name": "numTurns",
                              "type": "uint256"
                            },
                            {
                              "internalType": "enum PepemonCardOracle.EffectTo",
                              "name": "effectTo",
                              "type": "uint8"
                            },
                            {
                              "internalType": "enum PepemonCardOracle.EffectFor",
                              "name": "effectFor",
                              "type": "uint8"
                            },
                            {
                              "internalType": "uint256",
                              "name": "reqCode",
                              "type": "uint256"
                            }
                          ],
                          "internalType": "struct PepemonCardOracle.EffectMany",
                          "name": "effectMany",
                          "type": "tuple"
                        }
                      ],
                      "internalType": "struct PepemonBattle.TableSupportCardStats[5]",
                      "name": "tableSupportCards",
                      "type": "tuple[5]"
                    }
                  ],
                  "internalType": "struct PepemonBattle.Hand",
                  "name": "hand",
                  "type": "tuple"
                },
                {
                  "internalType": "uint256[60]",
                  "name": "totalSupportCardIds",
                  "type": "uint256[60]"
                },
                {
                  "internalType": "uint256",
                  "name": "playedCardCount",
                  "type": "uint256"
                }
              ],
              "internalType": "struct PepemonBattle.Player",
              "name": "player2",
              "type": "tuple"
            },
            {
              "internalType": "uint256",
              "name": "currentTurn",
              "type": "uint256"
            },
            {
              "internalType": "enum PepemonBattle.Attacker",
              "name": "attacker",
              "type": "uint8"
            },
            {
              "internalType": "enum PepemonBattle.TurnHalves",
              "name": "turnHalves",
              "type": "uint8"
            }
          ],
          "internalType": "struct PepemonBattle.Battle",
          "name": "",
          "type": "tuple"
        },
        {
          "internalType": "uint256",
          "name": "battleId",
          "type": "uint256"
        }
      ],
      "stateMutability": "nonpayable",
      "type": "function"
    },
    {
      "inputs": [
        {
          "components": [
            {
              "internalType": "uint256",
              "name": "battleId",
              "type": "uint256"
            },
            {
              "components": [
                {
                  "internalType": "address",
                  "name": "playerAddr",
                  "type": "address"
                },
                {
                  "internalType": "uint256",
                  "name": "deckId",
                  "type": "uint256"
                },
                {
                  "components": [
                    {
                      "internalType": "int256",
                      "name": "health",
                      "type": "int256"
                    },
                    {
                      "internalType": "uint256",
                      "name": "battleCardId",
                      "type": "uint256"
                    },
                    {
                      "components": [
                        {
                          "internalType": "int256",
                          "name": "spd",
                          "type": "int256"
                        },
                        {
                          "internalType": "uint256",
                          "name": "inte",
                          "type": "uint256"
                        },
                        {
                          "internalType": "int256",
                          "name": "def",
                          "type": "int256"
                        },
                        {
                          "internalType": "int256",
                          "name": "atk",
                          "type": "int256"
                        },
                        {
                          "internalType": "int256",
                          "name": "sAtk",
                          "type": "int256"
                        },
                        {
                          "internalType": "int256",
                          "name": "sDef",
                          "type": "int256"
                        }
                      ],
                      "internalType": "struct PepemonBattle.CurrentBattleCardStats",
                      "name": "currentBCstats",
                      "type": "tuple"
                    },
                    {
                      "internalType": "uint256[8]",
                      "name": "supportCardInHandIds",
                      "type": "uint256[8]"
                    },
                    {
                      "internalType": "uint256",
                      "name": "tableSupportCardStats",
                      "type": "uint256"
                    },
                    {
                      "components": [
                        {
                          "internalType": "uint256",
                          "name": "supportCardId",
                          "type": "uint256"
                        },
                        {
                          "components": [
                            {
                              "internalType": "int256",
                              "name": "power",
                              "type": "int256"
                            },
                            {
                              "internalType": "uint256",
                              "name": "numTurns",
                              "type": "uint256"
                            },
                            {
                              "internalType": "enum PepemonCardOracle.EffectTo",
                              "name": "effectTo",
                              "type": "uint8"
                            },
                            {
                              "internalType": "enum PepemonCardOracle.EffectFor",
                              "name": "effectFor",
                              "type": "uint8"
                            },
                            {
                              "internalType": "uint256",
                              "name": "reqCode",
                              "type": "uint256"
                            }
                          ],
                          "internalType": "struct PepemonCardOracle.EffectMany",
                          "name": "effectMany",
                          "type": "tuple"
                        }
                      ],
                      "internalType": "struct PepemonBattle.TableSupportCardStats[5]",
                      "name": "tableSupportCards",
                      "type": "tuple[5]"
                    }
                  ],
                  "internalType": "struct PepemonBattle.Hand",
                  "name": "hand",
                  "type": "tuple"
                },
                {
                  "internalType": "uint256[60]",
                  "name": "totalSupportCardIds",
                  "type": "uint256[60]"
                },
                {
                  "internalType": "uint256",
                  "name": "playedCardCount",
                  "type": "uint256"
                }
              ],
              "internalType": "struct PepemonBattle.Player",
              "name": "player1",
              "type": "tuple"
            },
            {
              "components": [
                {
                  "internalType": "address",
                  "name": "playerAddr",
                  "type": "address"
                },
                {
                  "internalType": "uint256",
                  "name": "deckId",
                  "type": "uint256"
                },
                {
                  "components": [
                    {
                      "internalType": "int256",
                      "name": "health",
                      "type": "int256"
                    },
                    {
                      "internalType": "uint256",
                      "name": "battleCardId",
                      "type": "uint256"
                    },
                    {
                      "components": [
                        {
                          "internalType": "int256",
                          "name": "spd",
                          "type": "int256"
                        },
                        {
                          "internalType": "uint256",
                          "name": "inte",
                          "type": "uint256"
                        },
                        {
                          "internalType": "int256",
                          "name": "def",
                          "type": "int256"
                        },
                        {
                          "internalType": "int256",
                          "name": "atk",
                          "type": "int256"
                        },
                        {
                          "internalType": "int256",
                          "name": "sAtk",
                          "type": "int256"
                        },
                        {
                          "internalType": "int256",
                          "name": "sDef",
                          "type": "int256"
                        }
                      ],
                      "internalType": "struct PepemonBattle.CurrentBattleCardStats",
                      "name": "currentBCstats",
                      "type": "tuple"
                    },
                    {
                      "internalType": "uint256[8]",
                      "name": "supportCardInHandIds",
                      "type": "uint256[8]"
                    },
                    {
                      "internalType": "uint256",
                      "name": "tableSupportCardStats",
                      "type": "uint256"
                    },
                    {
                      "components": [
                        {
                          "internalType": "uint256",
                          "name": "supportCardId",
                          "type": "uint256"
                        },
                        {
                          "components": [
                            {
                              "internalType": "int256",
                              "name": "power",
                              "type": "int256"
                            },
                            {
                              "internalType": "uint256",
                              "name": "numTurns",
                              "type": "uint256"
                            },
                            {
                              "internalType": "enum PepemonCardOracle.EffectTo",
                              "name": "effectTo",
                              "type": "uint8"
                            },
                            {
                              "internalType": "enum PepemonCardOracle.EffectFor",
                              "name": "effectFor",
                              "type": "uint8"
                            },
                            {
                              "internalType": "uint256",
                              "name": "reqCode",
                              "type": "uint256"
                            }
                          ],
                          "internalType": "struct PepemonCardOracle.EffectMany",
                          "name": "effectMany",
                          "type": "tuple"
                        }
                      ],
                      "internalType": "struct PepemonBattle.TableSupportCardStats[5]",
                      "name": "tableSupportCards",
                      "type": "tuple[5]"
                    }
                  ],
                  "internalType": "struct PepemonBattle.Hand",
                  "name": "hand",
                  "type": "tuple"
                },
                {
                  "internalType": "uint256[60]",
                  "name": "totalSupportCardIds",
                  "type": "uint256[60]"
                },
                {
                  "internalType": "uint256",
                  "name": "playedCardCount",
                  "type": "uint256"
                }
              ],
              "internalType": "struct PepemonBattle.Player",
              "name": "player2",
              "type": "tuple"
            },
            {
              "internalType": "uint256",
              "name": "currentTurn",
              "type": "uint256"
            },
            {
              "internalType": "enum PepemonBattle.Attacker",
              "name": "attacker",
              "type": "uint8"
            },
            {
              "internalType": "enum PepemonBattle.TurnHalves",
              "name": "turnHalves",
              "type": "uint8"
            }
          ],
          "internalType": "struct PepemonBattle.Battle",
          "name": "battle",
          "type": "tuple"
        }
      ],
      "name": "fight",
      "outputs": [
        {
          "components": [
            {
              "internalType": "uint256",
              "name": "battleId",
              "type": "uint256"
            },
            {
              "components": [
                {
                  "internalType": "address",
                  "name": "playerAddr",
                  "type": "address"
                },
                {
                  "internalType": "uint256",
                  "name": "deckId",
                  "type": "uint256"
                },
                {
                  "components": [
                    {
                      "internalType": "int256",
                      "name": "health",
                      "type": "int256"
                    },
                    {
                      "internalType": "uint256",
                      "name": "battleCardId",
                      "type": "uint256"
                    },
                    {
                      "components": [
                        {
                          "internalType": "int256",
                          "name": "spd",
                          "type": "int256"
                        },
                        {
                          "internalType": "uint256",
                          "name": "inte",
                          "type": "uint256"
                        },
                        {
                          "internalType": "int256",
                          "name": "def",
                          "type": "int256"
                        },
                        {
                          "internalType": "int256",
                          "name": "atk",
                          "type": "int256"
                        },
                        {
                          "internalType": "int256",
                          "name": "sAtk",
                          "type": "int256"
                        },
                        {
                          "internalType": "int256",
                          "name": "sDef",
                          "type": "int256"
                        }
                      ],
                      "internalType": "struct PepemonBattle.CurrentBattleCardStats",
                      "name": "currentBCstats",
                      "type": "tuple"
                    },
                    {
                      "internalType": "uint256[8]",
                      "name": "supportCardInHandIds",
                      "type": "uint256[8]"
                    },
                    {
                      "internalType": "uint256",
                      "name": "tableSupportCardStats",
                      "type": "uint256"
                    },
                    {
                      "components": [
                        {
                          "internalType": "uint256",
                          "name": "supportCardId",
                          "type": "uint256"
                        },
                        {
                          "components": [
                            {
                              "internalType": "int256",
                              "name": "power",
                              "type": "int256"
                            },
                            {
                              "internalType": "uint256",
                              "name": "numTurns",
                              "type": "uint256"
                            },
                            {
                              "internalType": "enum PepemonCardOracle.EffectTo",
                              "name": "effectTo",
                              "type": "uint8"
                            },
                            {
                              "internalType": "enum PepemonCardOracle.EffectFor",
                              "name": "effectFor",
                              "type": "uint8"
                            },
                            {
                              "internalType": "uint256",
                              "name": "reqCode",
                              "type": "uint256"
                            }
                          ],
                          "internalType": "struct PepemonCardOracle.EffectMany",
                          "name": "effectMany",
                          "type": "tuple"
                        }
                      ],
                      "internalType": "struct PepemonBattle.TableSupportCardStats[5]",
                      "name": "tableSupportCards",
                      "type": "tuple[5]"
                    }
                  ],
                  "internalType": "struct PepemonBattle.Hand",
                  "name": "hand",
                  "type": "tuple"
                },
                {
                  "internalType": "uint256[60]",
                  "name": "totalSupportCardIds",
                  "type": "uint256[60]"
                },
                {
                  "internalType": "uint256",
                  "name": "playedCardCount",
                  "type": "uint256"
                }
              ],
              "internalType": "struct PepemonBattle.Player",
              "name": "player1",
              "type": "tuple"
            },
            {
              "components": [
                {
                  "internalType": "address",
                  "name": "playerAddr",
                  "type": "address"
                },
                {
                  "internalType": "uint256",
                  "name": "deckId",
                  "type": "uint256"
                },
                {
                  "components": [
                    {
                      "internalType": "int256",
                      "name": "health",
                      "type": "int256"
                    },
                    {
                      "internalType": "uint256",
                      "name": "battleCardId",
                      "type": "uint256"
                    },
                    {
                      "components": [
                        {
                          "internalType": "int256",
                          "name": "spd",
                          "type": "int256"
                        },
                        {
                          "internalType": "uint256",
                          "name": "inte",
                          "type": "uint256"
                        },
                        {
                          "internalType": "int256",
                          "name": "def",
                          "type": "int256"
                        },
                        {
                          "internalType": "int256",
                          "name": "atk",
                          "type": "int256"
                        },
                        {
                          "internalType": "int256",
                          "name": "sAtk",
                          "type": "int256"
                        },
                        {
                          "internalType": "int256",
                          "name": "sDef",
                          "type": "int256"
                        }
                      ],
                      "internalType": "struct PepemonBattle.CurrentBattleCardStats",
                      "name": "currentBCstats",
                      "type": "tuple"
                    },
                    {
                      "internalType": "uint256[8]",
                      "name": "supportCardInHandIds",
                      "type": "uint256[8]"
                    },
                    {
                      "internalType": "uint256",
                      "name": "tableSupportCardStats",
                      "type": "uint256"
                    },
                    {
                      "components": [
                        {
                          "internalType": "uint256",
                          "name": "supportCardId",
                          "type": "uint256"
                        },
                        {
                          "components": [
                            {
                              "internalType": "int256",
                              "name": "power",
                              "type": "int256"
                            },
                            {
                              "internalType": "uint256",
                              "name": "numTurns",
                              "type": "uint256"
                            },
                            {
                              "internalType": "enum PepemonCardOracle.EffectTo",
                              "name": "effectTo",
                              "type": "uint8"
                            },
                            {
                              "internalType": "enum PepemonCardOracle.EffectFor",
                              "name": "effectFor",
                              "type": "uint8"
                            },
                            {
                              "internalType": "uint256",
                              "name": "reqCode",
                              "type": "uint256"
                            }
                          ],
                          "internalType": "struct PepemonCardOracle.EffectMany",
                          "name": "effectMany",
                          "type": "tuple"
                        }
                      ],
                      "internalType": "struct PepemonBattle.TableSupportCardStats[5]",
                      "name": "tableSupportCards",
                      "type": "tuple[5]"
                    }
                  ],
                  "internalType": "struct PepemonBattle.Hand",
                  "name": "hand",
                  "type": "tuple"
                },
                {
                  "internalType": "uint256[60]",
                  "name": "totalSupportCardIds",
                  "type": "uint256[60]"
                },
                {
                  "internalType": "uint256",
                  "name": "playedCardCount",
                  "type": "uint256"
                }
              ],
              "internalType": "struct PepemonBattle.Player",
              "name": "player2",
              "type": "tuple"
            },
            {
              "internalType": "uint256",
              "name": "currentTurn",
              "type": "uint256"
            },
            {
              "internalType": "enum PepemonBattle.Attacker",
              "name": "attacker",
              "type": "uint8"
            },
            {
              "internalType": "enum PepemonBattle.TurnHalves",
              "name": "turnHalves",
              "type": "uint8"
            }
          ],
          "internalType": "struct PepemonBattle.Battle",
          "name": "",
          "type": "tuple"
        }
      ],
      "stateMutability": "view",
      "type": "function"
    },
    {
      "inputs": [
        {
          "components": [
            {
              "internalType": "uint256",
              "name": "battleId",
              "type": "uint256"
            },
            {
              "components": [
                {
                  "internalType": "address",
                  "name": "playerAddr",
                  "type": "address"
                },
                {
                  "internalType": "uint256",
                  "name": "deckId",
                  "type": "uint256"
                },
                {
                  "components": [
                    {
                      "internalType": "int256",
                      "name": "health",
                      "type": "int256"
                    },
                    {
                      "internalType": "uint256",
                      "name": "battleCardId",
                      "type": "uint256"
                    },
                    {
                      "components": [
                        {
                          "internalType": "int256",
                          "name": "spd",
                          "type": "int256"
                        },
                        {
                          "internalType": "uint256",
                          "name": "inte",
                          "type": "uint256"
                        },
                        {
                          "internalType": "int256",
                          "name": "def",
                          "type": "int256"
                        },
                        {
                          "internalType": "int256",
                          "name": "atk",
                          "type": "int256"
                        },
                        {
                          "internalType": "int256",
                          "name": "sAtk",
                          "type": "int256"
                        },
                        {
                          "internalType": "int256",
                          "name": "sDef",
                          "type": "int256"
                        }
                      ],
                      "internalType": "struct PepemonBattle.CurrentBattleCardStats",
                      "name": "currentBCstats",
                      "type": "tuple"
                    },
                    {
                      "internalType": "uint256[8]",
                      "name": "supportCardInHandIds",
                      "type": "uint256[8]"
                    },
                    {
                      "internalType": "uint256",
                      "name": "tableSupportCardStats",
                      "type": "uint256"
                    },
                    {
                      "components": [
                        {
                          "internalType": "uint256",
                          "name": "supportCardId",
                          "type": "uint256"
                        },
                        {
                          "components": [
                            {
                              "internalType": "int256",
                              "name": "power",
                              "type": "int256"
                            },
                            {
                              "internalType": "uint256",
                              "name": "numTurns",
                              "type": "uint256"
                            },
                            {
                              "internalType": "enum PepemonCardOracle.EffectTo",
                              "name": "effectTo",
                              "type": "uint8"
                            },
                            {
                              "internalType": "enum PepemonCardOracle.EffectFor",
                              "name": "effectFor",
                              "type": "uint8"
                            },
                            {
                              "internalType": "uint256",
                              "name": "reqCode",
                              "type": "uint256"
                            }
                          ],
                          "internalType": "struct PepemonCardOracle.EffectMany",
                          "name": "effectMany",
                          "type": "tuple"
                        }
                      ],
                      "internalType": "struct PepemonBattle.TableSupportCardStats[5]",
                      "name": "tableSupportCards",
                      "type": "tuple[5]"
                    }
                  ],
                  "internalType": "struct PepemonBattle.Hand",
                  "name": "hand",
                  "type": "tuple"
                },
                {
                  "internalType": "uint256[60]",
                  "name": "totalSupportCardIds",
                  "type": "uint256[60]"
                },
                {
                  "internalType": "uint256",
                  "name": "playedCardCount",
                  "type": "uint256"
                }
              ],
              "internalType": "struct PepemonBattle.Player",
              "name": "player1",
              "type": "tuple"
            },
            {
              "components": [
                {
                  "internalType": "address",
                  "name": "playerAddr",
                  "type": "address"
                },
                {
                  "internalType": "uint256",
                  "name": "deckId",
                  "type": "uint256"
                },
                {
                  "components": [
                    {
                      "internalType": "int256",
                      "name": "health",
                      "type": "int256"
                    },
                    {
                      "internalType": "uint256",
                      "name": "battleCardId",
                      "type": "uint256"
                    },
                    {
                      "components": [
                        {
                          "internalType": "int256",
                          "name": "spd",
                          "type": "int256"
                        },
                        {
                          "internalType": "uint256",
                          "name": "inte",
                          "type": "uint256"
                        },
                        {
                          "internalType": "int256",
                          "name": "def",
                          "type": "int256"
                        },
                        {
                          "internalType": "int256",
                          "name": "atk",
                          "type": "int256"
                        },
                        {
                          "internalType": "int256",
                          "name": "sAtk",
                          "type": "int256"
                        },
                        {
                          "internalType": "int256",
                          "name": "sDef",
                          "type": "int256"
                        }
                      ],
                      "internalType": "struct PepemonBattle.CurrentBattleCardStats",
                      "name": "currentBCstats",
                      "type": "tuple"
                    },
                    {
                      "internalType": "uint256[8]",
                      "name": "supportCardInHandIds",
                      "type": "uint256[8]"
                    },
                    {
                      "internalType": "uint256",
                      "name": "tableSupportCardStats",
                      "type": "uint256"
                    },
                    {
                      "components": [
                        {
                          "internalType": "uint256",
                          "name": "supportCardId",
                          "type": "uint256"
                        },
                        {
                          "components": [
                            {
                              "internalType": "int256",
                              "name": "power",
                              "type": "int256"
                            },
                            {
                              "internalType": "uint256",
                              "name": "numTurns",
                              "type": "uint256"
                            },
                            {
                              "internalType": "enum PepemonCardOracle.EffectTo",
                              "name": "effectTo",
                              "type": "uint8"
                            },
                            {
                              "internalType": "enum PepemonCardOracle.EffectFor",
                              "name": "effectFor",
                              "type": "uint8"
                            },
                            {
                              "internalType": "uint256",
                              "name": "reqCode",
                              "type": "uint256"
                            }
                          ],
                          "internalType": "struct PepemonCardOracle.EffectMany",
                          "name": "effectMany",
                          "type": "tuple"
                        }
                      ],
                      "internalType": "struct PepemonBattle.TableSupportCardStats[5]",
                      "name": "tableSupportCards",
                      "type": "tuple[5]"
                    }
                  ],
                  "internalType": "struct PepemonBattle.Hand",
                  "name": "hand",
                  "type": "tuple"
                },
                {
                  "internalType": "uint256[60]",
                  "name": "totalSupportCardIds",
                  "type": "uint256[60]"
                },
                {
                  "internalType": "uint256",
                  "name": "playedCardCount",
                  "type": "uint256"
                }
              ],
              "internalType": "struct PepemonBattle.Player",
              "name": "player2",
              "type": "tuple"
            },
            {
              "internalType": "uint256",
              "name": "currentTurn",
              "type": "uint256"
            },
            {
              "internalType": "enum PepemonBattle.Attacker",
              "name": "attacker",
              "type": "uint8"
            },
            {
              "internalType": "enum PepemonBattle.TurnHalves",
              "name": "turnHalves",
              "type": "uint8"
            }
          ],
          "internalType": "struct PepemonBattle.Battle",
          "name": "battle",
          "type": "tuple"
        }
      ],
      "name": "goForBattle",
      "outputs": [
        {
          "components": [
            {
              "internalType": "uint256",
              "name": "battleId",
              "type": "uint256"
            },
            {
              "components": [
                {
                  "internalType": "address",
                  "name": "playerAddr",
                  "type": "address"
                },
                {
                  "internalType": "uint256",
                  "name": "deckId",
                  "type": "uint256"
                },
                {
                  "components": [
                    {
                      "internalType": "int256",
                      "name": "health",
                      "type": "int256"
                    },
                    {
                      "internalType": "uint256",
                      "name": "battleCardId",
                      "type": "uint256"
                    },
                    {
                      "components": [
                        {
                          "internalType": "int256",
                          "name": "spd",
                          "type": "int256"
                        },
                        {
                          "internalType": "uint256",
                          "name": "inte",
                          "type": "uint256"
                        },
                        {
                          "internalType": "int256",
                          "name": "def",
                          "type": "int256"
                        },
                        {
                          "internalType": "int256",
                          "name": "atk",
                          "type": "int256"
                        },
                        {
                          "internalType": "int256",
                          "name": "sAtk",
                          "type": "int256"
                        },
                        {
                          "internalType": "int256",
                          "name": "sDef",
                          "type": "int256"
                        }
                      ],
                      "internalType": "struct PepemonBattle.CurrentBattleCardStats",
                      "name": "currentBCstats",
                      "type": "tuple"
                    },
                    {
                      "internalType": "uint256[8]",
                      "name": "supportCardInHandIds",
                      "type": "uint256[8]"
                    },
                    {
                      "internalType": "uint256",
                      "name": "tableSupportCardStats",
                      "type": "uint256"
                    },
                    {
                      "components": [
                        {
                          "internalType": "uint256",
                          "name": "supportCardId",
                          "type": "uint256"
                        },
                        {
                          "components": [
                            {
                              "internalType": "int256",
                              "name": "power",
                              "type": "int256"
                            },
                            {
                              "internalType": "uint256",
                              "name": "numTurns",
                              "type": "uint256"
                            },
                            {
                              "internalType": "enum PepemonCardOracle.EffectTo",
                              "name": "effectTo",
                              "type": "uint8"
                            },
                            {
                              "internalType": "enum PepemonCardOracle.EffectFor",
                              "name": "effectFor",
                              "type": "uint8"
                            },
                            {
                              "internalType": "uint256",
                              "name": "reqCode",
                              "type": "uint256"
                            }
                          ],
                          "internalType": "struct PepemonCardOracle.EffectMany",
                          "name": "effectMany",
                          "type": "tuple"
                        }
                      ],
                      "internalType": "struct PepemonBattle.TableSupportCardStats[5]",
                      "name": "tableSupportCards",
                      "type": "tuple[5]"
                    }
                  ],
                  "internalType": "struct PepemonBattle.Hand",
                  "name": "hand",
                  "type": "tuple"
                },
                {
                  "internalType": "uint256[60]",
                  "name": "totalSupportCardIds",
                  "type": "uint256[60]"
                },
                {
                  "internalType": "uint256",
                  "name": "playedCardCount",
                  "type": "uint256"
                }
              ],
              "internalType": "struct PepemonBattle.Player",
              "name": "player1",
              "type": "tuple"
            },
            {
              "components": [
                {
                  "internalType": "address",
                  "name": "playerAddr",
                  "type": "address"
                },
                {
                  "internalType": "uint256",
                  "name": "deckId",
                  "type": "uint256"
                },
                {
                  "components": [
                    {
                      "internalType": "int256",
                      "name": "health",
                      "type": "int256"
                    },
                    {
                      "internalType": "uint256",
                      "name": "battleCardId",
                      "type": "uint256"
                    },
                    {
                      "components": [
                        {
                          "internalType": "int256",
                          "name": "spd",
                          "type": "int256"
                        },
                        {
                          "internalType": "uint256",
                          "name": "inte",
                          "type": "uint256"
                        },
                        {
                          "internalType": "int256",
                          "name": "def",
                          "type": "int256"
                        },
                        {
                          "internalType": "int256",
                          "name": "atk",
                          "type": "int256"
                        },
                        {
                          "internalType": "int256",
                          "name": "sAtk",
                          "type": "int256"
                        },
                        {
                          "internalType": "int256",
                          "name": "sDef",
                          "type": "int256"
                        }
                      ],
                      "internalType": "struct PepemonBattle.CurrentBattleCardStats",
                      "name": "currentBCstats",
                      "type": "tuple"
                    },
                    {
                      "internalType": "uint256[8]",
                      "name": "supportCardInHandIds",
                      "type": "uint256[8]"
                    },
                    {
                      "internalType": "uint256",
                      "name": "tableSupportCardStats",
                      "type": "uint256"
                    },
                    {
                      "components": [
                        {
                          "internalType": "uint256",
                          "name": "supportCardId",
                          "type": "uint256"
                        },
                        {
                          "components": [
                            {
                              "internalType": "int256",
                              "name": "power",
                              "type": "int256"
                            },
                            {
                              "internalType": "uint256",
                              "name": "numTurns",
                              "type": "uint256"
                            },
                            {
                              "internalType": "enum PepemonCardOracle.EffectTo",
                              "name": "effectTo",
                              "type": "uint8"
                            },
                            {
                              "internalType": "enum PepemonCardOracle.EffectFor",
                              "name": "effectFor",
                              "type": "uint8"
                            },
                            {
                              "internalType": "uint256",
                              "name": "reqCode",
                              "type": "uint256"
                            }
                          ],
                          "internalType": "struct PepemonCardOracle.EffectMany",
                          "name": "effectMany",
                          "type": "tuple"
                        }
                      ],
                      "internalType": "struct PepemonBattle.TableSupportCardStats[5]",
                      "name": "tableSupportCards",
                      "type": "tuple[5]"
                    }
                  ],
                  "internalType": "struct PepemonBattle.Hand",
                  "name": "hand",
                  "type": "tuple"
                },
                {
                  "internalType": "uint256[60]",
                  "name": "totalSupportCardIds",
                  "type": "uint256[60]"
                },
                {
                  "internalType": "uint256",
                  "name": "playedCardCount",
                  "type": "uint256"
                }
              ],
              "internalType": "struct PepemonBattle.Player",
              "name": "player2",
              "type": "tuple"
            },
            {
              "internalType": "uint256",
              "name": "currentTurn",
              "type": "uint256"
            },
            {
              "internalType": "enum PepemonBattle.Attacker",
              "name": "attacker",
              "type": "uint8"
            },
            {
              "internalType": "enum PepemonBattle.TurnHalves",
              "name": "turnHalves",
              "type": "uint8"
            }
          ],
          "internalType": "struct PepemonBattle.Battle",
          "name": "",
          "type": "tuple"
        },
        {
          "internalType": "address",
          "name": "winner",
          "type": "address"
        }
      ],
      "stateMutability": "view",
      "type": "function"
    },
    {
      "inputs": [
        {
          "internalType": "address",
          "name": "account",
          "type": "address"
        }
      ],
      "name": "isAdmin",
      "outputs": [
        {
          "internalType": "bool",
          "name": "",
          "type": "bool"
        }
      ],
      "stateMutability": "view",
      "type": "function"
    },
    {
      "inputs": [],
      "name": "renounceAdmin",
      "outputs": [],
      "stateMutability": "nonpayable",
      "type": "function"
    },
    {
      "inputs": [
        {
          "internalType": "bool",
          "name": "allow",
          "type": "bool"
        }
      ],
      "name": "setAllowBattleAgainstOneself",
      "outputs": [],
      "stateMutability": "nonpayable",
      "type": "function"
    },
    {
      "inputs": [
        {
          "internalType": "address",
          "name": "deckOracleAddress",
          "type": "address"
        }
      ],
      "name": "setBattleContractAddress",
      "outputs": [],
      "stateMutability": "nonpayable",
      "type": "function"
    },
    {
      "inputs": [
        {
          "internalType": "address",
          "name": "cardOracleAddress",
          "type": "address"
        }
      ],
      "name": "setCardContractAddress",
      "outputs": [],
      "stateMutability": "nonpayable",
      "type": "function"
    },
    {
      "inputs": [
        {
          "internalType": "address",
          "name": "randOracleAddress",
          "type": "address"
        }
      ],
      "name": "setRandNrGenContractAddress",
      "outputs": [],
      "stateMutability": "nonpayable",
      "type": "function"
    }
  ],
  "transactionHash": "0xdb0087155b01feaebdd88d3c3782e36758910b4816d4bc74a621778884b8d7da",
  "args": [
    "0x565863d53d060E34b9a9320EF9a9c7653fA16898",
    "0xE6DBa45B51fd511B9Da268a15A221258c8054b80",
    "0x6170CEF7Ba33F242A2693609BddE99c29Ad974F1"
  ],
  "numDeployments": 1,
  "solcInputHash": "1765d0170d31ec80b93477525dd7aca1",
  "bytecode": "0x60806040523480156200001157600080fd5b5060405162003cd938038062003cd9833981016040819052620000349162000190565b6200003f336200009b565b60038054600480546001600160a01b039586166001600160a01b031991821617909155600580549486169490911693909317909255600160025560ff199290931661010002610100600160a81b031990911617169055620001d9565b620000b6816000620000ed60201b620012071790919060201c565b6040516001600160a01b038216907f44d6d25963f097ad14f29f06854a01f575648a1ef82f30e562ccd3889717e33990600090a250565b6001600160a01b0381166200010157600080fd5b6200010d82826200013d565b156200011857600080fd5b6001600160a01b0316600090815260209190915260409020805460ff19166001179055565b60006001600160a01b0382166200015357600080fd5b506001600160a01b03166000908152602091909152604090205460ff1690565b80516001600160a01b03811681146200018b57600080fd5b919050565b600080600060608486031215620001a5578283fd5b620001b08462000173565b9250620001c06020850162000173565b9150620001d06040850162000173565b90509250925092565b613af080620001e96000396000f3fe608060405234801561001057600080fd5b50600436106100cf5760003560e01c80638bad0c0a1161008c578063c6b34e1c11610066578063c6b34e1c146101b6578063d8963fc4146101d7578063edc85a91146101ea578063ee56b3911461020a576100cf565b80638bad0c0a1461016c578063abd6b07514610174578063c3ee543b14610195576100cf565b8063047a4130146100d457806324d7806c146100fe5780632c1e3c391461011e57806346864cd814610133578063704802751461014657806380cfb67914610159575b600080fd5b6100e76100e23660046132e2565b61022a565b6040516100f5929190613773565b60405180910390f35b61011161010c3660046130ca565b61027d565b6040516100f59190613768565b61013161012c3660046130ca565b610291565b005b6101316101413660046130ca565b6102c5565b6101316101543660046130ca565b6102f9565b6101316101673660046130ca565b610317565b610131610351565b6101876101823660046132e2565b61035c565b6040516100f59291906137fa565b6101a86101a3366004613378565b6103c2565b6040516100f592919061383f565b6101c96101c43660046130eb565b610c7c565b6040516100f5929190613822565b6101316101e53660046131d4565b611064565b6101fd6101f83660046132e2565b611089565b6040516100f591906137eb565b61021d6102183660046134d6565b6111f5565b6040516100f5919061385c565b60008060008360200151604001516000015113610251575050602081015151600190610278565b604080840151015151600012610271575050604081015151600190610278565b5060009050805b915091565b60006102898183611253565b90505b919050565b61029a3361027d565b6102a357600080fd5b600580546001600160a01b0319166001600160a01b0392909216919091179055565b6102ce3361027d565b6102d757600080fd5b600480546001600160a01b0319166001600160a01b0392909216919091179055565b6103023361027d565b61030b57600080fd5b6103148161128c565b50565b6103203361027d565b61032957600080fd5b600380546001600160a01b0390921661010002610100600160a81b0319909216919091179055565b61035a336112ce565b565b610364612a32565b600061036f83611310565b925060005b61037d84611a15565b935061038884611089565b93506000806103968661022a565b9150915081156103a95791506103bb9050565b6103b286611be8565b95505050610374565b9293915050565b6103ca612a93565b6103d2612a93565b60008060005b86604001516020015181101561080a5760008760600151826008811061040e57634e487b7160e01b600052603260045260246000fd5b6020020151600354604051634ca7d96360e11b81529192506000916101009091046001600160a01b03169063994fb2c69061044d90859060040161385c565b60006040518083038186803b15801561046557600080fd5b505afa158015610479573d6000803e3d6000fd5b505050506040513d6000823e601f3d908101601f191682016040526104a191908101906133ae565b90506000816020015160038111156104c957634e487b7160e01b600052602160045260246000fd5b1415610570576000816060015190506000806104ec8c8c85608001516001611c38565b91509150811561053f578083602001516105069190613915565b8c6040015160600181815161051b91906138bc565b905250602083015161052e908290613915565b61053890886138bc565b9650610568565b825160408d015160600180516105569083906138bc565b905250825161056590886138bc565b96505b5050506107f5565b60018160200151600381111561059657634e487b7160e01b600052602160045260246000fd5b14156107ee578060a001511561067757600160005b848110156105fe578a6060015181600881106105d757634e487b7160e01b600052603260045260246000fd5b60200201518414156105ec57600091506105fe565b806105f681613a05565b9150506105ab565b508061060c575050506107f8565b60005b8a60800151811015610667578a60a00151816005811061063f57634e487b7160e01b600052603260045260246000fd5b6020020151518414156106555760009150610667565b8061065f81613a05565b91505061060f565b5080610675575050506107f8565b505b6000816060015190506000806106948c8c85608001516001611c38565b9150915081156107545760018111156106d4578083602001516106b79190613915565b8c604001516060018181516106cc91906138bc565b90525061074f565b6001836040015160058111156106fa57634e487b7160e01b600052602160045260246000fd5b141561071a575050505060408801516080810151606090910152506107f8565b6020830151610731576001975050505050506107f8565b82602001518c6040015160600181815161074b91906138bc565b9052505b61077d565b825160408d0151606001805161076b9083906138bc565b905250825161077a90886138bc565b96505b608084015151156105685760058c6080015110156105685760408051808201909152858152608080860151602083015260a08e0151908e018051906107c182613a05565b9052600581106107e157634e487b7160e01b600052603260045260246000fd5b60200201525050506107f5565b50506107f8565b50505b8061080281613a05565b9150506103d8565b50811561082b5780866040015160600181815161082791906138bc565b9052505b506000905080805b856040015160200151811015610c515760008660600151826008811061086957634e487b7160e01b600052603260045260246000fd5b6020020151600354604051634ca7d96360e11b81529192506000916101009091046001600160a01b03169063994fb2c6906108a890859060040161385c565b60006040518083038186803b1580156108c057600080fd5b505afa1580156108d4573d6000803e3d6000fd5b505050506040513d6000823e601f3d908101601f191682016040526108fc91908101906133ae565b905060028160200151600381111561092457634e487b7160e01b600052602160045260246000fd5b14156109ca576000816060015190506000806109478c8c85608001516000611c38565b91509150811561099a578083602001516109619190613915565b8b6040015160400181815161097691906138bc565b9052506020830151610989908290613915565b61099390886138bc565b96506109c2565b82516040808d01510180516109b09083906138bc565b90525082516109bf90886138bc565b96505b505050610c3c565b6003816020015160038111156109f057634e487b7160e01b600052602160045260246000fd5b1415610c35578060a0015115610ac457600160005b84811015610a585789606001518160088110610a3157634e487b7160e01b600052603260045260246000fd5b6020020151841415610a465760009150610a58565b80610a5081613a05565b915050610a05565b5060005b8960800151811015610ab4578960a001518160058110610a8c57634e487b7160e01b600052603260045260246000fd5b602002015151841415610aa25760009150610ab4565b80610aac81613a05565b915050610a5c565b5080610ac257505050610c3f565b505b600081606001519050600080610ae18c8c85608001516000611c38565b915091508115610b9c578015610b1e57808360200151610b019190613915565b8b60400151604001818151610b1691906138bc565b905250610b97565b600383604001516005811115610b4457634e487b7160e01b600052602160045260246000fd5b1415610b62575050505060408781015160a081015191015250610c3f565b6020830151610b7957600197505050505050610c3f565b82602001518b60400151604001818151610b9391906138bc565b9052505b610bc4565b82516040808d0151018051610bb29083906138bc565b9052508251610bc190886138bc565b96505b608084015151156109c25760058b6080015110156109c25760408051808201909152858152608080860151602083015260a08d0151908d01805190610c0882613a05565b905260058110610c2857634e487b7160e01b600052603260045260246000fd5b6020020152505050610c3c565b5050610c3f565b50505b80610c4981613a05565b915050610833565b508115610c7257808560400151604001818151610c6e91906138bc565b9052505b5093949293505050565b610c84612a32565b6000610c8f3361027d565b610c9857600080fd5b60035460ff1680610cbb5750836001600160a01b0316866001600160a01b031614155b610ce05760405162461bcd60e51b8152600401610cd7906137a6565b60405180910390fd5b6004805460405163a090195d60e01b81526000926001600160a01b039092169163a090195d91610d12918a910161385c565b604080518083038186803b158015610d2957600080fd5b505afa158015610d3d573d6000803e3d6000fd5b505050506040513d601f19601f82011682018060405250810190610d619190613506565b506004805460405163a090195d60e01b81529293506000926001600160a01b039091169163a090195d91610d979189910161385c565b604080518083038186803b158015610dae57600080fd5b505afa158015610dc2573d6000803e3d6000fd5b505050506040513d601f19601f82011682018060405250810190610de69190613506565b50600354604051632552294360e11b81529192506000916101009091046001600160a01b031690634aa4528690610e2190869060040161385c565b60006040518083038186803b158015610e3957600080fd5b505afa158015610e4d573d6000803e3d6000fd5b505050506040513d6000823e601f3d908101601f19168201604052610e75919081019061320a565b600354604051632552294360e11b81529192506000916101009091046001600160a01b031690634aa4528690610eaf90869060040161385c565b60006040518083038186803b158015610ec757600080fd5b505afa158015610edb573d6000803e3d6000fd5b505050506040513d6000823e601f3d908101601f19168201604052610f03919081019061320a565b9050610f0d612a32565b600254816000018181525050826060015181602001516040015160000181815250508481602001516040015160200181815250508a8160200151600001906001600160a01b031690816001600160a01b031681525050898160200151602001818152505081606001518160400151604001516000018181525050838160400151604001516020018181525050888160400151600001906001600160a01b031690816001600160a01b0316815250508781604001516020018181525050610fd281611f8b565b60016000600254815260200190815260200160002081905550886001600160a01b03168b6001600160a01b03167f120b95ba2da84b9e69c1acba6099b801de6f291523db8bdf56b0c268b6f2c42c6002548d8c60405161103493929190613752565b60405180910390a3600280548291600061104d83613a05565b919050559650965050505050505b94509492505050565b61106d3361027d565b61107657600080fd5b6003805460ff1916911515919091179055565b611091612a32565b611099612a93565b6110a1612a93565b6000846080015160018111156110c757634e487b7160e01b600052602160045260246000fd5b14156110e857836020015160400151915083604001516040015190506110ff565b836040015160400151915083602001516040015190505b61110982826103c2565b9092509050611118828261205f565b826040015160600181815161112d91906138bc565b9052506040808201518101519083015160600151131561117a578060400151604001518260400151606001516111639190613998565b81518290611172908390613998565b905250611191565b60018160000181815161118d9190613998565b9052505b6000846080015160018111156111b757634e487b7160e01b600052602160045260246000fd5b14156111d7576020840151604090810183905280850151018190526111ed565b6020840151604090810182905280850151018290525b509192915050565b60016020526000908152604090205481565b6001600160a01b03811661121a57600080fd5b6112248282611253565b1561122e57600080fd5b6001600160a01b0316600090815260209190915260409020805460ff19166001179055565b60006001600160a01b03821661126857600080fd5b506001600160a01b03811660009081526020839052604090205460ff165b92915050565b611297600082611207565b6040516001600160a01b038216907f44d6d25963f097ad14f29f06854a01f575648a1ef82f30e562ccd3889717e33990600090a250565b6112d960008261234f565b6040516001600160a01b038216907fa3b62bc36326052d97ea62d63c3d60308ed4c3ea8ac079dd8499f1e9c4f80c0f90600090a250565b611318612a32565b60208281015160408085015160035482840151909401519151632552294360e11b8152929390926000926101009092046001600160a01b031691634aa4528691611365919060040161385c565b60006040518083038186803b15801561137d57600080fd5b505afa158015611391573d6000803e3d6000fd5b505050506040513d6000823e601f3d908101601f191682016040526113b9919081019061320a565b600354604084810151602001519051632552294360e11b81529293506000926101009092046001600160a01b031691634aa45286916113fa9160040161385c565b60006040518083038186803b15801561141257600080fd5b505afa158015611426573d6000803e3d6000fd5b505050506040513d6000823e601f3d908101601f1916820160405261144e919081019061320a565b905061145982612397565b604080860151015261146a81612397565b6040808501518101919091526004805460208701519251639895d74960e01b81526000936001600160a01b0390921692639895d749926114ac9290910161385c565b60206040518083038186803b1580156114c457600080fd5b505afa1580156114d8573d6000803e3d6000fd5b505050506040513d601f19601f820116820180604052508101906114fc91906134ee565b600480546020870151604051639895d74960e01b81529394506000936001600160a01b0390921692639895d7499261153592910161385c565b60206040518083038186803b15801561154d57600080fd5b505afa158015611561573d6000803e3d6000fd5b505050506040513d601f19601f8201168201806040525081019061158591906134ee565b905060006005896060015161159a9190613a20565b15905080156117ca5760045460208801516000916001600160a01b031690637b8ef827906115c960458e6123ec565b6040518363ffffffff1660e01b81526004016115e6929190613865565b60006040518083038186803b1580156115fe57600080fd5b505afa158015611612573d6000803e3d6000fd5b505050506040513d6000823e601f3d908101601f1916820160405261163a919081019061312e565b905060005b848110156116aa5781818151811061166757634e487b7160e01b600052603260045260246000fd5b6020026020010151896060015182603c811061169357634e487b7160e01b600052603260045260246000fd5b6020020152806116a281613a05565b91505061163f565b5060006080890181905260045460208901516001600160a01b0390911690637b8ef827906116da6101a48f6123ec565b6040518363ffffffff1660e01b81526004016116f7929190613865565b60006040518083038186803b15801561170f57600080fd5b505afa158015611723573d6000803e3d6000fd5b505050506040513d6000823e601f3d908101601f1916820160405261174b919081019061312e565b905060005b848110156117bb5781818151811061177857634e487b7160e01b600052603260045260246000fd5b6020026020010151896060015182603c81106117a457634e487b7160e01b600052603260045260246000fd5b6020020152806117b381613a05565b915050611750565b505060006080880152506117f6565b6117dc87604001518760400151612418565b60408089018290528701516117f091612418565b60408701525b600087608001518461180891906139d7565b905087604001516040015160200151811061182f5787604001516040015160200151611831565b805b6040808a015101516020015260005b886040015160400151602001518110156118ca57606089015160808a015161186890836138fd565b603c811061188657634e487b7160e01b600052603260045260246000fd5b602002015189604001516060015182600881106118b357634e487b7160e01b600052603260045260246000fd5b6020020152806118c281613a05565b915050611840565b5087604001516040015160200151886080018181516118e991906138fd565b90525060808701516118fb90846139d7565b90508660400151604001516020015181106119225786604001516040015160200151611924565b805b60408089015101516020015260005b876040015160400151602001518110156119bd576060880151608089015161195b90836138fd565b603c811061197957634e487b7160e01b600052603260045260246000fd5b602002015188604001516060015182600881106119a657634e487b7160e01b600052603260045260246000fd5b6020020152806119b581613a05565b915050611933565b5086604001516040015160200151876080018181516119dc91906138fd565b90525060208a0188905260408a0187905260608a018051906119fd82613a05565b90525050600060a08a01525096979650505050505050565b611a1d612a32565b6020820151604090810151810151818401518201519091015160008460a001516001811115611a5c57634e487b7160e01b600052602160045260246000fd5b1415611b6357805182511315611a9c576080840160005b90816001811115611a9457634e487b7160e01b600052602160045260246000fd5b905250611b5e565b805182511215611ab157608084016001611a73565b806020015182602001511115611acc57608084016000611a73565b806020015182602001511015611ae757608084016001611a73565b60006002611af862010f2c876123ec565b611b029190613a20565b90508015611b11576001611b14565b60005b85608001906001811115611b3857634e487b7160e01b600052602160045260246000fd5b90816001811115611b5957634e487b7160e01b600052602160045260246000fd5b905250505b6111ed565b600084608001516001811115611b8957634e487b7160e01b600052602160045260246000fd5b14611b95576000611b98565b60015b84608001906001811115611bbc57634e487b7160e01b600052602160045260246000fd5b90816001811115611bdd57634e487b7160e01b600052602160045260246000fd5b905250929392505050565b611bf0612a32565b60008260a001516001811115611c1657634e487b7160e01b600052602160045260246000fd5b1415611c2857600160a0830152611c34565b611c3182611310565b91505b5090565b60008080600185611c4c5760019150611f7e565b8560011415611c6957600588604001516020015111159150611f7e565b8560021415611d86576001915060005b876040015160200151811015611d8057600354606089015160009161010090046001600160a01b031690634bcb9613908460088110611cc857634e487b7160e01b600052603260045260246000fd5b60200201516040518263ffffffff1660e01b8152600401611ce9919061385c565b60206040518083038186803b158015611d0157600080fd5b505afa158015611d15573d6000803e3d6000fd5b505050506040513d601f19601f82011682018060405250810190611d3991906131f0565b90506002816003811115611d5d57634e487b7160e01b600052602160045260246000fd5b1415611d6d576000935050611d80565b5080611d7881613a05565b915050611c79565b50611f7e565b8560031415611da757611d9c8860006002612826565b93509350505061105b565b8560041415611dbd57611d9c8860006003612826565b8560051415611dd257611d9c88600080612826565b8560061415611de857611d9c8760026003612826565b8560071415611dfe57611d9c8760026004612826565b8560081415611e1b57600587604001516020015111159150611f7e565b8560091415611e3857600787604001516020015110159150611f7e565b85600a1415611f5d5760005b886040015160200151811015611f535760035460608a015160009161010090046001600160a01b03169063994fb2c6908460088110611e9357634e487b7160e01b600052603260045260246000fd5b60200201516040518263ffffffff1660e01b8152600401611eb4919061385c565b60006040518083038186803b158015611ecc57600080fd5b505afa158015611ee0573d6000803e3d6000fd5b505050506040513d6000823e601f3d908101601f19168201604052611f0891908101906133ae565b9050600181602001516003811115611f3057634e487b7160e01b600052602160045260246000fd5b1415611f40576001935050611f53565b5080611f4b81613a05565b915050611e44565b5060019050611f7e565b85600b1415611f7e57611f7b85611f745787611f76565b885b61298b565b91505b9097909650945050505050565b600080600560009054906101000a90046001600160a01b03166001600160a01b031663dbdff2c16040518163ffffffff1660e01b815260040160206040518083038186803b158015611fdc57600080fd5b505afa158015611ff0573d6000803e3d6000fd5b505050506040513d601f19601f8201168201806040525081019061201491906134ee565b90506000438285602001516000015186604001516000015160405160200161203f949392919061371e565b60408051808303601f190181529190528051602090910120949350505050565b60208281015190820151600354604051632552294360e11b8152600093849390929091849161010090046001600160a01b031690634aa45286906120a790869060040161385c565b60006040518083038186803b1580156120bf57600080fd5b505afa1580156120d3573d6000803e3d6000fd5b505050506040513d6000823e601f3d908101601f191682016040526120fb919081019061320a565b60200151600354604051632552294360e11b81529192506000916101009091046001600160a01b031690634aa452869061213990869060040161385c565b60006040518083038186803b15801561215157600080fd5b505afa158015612165573d6000803e3d6000fd5b505050506040513d6000823e601f3d908101601f1916820160405261218d919081019061320a565b6020015160035460405163b230345360e01b81529192506000916101009091046001600160a01b03169063b2303453906121cb90859060040161378c565b604080518083038186803b1580156121e257600080fd5b505afa1580156121f6573d6000803e3d6000fd5b505050506040513d601f19601f8201168201806040525081019061221a919061347d565b5160035460405163b230345360e01b81529192506000916101009091046001600160a01b03169063b23034539061225590869060040161378c565b604080518083038186803b15801561226c57600080fd5b505afa158015612280573d6000803e3d6000fd5b505050506040513d601f19601f820116820180604052508101906122a4919061347d565b60200151905081600a8111156122ca57634e487b7160e01b600052602160045260246000fd5b84600a8111156122ea57634e487b7160e01b600052602160045260246000fd5b14156122f557600296505b80600a81111561231557634e487b7160e01b600052602160045260246000fd5b84600a81111561233557634e487b7160e01b600052602160045260246000fd5b14156123415760011996505b509498975050505050505050565b6001600160a01b03811661236257600080fd5b61236c8282611253565b61237557600080fd5b6001600160a01b0316600090815260209190915260409020805460ff19169055565b61239f612ad5565b6123a7612ad5565b608080840151825260a080850151602084015260c0850151604084015260e0850151606084015261010085015191830191909152610120840151908201529050919050565b6060810151815160009081526001602090815260408083205490519293849361203f9388939101613752565b612420612a93565b60005b83608001518110156111ed5760008460a00151826005811061245557634e487b7160e01b600052603260045260246000fd5b6020020151905060008160200151905060018160200151106128115760008160600151600181111561249757634e487b7160e01b600052602160045260246000fd5b14156125e3576000816040015160058111156124c357634e487b7160e01b600052602160045260246000fd5b14156124e8578051604087015160600180516124e09083906138bc565b9052506125de565b60028160400151600581111561250e57634e487b7160e01b600052602160045260246000fd5b141561252a5780516040808801510180516124e09083906138bc565b60048160400151600581111561255057634e487b7160e01b600052602160045260246000fd5b141561256a578051604087015180516124e09083906138bc565b60058160400151600581111561259057634e487b7160e01b600052602160045260246000fd5b14156125de5780516040870151602001516000916125ad916138bc565b9050600881136125bd57806125c0565b60085b9050600081136125d15760006125d3565b805b604088015160200152505b612724565b60008160400151600581111561260957634e487b7160e01b600052602160045260246000fd5b141561262e578051604086015160600180516126269083906138bc565b905250612724565b60028160400151600581111561265457634e487b7160e01b600052602160045260246000fd5b14156126705780516040808701510180516126269083906138bc565b60048160400151600581111561269657634e487b7160e01b600052602160045260246000fd5b14156126b0578051604086015180516126269083906138bc565b6005816040015160058111156126d657634e487b7160e01b600052602160045260246000fd5b14156127245780516040860151602001516000916126f3916138bc565b9050600881136127035780612706565b60085b905060008113612717576000612719565b805b604087015160200152505b60208101805190612734826139ee565b9052506020810151612811576001866080015161275191906139d7565b8310156127bb578560a001516001876080015161276e91906139d7565b6005811061278c57634e487b7160e01b600052603260045260246000fd5b60200201518660a0015184600581106127b557634e487b7160e01b600052603260045260246000fd5b60200201525b8560a00151600187608001516127d191906139d7565b600581106127ef57634e487b7160e01b600052603260045260246000fd5b602002016127fb612b0b565b90526080860180519061280d826139ee565b9052505b5050808061281e90613a05565b915050612423565b6000806000805b86604001516020015181101561297c57600354606088015160009161010090046001600160a01b03169063994fb2c690846008811061287c57634e487b7160e01b600052603260045260246000fd5b60200201516040518263ffffffff1660e01b815260040161289d919061385c565b60006040518083038186803b1580156128b557600080fd5b505afa1580156128c9573d6000803e3d6000fd5b505050506040513d6000823e601f3d908101601f191682016040526128f191908101906133ae565b905086600381111561291357634e487b7160e01b600052602160045260246000fd5b8160200151600381111561293757634e487b7160e01b600052602160045260246000fd5b14612942575061296a565b60608101518051871480612954575086155b15612967578361296381613a05565b9450505b50505b8061297481613a05565b91505061282d565b50801515969095509350505050565b6003546020820151604051632552294360e11b815260009261010090046001600160a01b031691634aa45286916129c5919060040161385c565b60006040518083038186803b1580156129dd57600080fd5b505afa1580156129f1573d6000803e3d6000fd5b505050506040513d6000823e601f3d908101601f19168201604052612a19919081019061320a565b606001518251612a2a906002613915565b131592915050565b6040518060c0016040528060008152602001612a4c612b25565b8152602001612a59612b25565b81526020016000815260200160006001811115612a8657634e487b7160e01b600052602160045260246000fd5b815260200160005b905290565b6040518060c001604052806000815260200160008152602001612ab4612ad5565b8152602001612ac1612b5e565b815260200160008152602001612a8e612b7d565b6040518060c001604052806000815260200160008152602001600081526020016000815260200160008152602001600081525090565b604051806040016040528060008152602001612a8e612baa565b6040805160a08101825260008082526020820152908101612b44612a93565b8152602001612b51612bf0565b8152602001600081525090565b6040518061010001604052806008906020820280368337509192915050565b6040518060a001604052806005905b612b94612b0b565b815260200190600190039081612b8c5790505090565b6040518060a00160405280600081526020016000815260200160006005811115612be457634e487b7160e01b600052602160045260246000fd5b81526020016000612b51565b604051806107800160405280603c906020820280368337509192915050565b80356001600160a01b038116811461028c57600080fd5b600082601f830112612c36578081fd5b6005612c49612c448261389c565b613873565b8084866103c087011115612c5b578485fd5b845b84811015612d305781880360c080821215612c76578788fd5b604080518181016001600160401b038282108183111715612c9957612c99613a6c565b9083528635825260209060a0601f198701811315612cb5578c8dfd5b845196508087018781108382111715612cd057612cd0613a6c565b855288830135875288850135878401526060915081890135612cf181613aad565b80868901525060809450612d06858a01612dbd565b91870191909152870135928501929092528082019390935291865294019390910190600101612c5d565b50909695505050505050565b600082601f830112612d4c578081fd5b6040516101008082018281106001600160401b0382111715612d7057612d70613a6c565b6040528184828101871015612d83578485fd5b8492505b6008831015612da757803582526001929092019160209182019101612d87565b509195945050505050565b805161028c81613a92565b803561028c81613aa0565b8051600b811061028c57600080fd5b80516004811061028c57600080fd5b600082601f830112612df6578081fd5b81516001600160401b03811115612e0f57612e0f613a6c565b6020612e23601f8301601f19168201613873565b8281528582848701011115612e36578384fd5b835b83811015612e53578581018301518282018401528201612e38565b83811115612e6357848385840101525b5095945050505050565b600060c08284031215612e7e578081fd5b60405160c081018181106001600160401b0382111715612ea057612ea0613a6c565b8060405250809150823581526020830135602082015260408301356040820152606083013560608201526080830135608082015260a083013560a08201525092915050565b600060a08284031215612ef6578081fd5b60405160a081018181106001600160401b0382111715612f1857612f18613a6c565b806040525080915082518152602083015160208201526040830151612f3c81613aad565b60408201526060830151612f4f81613aa0565b6060820152608092830151920191909152919050565b60006105e08284031215612f77578081fd5b60405160c081018181106001600160401b0382111715612f9957612f99613a6c565b80604052508091508235815260208301356020820152612fbc8460408501612e6d565b6040820152612fcf846101008501612d3c565b60608201526102008301356080820152612fed846102208501612c26565b60a08201525092915050565b6000610dc0828403121561300b578081fd5b60405160a081018181106001600160401b038211171561302d5761302d613a6c565b60405290508061303c83612c0f565b8152602080840135818301526130558560408601612f65565b60408301528461063f85011261306a57600080fd5b603c613078612c448261389c565b806106208701610da088018981111561309057600080fd5b60005b858110156130af57823585529386019391860191600101613093565b50826060880152803560808801525050505050505092915050565b6000602082840312156130db578081fd5b6130e482612c0f565b9392505050565b60008060008060808587031215613100578283fd5b61310985612c0f565b93506020850135925061311e60408601612c0f565b9396929550929360600135925050565b60006020808385031215613140578182fd5b82516001600160401b0380821115613156578384fd5b818501915085601f830112613169578384fd5b81518181111561317b5761317b613a6c565b838102915061318b848301613873565b8181528481019084860184860187018a10156131a5578788fd5b8795505b838610156131c75780518352600195909501949186019186016131a9565b5098975050505050505050565b6000602082840312156131e5578081fd5b81356130e481613a92565b600060208284031215613201578081fd5b6130e482612dd7565b60006020828403121561321b578081fd5b81516001600160401b0380821115613231578283fd5b8184019150610140808387031215613247578384fd5b61325081613873565b90508251815261326260208401612dc8565b6020820152604083015182811115613278578485fd5b61328487828601612de6565b604083015250606083015160608201526080830151608082015260a083015160a082015260c083015160c082015260e083015160e0820152610100915081830151828201526101209150818301518282015280935050505092915050565b6000611c0082840312156132f4578081fd5b60405160c081018181106001600160401b038211171561331657613316613a6c565b6040528235815261332a8460208501612ff9565b602082015261333d84610de08501612ff9565b6040820152611ba0830135606082015261335a611bc08401612dbd565b608082015261336c611be08401612dbd565b60a08201529392505050565b600080610bc0838503121561338b578182fd5b6133958484612f65565b91506133a5846105e08501612f65565b90509250929050565b6000602082840312156133bf578081fd5b81516001600160401b03808211156133d5578283fd5b908301906101e082860312156133e9578283fd5b6133f360e0613873565b8251815261340360208401612dd7565b6020820152604083015182811115613419578485fd5b61342587828601612de6565b6040830152506134388660608501612ee5565b606082015261344b866101008501612ee5565b608082015261345d6101a08401612db2565b60a082015261346f6101c08401612db2565b60c082015295945050505050565b60006040828403121561348e578081fd5b604051604081018181106001600160401b03821117156134b0576134b0613a6c565b6040526134bc83612dc8565b81526134ca60208401612dc8565b60208201529392505050565b6000602082840312156134e7578081fd5b5035919050565b6000602082840312156134ff578081fd5b5051919050565b60008060408385031215613518578182fd5b505080516020909101519092909150565b8060005b60058110156135a6578151805185526020908101518051828701528082015160408088019190915281015190919060606006821061356d5761356d613a56565b87810191909152820151608061358282613a82565b87810191909152919091015160a086015260c090940193919091019060010161352d565b50505050565b8060005b60088110156135a65781518452602093840193909101906001016135b0565b8051825260208101516135e560208401826136b7565b5060408101516135f9610de08401826136b7565b506060810151611ba0830152608081015161361381613a82565b611bc083015260a081015161362781613a82565b80611be0840152505050565b80518252602081015160208301526040810151805160408401526020810151606084015260408101516080840152606081015160a0840152608081015160c084015260a081015160e08401525060608101516136936101008401826135ac565b50608081015161020083015260a08101516136b2610220840182613529565b505050565b80516001600160a01b0316825260208082015181840152604080830151906136e190850182613633565b506060820151610620840160005b603c81101561370c578251825291830191908301906001016136ef565b5050505060800151610da09190910152565b93845260208401929092526bffffffffffffffffffffffff19606091821b8116604085015291901b16605482015260680190565b9283526020830191909152604082015260600190565b901515815260200190565b91151582526001600160a01b0316602082015260400190565b60208101600b83106137a0576137a0613a56565b91905290565b60208082526025908201527f506570656d6f6e426174746c653a2043616e6e6f7420626174746c6520796f756040820152643939b2b63360d91b606082015260800190565b611c00810161128682846135cf565b611c20810161380982856135cf565b6001600160a01b0392909216611c009190910152919050565b611c20810161383182856135cf565b82611c008301529392505050565b610bc0810161384e8285613633565b6130e46105e0830184613633565b90815260200190565b918252602082015260400190565b6040518181016001600160401b038111828210171561389457613894613a6c565b604052919050565b60006001600160401b038211156138b5576138b5613a6c565b5060200290565b600080821280156001600160ff1b03849003851316156138de576138de613a40565b600160ff1b83900384128116156138f7576138f7613a40565b50500190565b6000821982111561391057613910613a40565b500190565b60006001600160ff1b038184138284138082168684048611161561393b5761393b613a40565b600160ff1b8487128281168783058912161561395957613959613a40565b85871292508782058712848416161561397457613974613a40565b8785058712818416161561398a5761398a613a40565b505050929093029392505050565b60008083128015600160ff1b8501841216156139b6576139b6613a40565b6001600160ff1b03840183138116156139d1576139d1613a40565b50500390565b6000828210156139e9576139e9613a40565b500390565b6000816139fd576139fd613a40565b506000190190565b6000600019821415613a1957613a19613a40565b5060010190565b600082613a3b57634e487b7160e01b81526012600452602481fd5b500690565b634e487b7160e01b600052601160045260246000fd5b634e487b7160e01b600052602160045260246000fd5b634e487b7160e01b600052604160045260246000fd5b6002811061031457610314613a56565b801515811461031457600080fd5b6002811061031457600080fd5b6006811061031457600080fdfea2646970667358221220a3d7866dd9b2f11ae0564b6c0266548d490a0d6eac196520a1c7e4cbb7c5cd3864736f6c63430008000033",
  "devdoc": {
    "kind": "dev",
    "methods": {
      "createBattle(address,uint256,address,uint256)": {
        "details": "Create battle",
        "params": {
          "p1Addr": "address player1",
          "p1DeckId": "uint256",
          "p2Addr": "address player2",
          "p2DeckId": "uint256"
        }
      }
    },
    "version": 1
  },
  "userdoc": {
    "kind": "user",
    "methods": {},
    "version": 1
  },
  "storageLayout": {
    "storage": [
      {
        "astId": 8665,
        "contract": "contracts/PepemonBattle.sol:PepemonBattle",
        "label": "admins",
        "offset": 0,
        "slot": "0",
        "type": "t_struct(Role)9171_storage"
      },
      {
        "astId": 3606,
        "contract": "contracts/PepemonBattle.sol:PepemonBattle",
        "label": "battleIdRNGSeed",
        "offset": 0,
        "slot": "1",
        "type": "t_mapping(t_uint256,t_uint256)"
      },
      {
        "astId": 3692,
        "contract": "contracts/PepemonBattle.sol:PepemonBattle",
        "label": "_nextBattleId",
        "offset": 0,
        "slot": "2",
        "type": "t_uint256"
      },
      {
        "astId": 3694,
        "contract": "contracts/PepemonBattle.sol:PepemonBattle",
        "label": "_allowBattleAgainstOneself",
        "offset": 0,
        "slot": "3",
        "type": "t_bool"
      },
      {
        "astId": 3697,
        "contract": "contracts/PepemonBattle.sol:PepemonBattle",
        "label": "_cardContract",
        "offset": 1,
        "slot": "3",
        "type": "t_contract(PepemonCardOracle)7418"
      },
      {
        "astId": 3700,
        "contract": "contracts/PepemonBattle.sol:PepemonBattle",
        "label": "_deckContract",
        "offset": 0,
        "slot": "4",
        "type": "t_contract(PepemonCardDeck)7223"
      },
      {
        "astId": 3703,
        "contract": "contracts/PepemonBattle.sol:PepemonBattle",
        "label": "_randNrGenContract",
        "offset": 0,
        "slot": "5",
        "type": "t_contract(ChainLinkRngOracle)8967"
      }
    ],
    "types": {
      "t_address": {
        "encoding": "inplace",
        "label": "address",
        "numberOfBytes": "20"
      },
      "t_bool": {
        "encoding": "inplace",
        "label": "bool",
        "numberOfBytes": "1"
      },
      "t_contract(ChainLinkRngOracle)8967": {
        "encoding": "inplace",
        "label": "contract ChainLinkRngOracle",
        "numberOfBytes": "20"
      },
      "t_contract(PepemonCardDeck)7223": {
        "encoding": "inplace",
        "label": "contract PepemonCardDeck",
        "numberOfBytes": "20"
      },
      "t_contract(PepemonCardOracle)7418": {
        "encoding": "inplace",
        "label": "contract PepemonCardOracle",
        "numberOfBytes": "20"
      },
      "t_mapping(t_address,t_bool)": {
        "encoding": "mapping",
        "key": "t_address",
        "label": "mapping(address => bool)",
        "numberOfBytes": "32",
        "value": "t_bool"
      },
      "t_mapping(t_uint256,t_uint256)": {
        "encoding": "mapping",
        "key": "t_uint256",
        "label": "mapping(uint256 => uint256)",
        "numberOfBytes": "32",
        "value": "t_uint256"
      },
      "t_struct(Role)9171_storage": {
        "encoding": "inplace",
        "label": "struct Roles.Role",
        "members": [
          {
            "astId": 9170,
            "contract": "contracts/PepemonBattle.sol:PepemonBattle",
            "label": "bearer",
            "offset": 0,
            "slot": "0",
            "type": "t_mapping(t_address,t_bool)"
          }
        ],
        "numberOfBytes": "32"
      },
      "t_uint256": {
        "encoding": "inplace",
        "label": "uint256",
        "numberOfBytes": "32"
      }
    }
  }
}