{
  "address": "0x2dB79068b357A1E61ff61507950EA82064461D34",
  "abi": [
    {
      "inputs": [
        {
          "internalType": "uint256",
          "name": "defaultRanking",
          "type": "uint256"
        },
        {
          "internalType": "address",
          "name": "battleAddress",
          "type": "address"
        },
        {
          "internalType": "address",
          "name": "deckAddress",
          "type": "address"
        },
        {
          "internalType": "address",
          "name": "rewardPoolAddress",
          "type": "address"
        }
      ],
      "stateMutability": "nonpayable",
      "type": "constructor"
    },
    {
      "anonymous": false,
      "inputs": [
        {
          "indexed": true,
          "internalType": "address",
          "name": "winner",
          "type": "address"
        },
        {
          "indexed": true,
          "internalType": "address",
          "name": "loser",
          "type": "address"
        },
        {
          "indexed": false,
          "internalType": "uint256",
          "name": "battleId",
          "type": "uint256"
        }
      ],
      "name": "BattleFinished",
      "type": "event"
    },
    {
      "anonymous": false,
      "inputs": [
        {
          "indexed": true,
          "internalType": "address",
          "name": "previousOwner",
          "type": "address"
        },
        {
          "indexed": true,
          "internalType": "address",
          "name": "newOwner",
          "type": "address"
        }
      ],
      "name": "OwnershipTransferred",
      "type": "event"
    },
    {
      "inputs": [
        {
          "internalType": "uint256",
          "name": "",
          "type": "uint256"
        }
      ],
      "name": "deckOwner",
      "outputs": [
        {
          "internalType": "address",
          "name": "",
          "type": "address"
        }
      ],
      "stateMutability": "view",
      "type": "function"
    },
    {
      "inputs": [
        {
          "internalType": "uint256",
          "name": "deckId",
          "type": "uint256"
        }
      ],
      "name": "enter",
      "outputs": [],
      "stateMutability": "nonpayable",
      "type": "function"
    },
    {
      "inputs": [
        {
          "internalType": "uint256",
          "name": "deckId",
          "type": "uint256"
        }
      ],
      "name": "exit",
      "outputs": [],
      "stateMutability": "nonpayable",
      "type": "function"
    },
    {
      "inputs": [
        {
          "internalType": "uint256",
          "name": "winnerRating",
          "type": "uint256"
        },
        {
          "internalType": "uint256",
          "name": "loserRating",
          "type": "uint256"
        }
      ],
      "name": "getEloRatingChange",
      "outputs": [
        {
          "internalType": "uint256",
          "name": "",
          "type": "uint256"
        }
      ],
      "stateMutability": "view",
      "type": "function"
    },
    {
      "inputs": [],
      "name": "getWaitingCount",
      "outputs": [
        {
          "internalType": "uint256",
          "name": "",
          "type": "uint256"
        }
      ],
      "stateMutability": "view",
      "type": "function"
    },
    {
      "inputs": [
        {
          "internalType": "address",
          "name": "",
          "type": "address"
        },
        {
          "internalType": "address",
          "name": "",
          "type": "address"
        },
        {
          "internalType": "uint256[]",
          "name": "",
          "type": "uint256[]"
        },
        {
          "internalType": "uint256[]",
          "name": "",
          "type": "uint256[]"
        },
        {
          "internalType": "bytes",
          "name": "",
          "type": "bytes"
        }
      ],
      "name": "onERC1155BatchReceived",
      "outputs": [
        {
          "internalType": "bytes4",
          "name": "",
          "type": "bytes4"
        }
      ],
      "stateMutability": "nonpayable",
      "type": "function"
    },
    {
      "inputs": [
        {
          "internalType": "address",
          "name": "",
          "type": "address"
        },
        {
          "internalType": "address",
          "name": "",
          "type": "address"
        },
        {
          "internalType": "uint256",
          "name": "",
          "type": "uint256"
        },
        {
          "internalType": "uint256",
          "name": "",
          "type": "uint256"
        },
        {
          "internalType": "bytes",
          "name": "",
          "type": "bytes"
        }
      ],
      "name": "onERC1155Received",
      "outputs": [
        {
          "internalType": "bytes4",
          "name": "",
          "type": "bytes4"
        }
      ],
      "stateMutability": "nonpayable",
      "type": "function"
    },
    {
      "inputs": [],
      "name": "owner",
      "outputs": [
        {
          "internalType": "address",
          "name": "",
          "type": "address"
        }
      ],
      "stateMutability": "view",
      "type": "function"
    },
    {
      "inputs": [
        {
          "internalType": "address",
          "name": "",
          "type": "address"
        }
      ],
      "name": "playerRanking",
      "outputs": [
        {
          "internalType": "uint256",
          "name": "",
          "type": "uint256"
        }
      ],
      "stateMutability": "view",
      "type": "function"
    },
    {
      "inputs": [],
      "name": "renounceOwnership",
      "outputs": [],
      "stateMutability": "nonpayable",
      "type": "function"
    },
    {
      "inputs": [
        {
          "internalType": "address",
          "name": "battleContractAddress",
          "type": "address"
        }
      ],
      "name": "setBattleContractAddress",
      "outputs": [],
      "stateMutability": "nonpayable",
      "type": "function"
    },
    {
      "inputs": [
        {
          "internalType": "address",
          "name": "deckContractAddress",
          "type": "address"
        }
      ],
      "name": "setDeckContractAddress",
      "outputs": [],
      "stateMutability": "nonpayable",
      "type": "function"
    },
    {
      "inputs": [
        {
          "internalType": "uint256",
          "name": "kFactor",
          "type": "uint256"
        }
      ],
      "name": "setKFactor",
      "outputs": [],
      "stateMutability": "nonpayable",
      "type": "function"
    },
    {
      "inputs": [
        {
          "internalType": "uint256",
          "name": "matchRange",
          "type": "uint256"
        },
        {
          "internalType": "uint256",
          "name": "matchRangePerMinute",
          "type": "uint256"
        }
      ],
      "name": "setMatchRange",
      "outputs": [],
      "stateMutability": "nonpayable",
      "type": "function"
    },
    {
      "inputs": [
        {
          "internalType": "address",
          "name": "rewardPoolAddress",
          "type": "address"
        }
      ],
      "name": "setRewardPoolAddress",
      "outputs": [],
      "stateMutability": "nonpayable",
      "type": "function"
    },
    {
      "inputs": [
        {
          "internalType": "bytes4",
          "name": "interfaceId",
          "type": "bytes4"
        }
      ],
      "name": "supportsInterface",
      "outputs": [
        {
          "internalType": "bool",
          "name": "",
          "type": "bool"
        }
      ],
      "stateMutability": "view",
      "type": "function"
    },
    {
      "inputs": [
        {
          "internalType": "address",
          "name": "newOwner",
          "type": "address"
        }
      ],
      "name": "transferOwnership",
      "outputs": [],
      "stateMutability": "nonpayable",
      "type": "function"
    },
    {
      "inputs": [
        {
          "internalType": "uint256",
          "name": "",
          "type": "uint256"
        }
      ],
      "name": "waitingDecks",
      "outputs": [
        {
          "internalType": "uint256",
          "name": "deckId",
          "type": "uint256"
        },
        {
          "internalType": "uint256",
          "name": "enterTimestamp",
          "type": "uint256"
        }
      ],
      "stateMutability": "view",
      "type": "function"
    }
  ],
  "transactionHash": "0x003ff8a2e491667cb7aabfff36009b431e3aa11b65088bb88bb6366d4123a4cc",
  "args": [
    2000,
    "0x665688de6296956f3c7264961511412e02b24070",
    "0x84057FFFc602F74C19848D86fC8e14D95Cd9DE35",
    "0x99dC834eB9cE894eE1142B5aCc6eEdD27cA14887"
  ],
  "numDeployments": 1,
  "solcInputHash": "36693026f95de49c8094d1f03dbe3157",
  "bytecode": "0x60a060405261012c600455600160055560106006553480156200002157600080fd5b50604051620020f5380380620020f5833981016040819052620000449162000104565b600062000050620000e3565b600080546001600160a01b0319166001600160a01b0383169081178255604051929350917f8be0079c531659141344cd1fd0a4f28419497f9722a3daafe3b4186f6b6457e0908290a350608093909352600180546001600160a01b03199081166001600160a01b039485161790915560028054821692841692909217909155600380549091169190921617905562000157565b3390565b80516001600160a01b0381168114620000ff57600080fd5b919050565b600080600080608085870312156200011a578384fd5b845193506200012c60208601620000e7565b92506200013c60408601620000e7565b91506200014c60608601620000e7565b905092959194509250565b608051611f826200017360003960006106a40152611f826000f3fe608060405234801561001057600080fd5b50600436106101165760003560e01c80638a062ab7116100a2578063b24cf5d711610071578063b24cf5d714610231578063bc197c8114610244578063d671581f14610264578063f23a6e6114610277578063f2fde38b1461028a57610116565b80638a062ab7146101e35780638da5cb5b146101f657806396dc76c41461020b578063a59f3e0c1461021e57610116565b806346864cd8116100e957806346864cd81461018157806359509b7a1461019457806364375d29146101b5578063715018a6146101c85780637f8661a1146101d057610116565b806301ffc9a71461011b578063086f99d4146101445780633174d50714610159578063458870381461016e575b600080fd5b61012e61012936600461191f565b61029d565b60405161013b9190611be2565b60405180910390f35b6101576101523660046117cf565b6102ca565b005b610161610334565b60405161013b9190611da4565b61015761017c3660046119c6565b61033a565b61015761018f3660046117cf565b610384565b6101a76101a23660046119ae565b6103e5565b60405161013b929190611dc4565b6101616101c33660046119c6565b610413565b61015761042e565b6101576101de3660046119ae565b6104b7565b6101576101f13660046119ae565b61056a565b6101fe6105ae565b60405161013b9190611b71565b6101616102193660046117cf565b6105bd565b61015761022c3660046119ae565b6105cf565b61015761023f3660046117cf565b6106fe565b61025761025236600461180e565b61075f565b60405161013b9190611bed565b6101fe6102723660046119ae565b610770565b6102576102853660046118b8565b61078b565b6101576102983660046117cf565b61079c565b60006001600160e01b03198216630271189760e51b14806102c257506102c28261085c565b90505b919050565b6102d2610875565b6001600160a01b03166102e36105ae565b6001600160a01b0316146103125760405162461bcd60e51b815260040161030990611cce565b60405180910390fd5b600280546001600160a01b0319166001600160a01b0392909216919091179055565b60095490565b610342610875565b6001600160a01b03166103536105ae565b6001600160a01b0316146103795760405162461bcd60e51b815260040161030990611cce565b600491909155600555565b61038c610875565b6001600160a01b031661039d6105ae565b6001600160a01b0316146103c35760405162461bcd60e51b815260040161030990611cce565b600180546001600160a01b0319166001600160a01b0392909216919091179055565b600981815481106103f557600080fd5b60009182526020909120600290910201805460019091015490915082565b60008061042584846064600654610879565b50949350505050565b610436610875565b6001600160a01b03166104476105ae565b6001600160a01b03161461046d5760405162461bcd60e51b815260040161030990611cce565b600080546040516001600160a01b03909116907f8be0079c531659141344cd1fd0a4f28419497f9722a3daafe3b4186f6b6457e0908390a3600080546001600160a01b0319169055565b6009541580159061050c57506000818152600760205260409020546009805490919081106104f557634e487b7160e01b600052603260045260246000fd5b906000526020600020906002020160000154600014155b6105285760405162461bcd60e51b815260040161030990611c02565b6000818152600860205260409020546001600160a01b0316331461055e5760405162461bcd60e51b815260040161030990611d03565b6105678161096d565b50565b610572610875565b6001600160a01b03166105836105ae565b6001600160a01b0316146105a95760405162461bcd60e51b815260040161030990611cce565b600655565b6000546001600160a01b031690565b600a6020526000908152604090205481565b6002546040516331a9108f60e11b81526001600160a01b0390911690636352211e906105ff908490600401611da4565b60206040518083038186803b15801561061757600080fd5b505afa15801561062b573d6000803e3d6000fd5b505050506040513d601f19601f8201168201806040525081019061064f91906117f2565b6001600160a01b0316336001600160a01b03161461067f5760405162461bcd60e51b815260040161030990611d03565b336000908152600a60205260409020546106c657336000908152600a602052604090207f000000000000000000000000000000000000000000000000000000000000000090555b60006106d182610ae0565b905080156106f1576106e38282610cc3565b6106ec8161096d565b6106fa565b6106fa82610e86565b5050565b610706610875565b6001600160a01b03166107176105ae565b6001600160a01b03161461073d5760405162461bcd60e51b815260040161030990611cce565b600380546001600160a01b0319166001600160a01b0392909216919091179055565b63bc197c8160e01b95945050505050565b6008602052600090815260409020546001600160a01b031681565b63f23a6e6160e01b95945050505050565b6107a4610875565b6001600160a01b03166107b56105ae565b6001600160a01b0316146107db5760405162461bcd60e51b815260040161030990611cce565b6001600160a01b0381166108015760405162461bcd60e51b815260040161030990611c88565b600080546040516001600160a01b03808516939216917f8be0079c531659141344cd1fd0a4f28419497f9722a3daafe3b4186f6b6457e091a3600080546001600160a01b0319166001600160a01b0392909216919091179055565b6001600160e01b031981166301ffc9a760e01b14919050565b3390565b6000806127108302868610828161089257888803610896565b8789035b905061046681106108b95760405162461bcd60e51b815260040161030990611c51565b81156108e05761032081106108e05760405162461bcd60e51b815260040161030990611c51565b6000806000806000866108f75785610320016108fd565b85610320035b945061090f600a601987046001610f97565b935061091a84611055565b925082606401888161093c57634e487b7160e01b600052601260045260246000fd5b0491508b8b0290508181109850886109565781810361095a565b8082035b9950505050505050505094509492505050565b60025460008281526008602052604090819020549051635c46a7ef60e11b81526001600160a01b039283169263b88d4fde926109b3923092909116908690600401611b85565b600060405180830381600087803b1580156109cd57600080fd5b505af11580156109e1573d6000803e3d6000fd5b505050600082815260086020526040902080546001600160a01b03191690555060098054610a1190600190611eb3565b81548110610a2f57634e487b7160e01b600052603260045260246000fd5b90600052602060002090600202016009600760008481526020019081526020016000205481548110610a7157634e487b7160e01b600052603260045260246000fd5b6000918252602090912082546002909202019081556001918201549101556009805480610aae57634e487b7160e01b600052603160045260246000fd5b600082815260208082206002600019909401938402018281556001018290559190925591815260079091526040812055565b6000805b600954811015610cba57600060098281548110610b1157634e487b7160e01b600052603260045260246000fd5b906000526020600020906002020160000154905083821480610b4957506000818152600860205260409020546001600160a01b031633145b15610b545750610caa565b6000603c60098481548110610b7957634e487b7160e01b600052603260045260246000fd5b90600052602060002090600202016001015442610b969190611eb3565b610ba1906078611e55565b610bab9190611e35565b90506000607860055483610bbf9190611e55565b610bc99190611e35565b600454610bd69190611e1d565b6000848152600860209081526040808320546001600160a01b03168352600a909152902054909150610c09908290611eb3565b336000908152600a6020526040902054118015610c6357506000838152600860209081526040808320546001600160a01b03168352600a909152902054610c51908290611e1d565b336000908152600a6020526040902054105b15610ca65760098481548110610c8957634e487b7160e01b600052603260045260246000fd5b9060005260206000209060020201600001549450505050506102c5565b5050505b610cb381611eca565b9050610ae4565b50600092915050565b6000806000610cd2858561106e565b6003546040516331f27b0760e01b815293965091945092506001600160a01b0316906331f27b0790610d0a9084908790600401611dad565b600060405180830381600087803b158015610d2457600080fd5b505af1158015610d38573d6000803e3d6000fd5b50505050816001600160a01b0316836001600160a01b03167f9b5363c49f40791b738dbe0ba63e6fa52ed52213cf8d4a2f3724e1389d72f14f83604051610d7f9190611da4565b60405180910390a36001600160a01b038084166000908152600a60205260408082205492851682528120549091606491610db99190610413565b610dc39190611e35565b6001600160a01b0385166000908152600a6020526040812080549293508392909190610df0908490611e1d565b90915550506001600160a01b0383166000908152600a6020526040812054610e19908390611e74565b1315610e61576001600160a01b0383166000908152600a6020526040902054610e43908290611eb3565b6001600160a01b0384166000908152600a6020526040902055610e7e565b6001600160a01b0383166000908152600a60205260409020600190555b505050505050565b6000818152600860205260409081902080546001600160a01b031916339081179091556002549151635c46a7ef60e11b81526001600160a01b03929092169163b88d4fde91610edb9130908690600401611b85565b600060405180830381600087803b158015610ef557600080fd5b505af1158015610f09573d6000803e3d6000fd5b505060098054600085815260076020908152604080832084905580518082019091529687524290870190815260018301845592905293517f6e1540171b6c0c960b71a7020d9f60077f6af931a8bbf590da0223dacf75c7af600290950294850155517f6e1540171b6c0c960b71a7020d9f60077f6af931a8bbf590da0223dacf75c7b0909301929092555050565b600083801561103757600184168015610fb257859250610fb6565b8392505b508260011c8460011c94505b8415611031578560801c15610fd657600080fd5b85860281810181811015610fe957600080fd5b859004965050600185161561102657858302838782041461100f57861561100f57600080fd5b8181018181101561101f57600080fd5b8590049350505b8460011c9450610fc2565b5061104d565b838015611047576000925061104b565b8392505b505b509392505050565b60006102c2611069611069611069856111df565b6111df565b6001546000828152600860205260408082205490516331acd38760e21b8152919283928392839283926001600160a01b039182169263c6b34e1c926110bd9233928d9216908c90600401611bb8565b611c2060405180830381600087803b1580156110d857600080fd5b505af11580156110ec573d6000803e3d6000fd5b505050506040513d601f19601f820116820180604052508101906111109190611980565b60015460405163abd6b07560e01b81529294509092506000916001600160a01b039091169063abd6b07590611149908690600401611d38565b611c206040518083038186803b15801561116257600080fd5b505afa158015611176573d6000803e3d6000fd5b505050506040513d601f19601f8201168201806040525081019061119a9190611947565b9150600090506001600160a01b03821633146111b657336111cf565b6000888152600860205260409020546001600160a01b03165b9199919850919650945050505050565b600181600160801b81106111f85760409190911b9060801c5b6801000000000000000081106112135760209190911b9060401c5b640100000000811061122a5760109190911b9060201c5b62010000811061123f5760089190911b9060101c5b61010081106112535760049190911b9060081c5b601081106112665760029190911b9060041c5b60088110611275578160011b91505b5080820401600190811c80830401811c80830401811c80830401811c80830401811c80830401811c80830401901c808204818110156112b2578091505b50919050565b600082601f8301126112c8578081fd5b60056112db6112d682611dfc565b611dd2565b8084866103c0870111156112ed578485fd5b845b848110156113c75781880360c080821215611308578788fd5b6040805181810167ffffffffffffffff828210818311171561132c5761132c611f11565b9083528651825260209060a0601f198701811315611348578c8dfd5b84519650808701878110838211171561136357611363611f11565b855288830151875288850151878401526060808a015190925060068110611388578d8efd5b8086890152506080945061139d858a016115a3565b918701919091528701519285019290925280820193909352918652940193909101906001016112ef565b50909695505050505050565b600082601f8301126113e3578081fd5b60405161078080820182811067ffffffffffffffff8211171561140857611408611f11565b604052818482810187101561141b578485fd5b8492505b603c83101561143f5780518252600192909201916020918201910161141f565b509195945050505050565b600082601f83011261145a578081fd5b60405161010080820182811067ffffffffffffffff8211171561147f5761147f611f11565b6040528184828101871015611492578485fd5b8492505b600883101561143f57805182526001929092019160209182019101611496565b600082601f8301126114c6578081fd5b8135602067ffffffffffffffff8211156114e2576114e2611f11565b8082026114f0828201611dd2565b83815282810190868401838801850189101561150a578687fd5b8693505b8584101561152c57803583526001939093019291840191840161150e565b50979650505050505050565b600082601f830112611548578081fd5b813567ffffffffffffffff81111561156257611562611f11565b611575601f8201601f1916602001611dd2565b818152846020838601011115611589578283fd5b816020850160208301379081016020019190915292915050565b8051600281106102c557600080fd5b6000611c0082840312156115c4578081fd5b60405160c0810181811067ffffffffffffffff821117156115e7576115e7611f11565b604052825181529050806115fe84602085016116c5565b602082015261161184610de085016116c5565b6040820152611ba0830151606082015261162e611bc084016115a3565b6080820152611640611be084016115a3565b60a08201525092915050565b600060c0828403121561165d578081fd5b60405160c0810181811067ffffffffffffffff8211171561168057611680611f11565b8060405250809150825181526020830151602082015260408301516040820152606083015160608201526080830151608082015260a083015160a08201525092915050565b6000818303610dc08112156116d8578182fd5b6040805160a0810167ffffffffffffffff82821081831117156116fd576116fd611f11565b8184528295508651915061171082611f37565b818352602087015160208401526105e0603f198601121561173057600080fd5b8351945060c085019150848210818311171561174e5761174e611f11565b5082528482015183526060850151602084015261176e866080870161164c565b8284015261178086610140870161144a565b6060840152610240850151608084015261179e8661026087016112b8565b60a084015282828201526117b68661062087016113d3565b6060820152610da0850151608082015250505092915050565b6000602082840312156117e0578081fd5b81356117eb81611f37565b9392505050565b600060208284031215611803578081fd5b81516117eb81611f37565b600080600080600060a08688031215611825578081fd5b853561183081611f37565b9450602086013561184081611f37565b9350604086013567ffffffffffffffff8082111561185c578283fd5b61186889838a016114b6565b9450606088013591508082111561187d578283fd5b61188989838a016114b6565b9350608088013591508082111561189e578283fd5b506118ab88828901611538565b9150509295509295909350565b600080600080600060a086880312156118cf578283fd5b85356118da81611f37565b945060208601356118ea81611f37565b93506040860135925060608601359150608086013567ffffffffffffffff811115611913578182fd5b6118ab88828901611538565b600060208284031215611930578081fd5b81356001600160e01b0319811681146117eb578182fd5b600080611c20838503121561195a578182fd5b61196484846115b2565b9150611c0083015161197581611f37565b809150509250929050565b600080611c208385031215611993578182fd5b61199d84846115b2565b9150611c0083015190509250929050565b6000602082840312156119bf578081fd5b5035919050565b600080604083850312156119d8578182fd5b50508035926020909101359150565b8060005b6005811015611a645781518051855260209081015180518287015280820151604080880191909152810151909190606060068210611a2b57611a2b611efb565b878101919091528201516080611a4082611f27565b87810191909152919091015160a086015260c09094019391909101906001016119eb565b50505050565b8060005b603c811015611a64578151845260209384019390910190600101611a6e565b8060005b6008811015611a64578151845260209384019390910190600101611a91565b60018060a01b0381511682526020810151602083015260408101518051604084015260208101516060840152604081015180516080850152602081015160a0850152604081015160c0850152606081015160e0850152608081015161010085015260a0810151610120850152506060810151611b30610140850182611a8d565b50608081015161024084015260a00151611b4e6102608401826119e7565b506060810151611b62610620840182611a6a565b5060800151610da09190910152565b6001600160a01b0391909116815260200190565b6001600160a01b039384168152919092166020820152604081019190915260806060820181905260009082015260a00190565b6001600160a01b039485168152602081019390935292166040820152606081019190915260800190565b901515815260200190565b6001600160e01b031991909116815260200190565b6020808252602f908201527f506570656d6f6e4d617463686d616b65723a204465636b206973206e6f74206960408201526e1b881d1a19481dd85a5d081b1a5cdd608a1b606082015260800190565b6020808252601b908201527f526174696e6720646966666572656e636520746f6f206c617267650000000000604082015260600190565b60208082526026908201527f4f776e61626c653a206e6577206f776e657220697320746865207a65726f206160408201526564647265737360d01b606082015260800190565b6020808252818101527f4f776e61626c653a2063616c6c6572206973206e6f7420746865206f776e6572604082015260600190565b6020808252818101527f506570656d6f6e4d617463686d616b65723a204e6f7420796f7572206465636b604082015260600190565b81518152602080830151611c00830191611d5490840182611ab0565b506040830151611d68610de0840182611ab0565b506060830151611ba08301526080830151611d8281611f27565b611bc083015260a0830151611d9681611f27565b80611be08401525092915050565b90815260200190565b9182526001600160a01b0316602082015260400190565b918252602082015260400190565b60405181810167ffffffffffffffff81118282101715611df457611df4611f11565b604052919050565b600067ffffffffffffffff821115611e1657611e16611f11565b5060200290565b60008219821115611e3057611e30611ee5565b500190565b600082611e5057634e487b7160e01b81526012600452602481fd5b500490565b6000816000190483118215151615611e6f57611e6f611ee5565b500290565b60008083128015600160ff1b850184121615611e9257611e92611ee5565b6001600160ff1b0384018313811615611ead57611ead611ee5565b50500390565b600082821015611ec557611ec5611ee5565b500390565b6000600019821415611ede57611ede611ee5565b5060010190565b634e487b7160e01b600052601160045260246000fd5b634e487b7160e01b600052602160045260246000fd5b634e487b7160e01b600052604160045260246000fd5b6002811061056757610567611efb565b6001600160a01b038116811461056757600080fdfea26469706673582212202de2c96135025b807c5b7d502dbc97a8c5ea1de9154a2046ef7974f4b3ef28ee64736f6c63430008000033",
  "devdoc": {
    "kind": "dev",
    "methods": {
      "enter(uint256)": {
        "params": {
          "deckId": "The Deck of who called this function"
        }
      },
      "exit(uint256)": {
        "params": {
          "deckId": "The Deck of the owner"
        }
      },
      "getEloRatingChange(uint256,uint256)": {
        "details": "The returned number has 2 decimals of precision, so 1501 = 15.01 Elo change"
      },
      "owner()": {
        "details": "Returns the address of the current owner."
      },
      "renounceOwnership()": {
        "details": "Leaves the contract without owner. It will not be possible to call `onlyOwner` functions anymore. Can only be called by the current owner. NOTE: Renouncing ownership will leave the contract without an owner, thereby removing any functionality that is only available to the owner."
      },
      "setKFactor(uint256)": {
        "details": "Dictates the rate of change, has a direct influence on how much a player wins/loses in the ranking",
        "params": {
          "kFactor": "Value used to calculate the rate of change in getEloRatingChange"
        }
      },
      "supportsInterface(bytes4)": {
        "details": "See {IERC165-supportsInterface}."
      },
      "transferOwnership(address)": {
        "details": "Transfers ownership of the contract to a new account (`newOwner`). Can only be called by the current owner."
      }
    },
    "version": 1
  },
  "userdoc": {
    "kind": "user",
    "methods": {
      "enter(uint256)": {
        "notice": "Tries to initiate a battle using a specified deck. If no opponents are found, the deck is placed in a wait list."
      },
      "exit(uint256)": {
        "notice": "Transfers a deck back to its owner and removes from the wait list"
      },
      "getEloRatingChange(uint256,uint256)": {
        "notice": "Calculates the Elo change based on the winner's and loser's ratings."
      },
      "getWaitingCount()": {
        "notice": "Retrieves the number of waiting decks"
      }
    },
    "version": 1
  },
  "storageLayout": {
    "storage": [
      {
        "astId": 273,
        "contract": "contracts/PepemonMatchmaker.sol:PepemonMatchmaker",
        "label": "_owner",
        "offset": 0,
        "slot": "0",
        "type": "t_address"
      },
      {
        "astId": 7769,
        "contract": "contracts/PepemonMatchmaker.sol:PepemonMatchmaker",
        "label": "_battleAddress",
        "offset": 0,
        "slot": "1",
        "type": "t_address"
      },
      {
        "astId": 7771,
        "contract": "contracts/PepemonMatchmaker.sol:PepemonMatchmaker",
        "label": "_deckAddress",
        "offset": 0,
        "slot": "2",
        "type": "t_address"
      },
      {
        "astId": 7773,
        "contract": "contracts/PepemonMatchmaker.sol:PepemonMatchmaker",
        "label": "_rewardPoolAddress",
        "offset": 0,
        "slot": "3",
        "type": "t_address"
      },
      {
        "astId": 7778,
        "contract": "contracts/PepemonMatchmaker.sol:PepemonMatchmaker",
        "label": "_matchRange",
        "offset": 0,
        "slot": "4",
        "type": "t_uint256"
      },
      {
        "astId": 7781,
        "contract": "contracts/PepemonMatchmaker.sol:PepemonMatchmaker",
        "label": "_matchRangePerMinute",
        "offset": 0,
        "slot": "5",
        "type": "t_uint256"
      },
      {
        "astId": 7784,
        "contract": "contracts/PepemonMatchmaker.sol:PepemonMatchmaker",
        "label": "_kFactor",
        "offset": 0,
        "slot": "6",
        "type": "t_uint256"
      },
      {
        "astId": 7788,
        "contract": "contracts/PepemonMatchmaker.sol:PepemonMatchmaker",
        "label": "_waitingDecksIndex",
        "offset": 0,
        "slot": "7",
        "type": "t_mapping(t_uint256,t_uint256)"
      },
      {
        "astId": 7792,
        "contract": "contracts/PepemonMatchmaker.sol:PepemonMatchmaker",
        "label": "deckOwner",
        "offset": 0,
        "slot": "8",
        "type": "t_mapping(t_uint256,t_address)"
      },
      {
        "astId": 7796,
        "contract": "contracts/PepemonMatchmaker.sol:PepemonMatchmaker",
        "label": "waitingDecks",
        "offset": 0,
        "slot": "9",
        "type": "t_array(t_struct(waitingDeckData)7767_storage)dyn_storage"
      },
      {
        "astId": 7800,
        "contract": "contracts/PepemonMatchmaker.sol:PepemonMatchmaker",
        "label": "playerRanking",
        "offset": 0,
        "slot": "10",
        "type": "t_mapping(t_address,t_uint256)"
      }
    ],
    "types": {
      "t_address": {
        "encoding": "inplace",
        "label": "address",
        "numberOfBytes": "20"
      },
      "t_array(t_struct(waitingDeckData)7767_storage)dyn_storage": {
        "base": "t_struct(waitingDeckData)7767_storage",
        "encoding": "dynamic_array",
        "label": "struct PepemonMatchmaker.waitingDeckData[]",
        "numberOfBytes": "32"
      },
      "t_mapping(t_address,t_uint256)": {
        "encoding": "mapping",
        "key": "t_address",
        "label": "mapping(address => uint256)",
        "numberOfBytes": "32",
        "value": "t_uint256"
      },
      "t_mapping(t_uint256,t_address)": {
        "encoding": "mapping",
        "key": "t_uint256",
        "label": "mapping(uint256 => address)",
        "numberOfBytes": "32",
        "value": "t_address"
      },
      "t_mapping(t_uint256,t_uint256)": {
        "encoding": "mapping",
        "key": "t_uint256",
        "label": "mapping(uint256 => uint256)",
        "numberOfBytes": "32",
        "value": "t_uint256"
      },
      "t_struct(waitingDeckData)7767_storage": {
        "encoding": "inplace",
        "label": "struct PepemonMatchmaker.waitingDeckData",
        "members": [
          {
            "astId": 7764,
            "contract": "contracts/PepemonMatchmaker.sol:PepemonMatchmaker",
            "label": "deckId",
            "offset": 0,
            "slot": "0",
            "type": "t_uint256"
          },
          {
            "astId": 7766,
            "contract": "contracts/PepemonMatchmaker.sol:PepemonMatchmaker",
            "label": "enterTimestamp",
            "offset": 0,
            "slot": "1",
            "type": "t_uint256"
          }
        ],
        "numberOfBytes": "64"
      },
      "t_uint256": {
        "encoding": "inplace",
        "label": "uint256",
        "numberOfBytes": "32"
      }
    }
  }
}