{
  "address": "0x231d3f09394938B073ec650dAcF2EA850BF95196",
  "abi": [
    {
      "inputs": [
        {
          "internalType": "uint256",
          "name": "defaultRanking",
          "type": "uint256"
        },
        {
          "internalType": "address",
          "name": "battleAddress",
          "type": "address"
        },
        {
          "internalType": "address",
          "name": "deckAddress",
          "type": "address"
        },
        {
          "internalType": "address",
          "name": "rewardPoolAddress",
          "type": "address"
        }
      ],
      "stateMutability": "nonpayable",
      "type": "constructor"
    },
    {
      "anonymous": false,
      "inputs": [
        {
          "indexed": true,
          "internalType": "address",
          "name": "winner",
          "type": "address"
        },
        {
          "indexed": true,
          "internalType": "address",
          "name": "loser",
          "type": "address"
        },
        {
          "indexed": false,
          "internalType": "uint256",
          "name": "battleId",
          "type": "uint256"
        }
      ],
      "name": "BattleFinished",
      "type": "event"
    },
    {
      "anonymous": false,
      "inputs": [
        {
          "indexed": true,
          "internalType": "address",
          "name": "previousOwner",
          "type": "address"
        },
        {
          "indexed": true,
          "internalType": "address",
          "name": "newOwner",
          "type": "address"
        }
      ],
      "name": "OwnershipTransferred",
      "type": "event"
    },
    {
      "inputs": [
        {
          "internalType": "uint256",
          "name": "",
          "type": "uint256"
        }
      ],
      "name": "deckOwner",
      "outputs": [
        {
          "internalType": "address",
          "name": "",
          "type": "address"
        }
      ],
      "stateMutability": "view",
      "type": "function"
    },
    {
      "inputs": [
        {
          "internalType": "uint256",
          "name": "deckId",
          "type": "uint256"
        }
      ],
      "name": "enter",
      "outputs": [],
      "stateMutability": "nonpayable",
      "type": "function"
    },
    {
      "inputs": [
        {
          "internalType": "uint256",
          "name": "deckId",
          "type": "uint256"
        }
      ],
      "name": "exit",
      "outputs": [],
      "stateMutability": "nonpayable",
      "type": "function"
    },
    {
      "inputs": [
        {
          "internalType": "uint256",
          "name": "winnerRating",
          "type": "uint256"
        },
        {
          "internalType": "uint256",
          "name": "loserRating",
          "type": "uint256"
        }
      ],
      "name": "getEloRatingChange",
      "outputs": [
        {
          "internalType": "uint256",
          "name": "",
          "type": "uint256"
        }
      ],
      "stateMutability": "view",
      "type": "function"
    },
    {
      "inputs": [],
      "name": "getWaitingCount",
      "outputs": [
        {
          "internalType": "uint256",
          "name": "",
          "type": "uint256"
        }
      ],
      "stateMutability": "view",
      "type": "function"
    },
    {
      "inputs": [
        {
          "internalType": "address",
          "name": "",
          "type": "address"
        },
        {
          "internalType": "address",
          "name": "",
          "type": "address"
        },
        {
          "internalType": "uint256[]",
          "name": "",
          "type": "uint256[]"
        },
        {
          "internalType": "uint256[]",
          "name": "",
          "type": "uint256[]"
        },
        {
          "internalType": "bytes",
          "name": "",
          "type": "bytes"
        }
      ],
      "name": "onERC1155BatchReceived",
      "outputs": [
        {
          "internalType": "bytes4",
          "name": "",
          "type": "bytes4"
        }
      ],
      "stateMutability": "nonpayable",
      "type": "function"
    },
    {
      "inputs": [
        {
          "internalType": "address",
          "name": "",
          "type": "address"
        },
        {
          "internalType": "address",
          "name": "",
          "type": "address"
        },
        {
          "internalType": "uint256",
          "name": "",
          "type": "uint256"
        },
        {
          "internalType": "uint256",
          "name": "",
          "type": "uint256"
        },
        {
          "internalType": "bytes",
          "name": "",
          "type": "bytes"
        }
      ],
      "name": "onERC1155Received",
      "outputs": [
        {
          "internalType": "bytes4",
          "name": "",
          "type": "bytes4"
        }
      ],
      "stateMutability": "nonpayable",
      "type": "function"
    },
    {
      "inputs": [
        {
          "internalType": "address",
          "name": "",
          "type": "address"
        },
        {
          "internalType": "address",
          "name": "",
          "type": "address"
        },
        {
          "internalType": "uint256",
          "name": "",
          "type": "uint256"
        },
        {
          "internalType": "bytes",
          "name": "",
          "type": "bytes"
        }
      ],
      "name": "onERC721Received",
      "outputs": [
        {
          "internalType": "bytes4",
          "name": "",
          "type": "bytes4"
        }
      ],
      "stateMutability": "nonpayable",
      "type": "function"
    },
    {
      "inputs": [],
      "name": "owner",
      "outputs": [
        {
          "internalType": "address",
          "name": "",
          "type": "address"
        }
      ],
      "stateMutability": "view",
      "type": "function"
    },
    {
      "inputs": [
        {
          "internalType": "address",
          "name": "",
          "type": "address"
        }
      ],
      "name": "playerRanking",
      "outputs": [
        {
          "internalType": "uint256",
          "name": "",
          "type": "uint256"
        }
      ],
      "stateMutability": "view",
      "type": "function"
    },
    {
      "inputs": [],
      "name": "renounceOwnership",
      "outputs": [],
      "stateMutability": "nonpayable",
      "type": "function"
    },
    {
      "inputs": [
        {
          "internalType": "address",
          "name": "battleContractAddress",
          "type": "address"
        }
      ],
      "name": "setBattleContractAddress",
      "outputs": [],
      "stateMutability": "nonpayable",
      "type": "function"
    },
    {
      "inputs": [
        {
          "internalType": "address",
          "name": "deckContractAddress",
          "type": "address"
        }
      ],
      "name": "setDeckContractAddress",
      "outputs": [],
      "stateMutability": "nonpayable",
      "type": "function"
    },
    {
      "inputs": [
        {
          "internalType": "uint256",
          "name": "kFactor",
          "type": "uint256"
        }
      ],
      "name": "setKFactor",
      "outputs": [],
      "stateMutability": "nonpayable",
      "type": "function"
    },
    {
      "inputs": [
        {
          "internalType": "uint256",
          "name": "matchRange",
          "type": "uint256"
        },
        {
          "internalType": "uint256",
          "name": "matchRangePerMinute",
          "type": "uint256"
        }
      ],
      "name": "setMatchRange",
      "outputs": [],
      "stateMutability": "nonpayable",
      "type": "function"
    },
    {
      "inputs": [
        {
          "internalType": "address",
          "name": "rewardPoolAddress",
          "type": "address"
        }
      ],
      "name": "setRewardPoolAddress",
      "outputs": [],
      "stateMutability": "nonpayable",
      "type": "function"
    },
    {
      "inputs": [
        {
          "internalType": "bytes4",
          "name": "interfaceId",
          "type": "bytes4"
        }
      ],
      "name": "supportsInterface",
      "outputs": [
        {
          "internalType": "bool",
          "name": "",
          "type": "bool"
        }
      ],
      "stateMutability": "view",
      "type": "function"
    },
    {
      "inputs": [
        {
          "internalType": "address",
          "name": "newOwner",
          "type": "address"
        }
      ],
      "name": "transferOwnership",
      "outputs": [],
      "stateMutability": "nonpayable",
      "type": "function"
    },
    {
      "inputs": [
        {
          "internalType": "uint256",
          "name": "",
          "type": "uint256"
        }
      ],
      "name": "waitingDecks",
      "outputs": [
        {
          "internalType": "uint256",
          "name": "deckId",
          "type": "uint256"
        },
        {
          "internalType": "uint256",
          "name": "enterTimestamp",
          "type": "uint256"
        }
      ],
      "stateMutability": "view",
      "type": "function"
    }
  ],
  "transactionHash": "0xd053435f5fb9fde9a9ab00646cd699d64a9e8b3279c1801a358c314b90a2fae7",
  "args": [
    2000,
    "0x4b8a5c488F8D1094555c8875fF5c47D6eFb62Ab2",
    "0x84057FFFc602F74C19848D86fC8e14D95Cd9DE35",
    "0xaE99c778ae8fBD1A4B327bdcf29EF6888dE18b25"
  ],
  "numDeployments": 3,
  "solcInputHash": "2ee8d72dceb53cb14f743263ed16686b",
  "bytecode": "0x60a060405261012c600455600160055560106006553480156200002157600080fd5b506040516200230338038062002303833981016040819052620000449162000104565b600062000050620000e3565b600080546001600160a01b0319166001600160a01b0383169081178255604051929350917f8be0079c531659141344cd1fd0a4f28419497f9722a3daafe3b4186f6b6457e0908290a350608093909352600180546001600160a01b03199081166001600160a01b039485161790915560028054821692841692909217909155600380549091169190921617905562000157565b3390565b80516001600160a01b0381168114620000ff57600080fd5b919050565b600080600080608085870312156200011a578384fd5b845193506200012c60208601620000e7565b92506200013c60408601620000e7565b91506200014c60608601620000e7565b905092959194509250565b6080516121906200017360003960006106d201526121906000f3fe608060405234801561001057600080fd5b50600436106101215760003560e01c80637f8661a1116100ad578063b24cf5d711610071578063b24cf5d71461025c578063bc197c811461026f578063d671581f14610282578063f23a6e6114610295578063f2fde38b146102a857610121565b80637f8661a1146101fb5780638a062ab71461020e5780638da5cb5b1461022157806396dc76c414610236578063a59f3e0c1461024957610121565b806345887038116100f4578063458870381461019957806346864cd8146101ac57806359509b7a146101bf57806364375d29146101e0578063715018a6146101f357610121565b806301ffc9a714610126578063086f99d41461014f578063150b7a02146101645780633174d50714610184575b600080fd5b610139610134366004611af3565b6102bb565b6040516101469190611db6565b60405180910390f35b61016261015d36600461193c565b6102e8565b005b610177610172366004611a24565b610352565b6040516101469190611dc1565b61018c610362565b6040516101469190611fcb565b6101626101a7366004611b9a565b610368565b6101626101ba36600461193c565b6103b2565b6101d26101cd366004611b82565b610413565b604051610146929190611fd4565b61018c6101ee366004611b9a565b610441565b61016261045c565b610162610209366004611b82565b6104e5565b61016261021c366004611b82565b610598565b6102296105dc565b6040516101469190611d45565b61018c61024436600461193c565b6105eb565b610162610257366004611b82565b6105fd565b61016261026a36600461193c565b61072c565b61017761027d36600461197b565b61078d565b610229610290366004611b82565b61079e565b6101776102a3366004611a8d565b6107b9565b6101626102b636600461193c565b6107ca565b60006001600160e01b03198216630271189760e51b14806102e057506102e08261088a565b90505b919050565b6102f06108a3565b6001600160a01b03166103016105dc565b6001600160a01b0316146103305760405162461bcd60e51b815260040161032790611ef5565b60405180910390fd5b600280546001600160a01b0319166001600160a01b0392909216919091179055565b630a85bd0160e11b949350505050565b60095490565b6103706108a3565b6001600160a01b03166103816105dc565b6001600160a01b0316146103a75760405162461bcd60e51b815260040161032790611ef5565b600491909155600555565b6103ba6108a3565b6001600160a01b03166103cb6105dc565b6001600160a01b0316146103f15760405162461bcd60e51b815260040161032790611ef5565b600180546001600160a01b0319166001600160a01b0392909216919091179055565b6009818154811061042357600080fd5b60009182526020909120600290910201805460019091015490915082565b600080610453848460646006546108a7565b50949350505050565b6104646108a3565b6001600160a01b03166104756105dc565b6001600160a01b03161461049b5760405162461bcd60e51b815260040161032790611ef5565b600080546040516001600160a01b03909116907f8be0079c531659141344cd1fd0a4f28419497f9722a3daafe3b4186f6b6457e0908390a3600080546001600160a01b0319169055565b6009541580159061053a575060008181526007602052604090205460098054909190811061052357634e487b7160e01b600052603260045260246000fd5b906000526020600020906002020160000154600014155b6105565760405162461bcd60e51b815260040161032790611e29565b6000818152600860205260409020546001600160a01b0316331461058c5760405162461bcd60e51b815260040161032790611f2a565b6105958161099b565b50565b6105a06108a3565b6001600160a01b03166105b16105dc565b6001600160a01b0316146105d75760405162461bcd60e51b815260040161032790611ef5565b600655565b6000546001600160a01b031690565b600a6020526000908152604090205481565b6002546040516331a9108f60e11b81526001600160a01b0390911690636352211e9061062d908490600401611fcb565b60206040518083038186803b15801561064557600080fd5b505afa158015610659573d6000803e3d6000fd5b505050506040513d601f19601f8201168201806040525081019061067d919061195f565b6001600160a01b0316336001600160a01b0316146106ad5760405162461bcd60e51b815260040161032790611f2a565b336000908152600a60205260409020546106f457336000908152600a602052604090207f000000000000000000000000000000000000000000000000000000000000000090555b60006106ff82610b0e565b9050801561071f576107118282610cf1565b61071a8161099b565b610728565b61072882610f14565b5050565b6107346108a3565b6001600160a01b03166107456105dc565b6001600160a01b03161461076b5760405162461bcd60e51b815260040161032790611ef5565b600380546001600160a01b0319166001600160a01b0392909216919091179055565b63bc197c8160e01b95945050505050565b6008602052600090815260409020546001600160a01b031681565b63f23a6e6160e01b95945050505050565b6107d26108a3565b6001600160a01b03166107e36105dc565b6001600160a01b0316146108095760405162461bcd60e51b815260040161032790611ef5565b6001600160a01b03811661082f5760405162461bcd60e51b815260040161032790611eaf565b600080546040516001600160a01b03808516939216917f8be0079c531659141344cd1fd0a4f28419497f9722a3daafe3b4186f6b6457e091a3600080546001600160a01b0319166001600160a01b0392909216919091179055565b6001600160e01b031981166301ffc9a760e01b14919050565b3390565b600080612710830286861082816108c0578888036108c4565b8789035b905061046681106108e75760405162461bcd60e51b815260040161032790611e78565b811561090e57610320811061090e5760405162461bcd60e51b815260040161032790611e78565b60008060008060008661092557856103200161092b565b85610320035b945061093d600a601987046001611025565b9350610948846110e3565b925082606401888161096a57634e487b7160e01b600052601260045260246000fd5b0491508b8b02905081811098508861098457818103610988565b8082035b9950505050505050505094509492505050565b60025460008281526008602052604090819020549051635c46a7ef60e11b81526001600160a01b039283169263b88d4fde926109e1923092909116908690600401611d59565b600060405180830381600087803b1580156109fb57600080fd5b505af1158015610a0f573d6000803e3d6000fd5b505050600082815260086020526040902080546001600160a01b03191690555060098054610a3f906001906120c1565b81548110610a5d57634e487b7160e01b600052603260045260246000fd5b90600052602060002090600202016009600760008481526020019081526020016000205481548110610a9f57634e487b7160e01b600052603260045260246000fd5b6000918252602090912082546002909202019081556001918201549101556009805480610adc57634e487b7160e01b600052603160045260246000fd5b600082815260208082206002600019909401938402018281556001018290559190925591815260079091526040812055565b6000805b600954811015610ce857600060098281548110610b3f57634e487b7160e01b600052603260045260246000fd5b906000526020600020906002020160000154905083821480610b7757506000818152600860205260409020546001600160a01b031633145b15610b825750610cd8565b6000603c60098481548110610ba757634e487b7160e01b600052603260045260246000fd5b90600052602060002090600202016001015442610bc491906120c1565b610bcf906078612063565b610bd99190612043565b90506000607860055483610bed9190612063565b610bf79190612043565b600454610c04919061202b565b6000848152600860209081526040808320546001600160a01b03168352600a909152902054909150610c379082906120c1565b336000908152600a6020526040902054118015610c9157506000838152600860209081526040808320546001600160a01b03168352600a909152902054610c7f90829061202b565b336000908152600a6020526040902054105b15610cd45760098481548110610cb757634e487b7160e01b600052603260045260246000fd5b9060005260206000209060020201600001549450505050506102e3565b5050505b610ce1816120d8565b9050610b12565b50600092915050565b610d226040518060400160405280601081526020016f1c1c9bd8d95cdcd3585d18da0e8c4d4d60821b8152506110fc565b6000806000610d31858561113f565b925092509250610d686040518060400160405280601081526020016f383937b1b2b9b9a6b0ba31b41d189a9b60811b8152506110fc565b816001600160a01b0316836001600160a01b03167f9b5363c49f40791b738dbe0ba63e6fa52ed52213cf8d4a2f3724e1389d72f14f83604051610dab9190611fcb565b60405180910390a3610de46040518060400160405280601081526020016f70726f636573734d617463683a31353960801b8152506110fc565b610e156040518060400160405280601081526020016f070726f636573734d617463683a3136360841b8152506110fc565b6001600160a01b038084166000908152600a60205260408082205492851682528120549091606491610e479190610441565b610e519190612043565b6001600160a01b0385166000908152600a6020526040812080549293508392909190610e7e90849061202b565b90915550506001600160a01b0383166000908152600a6020526040812054610ea7908390612082565b1315610eef576001600160a01b0383166000908152600a6020526040902054610ed19082906120c1565b6001600160a01b0384166000908152600a6020526040902055610f0c565b6001600160a01b0383166000908152600a60205260409020600190555b505050505050565b6000818152600860205260409081902080546001600160a01b031916339081179091556002549151635c46a7ef60e11b81526001600160a01b03929092169163b88d4fde91610f699130908690600401611d59565b600060405180830381600087803b158015610f8357600080fd5b505af1158015610f97573d6000803e3d6000fd5b505060098054600085815260076020908152604080832084905580518082019091529687524290870190815260018301845592905293517f6e1540171b6c0c960b71a7020d9f60077f6af931a8bbf590da0223dacf75c7af600290950294850155517f6e1540171b6c0c960b71a7020d9f60077f6af931a8bbf590da0223dacf75c7b0909301929092555050565b60008380156110c55760018416801561104057859250611044565b8392505b508260011c8460011c94505b84156110bf578560801c1561106457600080fd5b8586028181018181101561107757600080fd5b85900496505060018516156110b457858302838782041461109d57861561109d57600080fd5b818101818110156110ad57600080fd5b8590049350505b8460011c9450611050565b506110db565b8380156110d557600092506110d9565b8392505b505b509392505050565b60006102e06110f76110f76110f785611333565b611333565b610595816040516024016111109190611dd6565b60408051601f198184030181529190526020810180516001600160e01b031663104c13eb60e21b17905261140c565b6001546000828152600860205260408082205490516331acd38760e21b8152919283928392839283926001600160a01b039182169263c6b34e1c9261118e9233928d9216908c90600401611d8c565b611c2060405180830381600087803b1580156111a957600080fd5b505af11580156111bd573d6000803e3d6000fd5b505050506040513d601f19601f820116820180604052508101906111e19190611b54565b915091506112126040518060400160405280600c81526020016b191bd0985d1d1b194e8c8c4d60a21b8152506110fc565b60015460405163abd6b07560e01b81526000916001600160a01b03169063abd6b07590611243908690600401611f5f565b611c206040518083038186803b15801561125c57600080fd5b505afa158015611270573d6000803e3d6000fd5b505050506040513d601f19601f820116820180604052508101906112949190611b1b565b9150506112c46040518060400160405280600c81526020016b3237a130ba3a36329d19189b60a11b8152506110fc565b60006001600160a01b03821633146112dc57336112f5565b6000888152600860205260409020546001600160a01b03165b90506113246040518060400160405280600c81526020016b0c8de84c2e8e8d8ca746462760a31b8152506110fc565b90955093509150509250925092565b600181600160801b811061134c5760409190911b9060801c5b6801000000000000000081106113675760209190911b9060401c5b640100000000811061137e5760109190911b9060201c5b6201000081106113935760089190911b9060101c5b61010081106113a75760049190911b9060081c5b601081106113ba5760029190911b9060041c5b600881106113c9578160011b91505b5080820401600190811c80830401811c80830401811c80830401811c80830401811c80830401811c80830401901c80820481811015611406578091505b50919050565b80516a636f6e736f6c652e6c6f67602083016000808483855afa5050505050565b600082601f83011261143d578081fd5b600561145061144b8261200b565b611fe2565b8084866103c087011115611462578485fd5b845b8481101561153b5781880360c08082121561147d578788fd5b604080518181016001600160401b0382821081831117156114a0576114a061211f565b9083528651825260209060a0601f1987018113156114bc578c8dfd5b8451965080870187811083821117156114d7576114d761211f565b855288830151875288850151878401526060808a0151909250600681106114fc578d8efd5b80868901525060809450611511858a01611713565b91870191909152870151928501929092528082019390935291865294019390910190600101611464565b50909695505050505050565b600082601f830112611557578081fd5b6040516107808082018281106001600160401b038211171561157b5761157b61211f565b604052818482810187101561158e578485fd5b8492505b603c8310156115b257805182526001929092019160209182019101611592565b509195945050505050565b600082601f8301126115cd578081fd5b6040516101008082018281106001600160401b03821117156115f1576115f161211f565b6040528184828101871015611604578485fd5b8492505b60088310156115b257805182526001929092019160209182019101611608565b600082601f830112611638578081fd5b813560206001600160401b038211156116535761165361211f565b808202611661828201611fe2565b83815282810190868401838801850189101561167b578687fd5b8693505b8584101561169d57803583526001939093019291840191840161167f565b50979650505050505050565b600082601f8301126116b9578081fd5b81356001600160401b038111156116d2576116d261211f565b6116e5601f8201601f1916602001611fe2565b8181528460208386010111156116f9578283fd5b816020850160208301379081016020019190915292915050565b8051600281106102e357600080fd5b6000611c008284031215611734578081fd5b60405160c081018181106001600160401b03821117156117565761175661211f565b6040528251815290508061176d8460208501611833565b602082015261178084610de08501611833565b6040820152611ba0830151606082015261179d611bc08401611713565b60808201526117af611be08401611713565b60a08201525092915050565b600060c082840312156117cc578081fd5b60405160c081018181106001600160401b03821117156117ee576117ee61211f565b8060405250809150825181526020830151602082015260408301516040820152606083015160608201526080830151608082015260a083015160a08201525092915050565b6000818303610dc0811215611846578182fd5b6040805160a081016001600160401b03828210818311171561186a5761186a61211f565b8184528295508651915061187d82612145565b818352602087015160208401526105e0603f198601121561189d57600080fd5b8351945060c08501915084821081831117156118bb576118bb61211f565b508252848201518352606085015160208401526118db86608087016117bb565b828401526118ed8661014087016115bd565b6060840152610240850151608084015261190b86610260870161142d565b60a08401528282820152611923866106208701611547565b6060820152610da0850151608082015250505092915050565b60006020828403121561194d578081fd5b813561195881612145565b9392505050565b600060208284031215611970578081fd5b815161195881612145565b600080600080600060a08688031215611992578081fd5b853561199d81612145565b945060208601356119ad81612145565b935060408601356001600160401b03808211156119c8578283fd5b6119d489838a01611628565b945060608801359150808211156119e9578283fd5b6119f589838a01611628565b93506080880135915080821115611a0a578283fd5b50611a17888289016116a9565b9150509295509295909350565b60008060008060808587031215611a39578182fd5b8435611a4481612145565b93506020850135611a5481612145565b92506040850135915060608501356001600160401b03811115611a75578182fd5b611a81878288016116a9565b91505092959194509250565b600080600080600060a08688031215611aa4578283fd5b8535611aaf81612145565b94506020860135611abf81612145565b9350604086013592506060860135915060808601356001600160401b03811115611ae7578182fd5b611a17888289016116a9565b600060208284031215611b04578081fd5b81356001600160e01b031981168114611958578182fd5b600080611c208385031215611b2e578182fd5b611b388484611722565b9150611c00830151611b4981612145565b809150509250929050565b600080611c208385031215611b67578182fd5b611b718484611722565b9150611c0083015190509250929050565b600060208284031215611b93578081fd5b5035919050565b60008060408385031215611bac578182fd5b50508035926020909101359150565b8060005b6005811015611c385781518051855260209081015180518287015280820151604080880191909152810151909190606060068210611bff57611bff612109565b878101919091528201516080611c1482612135565b87810191909152919091015160a086015260c0909401939190910190600101611bbf565b50505050565b8060005b603c811015611c38578151845260209384019390910190600101611c42565b8060005b6008811015611c38578151845260209384019390910190600101611c65565b60018060a01b0381511682526020810151602083015260408101518051604084015260208101516060840152604081015180516080850152602081015160a0850152604081015160c0850152606081015160e0850152608081015161010085015260a0810151610120850152506060810151611d04610140850182611c61565b50608081015161024084015260a00151611d22610260840182611bbb565b506060810151611d36610620840182611c3e565b5060800151610da09190910152565b6001600160a01b0391909116815260200190565b6001600160a01b039384168152919092166020820152604081019190915260806060820181905260009082015260a00190565b6001600160a01b039485168152602081019390935292166040820152606081019190915260800190565b901515815260200190565b6001600160e01b031991909116815260200190565b6000602080835283518082850152825b81811015611e0257858101830151858201604001528201611de6565b81811115611e135783604083870101525b50601f01601f1916929092016040019392505050565b6020808252602f908201527f506570656d6f6e4d617463686d616b65723a204465636b206973206e6f74206960408201526e1b881d1a19481dd85a5d081b1a5cdd608a1b606082015260800190565b6020808252601b908201527f526174696e6720646966666572656e636520746f6f206c617267650000000000604082015260600190565b60208082526026908201527f4f776e61626c653a206e6577206f776e657220697320746865207a65726f206160408201526564647265737360d01b606082015260800190565b6020808252818101527f4f776e61626c653a2063616c6c6572206973206e6f7420746865206f776e6572604082015260600190565b6020808252818101527f506570656d6f6e4d617463686d616b65723a204e6f7420796f7572206465636b604082015260600190565b81518152602080830151611c00830191611f7b90840182611c84565b506040830151611f8f610de0840182611c84565b506060830151611ba08301526080830151611fa981612135565b611bc083015260a0830151611fbd81612135565b80611be08401525092915050565b90815260200190565b918252602082015260400190565b6040518181016001600160401b03811182821017156120035761200361211f565b604052919050565b60006001600160401b038211156120245761202461211f565b5060200290565b6000821982111561203e5761203e6120f3565b500190565b60008261205e57634e487b7160e01b81526012600452602481fd5b500490565b600081600019048311821515161561207d5761207d6120f3565b500290565b60008083128015600160ff1b8501841216156120a0576120a06120f3565b6001600160ff1b03840183138116156120bb576120bb6120f3565b50500390565b6000828210156120d3576120d36120f3565b500390565b60006000198214156120ec576120ec6120f3565b5060010190565b634e487b7160e01b600052601160045260246000fd5b634e487b7160e01b600052602160045260246000fd5b634e487b7160e01b600052604160045260246000fd5b6002811061059557610595612109565b6001600160a01b038116811461059557600080fdfea2646970667358221220f909193df53d76c66e5e11ce35cbb11a775cfcb90950207b74739e7997a6dabc64736f6c63430008000033",
  "devdoc": {
    "kind": "dev",
    "methods": {
      "enter(uint256)": {
        "params": {
          "deckId": "The Deck of who called this function"
        }
      },
      "exit(uint256)": {
        "params": {
          "deckId": "The Deck of the owner"
        }
      },
      "getEloRatingChange(uint256,uint256)": {
        "details": "The returned number has 2 decimals of precision, so 1501 = 15.01 Elo change"
      },
      "onERC721Received(address,address,uint256,bytes)": {
        "details": "See {IERC721Receiver-onERC721Received}. Always returns `IERC721Receiver.onERC721Received.selector`."
      },
      "owner()": {
        "details": "Returns the address of the current owner."
      },
      "renounceOwnership()": {
        "details": "Leaves the contract without owner. It will not be possible to call `onlyOwner` functions anymore. Can only be called by the current owner. NOTE: Renouncing ownership will leave the contract without an owner, thereby removing any functionality that is only available to the owner."
      },
      "setKFactor(uint256)": {
        "details": "Dictates the rate of change, has a direct influence on how much a player wins/loses in the ranking",
        "params": {
          "kFactor": "Value used to calculate the rate of change in getEloRatingChange"
        }
      },
      "supportsInterface(bytes4)": {
        "details": "See {IERC165-supportsInterface}."
      },
      "transferOwnership(address)": {
        "details": "Transfers ownership of the contract to a new account (`newOwner`). Can only be called by the current owner."
      }
    },
    "version": 1
  },
  "userdoc": {
    "kind": "user",
    "methods": {
      "enter(uint256)": {
        "notice": "Tries to initiate a battle using a specified deck. If no opponents are found, the deck is placed in a wait list."
      },
      "exit(uint256)": {
        "notice": "Transfers a deck back to its owner and removes from the wait list"
      },
      "getEloRatingChange(uint256,uint256)": {
        "notice": "Calculates the Elo change based on the winner's and loser's ratings."
      },
      "getWaitingCount()": {
        "notice": "Retrieves the number of waiting decks"
      }
    },
    "version": 1
  },
  "storageLayout": {
    "storage": [
      {
        "astId": 273,
        "contract": "contracts/PepemonMatchmaker.sol:PepemonMatchmaker",
        "label": "_owner",
        "offset": 0,
        "slot": "0",
        "type": "t_address"
      },
      {
        "astId": 7955,
        "contract": "contracts/PepemonMatchmaker.sol:PepemonMatchmaker",
        "label": "_battleAddress",
        "offset": 0,
        "slot": "1",
        "type": "t_address"
      },
      {
        "astId": 7957,
        "contract": "contracts/PepemonMatchmaker.sol:PepemonMatchmaker",
        "label": "_deckAddress",
        "offset": 0,
        "slot": "2",
        "type": "t_address"
      },
      {
        "astId": 7959,
        "contract": "contracts/PepemonMatchmaker.sol:PepemonMatchmaker",
        "label": "_rewardPoolAddress",
        "offset": 0,
        "slot": "3",
        "type": "t_address"
      },
      {
        "astId": 7964,
        "contract": "contracts/PepemonMatchmaker.sol:PepemonMatchmaker",
        "label": "_matchRange",
        "offset": 0,
        "slot": "4",
        "type": "t_uint256"
      },
      {
        "astId": 7967,
        "contract": "contracts/PepemonMatchmaker.sol:PepemonMatchmaker",
        "label": "_matchRangePerMinute",
        "offset": 0,
        "slot": "5",
        "type": "t_uint256"
      },
      {
        "astId": 7970,
        "contract": "contracts/PepemonMatchmaker.sol:PepemonMatchmaker",
        "label": "_kFactor",
        "offset": 0,
        "slot": "6",
        "type": "t_uint256"
      },
      {
        "astId": 7974,
        "contract": "contracts/PepemonMatchmaker.sol:PepemonMatchmaker",
        "label": "_waitingDecksIndex",
        "offset": 0,
        "slot": "7",
        "type": "t_mapping(t_uint256,t_uint256)"
      },
      {
        "astId": 7978,
        "contract": "contracts/PepemonMatchmaker.sol:PepemonMatchmaker",
        "label": "deckOwner",
        "offset": 0,
        "slot": "8",
        "type": "t_mapping(t_uint256,t_address)"
      },
      {
        "astId": 7982,
        "contract": "contracts/PepemonMatchmaker.sol:PepemonMatchmaker",
        "label": "waitingDecks",
        "offset": 0,
        "slot": "9",
        "type": "t_array(t_struct(waitingDeckData)7953_storage)dyn_storage"
      },
      {
        "astId": 7986,
        "contract": "contracts/PepemonMatchmaker.sol:PepemonMatchmaker",
        "label": "playerRanking",
        "offset": 0,
        "slot": "10",
        "type": "t_mapping(t_address,t_uint256)"
      }
    ],
    "types": {
      "t_address": {
        "encoding": "inplace",
        "label": "address",
        "numberOfBytes": "20"
      },
      "t_array(t_struct(waitingDeckData)7953_storage)dyn_storage": {
        "base": "t_struct(waitingDeckData)7953_storage",
        "encoding": "dynamic_array",
        "label": "struct PepemonMatchmaker.waitingDeckData[]",
        "numberOfBytes": "32"
      },
      "t_mapping(t_address,t_uint256)": {
        "encoding": "mapping",
        "key": "t_address",
        "label": "mapping(address => uint256)",
        "numberOfBytes": "32",
        "value": "t_uint256"
      },
      "t_mapping(t_uint256,t_address)": {
        "encoding": "mapping",
        "key": "t_uint256",
        "label": "mapping(uint256 => address)",
        "numberOfBytes": "32",
        "value": "t_address"
      },
      "t_mapping(t_uint256,t_uint256)": {
        "encoding": "mapping",
        "key": "t_uint256",
        "label": "mapping(uint256 => uint256)",
        "numberOfBytes": "32",
        "value": "t_uint256"
      },
      "t_struct(waitingDeckData)7953_storage": {
        "encoding": "inplace",
        "label": "struct PepemonMatchmaker.waitingDeckData",
        "members": [
          {
            "astId": 7950,
            "contract": "contracts/PepemonMatchmaker.sol:PepemonMatchmaker",
            "label": "deckId",
            "offset": 0,
            "slot": "0",
            "type": "t_uint256"
          },
          {
            "astId": 7952,
            "contract": "contracts/PepemonMatchmaker.sol:PepemonMatchmaker",
            "label": "enterTimestamp",
            "offset": 0,
            "slot": "1",
            "type": "t_uint256"
          }
        ],
        "numberOfBytes": "64"
      },
      "t_uint256": {
        "encoding": "inplace",
        "label": "uint256",
        "numberOfBytes": "32"
      }
    }
  }
}