{
  "address": "0x0941517e79a5898B46318B2C66634aa5928fC70f",
  "abi": [
    {
      "inputs": [
        {
          "internalType": "uint256",
          "name": "defaultRanking",
          "type": "uint256"
        },
        {
          "internalType": "address",
          "name": "battleAddress",
          "type": "address"
        },
        {
          "internalType": "address",
          "name": "deckAddress",
          "type": "address"
        },
        {
          "internalType": "address",
          "name": "rewardPoolAddress",
          "type": "address"
        }
      ],
      "stateMutability": "nonpayable",
      "type": "constructor"
    },
    {
      "anonymous": false,
      "inputs": [
        {
          "indexed": true,
          "internalType": "address",
          "name": "winner",
          "type": "address"
        },
        {
          "indexed": true,
          "internalType": "address",
          "name": "loser",
          "type": "address"
        },
        {
          "indexed": false,
          "internalType": "uint256",
          "name": "battleId",
          "type": "uint256"
        }
      ],
      "name": "BattleFinished",
      "type": "event"
    },
    {
      "anonymous": false,
      "inputs": [
        {
          "indexed": true,
          "internalType": "address",
          "name": "previousOwner",
          "type": "address"
        },
        {
          "indexed": true,
          "internalType": "address",
          "name": "newOwner",
          "type": "address"
        }
      ],
      "name": "OwnershipTransferred",
      "type": "event"
    },
    {
      "inputs": [
        {
          "internalType": "uint256",
          "name": "",
          "type": "uint256"
        }
      ],
      "name": "deckOwner",
      "outputs": [
        {
          "internalType": "address",
          "name": "",
          "type": "address"
        }
      ],
      "stateMutability": "view",
      "type": "function"
    },
    {
      "inputs": [
        {
          "internalType": "uint256",
          "name": "deckId",
          "type": "uint256"
        }
      ],
      "name": "enter",
      "outputs": [],
      "stateMutability": "nonpayable",
      "type": "function"
    },
    {
      "inputs": [
        {
          "internalType": "uint256",
          "name": "deckId",
          "type": "uint256"
        }
      ],
      "name": "exit",
      "outputs": [],
      "stateMutability": "nonpayable",
      "type": "function"
    },
    {
      "inputs": [
        {
          "internalType": "uint256",
          "name": "winnerRating",
          "type": "uint256"
        },
        {
          "internalType": "uint256",
          "name": "loserRating",
          "type": "uint256"
        }
      ],
      "name": "getEloRatingChange",
      "outputs": [
        {
          "internalType": "uint256",
          "name": "",
          "type": "uint256"
        }
      ],
      "stateMutability": "view",
      "type": "function"
    },
    {
      "inputs": [],
      "name": "getWaitingCount",
      "outputs": [
        {
          "internalType": "uint256",
          "name": "",
          "type": "uint256"
        }
      ],
      "stateMutability": "view",
      "type": "function"
    },
    {
      "inputs": [
        {
          "internalType": "address",
          "name": "",
          "type": "address"
        },
        {
          "internalType": "address",
          "name": "",
          "type": "address"
        },
        {
          "internalType": "uint256[]",
          "name": "",
          "type": "uint256[]"
        },
        {
          "internalType": "uint256[]",
          "name": "",
          "type": "uint256[]"
        },
        {
          "internalType": "bytes",
          "name": "",
          "type": "bytes"
        }
      ],
      "name": "onERC1155BatchReceived",
      "outputs": [
        {
          "internalType": "bytes4",
          "name": "",
          "type": "bytes4"
        }
      ],
      "stateMutability": "nonpayable",
      "type": "function"
    },
    {
      "inputs": [
        {
          "internalType": "address",
          "name": "",
          "type": "address"
        },
        {
          "internalType": "address",
          "name": "",
          "type": "address"
        },
        {
          "internalType": "uint256",
          "name": "",
          "type": "uint256"
        },
        {
          "internalType": "uint256",
          "name": "",
          "type": "uint256"
        },
        {
          "internalType": "bytes",
          "name": "",
          "type": "bytes"
        }
      ],
      "name": "onERC1155Received",
      "outputs": [
        {
          "internalType": "bytes4",
          "name": "",
          "type": "bytes4"
        }
      ],
      "stateMutability": "nonpayable",
      "type": "function"
    },
    {
      "inputs": [
        {
          "internalType": "address",
          "name": "",
          "type": "address"
        },
        {
          "internalType": "address",
          "name": "",
          "type": "address"
        },
        {
          "internalType": "uint256",
          "name": "",
          "type": "uint256"
        },
        {
          "internalType": "bytes",
          "name": "",
          "type": "bytes"
        }
      ],
      "name": "onERC721Received",
      "outputs": [
        {
          "internalType": "bytes4",
          "name": "",
          "type": "bytes4"
        }
      ],
      "stateMutability": "nonpayable",
      "type": "function"
    },
    {
      "inputs": [],
      "name": "owner",
      "outputs": [
        {
          "internalType": "address",
          "name": "",
          "type": "address"
        }
      ],
      "stateMutability": "view",
      "type": "function"
    },
    {
      "inputs": [
        {
          "internalType": "address",
          "name": "",
          "type": "address"
        }
      ],
      "name": "playerRanking",
      "outputs": [
        {
          "internalType": "uint256",
          "name": "",
          "type": "uint256"
        }
      ],
      "stateMutability": "view",
      "type": "function"
    },
    {
      "inputs": [],
      "name": "renounceOwnership",
      "outputs": [],
      "stateMutability": "nonpayable",
      "type": "function"
    },
    {
      "inputs": [
        {
          "internalType": "address",
          "name": "battleContractAddress",
          "type": "address"
        }
      ],
      "name": "setBattleContractAddress",
      "outputs": [],
      "stateMutability": "nonpayable",
      "type": "function"
    },
    {
      "inputs": [
        {
          "internalType": "address",
          "name": "deckContractAddress",
          "type": "address"
        }
      ],
      "name": "setDeckContractAddress",
      "outputs": [],
      "stateMutability": "nonpayable",
      "type": "function"
    },
    {
      "inputs": [
        {
          "internalType": "uint256",
          "name": "kFactor",
          "type": "uint256"
        }
      ],
      "name": "setKFactor",
      "outputs": [],
      "stateMutability": "nonpayable",
      "type": "function"
    },
    {
      "inputs": [
        {
          "internalType": "uint256",
          "name": "matchRange",
          "type": "uint256"
        },
        {
          "internalType": "uint256",
          "name": "matchRangePerMinute",
          "type": "uint256"
        }
      ],
      "name": "setMatchRange",
      "outputs": [],
      "stateMutability": "nonpayable",
      "type": "function"
    },
    {
      "inputs": [
        {
          "internalType": "address",
          "name": "rewardPoolAddress",
          "type": "address"
        }
      ],
      "name": "setRewardPoolAddress",
      "outputs": [],
      "stateMutability": "nonpayable",
      "type": "function"
    },
    {
      "inputs": [
        {
          "internalType": "bytes4",
          "name": "interfaceId",
          "type": "bytes4"
        }
      ],
      "name": "supportsInterface",
      "outputs": [
        {
          "internalType": "bool",
          "name": "",
          "type": "bool"
        }
      ],
      "stateMutability": "view",
      "type": "function"
    },
    {
      "inputs": [
        {
          "internalType": "address",
          "name": "newOwner",
          "type": "address"
        }
      ],
      "name": "transferOwnership",
      "outputs": [],
      "stateMutability": "nonpayable",
      "type": "function"
    },
    {
      "inputs": [
        {
          "internalType": "uint256",
          "name": "",
          "type": "uint256"
        }
      ],
      "name": "waitingDecks",
      "outputs": [
        {
          "internalType": "uint256",
          "name": "deckId",
          "type": "uint256"
        },
        {
          "internalType": "uint256",
          "name": "enterTimestamp",
          "type": "uint256"
        }
      ],
      "stateMutability": "view",
      "type": "function"
    }
  ],
  "transactionHash": "0x45c11f5be91bb7a3934ddc9d08e622cea14f2917fc2c82ec659ce85c37b92047",
  "args": [
    2000,
    "0x16018De06b116b044f257Fe58d915e5da048CE14",
    "0xa784b4fcFe0cF627aD2Be650d5467597FCFBFf67",
    "0xaE99c778ae8fBD1A4B327bdcf29EF6888dE18b25"
  ],
  "numDeployments": 7,
  "solcInputHash": "5c543d2681087c7e30640d206166e2e4",
  "bytecode": "0x60a060405261012c600455600160055560106006553480156200002157600080fd5b506040516200213e3803806200213e833981016040819052620000449162000104565b600062000050620000e3565b600080546001600160a01b0319166001600160a01b0383169081178255604051929350917f8be0079c531659141344cd1fd0a4f28419497f9722a3daafe3b4186f6b6457e0908290a350608093909352600180546001600160a01b03199081166001600160a01b039485161790915560028054821692841692909217909155600380549091169190921617905562000157565b3390565b80516001600160a01b0381168114620000ff57600080fd5b919050565b600080600080608085870312156200011a578384fd5b845193506200012c60208601620000e7565b92506200013c60408601620000e7565b91506200014c60608601620000e7565b905092959194509250565b608051611fcb6200017360003960006106d20152611fcb6000f3fe608060405234801561001057600080fd5b50600436106101215760003560e01c80637f8661a1116100ad578063b24cf5d711610071578063b24cf5d71461025c578063bc197c811461026f578063d671581f14610282578063f23a6e6114610295578063f2fde38b146102a857610121565b80637f8661a1146101fb5780638a062ab71461020e5780638da5cb5b1461022157806396dc76c414610236578063a59f3e0c1461024957610121565b806345887038116100f4578063458870381461019957806346864cd8146101ac57806359509b7a146101bf57806364375d29146101e0578063715018a6146101f357610121565b806301ffc9a714610126578063086f99d41461014f578063150b7a02146101645780633174d50714610184575b600080fd5b610139610134366004611981565b6102bb565b6040516101469190611c44565b60405180910390f35b61016261015d3660046117ca565b6102e8565b005b6101776101723660046118b2565b610352565b6040516101469190611c4f565b61018c610362565b6040516101469190611e06565b6101626101a7366004611a28565b610368565b6101626101ba3660046117ca565b6103b2565b6101d26101cd366004611a10565b610413565b604051610146929190611e0f565b61018c6101ee366004611a28565b610441565b61016261045c565b610162610209366004611a10565b6104e5565b61016261021c366004611a10565b610598565b6102296105dc565b6040516101469190611bd3565b61018c6102443660046117ca565b6105eb565b610162610257366004611a10565b6105fd565b61016261026a3660046117ca565b61072c565b61017761027d366004611809565b61078d565b610229610290366004611a10565b61079e565b6101776102a336600461191b565b6107b9565b6101626102b63660046117ca565b6107ca565b60006001600160e01b03198216630271189760e51b14806102e057506102e08261088a565b90505b919050565b6102f06108a3565b6001600160a01b03166103016105dc565b6001600160a01b0316146103305760405162461bcd60e51b815260040161032790611d30565b60405180910390fd5b600280546001600160a01b0319166001600160a01b0392909216919091179055565b630a85bd0160e11b949350505050565b60095490565b6103706108a3565b6001600160a01b03166103816105dc565b6001600160a01b0316146103a75760405162461bcd60e51b815260040161032790611d30565b600491909155600555565b6103ba6108a3565b6001600160a01b03166103cb6105dc565b6001600160a01b0316146103f15760405162461bcd60e51b815260040161032790611d30565b600180546001600160a01b0319166001600160a01b0392909216919091179055565b6009818154811061042357600080fd5b60009182526020909120600290910201805460019091015490915082565b600080610453848460646006546108a7565b50949350505050565b6104646108a3565b6001600160a01b03166104756105dc565b6001600160a01b03161461049b5760405162461bcd60e51b815260040161032790611d30565b600080546040516001600160a01b03909116907f8be0079c531659141344cd1fd0a4f28419497f9722a3daafe3b4186f6b6457e0908390a3600080546001600160a01b0319169055565b6009541580159061053a575060008181526007602052604090205460098054909190811061052357634e487b7160e01b600052603260045260246000fd5b906000526020600020906002020160000154600014155b6105565760405162461bcd60e51b815260040161032790611c64565b6000818152600860205260409020546001600160a01b0316331461058c5760405162461bcd60e51b815260040161032790611d65565b6105958161099b565b50565b6105a06108a3565b6001600160a01b03166105b16105dc565b6001600160a01b0316146105d75760405162461bcd60e51b815260040161032790611d30565b600655565b6000546001600160a01b031690565b600a6020526000908152604090205481565b6002546040516331a9108f60e11b81526001600160a01b0390911690636352211e9061062d908490600401611e06565b60206040518083038186803b15801561064557600080fd5b505afa158015610659573d6000803e3d6000fd5b505050506040513d601f19601f8201168201806040525081019061067d91906117ed565b6001600160a01b0316336001600160a01b0316146106ad5760405162461bcd60e51b815260040161032790611d65565b336000908152600a60205260409020546106f457336000908152600a602052604090207f000000000000000000000000000000000000000000000000000000000000000090555b60006106ff82610b68565b9050801561071f576107118282610d2a565b61071a8161099b565b610728565b61072882610e89565b5050565b6107346108a3565b6001600160a01b03166107456105dc565b6001600160a01b03161461076b5760405162461bcd60e51b815260040161032790611d30565b600380546001600160a01b0319166001600160a01b0392909216919091179055565b63bc197c8160e01b95945050505050565b6008602052600090815260409020546001600160a01b031681565b63f23a6e6160e01b95945050505050565b6107d26108a3565b6001600160a01b03166107e36105dc565b6001600160a01b0316146108095760405162461bcd60e51b815260040161032790611d30565b6001600160a01b03811661082f5760405162461bcd60e51b815260040161032790611cea565b600080546040516001600160a01b03808516939216917f8be0079c531659141344cd1fd0a4f28419497f9722a3daafe3b4186f6b6457e091a3600080546001600160a01b0319166001600160a01b0392909216919091179055565b6001600160e01b031981166301ffc9a760e01b14919050565b3390565b600080612710830286861082816108c0578888036108c4565b8789035b905061046681106108e75760405162461bcd60e51b815260040161032790611cb3565b811561090e57610320811061090e5760405162461bcd60e51b815260040161032790611cb3565b60008060008060008661092557856103200161092b565b85610320035b945061093d600a601987046001610f9a565b935061094884611058565b925082606401888161096a57634e487b7160e01b600052601260045260246000fd5b0491508b8b02905081811098508861098457818103610988565b8082035b9950505050505050505094509492505050565b60025460008281526008602052604090819020549051635c46a7ef60e11b81526001600160a01b039283169263b88d4fde926109e1923092909116908690600401611be7565b600060405180830381600087803b1580156109fb57600080fd5b505af1158015610a0f573d6000803e3d6000fd5b505050600082815260086020526040812080546001600160a01b0319169055600954909150610a4090600190611efc565b9050600060098281548110610a6557634e487b7160e01b600052603260045260246000fd5b600091825260208083206002909202909101548583526007909152604080832054828452922091909155600980549192509083908110610ab557634e487b7160e01b600052603260045260246000fd5b90600052602060002090600202016009600760008681526020019081526020016000205481548110610af757634e487b7160e01b600052603260045260246000fd5b6000918252602090912082546002909202019081556001918201549101556009805480610b3457634e487b7160e01b600052603160045260246000fd5b6000828152602080822060026000199094019384020182815560010182905591909255938152600790935250506040812055565b6000805b600954811015610d2157600060098281548110610b9957634e487b7160e01b600052603260045260246000fd5b906000526020600020906002020160000154905083821415610bbb5750610d11565b6000603c60098481548110610be057634e487b7160e01b600052603260045260246000fd5b90600052602060002090600202016001015442610bfd9190611efc565b610c08906078611e9e565b610c129190611e7e565b90506000607860055483610c269190611e9e565b610c309190611e7e565b600454610c3d9190611e66565b6000848152600860209081526040808320546001600160a01b03168352600a909152902054909150610c70908290611efc565b336000908152600a6020526040902054118015610cca57506000838152600860209081526040808320546001600160a01b03168352600a909152902054610cb8908290611e66565b336000908152600a6020526040902054105b15610d0d5760098481548110610cf057634e487b7160e01b600052603260045260246000fd5b9060005260206000209060020201600001549450505050506102e3565b5050505b610d1a81611f13565b9050610b6c565b50600092915050565b6000806000610d398585611071565b925092509250816001600160a01b0316836001600160a01b03167f9b5363c49f40791b738dbe0ba63e6fa52ed52213cf8d4a2f3724e1389d72f14f83604051610d829190611e06565b60405180910390a36001600160a01b038084166000908152600a60205260408082205492851682528120549091606491610dbc9190610441565b610dc69190611e7e565b6001600160a01b0385166000908152600a6020526040812080549293508392909190610df3908490611e66565b90915550506001600160a01b0383166000908152600a6020526040812054610e1c908390611ebd565b1315610e64576001600160a01b0383166000908152600a6020526040902054610e46908290611efc565b6001600160a01b0384166000908152600a6020526040902055610e81565b6001600160a01b0383166000908152600a60205260409020600190555b505050505050565b6000818152600860205260409081902080546001600160a01b031916339081179091556002549151635c46a7ef60e11b81526001600160a01b03929092169163b88d4fde91610ede9130908690600401611be7565b600060405180830381600087803b158015610ef857600080fd5b505af1158015610f0c573d6000803e3d6000fd5b505060098054600085815260076020908152604080832084905580518082019091529687524290870190815260018301845592905293517f6e1540171b6c0c960b71a7020d9f60077f6af931a8bbf590da0223dacf75c7af600290950294850155517f6e1540171b6c0c960b71a7020d9f60077f6af931a8bbf590da0223dacf75c7b0909301929092555050565b600083801561103a57600184168015610fb557859250610fb9565b8392505b508260011c8460011c94505b8415611034578560801c15610fd957600080fd5b85860281810181811015610fec57600080fd5b859004965050600185161561102957858302838782041461101257861561101257600080fd5b8181018181101561102257600080fd5b8590049350505b8460011c9450610fc5565b50611050565b83801561104a576000925061104e565b8392505b505b509392505050565b60006102e061106c61106c61106c856111e2565b6111e2565b6001546000828152600860205260408082205490516331acd38760e21b8152919283928392839283926001600160a01b039182169263c6b34e1c926110c09233928d9216908c90600401611c1a565b611c2060405180830381600087803b1580156110db57600080fd5b505af11580156110ef573d6000803e3d6000fd5b505050506040513d601f19601f8201168201806040525081019061111391906119e2565b60015460405163abd6b07560e01b81529294509092506000916001600160a01b039091169063abd6b0759061114c908690600401611d9a565b611c206040518083038186803b15801561116557600080fd5b505afa158015611179573d6000803e3d6000fd5b505050506040513d601f19601f8201168201806040525081019061119d91906119a9565b9150600090506001600160a01b03821633146111b957336111d2565b6000888152600860205260409020546001600160a01b03165b9199919850919650945050505050565b600181600160801b81106111fb5760409190911b9060801c5b6801000000000000000081106112165760209190911b9060401c5b640100000000811061122d5760109190911b9060201c5b6201000081106112425760089190911b9060101c5b61010081106112565760049190911b9060081c5b601081106112695760029190911b9060041c5b60088110611278578160011b91505b5080820401600190811c80830401811c80830401811c80830401811c80830401811c80830401811c80830401901c808204818110156112b5578091505b50919050565b600082601f8301126112cb578081fd5b60056112de6112d982611e46565b611e1d565b8084866103c0870111156112f0578485fd5b845b848110156113c95781880360c08082121561130b578788fd5b604080518181016001600160401b03828210818311171561132e5761132e611f5a565b9083528651825260209060a0601f19870181131561134a578c8dfd5b84519650808701878110838211171561136557611365611f5a565b855288830151875288850151878401526060808a01519092506006811061138a578d8efd5b8086890152506080945061139f858a016115a1565b918701919091528701519285019290925280820193909352918652940193909101906001016112f2565b50909695505050505050565b600082601f8301126113e5578081fd5b6040516107808082018281106001600160401b038211171561140957611409611f5a565b604052818482810187101561141c578485fd5b8492505b603c83101561144057805182526001929092019160209182019101611420565b509195945050505050565b600082601f83011261145b578081fd5b6040516101008082018281106001600160401b038211171561147f5761147f611f5a565b6040528184828101871015611492578485fd5b8492505b600883101561144057805182526001929092019160209182019101611496565b600082601f8301126114c6578081fd5b813560206001600160401b038211156114e1576114e1611f5a565b8082026114ef828201611e1d565b838152828101908684018388018501891015611509578687fd5b8693505b8584101561152b57803583526001939093019291840191840161150d565b50979650505050505050565b600082601f830112611547578081fd5b81356001600160401b0381111561156057611560611f5a565b611573601f8201601f1916602001611e1d565b818152846020838601011115611587578283fd5b816020850160208301379081016020019190915292915050565b8051600281106102e357600080fd5b6000611c0082840312156115c2578081fd5b60405160c081018181106001600160401b03821117156115e4576115e4611f5a565b604052825181529050806115fb84602085016116c1565b602082015261160e84610de085016116c1565b6040820152611ba0830151606082015261162b611bc084016115a1565b608082015261163d611be084016115a1565b60a08201525092915050565b600060c0828403121561165a578081fd5b60405160c081018181106001600160401b038211171561167c5761167c611f5a565b8060405250809150825181526020830151602082015260408301516040820152606083015160608201526080830151608082015260a083015160a08201525092915050565b6000818303610dc08112156116d4578182fd5b6040805160a081016001600160401b0382821081831117156116f8576116f8611f5a565b8184528295508651915061170b82611f80565b818352602087015160208401526105e0603f198601121561172b57600080fd5b8351945060c085019150848210818311171561174957611749611f5a565b508252848201518352606085015160208401526117698660808701611649565b8284015261177b86610140870161144b565b606084015261024085015160808401526117998661026087016112bb565b60a084015282828201526117b18661062087016113d5565b6060820152610da0850151608082015250505092915050565b6000602082840312156117db578081fd5b81356117e681611f80565b9392505050565b6000602082840312156117fe578081fd5b81516117e681611f80565b600080600080600060a08688031215611820578081fd5b853561182b81611f80565b9450602086013561183b81611f80565b935060408601356001600160401b0380821115611856578283fd5b61186289838a016114b6565b94506060880135915080821115611877578283fd5b61188389838a016114b6565b93506080880135915080821115611898578283fd5b506118a588828901611537565b9150509295509295909350565b600080600080608085870312156118c7578182fd5b84356118d281611f80565b935060208501356118e281611f80565b92506040850135915060608501356001600160401b03811115611903578182fd5b61190f87828801611537565b91505092959194509250565b600080600080600060a08688031215611932578283fd5b853561193d81611f80565b9450602086013561194d81611f80565b9350604086013592506060860135915060808601356001600160401b03811115611975578182fd5b6118a588828901611537565b600060208284031215611992578081fd5b81356001600160e01b0319811681146117e6578182fd5b600080611c2083850312156119bc578182fd5b6119c684846115b0565b9150611c008301516119d781611f80565b809150509250929050565b600080611c2083850312156119f5578182fd5b6119ff84846115b0565b9150611c0083015190509250929050565b600060208284031215611a21578081fd5b5035919050565b60008060408385031215611a3a578182fd5b50508035926020909101359150565b8060005b6005811015611ac65781518051855260209081015180518287015280820151604080880191909152810151909190606060068210611a8d57611a8d611f44565b878101919091528201516080611aa282611f70565b87810191909152919091015160a086015260c0909401939190910190600101611a4d565b50505050565b8060005b603c811015611ac6578151845260209384019390910190600101611ad0565b8060005b6008811015611ac6578151845260209384019390910190600101611af3565b60018060a01b0381511682526020810151602083015260408101518051604084015260208101516060840152604081015180516080850152602081015160a0850152604081015160c0850152606081015160e0850152608081015161010085015260a0810151610120850152506060810151611b92610140850182611aef565b50608081015161024084015260a00151611bb0610260840182611a49565b506060810151611bc4610620840182611acc565b5060800151610da09190910152565b6001600160a01b0391909116815260200190565b6001600160a01b039384168152919092166020820152604081019190915260806060820181905260009082015260a00190565b6001600160a01b039485168152602081019390935292166040820152606081019190915260800190565b901515815260200190565b6001600160e01b031991909116815260200190565b6020808252602f908201527f506570656d6f6e4d617463686d616b65723a204465636b206973206e6f74206960408201526e1b881d1a19481dd85a5d081b1a5cdd608a1b606082015260800190565b6020808252601b908201527f526174696e6720646966666572656e636520746f6f206c617267650000000000604082015260600190565b60208082526026908201527f4f776e61626c653a206e6577206f776e657220697320746865207a65726f206160408201526564647265737360d01b606082015260800190565b6020808252818101527f4f776e61626c653a2063616c6c6572206973206e6f7420746865206f776e6572604082015260600190565b6020808252818101527f506570656d6f6e4d617463686d616b65723a204e6f7420796f7572206465636b604082015260600190565b81518152602080830151611c00830191611db690840182611b12565b506040830151611dca610de0840182611b12565b506060830151611ba08301526080830151611de481611f70565b611bc083015260a0830151611df881611f70565b80611be08401525092915050565b90815260200190565b918252602082015260400190565b6040518181016001600160401b0381118282101715611e3e57611e3e611f5a565b604052919050565b60006001600160401b03821115611e5f57611e5f611f5a565b5060200290565b60008219821115611e7957611e79611f2e565b500190565b600082611e9957634e487b7160e01b81526012600452602481fd5b500490565b6000816000190483118215151615611eb857611eb8611f2e565b500290565b60008083128015600160ff1b850184121615611edb57611edb611f2e565b6001600160ff1b0384018313811615611ef657611ef6611f2e565b50500390565b600082821015611f0e57611f0e611f2e565b500390565b6000600019821415611f2757611f27611f2e565b5060010190565b634e487b7160e01b600052601160045260246000fd5b634e487b7160e01b600052602160045260246000fd5b634e487b7160e01b600052604160045260246000fd5b6002811061059557610595611f44565b6001600160a01b038116811461059557600080fdfea2646970667358221220d08a6ff43c85a2b2c7f014a7464f203ca369406e0da4070653f9f7e41b5af35564736f6c63430008000033",
  "devdoc": {
    "kind": "dev",
    "methods": {
      "enter(uint256)": {
        "params": {
          "deckId": "The Deck of who called this function"
        }
      },
      "exit(uint256)": {
        "params": {
          "deckId": "The Deck of the owner"
        }
      },
      "getEloRatingChange(uint256,uint256)": {
        "details": "The returned number has 2 decimals of precision, so 1501 = 15.01 Elo change"
      },
      "onERC721Received(address,address,uint256,bytes)": {
        "details": "See {IERC721Receiver-onERC721Received}. Always returns `IERC721Receiver.onERC721Received.selector`."
      },
      "owner()": {
        "details": "Returns the address of the current owner."
      },
      "renounceOwnership()": {
        "details": "Leaves the contract without owner. It will not be possible to call `onlyOwner` functions anymore. Can only be called by the current owner. NOTE: Renouncing ownership will leave the contract without an owner, thereby removing any functionality that is only available to the owner."
      },
      "setKFactor(uint256)": {
        "details": "Dictates the rate of change, has a direct influence on how much a player wins/loses in the ranking",
        "params": {
          "kFactor": "Value used to calculate the rate of change in getEloRatingChange"
        }
      },
      "supportsInterface(bytes4)": {
        "details": "See {IERC165-supportsInterface}."
      },
      "transferOwnership(address)": {
        "details": "Transfers ownership of the contract to a new account (`newOwner`). Can only be called by the current owner."
      }
    },
    "version": 1
  },
  "userdoc": {
    "kind": "user",
    "methods": {
      "enter(uint256)": {
        "notice": "Tries to initiate a battle using a specified deck. If no opponents are found, the deck is placed in a wait list."
      },
      "exit(uint256)": {
        "notice": "Transfers a deck back to its owner and removes from the wait list"
      },
      "getEloRatingChange(uint256,uint256)": {
        "notice": "Calculates the Elo change based on the winner's and loser's ratings."
      },
      "getWaitingCount()": {
        "notice": "Retrieves the number of waiting decks"
      }
    },
    "version": 1
  },
  "storageLayout": {
    "storage": [
      {
        "astId": 273,
        "contract": "contracts/PepemonMatchmaker.sol:PepemonMatchmaker",
        "label": "_owner",
        "offset": 0,
        "slot": "0",
        "type": "t_address"
      },
      {
        "astId": 6939,
        "contract": "contracts/PepemonMatchmaker.sol:PepemonMatchmaker",
        "label": "_battleAddress",
        "offset": 0,
        "slot": "1",
        "type": "t_address"
      },
      {
        "astId": 6941,
        "contract": "contracts/PepemonMatchmaker.sol:PepemonMatchmaker",
        "label": "_deckAddress",
        "offset": 0,
        "slot": "2",
        "type": "t_address"
      },
      {
        "astId": 6943,
        "contract": "contracts/PepemonMatchmaker.sol:PepemonMatchmaker",
        "label": "_rewardPoolAddress",
        "offset": 0,
        "slot": "3",
        "type": "t_address"
      },
      {
        "astId": 6948,
        "contract": "contracts/PepemonMatchmaker.sol:PepemonMatchmaker",
        "label": "_matchRange",
        "offset": 0,
        "slot": "4",
        "type": "t_uint256"
      },
      {
        "astId": 6951,
        "contract": "contracts/PepemonMatchmaker.sol:PepemonMatchmaker",
        "label": "_matchRangePerMinute",
        "offset": 0,
        "slot": "5",
        "type": "t_uint256"
      },
      {
        "astId": 6954,
        "contract": "contracts/PepemonMatchmaker.sol:PepemonMatchmaker",
        "label": "_kFactor",
        "offset": 0,
        "slot": "6",
        "type": "t_uint256"
      },
      {
        "astId": 6958,
        "contract": "contracts/PepemonMatchmaker.sol:PepemonMatchmaker",
        "label": "_waitingDecksIndex",
        "offset": 0,
        "slot": "7",
        "type": "t_mapping(t_uint256,t_uint256)"
      },
      {
        "astId": 6962,
        "contract": "contracts/PepemonMatchmaker.sol:PepemonMatchmaker",
        "label": "deckOwner",
        "offset": 0,
        "slot": "8",
        "type": "t_mapping(t_uint256,t_address)"
      },
      {
        "astId": 6966,
        "contract": "contracts/PepemonMatchmaker.sol:PepemonMatchmaker",
        "label": "waitingDecks",
        "offset": 0,
        "slot": "9",
        "type": "t_array(t_struct(waitingDeckData)6937_storage)dyn_storage"
      },
      {
        "astId": 6970,
        "contract": "contracts/PepemonMatchmaker.sol:PepemonMatchmaker",
        "label": "playerRanking",
        "offset": 0,
        "slot": "10",
        "type": "t_mapping(t_address,t_uint256)"
      }
    ],
    "types": {
      "t_address": {
        "encoding": "inplace",
        "label": "address",
        "numberOfBytes": "20"
      },
      "t_array(t_struct(waitingDeckData)6937_storage)dyn_storage": {
        "base": "t_struct(waitingDeckData)6937_storage",
        "encoding": "dynamic_array",
        "label": "struct PepemonMatchmaker.waitingDeckData[]",
        "numberOfBytes": "32"
      },
      "t_mapping(t_address,t_uint256)": {
        "encoding": "mapping",
        "key": "t_address",
        "label": "mapping(address => uint256)",
        "numberOfBytes": "32",
        "value": "t_uint256"
      },
      "t_mapping(t_uint256,t_address)": {
        "encoding": "mapping",
        "key": "t_uint256",
        "label": "mapping(uint256 => address)",
        "numberOfBytes": "32",
        "value": "t_address"
      },
      "t_mapping(t_uint256,t_uint256)": {
        "encoding": "mapping",
        "key": "t_uint256",
        "label": "mapping(uint256 => uint256)",
        "numberOfBytes": "32",
        "value": "t_uint256"
      },
      "t_struct(waitingDeckData)6937_storage": {
        "encoding": "inplace",
        "label": "struct PepemonMatchmaker.waitingDeckData",
        "members": [
          {
            "astId": 6934,
            "contract": "contracts/PepemonMatchmaker.sol:PepemonMatchmaker",
            "label": "deckId",
            "offset": 0,
            "slot": "0",
            "type": "t_uint256"
          },
          {
            "astId": 6936,
            "contract": "contracts/PepemonMatchmaker.sol:PepemonMatchmaker",
            "label": "enterTimestamp",
            "offset": 0,
            "slot": "1",
            "type": "t_uint256"
          }
        ],
        "numberOfBytes": "64"
      },
      "t_uint256": {
        "encoding": "inplace",
        "label": "uint256",
        "numberOfBytes": "32"
      }
    }
  }
}