{
  "address": "0xE589CA40d821b1db4e9Ac2Ea85d26b0b82887aE5",
  "abi": [
    {
      "inputs": [
        {
          "internalType": "uint256",
          "name": "defaultRanking",
          "type": "uint256"
        },
        {
          "internalType": "address",
          "name": "battleAddress",
          "type": "address"
        },
        {
          "internalType": "address",
          "name": "deckAddress",
          "type": "address"
        },
        {
          "internalType": "address",
          "name": "rewardPoolAddress",
          "type": "address"
        }
      ],
      "stateMutability": "nonpayable",
      "type": "constructor"
    },
    {
      "anonymous": false,
      "inputs": [
        {
          "indexed": true,
          "internalType": "address",
          "name": "winner",
          "type": "address"
        },
        {
          "indexed": true,
          "internalType": "address",
          "name": "loser",
          "type": "address"
        },
        {
          "indexed": false,
          "internalType": "uint256",
          "name": "battleId",
          "type": "uint256"
        }
      ],
      "name": "BattleFinished",
      "type": "event"
    },
    {
      "anonymous": false,
      "inputs": [
        {
          "indexed": true,
          "internalType": "address",
          "name": "previousOwner",
          "type": "address"
        },
        {
          "indexed": true,
          "internalType": "address",
          "name": "newOwner",
          "type": "address"
        }
      ],
      "name": "OwnershipTransferred",
      "type": "event"
    },
    {
      "inputs": [
        {
          "internalType": "uint256",
          "name": "",
          "type": "uint256"
        }
      ],
      "name": "deckOwner",
      "outputs": [
        {
          "internalType": "address",
          "name": "",
          "type": "address"
        }
      ],
      "stateMutability": "view",
      "type": "function"
    },
    {
      "inputs": [
        {
          "internalType": "uint256",
          "name": "deckId",
          "type": "uint256"
        }
      ],
      "name": "enter",
      "outputs": [],
      "stateMutability": "nonpayable",
      "type": "function"
    },
    {
      "inputs": [
        {
          "internalType": "uint256",
          "name": "deckId",
          "type": "uint256"
        }
      ],
      "name": "exit",
      "outputs": [],
      "stateMutability": "nonpayable",
      "type": "function"
    },
    {
      "inputs": [
        {
          "internalType": "uint256",
          "name": "winnerRating",
          "type": "uint256"
        },
        {
          "internalType": "uint256",
          "name": "loserRating",
          "type": "uint256"
        }
      ],
      "name": "getEloRatingChange",
      "outputs": [
        {
          "internalType": "uint256",
          "name": "",
          "type": "uint256"
        }
      ],
      "stateMutability": "view",
      "type": "function"
    },
    {
      "inputs": [],
      "name": "getWaitingCount",
      "outputs": [
        {
          "internalType": "uint256",
          "name": "",
          "type": "uint256"
        }
      ],
      "stateMutability": "view",
      "type": "function"
    },
    {
      "inputs": [
        {
          "internalType": "address",
          "name": "",
          "type": "address"
        },
        {
          "internalType": "address",
          "name": "",
          "type": "address"
        },
        {
          "internalType": "uint256[]",
          "name": "",
          "type": "uint256[]"
        },
        {
          "internalType": "uint256[]",
          "name": "",
          "type": "uint256[]"
        },
        {
          "internalType": "bytes",
          "name": "",
          "type": "bytes"
        }
      ],
      "name": "onERC1155BatchReceived",
      "outputs": [
        {
          "internalType": "bytes4",
          "name": "",
          "type": "bytes4"
        }
      ],
      "stateMutability": "nonpayable",
      "type": "function"
    },
    {
      "inputs": [
        {
          "internalType": "address",
          "name": "",
          "type": "address"
        },
        {
          "internalType": "address",
          "name": "",
          "type": "address"
        },
        {
          "internalType": "uint256",
          "name": "",
          "type": "uint256"
        },
        {
          "internalType": "uint256",
          "name": "",
          "type": "uint256"
        },
        {
          "internalType": "bytes",
          "name": "",
          "type": "bytes"
        }
      ],
      "name": "onERC1155Received",
      "outputs": [
        {
          "internalType": "bytes4",
          "name": "",
          "type": "bytes4"
        }
      ],
      "stateMutability": "nonpayable",
      "type": "function"
    },
    {
      "inputs": [
        {
          "internalType": "address",
          "name": "",
          "type": "address"
        },
        {
          "internalType": "address",
          "name": "",
          "type": "address"
        },
        {
          "internalType": "uint256",
          "name": "",
          "type": "uint256"
        },
        {
          "internalType": "bytes",
          "name": "",
          "type": "bytes"
        }
      ],
      "name": "onERC721Received",
      "outputs": [
        {
          "internalType": "bytes4",
          "name": "",
          "type": "bytes4"
        }
      ],
      "stateMutability": "nonpayable",
      "type": "function"
    },
    {
      "inputs": [],
      "name": "owner",
      "outputs": [
        {
          "internalType": "address",
          "name": "",
          "type": "address"
        }
      ],
      "stateMutability": "view",
      "type": "function"
    },
    {
      "inputs": [
        {
          "internalType": "address",
          "name": "",
          "type": "address"
        }
      ],
      "name": "playerRanking",
      "outputs": [
        {
          "internalType": "uint256",
          "name": "",
          "type": "uint256"
        }
      ],
      "stateMutability": "view",
      "type": "function"
    },
    {
      "inputs": [],
      "name": "renounceOwnership",
      "outputs": [],
      "stateMutability": "nonpayable",
      "type": "function"
    },
    {
      "inputs": [
        {
          "internalType": "bool",
          "name": "allow",
          "type": "bool"
        }
      ],
      "name": "setAllowBattleAgainstOneself",
      "outputs": [],
      "stateMutability": "nonpayable",
      "type": "function"
    },
    {
      "inputs": [
        {
          "internalType": "address",
          "name": "battleContractAddress",
          "type": "address"
        }
      ],
      "name": "setBattleContractAddress",
      "outputs": [],
      "stateMutability": "nonpayable",
      "type": "function"
    },
    {
      "inputs": [
        {
          "internalType": "address",
          "name": "deckContractAddress",
          "type": "address"
        }
      ],
      "name": "setDeckContractAddress",
      "outputs": [],
      "stateMutability": "nonpayable",
      "type": "function"
    },
    {
      "inputs": [
        {
          "internalType": "uint256",
          "name": "kFactor",
          "type": "uint256"
        }
      ],
      "name": "setKFactor",
      "outputs": [],
      "stateMutability": "nonpayable",
      "type": "function"
    },
    {
      "inputs": [
        {
          "internalType": "uint256",
          "name": "matchRange",
          "type": "uint256"
        },
        {
          "internalType": "uint256",
          "name": "matchRangePerMinute",
          "type": "uint256"
        }
      ],
      "name": "setMatchRange",
      "outputs": [],
      "stateMutability": "nonpayable",
      "type": "function"
    },
    {
      "inputs": [
        {
          "internalType": "address",
          "name": "rewardPoolAddress",
          "type": "address"
        }
      ],
      "name": "setRewardPoolAddress",
      "outputs": [],
      "stateMutability": "nonpayable",
      "type": "function"
    },
    {
      "inputs": [
        {
          "internalType": "bytes4",
          "name": "interfaceId",
          "type": "bytes4"
        }
      ],
      "name": "supportsInterface",
      "outputs": [
        {
          "internalType": "bool",
          "name": "",
          "type": "bool"
        }
      ],
      "stateMutability": "view",
      "type": "function"
    },
    {
      "inputs": [
        {
          "internalType": "address",
          "name": "newOwner",
          "type": "address"
        }
      ],
      "name": "transferOwnership",
      "outputs": [],
      "stateMutability": "nonpayable",
      "type": "function"
    },
    {
      "inputs": [
        {
          "internalType": "uint256",
          "name": "",
          "type": "uint256"
        }
      ],
      "name": "waitingDecks",
      "outputs": [
        {
          "internalType": "uint256",
          "name": "deckId",
          "type": "uint256"
        },
        {
          "internalType": "uint256",
          "name": "enterTimestamp",
          "type": "uint256"
        }
      ],
      "stateMutability": "view",
      "type": "function"
    }
  ],
  "transactionHash": "0x43cacd91032bebabbe18732ae13eec997059be88c86ecee9f5b8d32157907fe5",
  "args": [
    2000,
    "0xBE460f139372436F69cF53b80353c14333d316f3",
    "0xa784b4fcFe0cF627aD2Be650d5467597FCFBFf67",
    "0xaE99c778ae8fBD1A4B327bdcf29EF6888dE18b25"
  ],
  "numDeployments": 8,
  "solcInputHash": "8ad67612a8651d4669453837132d0d0a",
  "bytecode": "0x60a060405261012c600455600160055560106006553480156200002157600080fd5b50604051620022163803806200221683398101604081905262000044916200010b565b600062000050620000ea565b600080546001600160a01b0319166001600160a01b0383169081178255604051929350917f8be0079c531659141344cd1fd0a4f28419497f9722a3daafe3b4186f6b6457e0908290a350608093909352600180546001600160a01b03199081166001600160a01b03948516179091556002805482169284169290921790915560038054909116919092161760ff60a01b191690556200015e565b3390565b80516001600160a01b03811681146200010657600080fd5b919050565b6000806000806080858703121562000121578384fd5b845193506200013360208601620000ee565b92506200014360408601620000ee565b91506200015360608601620000ee565b905092959194509250565b60805161209c6200017a60003960006106f0015261209c6000f3fe608060405234801561001057600080fd5b506004361061012c5760003560e01c80638a062ab7116100ad578063bc197c8111610071578063bc197c811461027a578063d671581f1461028d578063d8963fc4146102a0578063f23a6e61146102b3578063f2fde38b146102c65761012c565b80638a062ab7146102195780638da5cb5b1461022c57806396dc76c414610241578063a59f3e0c14610254578063b24cf5d7146102675761012c565b806346864cd8116100f457806346864cd8146101b757806359509b7a146101ca57806364375d29146101eb578063715018a6146101fe5780637f8661a1146102065761012c565b806301ffc9a714610131578063086f99d41461015a578063150b7a021461016f5780633174d5071461018f57806345887038146101a4575b600080fd5b61014461013f366004611a52565b6102d9565b6040516101519190611d15565b60405180910390f35b61016d61016836600461187b565b610306565b005b61018261017d366004611963565b610370565b6040516101519190611d20565b610197610380565b6040516101519190611ed7565b61016d6101b2366004611af9565b610386565b61016d6101c536600461187b565b6103d0565b6101dd6101d8366004611ae1565b610431565b604051610151929190611ee0565b6101976101f9366004611af9565b61045f565b61016d61047a565b61016d610214366004611ae1565b610503565b61016d610227366004611ae1565b6105b6565b6102346105fa565b6040516101519190611ca4565b61019761024f36600461187b565b610609565b61016d610262366004611ae1565b61061b565b61016d61027536600461187b565b61074a565b6101826102883660046118ba565b6107ab565b61023461029b366004611ae1565b6107bc565b61016d6102ae366004611a32565b6107d7565b6101826102c13660046119cc565b610834565b61016d6102d436600461187b565b610845565b60006001600160e01b03198216630271189760e51b14806102fe57506102fe82610905565b90505b919050565b61030e61091e565b6001600160a01b031661031f6105fa565b6001600160a01b03161461034e5760405162461bcd60e51b815260040161034590611e01565b60405180910390fd5b600280546001600160a01b0319166001600160a01b0392909216919091179055565b630a85bd0160e11b949350505050565b60095490565b61038e61091e565b6001600160a01b031661039f6105fa565b6001600160a01b0316146103c55760405162461bcd60e51b815260040161034590611e01565b600491909155600555565b6103d861091e565b6001600160a01b03166103e96105fa565b6001600160a01b03161461040f5760405162461bcd60e51b815260040161034590611e01565b600180546001600160a01b0319166001600160a01b0392909216919091179055565b6009818154811061044157600080fd5b60009182526020909120600290910201805460019091015490915082565b60008061047184846064600654610922565b50949350505050565b61048261091e565b6001600160a01b03166104936105fa565b6001600160a01b0316146104b95760405162461bcd60e51b815260040161034590611e01565b600080546040516001600160a01b03909116907f8be0079c531659141344cd1fd0a4f28419497f9722a3daafe3b4186f6b6457e0908390a3600080546001600160a01b0319169055565b60095415801590610558575060008181526007602052604090205460098054909190811061054157634e487b7160e01b600052603260045260246000fd5b906000526020600020906002020160000154600014155b6105745760405162461bcd60e51b815260040161034590611d35565b6000818152600860205260409020546001600160a01b031633146105aa5760405162461bcd60e51b815260040161034590611e36565b6105b381610a16565b50565b6105be61091e565b6001600160a01b03166105cf6105fa565b6001600160a01b0316146105f55760405162461bcd60e51b815260040161034590611e01565b600655565b6000546001600160a01b031690565b600a6020526000908152604090205481565b6002546040516331a9108f60e11b81526001600160a01b0390911690636352211e9061064b908490600401611ed7565b60206040518083038186803b15801561066357600080fd5b505afa158015610677573d6000803e3d6000fd5b505050506040513d601f19601f8201168201806040525081019061069b919061189e565b6001600160a01b0316336001600160a01b0316146106cb5760405162461bcd60e51b815260040161034590611e36565b336000908152600a602052604090205461071257336000908152600a602052604090207f000000000000000000000000000000000000000000000000000000000000000090555b600061071d82610be3565b9050801561073d5761072f8282610ddb565b61073881610a16565b610746565b61074682610f3a565b5050565b61075261091e565b6001600160a01b03166107636105fa565b6001600160a01b0316146107895760405162461bcd60e51b815260040161034590611e01565b600380546001600160a01b0319166001600160a01b0392909216919091179055565b63bc197c8160e01b95945050505050565b6008602052600090815260409020546001600160a01b031681565b6107df61091e565b6001600160a01b03166107f06105fa565b6001600160a01b0316146108165760405162461bcd60e51b815260040161034590611e01565b60038054911515600160a01b0260ff60a01b19909216919091179055565b63f23a6e6160e01b95945050505050565b61084d61091e565b6001600160a01b031661085e6105fa565b6001600160a01b0316146108845760405162461bcd60e51b815260040161034590611e01565b6001600160a01b0381166108aa5760405162461bcd60e51b815260040161034590611dbb565b600080546040516001600160a01b03808516939216917f8be0079c531659141344cd1fd0a4f28419497f9722a3daafe3b4186f6b6457e091a3600080546001600160a01b0319166001600160a01b0392909216919091179055565b6001600160e01b031981166301ffc9a760e01b14919050565b3390565b6000806127108302868610828161093b5788880361093f565b8789035b905061046681106109625760405162461bcd60e51b815260040161034590611d84565b81156109895761032081106109895760405162461bcd60e51b815260040161034590611d84565b6000806000806000866109a05785610320016109a6565b85610320035b94506109b8600a60198704600161104b565b93506109c384611109565b92508260640188816109e557634e487b7160e01b600052601260045260246000fd5b0491508b8b0290508181109850886109ff57818103610a03565b8082035b9950505050505050505094509492505050565b60025460008281526008602052604090819020549051635c46a7ef60e11b81526001600160a01b039283169263b88d4fde92610a5c923092909116908690600401611cb8565b600060405180830381600087803b158015610a7657600080fd5b505af1158015610a8a573d6000803e3d6000fd5b505050600082815260086020526040812080546001600160a01b0319169055600954909150610abb90600190611fcd565b9050600060098281548110610ae057634e487b7160e01b600052603260045260246000fd5b600091825260208083206002909202909101548583526007909152604080832054828452922091909155600980549192509083908110610b3057634e487b7160e01b600052603260045260246000fd5b90600052602060002090600202016009600760008681526020019081526020016000205481548110610b7257634e487b7160e01b600052603260045260246000fd5b6000918252602090912082546002909202019081556001918201549101556009805480610baf57634e487b7160e01b600052603160045260246000fd5b6000828152602080822060026000199094019384020182815560010182905591909255938152600790935250506040812055565b6000805b600954811015610dd257600060098281548110610c1457634e487b7160e01b600052603260045260246000fd5b906000526020600020906002020160000154905083821480610c615750600354600160a01b900460ff16158015610c6157506000818152600860205260409020546001600160a01b031633145b15610c6c5750610dc2565b6000603c60098481548110610c9157634e487b7160e01b600052603260045260246000fd5b90600052602060002090600202016001015442610cae9190611fcd565b610cb9906078611f6f565b610cc39190611f4f565b90506000607860055483610cd79190611f6f565b610ce19190611f4f565b600454610cee9190611f37565b6000848152600860209081526040808320546001600160a01b03168352600a909152902054909150610d21908290611fcd565b336000908152600a6020526040902054118015610d7b57506000838152600860209081526040808320546001600160a01b03168352600a909152902054610d69908290611f37565b336000908152600a6020526040902054105b15610dbe5760098481548110610da157634e487b7160e01b600052603260045260246000fd5b906000526020600020906002020160000154945050505050610301565b5050505b610dcb81611fe4565b9050610be7565b50600092915050565b6000806000610dea8585611122565b925092509250816001600160a01b0316836001600160a01b03167f9b5363c49f40791b738dbe0ba63e6fa52ed52213cf8d4a2f3724e1389d72f14f83604051610e339190611ed7565b60405180910390a36001600160a01b038084166000908152600a60205260408082205492851682528120549091606491610e6d919061045f565b610e779190611f4f565b6001600160a01b0385166000908152600a6020526040812080549293508392909190610ea4908490611f37565b90915550506001600160a01b0383166000908152600a6020526040812054610ecd908390611f8e565b1315610f15576001600160a01b0383166000908152600a6020526040902054610ef7908290611fcd565b6001600160a01b0384166000908152600a6020526040902055610f32565b6001600160a01b0383166000908152600a60205260409020600190555b505050505050565b6000818152600860205260409081902080546001600160a01b031916339081179091556002549151635c46a7ef60e11b81526001600160a01b03929092169163b88d4fde91610f8f9130908690600401611cb8565b600060405180830381600087803b158015610fa957600080fd5b505af1158015610fbd573d6000803e3d6000fd5b505060098054600085815260076020908152604080832084905580518082019091529687524290870190815260018301845592905293517f6e1540171b6c0c960b71a7020d9f60077f6af931a8bbf590da0223dacf75c7af600290950294850155517f6e1540171b6c0c960b71a7020d9f60077f6af931a8bbf590da0223dacf75c7b0909301929092555050565b60008380156110eb576001841680156110665785925061106a565b8392505b508260011c8460011c94505b84156110e5578560801c1561108a57600080fd5b8586028181018181101561109d57600080fd5b85900496505060018516156110da5785830283878204146110c35786156110c357600080fd5b818101818110156110d357600080fd5b8590049350505b8460011c9450611076565b50611101565b8380156110fb57600092506110ff565b8392505b505b509392505050565b60006102fe61111d61111d61111d85611293565b611293565b6001546000828152600860205260408082205490516331acd38760e21b8152919283928392839283926001600160a01b039182169263c6b34e1c926111719233928d9216908c90600401611ceb565b611c2060405180830381600087803b15801561118c57600080fd5b505af11580156111a0573d6000803e3d6000fd5b505050506040513d601f19601f820116820180604052508101906111c49190611ab3565b60015460405163abd6b07560e01b81529294509092506000916001600160a01b039091169063abd6b075906111fd908690600401611e6b565b611c206040518083038186803b15801561121657600080fd5b505afa15801561122a573d6000803e3d6000fd5b505050506040513d601f19601f8201168201806040525081019061124e9190611a7a565b9150600090506001600160a01b038216331461126a5733611283565b6000888152600860205260409020546001600160a01b03165b9199919850919650945050505050565b600181600160801b81106112ac5760409190911b9060801c5b6801000000000000000081106112c75760209190911b9060401c5b64010000000081106112de5760109190911b9060201c5b6201000081106112f35760089190911b9060101c5b61010081106113075760049190911b9060081c5b6010811061131a5760029190911b9060041c5b60088110611329578160011b91505b5080820401600190811c80830401811c80830401811c80830401811c80830401811c80830401811c80830401901c80820481811015611366578091505b50919050565b600082601f83011261137c578081fd5b600561138f61138a82611f17565b611eee565b8084866103c0870111156113a1578485fd5b845b8481101561147a5781880360c0808212156113bc578788fd5b604080518181016001600160401b0382821081831117156113df576113df61202b565b9083528651825260209060a0601f1987018113156113fb578c8dfd5b8451965080870187811083821117156114165761141661202b565b855288830151875288850151878401526060808a01519092506006811061143b578d8efd5b80868901525060809450611450858a01611652565b918701919091528701519285019290925280820193909352918652940193909101906001016113a3565b50909695505050505050565b600082601f830112611496578081fd5b6040516107808082018281106001600160401b03821117156114ba576114ba61202b565b60405281848281018710156114cd578485fd5b8492505b603c8310156114f1578051825260019290920191602091820191016114d1565b509195945050505050565b600082601f83011261150c578081fd5b6040516101008082018281106001600160401b03821117156115305761153061202b565b6040528184828101871015611543578485fd5b8492505b60088310156114f157805182526001929092019160209182019101611547565b600082601f830112611577578081fd5b813560206001600160401b038211156115925761159261202b565b8082026115a0828201611eee565b8381528281019086840183880185018910156115ba578687fd5b8693505b858410156115dc5780358352600193909301929184019184016115be565b50979650505050505050565b600082601f8301126115f8578081fd5b81356001600160401b038111156116115761161161202b565b611624601f8201601f1916602001611eee565b818152846020838601011115611638578283fd5b816020850160208301379081016020019190915292915050565b80516002811061030157600080fd5b6000611c008284031215611673578081fd5b60405160c081018181106001600160401b03821117156116955761169561202b565b604052825181529050806116ac8460208501611772565b60208201526116bf84610de08501611772565b6040820152611ba083015160608201526116dc611bc08401611652565b60808201526116ee611be08401611652565b60a08201525092915050565b600060c0828403121561170b578081fd5b60405160c081018181106001600160401b038211171561172d5761172d61202b565b8060405250809150825181526020830151602082015260408301516040820152606083015160608201526080830151608082015260a083015160a08201525092915050565b6000818303610dc0811215611785578182fd5b6040805160a081016001600160401b0382821081831117156117a9576117a961202b565b818452829550865191506117bc82612051565b818352602087015160208401526105e0603f19860112156117dc57600080fd5b8351945060c08501915084821081831117156117fa576117fa61202b565b5082528482015183526060850151602084015261181a86608087016116fa565b8284015261182c8661014087016114fc565b6060840152610240850151608084015261184a86610260870161136c565b60a08401528282820152611862866106208701611486565b6060820152610da0850151608082015250505092915050565b60006020828403121561188c578081fd5b813561189781612051565b9392505050565b6000602082840312156118af578081fd5b815161189781612051565b600080600080600060a086880312156118d1578081fd5b85356118dc81612051565b945060208601356118ec81612051565b935060408601356001600160401b0380821115611907578283fd5b61191389838a01611567565b94506060880135915080821115611928578283fd5b61193489838a01611567565b93506080880135915080821115611949578283fd5b50611956888289016115e8565b9150509295509295909350565b60008060008060808587031215611978578182fd5b843561198381612051565b9350602085013561199381612051565b92506040850135915060608501356001600160401b038111156119b4578182fd5b6119c0878288016115e8565b91505092959194509250565b600080600080600060a086880312156119e3578283fd5b85356119ee81612051565b945060208601356119fe81612051565b9350604086013592506060860135915060808601356001600160401b03811115611a26578182fd5b611956888289016115e8565b600060208284031215611a43578081fd5b81358015158114611897578182fd5b600060208284031215611a63578081fd5b81356001600160e01b031981168114611897578182fd5b600080611c208385031215611a8d578182fd5b611a978484611661565b9150611c00830151611aa881612051565b809150509250929050565b600080611c208385031215611ac6578182fd5b611ad08484611661565b9150611c0083015190509250929050565b600060208284031215611af2578081fd5b5035919050565b60008060408385031215611b0b578182fd5b50508035926020909101359150565b8060005b6005811015611b975781518051855260209081015180518287015280820151604080880191909152810151909190606060068210611b5e57611b5e612015565b878101919091528201516080611b7382612041565b87810191909152919091015160a086015260c0909401939190910190600101611b1e565b50505050565b8060005b603c811015611b97578151845260209384019390910190600101611ba1565b8060005b6008811015611b97578151845260209384019390910190600101611bc4565b60018060a01b0381511682526020810151602083015260408101518051604084015260208101516060840152604081015180516080850152602081015160a0850152604081015160c0850152606081015160e0850152608081015161010085015260a0810151610120850152506060810151611c63610140850182611bc0565b50608081015161024084015260a00151611c81610260840182611b1a565b506060810151611c95610620840182611b9d565b5060800151610da09190910152565b6001600160a01b0391909116815260200190565b6001600160a01b039384168152919092166020820152604081019190915260806060820181905260009082015260a00190565b6001600160a01b039485168152602081019390935292166040820152606081019190915260800190565b901515815260200190565b6001600160e01b031991909116815260200190565b6020808252602f908201527f506570656d6f6e4d617463686d616b65723a204465636b206973206e6f74206960408201526e1b881d1a19481dd85a5d081b1a5cdd608a1b606082015260800190565b6020808252601b908201527f526174696e6720646966666572656e636520746f6f206c617267650000000000604082015260600190565b60208082526026908201527f4f776e61626c653a206e6577206f776e657220697320746865207a65726f206160408201526564647265737360d01b606082015260800190565b6020808252818101527f4f776e61626c653a2063616c6c6572206973206e6f7420746865206f776e6572604082015260600190565b6020808252818101527f506570656d6f6e4d617463686d616b65723a204e6f7420796f7572206465636b604082015260600190565b81518152602080830151611c00830191611e8790840182611be3565b506040830151611e9b610de0840182611be3565b506060830151611ba08301526080830151611eb581612041565b611bc083015260a0830151611ec981612041565b80611be08401525092915050565b90815260200190565b918252602082015260400190565b6040518181016001600160401b0381118282101715611f0f57611f0f61202b565b604052919050565b60006001600160401b03821115611f3057611f3061202b565b5060200290565b60008219821115611f4a57611f4a611fff565b500190565b600082611f6a57634e487b7160e01b81526012600452602481fd5b500490565b6000816000190483118215151615611f8957611f89611fff565b500290565b60008083128015600160ff1b850184121615611fac57611fac611fff565b6001600160ff1b0384018313811615611fc757611fc7611fff565b50500390565b600082821015611fdf57611fdf611fff565b500390565b6000600019821415611ff857611ff8611fff565b5060010190565b634e487b7160e01b600052601160045260246000fd5b634e487b7160e01b600052602160045260246000fd5b634e487b7160e01b600052604160045260246000fd5b600281106105b3576105b3612015565b6001600160a01b03811681146105b357600080fdfea2646970667358221220318b6b7757a99b013aa4ff7137b118d35fbd90dfadcce065553d61a806b715a764736f6c63430008000033",
  "devdoc": {
    "kind": "dev",
    "methods": {
      "enter(uint256)": {
        "params": {
          "deckId": "The Deck of who called this function"
        }
      },
      "exit(uint256)": {
        "params": {
          "deckId": "The Deck of the owner"
        }
      },
      "getEloRatingChange(uint256,uint256)": {
        "details": "The returned number has 2 decimals of precision, so 1501 = 15.01 Elo change"
      },
      "onERC721Received(address,address,uint256,bytes)": {
        "details": "See {IERC721Receiver-onERC721Received}. Always returns `IERC721Receiver.onERC721Received.selector`."
      },
      "owner()": {
        "details": "Returns the address of the current owner."
      },
      "renounceOwnership()": {
        "details": "Leaves the contract without owner. It will not be possible to call `onlyOwner` functions anymore. Can only be called by the current owner. NOTE: Renouncing ownership will leave the contract without an owner, thereby removing any functionality that is only available to the owner."
      },
      "setKFactor(uint256)": {
        "details": "Dictates the rate of change, has a direct influence on how much a player wins/loses in the ranking",
        "params": {
          "kFactor": "Value used to calculate the rate of change in getEloRatingChange"
        }
      },
      "supportsInterface(bytes4)": {
        "details": "See {IERC165-supportsInterface}."
      },
      "transferOwnership(address)": {
        "details": "Transfers ownership of the contract to a new account (`newOwner`). Can only be called by the current owner."
      }
    },
    "version": 1
  },
  "userdoc": {
    "kind": "user",
    "methods": {
      "enter(uint256)": {
        "notice": "Tries to initiate a battle using a specified deck. If no opponents are found, the deck is placed in a wait list."
      },
      "exit(uint256)": {
        "notice": "Transfers a deck back to its owner and removes from the wait list"
      },
      "getEloRatingChange(uint256,uint256)": {
        "notice": "Calculates the Elo change based on the winner's and loser's ratings."
      },
      "getWaitingCount()": {
        "notice": "Retrieves the number of waiting decks"
      }
    },
    "version": 1
  },
  "storageLayout": {
    "storage": [
      {
        "astId": 273,
        "contract": "contracts/PepemonMatchmaker.sol:PepemonMatchmaker",
        "label": "_owner",
        "offset": 0,
        "slot": "0",
        "type": "t_address"
      },
      {
        "astId": 6999,
        "contract": "contracts/PepemonMatchmaker.sol:PepemonMatchmaker",
        "label": "_battleAddress",
        "offset": 0,
        "slot": "1",
        "type": "t_address"
      },
      {
        "astId": 7001,
        "contract": "contracts/PepemonMatchmaker.sol:PepemonMatchmaker",
        "label": "_deckAddress",
        "offset": 0,
        "slot": "2",
        "type": "t_address"
      },
      {
        "astId": 7003,
        "contract": "contracts/PepemonMatchmaker.sol:PepemonMatchmaker",
        "label": "_rewardPoolAddress",
        "offset": 0,
        "slot": "3",
        "type": "t_address"
      },
      {
        "astId": 7005,
        "contract": "contracts/PepemonMatchmaker.sol:PepemonMatchmaker",
        "label": "_allowBattleAgainstOneself",
        "offset": 20,
        "slot": "3",
        "type": "t_bool"
      },
      {
        "astId": 7010,
        "contract": "contracts/PepemonMatchmaker.sol:PepemonMatchmaker",
        "label": "_matchRange",
        "offset": 0,
        "slot": "4",
        "type": "t_uint256"
      },
      {
        "astId": 7013,
        "contract": "contracts/PepemonMatchmaker.sol:PepemonMatchmaker",
        "label": "_matchRangePerMinute",
        "offset": 0,
        "slot": "5",
        "type": "t_uint256"
      },
      {
        "astId": 7016,
        "contract": "contracts/PepemonMatchmaker.sol:PepemonMatchmaker",
        "label": "_kFactor",
        "offset": 0,
        "slot": "6",
        "type": "t_uint256"
      },
      {
        "astId": 7020,
        "contract": "contracts/PepemonMatchmaker.sol:PepemonMatchmaker",
        "label": "_waitingDecksIndex",
        "offset": 0,
        "slot": "7",
        "type": "t_mapping(t_uint256,t_uint256)"
      },
      {
        "astId": 7024,
        "contract": "contracts/PepemonMatchmaker.sol:PepemonMatchmaker",
        "label": "deckOwner",
        "offset": 0,
        "slot": "8",
        "type": "t_mapping(t_uint256,t_address)"
      },
      {
        "astId": 7028,
        "contract": "contracts/PepemonMatchmaker.sol:PepemonMatchmaker",
        "label": "waitingDecks",
        "offset": 0,
        "slot": "9",
        "type": "t_array(t_struct(waitingDeckData)6997_storage)dyn_storage"
      },
      {
        "astId": 7032,
        "contract": "contracts/PepemonMatchmaker.sol:PepemonMatchmaker",
        "label": "playerRanking",
        "offset": 0,
        "slot": "10",
        "type": "t_mapping(t_address,t_uint256)"
      }
    ],
    "types": {
      "t_address": {
        "encoding": "inplace",
        "label": "address",
        "numberOfBytes": "20"
      },
      "t_array(t_struct(waitingDeckData)6997_storage)dyn_storage": {
        "base": "t_struct(waitingDeckData)6997_storage",
        "encoding": "dynamic_array",
        "label": "struct PepemonMatchmaker.waitingDeckData[]",
        "numberOfBytes": "32"
      },
      "t_bool": {
        "encoding": "inplace",
        "label": "bool",
        "numberOfBytes": "1"
      },
      "t_mapping(t_address,t_uint256)": {
        "encoding": "mapping",
        "key": "t_address",
        "label": "mapping(address => uint256)",
        "numberOfBytes": "32",
        "value": "t_uint256"
      },
      "t_mapping(t_uint256,t_address)": {
        "encoding": "mapping",
        "key": "t_uint256",
        "label": "mapping(uint256 => address)",
        "numberOfBytes": "32",
        "value": "t_address"
      },
      "t_mapping(t_uint256,t_uint256)": {
        "encoding": "mapping",
        "key": "t_uint256",
        "label": "mapping(uint256 => uint256)",
        "numberOfBytes": "32",
        "value": "t_uint256"
      },
      "t_struct(waitingDeckData)6997_storage": {
        "encoding": "inplace",
        "label": "struct PepemonMatchmaker.waitingDeckData",
        "members": [
          {
            "astId": 6994,
            "contract": "contracts/PepemonMatchmaker.sol:PepemonMatchmaker",
            "label": "deckId",
            "offset": 0,
            "slot": "0",
            "type": "t_uint256"
          },
          {
            "astId": 6996,
            "contract": "contracts/PepemonMatchmaker.sol:PepemonMatchmaker",
            "label": "enterTimestamp",
            "offset": 0,
            "slot": "1",
            "type": "t_uint256"
          }
        ],
        "numberOfBytes": "64"
      },
      "t_uint256": {
        "encoding": "inplace",
        "label": "uint256",
        "numberOfBytes": "32"
      }
    }
  }
}