{
  "address": "0x4b8a5c488F8D1094555c8875fF5c47D6eFb62Ab2",
  "abi": [
    {
      "inputs": [
        {
          "internalType": "address",
          "name": "cardOracleAddress",
          "type": "address"
        },
        {
          "internalType": "address",
          "name": "deckOracleAddress",
          "type": "address"
        },
        {
          "internalType": "address",
          "name": "randOracleAddress",
          "type": "address"
        }
      ],
      "stateMutability": "nonpayable",
      "type": "constructor"
    },
    {
      "anonymous": false,
      "inputs": [
        {
          "indexed": true,
          "internalType": "address",
          "name": "account",
          "type": "address"
        }
      ],
      "name": "AdminAdded",
      "type": "event"
    },
    {
      "anonymous": false,
      "inputs": [
        {
          "indexed": true,
          "internalType": "address",
          "name": "account",
          "type": "address"
        }
      ],
      "name": "AdminRemoved",
      "type": "event"
    },
    {
      "anonymous": false,
      "inputs": [
        {
          "indexed": true,
          "internalType": "address",
          "name": "player1Addr",
          "type": "address"
        },
        {
          "indexed": true,
          "internalType": "address",
          "name": "player2Addr",
          "type": "address"
        },
        {
          "indexed": false,
          "internalType": "uint256",
          "name": "battleId",
          "type": "uint256"
        }
      ],
      "name": "BattleCreated",
      "type": "event"
    },
    {
      "inputs": [
        {
          "internalType": "address",
          "name": "account",
          "type": "address"
        }
      ],
      "name": "addAdmin",
      "outputs": [],
      "stateMutability": "nonpayable",
      "type": "function"
    },
    {
      "inputs": [
        {
          "internalType": "uint256",
          "name": "",
          "type": "uint256"
        }
      ],
      "name": "battleIdRNGSeed",
      "outputs": [
        {
          "internalType": "uint256",
          "name": "",
          "type": "uint256"
        }
      ],
      "stateMutability": "view",
      "type": "function"
    },
    {
      "inputs": [
        {
          "components": [
            {
              "internalType": "int256",
              "name": "health",
              "type": "int256"
            },
            {
              "internalType": "uint256",
              "name": "battleCardId",
              "type": "uint256"
            },
            {
              "components": [
                {
                  "internalType": "int256",
                  "name": "spd",
                  "type": "int256"
                },
                {
                  "internalType": "uint256",
                  "name": "inte",
                  "type": "uint256"
                },
                {
                  "internalType": "int256",
                  "name": "def",
                  "type": "int256"
                },
                {
                  "internalType": "int256",
                  "name": "atk",
                  "type": "int256"
                },
                {
                  "internalType": "int256",
                  "name": "sAtk",
                  "type": "int256"
                },
                {
                  "internalType": "int256",
                  "name": "sDef",
                  "type": "int256"
                }
              ],
              "internalType": "struct PepemonBattle.CurrentBattleCardStats",
              "name": "currentBCstats",
              "type": "tuple"
            },
            {
              "internalType": "uint256[8]",
              "name": "supportCardInHandIds",
              "type": "uint256[8]"
            },
            {
              "internalType": "uint256",
              "name": "tableSupportCardStats",
              "type": "uint256"
            },
            {
              "components": [
                {
                  "internalType": "uint256",
                  "name": "supportCardId",
                  "type": "uint256"
                },
                {
                  "components": [
                    {
                      "internalType": "int256",
                      "name": "power",
                      "type": "int256"
                    },
                    {
                      "internalType": "uint256",
                      "name": "numTurns",
                      "type": "uint256"
                    },
                    {
                      "internalType": "enum PepemonCardOracle.EffectTo",
                      "name": "effectTo",
                      "type": "uint8"
                    },
                    {
                      "internalType": "enum PepemonCardOracle.EffectFor",
                      "name": "effectFor",
                      "type": "uint8"
                    },
                    {
                      "internalType": "uint256",
                      "name": "reqCode",
                      "type": "uint256"
                    }
                  ],
                  "internalType": "struct PepemonCardOracle.EffectMany",
                  "name": "effectMany",
                  "type": "tuple"
                }
              ],
              "internalType": "struct PepemonBattle.TableSupportCardStats[5]",
              "name": "tableSupportCards",
              "type": "tuple[5]"
            }
          ],
          "internalType": "struct PepemonBattle.Hand",
          "name": "atkHand",
          "type": "tuple"
        },
        {
          "components": [
            {
              "internalType": "int256",
              "name": "health",
              "type": "int256"
            },
            {
              "internalType": "uint256",
              "name": "battleCardId",
              "type": "uint256"
            },
            {
              "components": [
                {
                  "internalType": "int256",
                  "name": "spd",
                  "type": "int256"
                },
                {
                  "internalType": "uint256",
                  "name": "inte",
                  "type": "uint256"
                },
                {
                  "internalType": "int256",
                  "name": "def",
                  "type": "int256"
                },
                {
                  "internalType": "int256",
                  "name": "atk",
                  "type": "int256"
                },
                {
                  "internalType": "int256",
                  "name": "sAtk",
                  "type": "int256"
                },
                {
                  "internalType": "int256",
                  "name": "sDef",
                  "type": "int256"
                }
              ],
              "internalType": "struct PepemonBattle.CurrentBattleCardStats",
              "name": "currentBCstats",
              "type": "tuple"
            },
            {
              "internalType": "uint256[8]",
              "name": "supportCardInHandIds",
              "type": "uint256[8]"
            },
            {
              "internalType": "uint256",
              "name": "tableSupportCardStats",
              "type": "uint256"
            },
            {
              "components": [
                {
                  "internalType": "uint256",
                  "name": "supportCardId",
                  "type": "uint256"
                },
                {
                  "components": [
                    {
                      "internalType": "int256",
                      "name": "power",
                      "type": "int256"
                    },
                    {
                      "internalType": "uint256",
                      "name": "numTurns",
                      "type": "uint256"
                    },
                    {
                      "internalType": "enum PepemonCardOracle.EffectTo",
                      "name": "effectTo",
                      "type": "uint8"
                    },
                    {
                      "internalType": "enum PepemonCardOracle.EffectFor",
                      "name": "effectFor",
                      "type": "uint8"
                    },
                    {
                      "internalType": "uint256",
                      "name": "reqCode",
                      "type": "uint256"
                    }
                  ],
                  "internalType": "struct PepemonCardOracle.EffectMany",
                  "name": "effectMany",
                  "type": "tuple"
                }
              ],
              "internalType": "struct PepemonBattle.TableSupportCardStats[5]",
              "name": "tableSupportCards",
              "type": "tuple[5]"
            }
          ],
          "internalType": "struct PepemonBattle.Hand",
          "name": "defHand",
          "type": "tuple"
        }
      ],
      "name": "calSupportCardsInHand",
      "outputs": [
        {
          "components": [
            {
              "internalType": "int256",
              "name": "health",
              "type": "int256"
            },
            {
              "internalType": "uint256",
              "name": "battleCardId",
              "type": "uint256"
            },
            {
              "components": [
                {
                  "internalType": "int256",
                  "name": "spd",
                  "type": "int256"
                },
                {
                  "internalType": "uint256",
                  "name": "inte",
                  "type": "uint256"
                },
                {
                  "internalType": "int256",
                  "name": "def",
                  "type": "int256"
                },
                {
                  "internalType": "int256",
                  "name": "atk",
                  "type": "int256"
                },
                {
                  "internalType": "int256",
                  "name": "sAtk",
                  "type": "int256"
                },
                {
                  "internalType": "int256",
                  "name": "sDef",
                  "type": "int256"
                }
              ],
              "internalType": "struct PepemonBattle.CurrentBattleCardStats",
              "name": "currentBCstats",
              "type": "tuple"
            },
            {
              "internalType": "uint256[8]",
              "name": "supportCardInHandIds",
              "type": "uint256[8]"
            },
            {
              "internalType": "uint256",
              "name": "tableSupportCardStats",
              "type": "uint256"
            },
            {
              "components": [
                {
                  "internalType": "uint256",
                  "name": "supportCardId",
                  "type": "uint256"
                },
                {
                  "components": [
                    {
                      "internalType": "int256",
                      "name": "power",
                      "type": "int256"
                    },
                    {
                      "internalType": "uint256",
                      "name": "numTurns",
                      "type": "uint256"
                    },
                    {
                      "internalType": "enum PepemonCardOracle.EffectTo",
                      "name": "effectTo",
                      "type": "uint8"
                    },
                    {
                      "internalType": "enum PepemonCardOracle.EffectFor",
                      "name": "effectFor",
                      "type": "uint8"
                    },
                    {
                      "internalType": "uint256",
                      "name": "reqCode",
                      "type": "uint256"
                    }
                  ],
                  "internalType": "struct PepemonCardOracle.EffectMany",
                  "name": "effectMany",
                  "type": "tuple"
                }
              ],
              "internalType": "struct PepemonBattle.TableSupportCardStats[5]",
              "name": "tableSupportCards",
              "type": "tuple[5]"
            }
          ],
          "internalType": "struct PepemonBattle.Hand",
          "name": "",
          "type": "tuple"
        },
        {
          "components": [
            {
              "internalType": "int256",
              "name": "health",
              "type": "int256"
            },
            {
              "internalType": "uint256",
              "name": "battleCardId",
              "type": "uint256"
            },
            {
              "components": [
                {
                  "internalType": "int256",
                  "name": "spd",
                  "type": "int256"
                },
                {
                  "internalType": "uint256",
                  "name": "inte",
                  "type": "uint256"
                },
                {
                  "internalType": "int256",
                  "name": "def",
                  "type": "int256"
                },
                {
                  "internalType": "int256",
                  "name": "atk",
                  "type": "int256"
                },
                {
                  "internalType": "int256",
                  "name": "sAtk",
                  "type": "int256"
                },
                {
                  "internalType": "int256",
                  "name": "sDef",
                  "type": "int256"
                }
              ],
              "internalType": "struct PepemonBattle.CurrentBattleCardStats",
              "name": "currentBCstats",
              "type": "tuple"
            },
            {
              "internalType": "uint256[8]",
              "name": "supportCardInHandIds",
              "type": "uint256[8]"
            },
            {
              "internalType": "uint256",
              "name": "tableSupportCardStats",
              "type": "uint256"
            },
            {
              "components": [
                {
                  "internalType": "uint256",
                  "name": "supportCardId",
                  "type": "uint256"
                },
                {
                  "components": [
                    {
                      "internalType": "int256",
                      "name": "power",
                      "type": "int256"
                    },
                    {
                      "internalType": "uint256",
                      "name": "numTurns",
                      "type": "uint256"
                    },
                    {
                      "internalType": "enum PepemonCardOracle.EffectTo",
                      "name": "effectTo",
                      "type": "uint8"
                    },
                    {
                      "internalType": "enum PepemonCardOracle.EffectFor",
                      "name": "effectFor",
                      "type": "uint8"
                    },
                    {
                      "internalType": "uint256",
                      "name": "reqCode",
                      "type": "uint256"
                    }
                  ],
                  "internalType": "struct PepemonCardOracle.EffectMany",
                  "name": "effectMany",
                  "type": "tuple"
                }
              ],
              "internalType": "struct PepemonBattle.TableSupportCardStats[5]",
              "name": "tableSupportCards",
              "type": "tuple[5]"
            }
          ],
          "internalType": "struct PepemonBattle.Hand",
          "name": "",
          "type": "tuple"
        }
      ],
      "stateMutability": "view",
      "type": "function"
    },
    {
      "inputs": [
        {
          "components": [
            {
              "internalType": "uint256",
              "name": "battleId",
              "type": "uint256"
            },
            {
              "components": [
                {
                  "internalType": "address",
                  "name": "playerAddr",
                  "type": "address"
                },
                {
                  "internalType": "uint256",
                  "name": "deckId",
                  "type": "uint256"
                },
                {
                  "components": [
                    {
                      "internalType": "int256",
                      "name": "health",
                      "type": "int256"
                    },
                    {
                      "internalType": "uint256",
                      "name": "battleCardId",
                      "type": "uint256"
                    },
                    {
                      "components": [
                        {
                          "internalType": "int256",
                          "name": "spd",
                          "type": "int256"
                        },
                        {
                          "internalType": "uint256",
                          "name": "inte",
                          "type": "uint256"
                        },
                        {
                          "internalType": "int256",
                          "name": "def",
                          "type": "int256"
                        },
                        {
                          "internalType": "int256",
                          "name": "atk",
                          "type": "int256"
                        },
                        {
                          "internalType": "int256",
                          "name": "sAtk",
                          "type": "int256"
                        },
                        {
                          "internalType": "int256",
                          "name": "sDef",
                          "type": "int256"
                        }
                      ],
                      "internalType": "struct PepemonBattle.CurrentBattleCardStats",
                      "name": "currentBCstats",
                      "type": "tuple"
                    },
                    {
                      "internalType": "uint256[8]",
                      "name": "supportCardInHandIds",
                      "type": "uint256[8]"
                    },
                    {
                      "internalType": "uint256",
                      "name": "tableSupportCardStats",
                      "type": "uint256"
                    },
                    {
                      "components": [
                        {
                          "internalType": "uint256",
                          "name": "supportCardId",
                          "type": "uint256"
                        },
                        {
                          "components": [
                            {
                              "internalType": "int256",
                              "name": "power",
                              "type": "int256"
                            },
                            {
                              "internalType": "uint256",
                              "name": "numTurns",
                              "type": "uint256"
                            },
                            {
                              "internalType": "enum PepemonCardOracle.EffectTo",
                              "name": "effectTo",
                              "type": "uint8"
                            },
                            {
                              "internalType": "enum PepemonCardOracle.EffectFor",
                              "name": "effectFor",
                              "type": "uint8"
                            },
                            {
                              "internalType": "uint256",
                              "name": "reqCode",
                              "type": "uint256"
                            }
                          ],
                          "internalType": "struct PepemonCardOracle.EffectMany",
                          "name": "effectMany",
                          "type": "tuple"
                        }
                      ],
                      "internalType": "struct PepemonBattle.TableSupportCardStats[5]",
                      "name": "tableSupportCards",
                      "type": "tuple[5]"
                    }
                  ],
                  "internalType": "struct PepemonBattle.Hand",
                  "name": "hand",
                  "type": "tuple"
                },
                {
                  "internalType": "uint256[60]",
                  "name": "totalSupportCardIds",
                  "type": "uint256[60]"
                },
                {
                  "internalType": "uint256",
                  "name": "playedCardCount",
                  "type": "uint256"
                }
              ],
              "internalType": "struct PepemonBattle.Player",
              "name": "player1",
              "type": "tuple"
            },
            {
              "components": [
                {
                  "internalType": "address",
                  "name": "playerAddr",
                  "type": "address"
                },
                {
                  "internalType": "uint256",
                  "name": "deckId",
                  "type": "uint256"
                },
                {
                  "components": [
                    {
                      "internalType": "int256",
                      "name": "health",
                      "type": "int256"
                    },
                    {
                      "internalType": "uint256",
                      "name": "battleCardId",
                      "type": "uint256"
                    },
                    {
                      "components": [
                        {
                          "internalType": "int256",
                          "name": "spd",
                          "type": "int256"
                        },
                        {
                          "internalType": "uint256",
                          "name": "inte",
                          "type": "uint256"
                        },
                        {
                          "internalType": "int256",
                          "name": "def",
                          "type": "int256"
                        },
                        {
                          "internalType": "int256",
                          "name": "atk",
                          "type": "int256"
                        },
                        {
                          "internalType": "int256",
                          "name": "sAtk",
                          "type": "int256"
                        },
                        {
                          "internalType": "int256",
                          "name": "sDef",
                          "type": "int256"
                        }
                      ],
                      "internalType": "struct PepemonBattle.CurrentBattleCardStats",
                      "name": "currentBCstats",
                      "type": "tuple"
                    },
                    {
                      "internalType": "uint256[8]",
                      "name": "supportCardInHandIds",
                      "type": "uint256[8]"
                    },
                    {
                      "internalType": "uint256",
                      "name": "tableSupportCardStats",
                      "type": "uint256"
                    },
                    {
                      "components": [
                        {
                          "internalType": "uint256",
                          "name": "supportCardId",
                          "type": "uint256"
                        },
                        {
                          "components": [
                            {
                              "internalType": "int256",
                              "name": "power",
                              "type": "int256"
                            },
                            {
                              "internalType": "uint256",
                              "name": "numTurns",
                              "type": "uint256"
                            },
                            {
                              "internalType": "enum PepemonCardOracle.EffectTo",
                              "name": "effectTo",
                              "type": "uint8"
                            },
                            {
                              "internalType": "enum PepemonCardOracle.EffectFor",
                              "name": "effectFor",
                              "type": "uint8"
                            },
                            {
                              "internalType": "uint256",
                              "name": "reqCode",
                              "type": "uint256"
                            }
                          ],
                          "internalType": "struct PepemonCardOracle.EffectMany",
                          "name": "effectMany",
                          "type": "tuple"
                        }
                      ],
                      "internalType": "struct PepemonBattle.TableSupportCardStats[5]",
                      "name": "tableSupportCards",
                      "type": "tuple[5]"
                    }
                  ],
                  "internalType": "struct PepemonBattle.Hand",
                  "name": "hand",
                  "type": "tuple"
                },
                {
                  "internalType": "uint256[60]",
                  "name": "totalSupportCardIds",
                  "type": "uint256[60]"
                },
                {
                  "internalType": "uint256",
                  "name": "playedCardCount",
                  "type": "uint256"
                }
              ],
              "internalType": "struct PepemonBattle.Player",
              "name": "player2",
              "type": "tuple"
            },
            {
              "internalType": "uint256",
              "name": "currentTurn",
              "type": "uint256"
            },
            {
              "internalType": "enum PepemonBattle.Attacker",
              "name": "attacker",
              "type": "uint8"
            },
            {
              "internalType": "enum PepemonBattle.TurnHalves",
              "name": "turnHalves",
              "type": "uint8"
            }
          ],
          "internalType": "struct PepemonBattle.Battle",
          "name": "battle",
          "type": "tuple"
        }
      ],
      "name": "checkIfBattleEnded",
      "outputs": [
        {
          "internalType": "bool",
          "name": "",
          "type": "bool"
        },
        {
          "internalType": "address",
          "name": "",
          "type": "address"
        }
      ],
      "stateMutability": "pure",
      "type": "function"
    },
    {
      "inputs": [
        {
          "internalType": "address",
          "name": "p1Addr",
          "type": "address"
        },
        {
          "internalType": "uint256",
          "name": "p1DeckId",
          "type": "uint256"
        },
        {
          "internalType": "address",
          "name": "p2Addr",
          "type": "address"
        },
        {
          "internalType": "uint256",
          "name": "p2DeckId",
          "type": "uint256"
        }
      ],
      "name": "createBattle",
      "outputs": [
        {
          "components": [
            {
              "internalType": "uint256",
              "name": "battleId",
              "type": "uint256"
            },
            {
              "components": [
                {
                  "internalType": "address",
                  "name": "playerAddr",
                  "type": "address"
                },
                {
                  "internalType": "uint256",
                  "name": "deckId",
                  "type": "uint256"
                },
                {
                  "components": [
                    {
                      "internalType": "int256",
                      "name": "health",
                      "type": "int256"
                    },
                    {
                      "internalType": "uint256",
                      "name": "battleCardId",
                      "type": "uint256"
                    },
                    {
                      "components": [
                        {
                          "internalType": "int256",
                          "name": "spd",
                          "type": "int256"
                        },
                        {
                          "internalType": "uint256",
                          "name": "inte",
                          "type": "uint256"
                        },
                        {
                          "internalType": "int256",
                          "name": "def",
                          "type": "int256"
                        },
                        {
                          "internalType": "int256",
                          "name": "atk",
                          "type": "int256"
                        },
                        {
                          "internalType": "int256",
                          "name": "sAtk",
                          "type": "int256"
                        },
                        {
                          "internalType": "int256",
                          "name": "sDef",
                          "type": "int256"
                        }
                      ],
                      "internalType": "struct PepemonBattle.CurrentBattleCardStats",
                      "name": "currentBCstats",
                      "type": "tuple"
                    },
                    {
                      "internalType": "uint256[8]",
                      "name": "supportCardInHandIds",
                      "type": "uint256[8]"
                    },
                    {
                      "internalType": "uint256",
                      "name": "tableSupportCardStats",
                      "type": "uint256"
                    },
                    {
                      "components": [
                        {
                          "internalType": "uint256",
                          "name": "supportCardId",
                          "type": "uint256"
                        },
                        {
                          "components": [
                            {
                              "internalType": "int256",
                              "name": "power",
                              "type": "int256"
                            },
                            {
                              "internalType": "uint256",
                              "name": "numTurns",
                              "type": "uint256"
                            },
                            {
                              "internalType": "enum PepemonCardOracle.EffectTo",
                              "name": "effectTo",
                              "type": "uint8"
                            },
                            {
                              "internalType": "enum PepemonCardOracle.EffectFor",
                              "name": "effectFor",
                              "type": "uint8"
                            },
                            {
                              "internalType": "uint256",
                              "name": "reqCode",
                              "type": "uint256"
                            }
                          ],
                          "internalType": "struct PepemonCardOracle.EffectMany",
                          "name": "effectMany",
                          "type": "tuple"
                        }
                      ],
                      "internalType": "struct PepemonBattle.TableSupportCardStats[5]",
                      "name": "tableSupportCards",
                      "type": "tuple[5]"
                    }
                  ],
                  "internalType": "struct PepemonBattle.Hand",
                  "name": "hand",
                  "type": "tuple"
                },
                {
                  "internalType": "uint256[60]",
                  "name": "totalSupportCardIds",
                  "type": "uint256[60]"
                },
                {
                  "internalType": "uint256",
                  "name": "playedCardCount",
                  "type": "uint256"
                }
              ],
              "internalType": "struct PepemonBattle.Player",
              "name": "player1",
              "type": "tuple"
            },
            {
              "components": [
                {
                  "internalType": "address",
                  "name": "playerAddr",
                  "type": "address"
                },
                {
                  "internalType": "uint256",
                  "name": "deckId",
                  "type": "uint256"
                },
                {
                  "components": [
                    {
                      "internalType": "int256",
                      "name": "health",
                      "type": "int256"
                    },
                    {
                      "internalType": "uint256",
                      "name": "battleCardId",
                      "type": "uint256"
                    },
                    {
                      "components": [
                        {
                          "internalType": "int256",
                          "name": "spd",
                          "type": "int256"
                        },
                        {
                          "internalType": "uint256",
                          "name": "inte",
                          "type": "uint256"
                        },
                        {
                          "internalType": "int256",
                          "name": "def",
                          "type": "int256"
                        },
                        {
                          "internalType": "int256",
                          "name": "atk",
                          "type": "int256"
                        },
                        {
                          "internalType": "int256",
                          "name": "sAtk",
                          "type": "int256"
                        },
                        {
                          "internalType": "int256",
                          "name": "sDef",
                          "type": "int256"
                        }
                      ],
                      "internalType": "struct PepemonBattle.CurrentBattleCardStats",
                      "name": "currentBCstats",
                      "type": "tuple"
                    },
                    {
                      "internalType": "uint256[8]",
                      "name": "supportCardInHandIds",
                      "type": "uint256[8]"
                    },
                    {
                      "internalType": "uint256",
                      "name": "tableSupportCardStats",
                      "type": "uint256"
                    },
                    {
                      "components": [
                        {
                          "internalType": "uint256",
                          "name": "supportCardId",
                          "type": "uint256"
                        },
                        {
                          "components": [
                            {
                              "internalType": "int256",
                              "name": "power",
                              "type": "int256"
                            },
                            {
                              "internalType": "uint256",
                              "name": "numTurns",
                              "type": "uint256"
                            },
                            {
                              "internalType": "enum PepemonCardOracle.EffectTo",
                              "name": "effectTo",
                              "type": "uint8"
                            },
                            {
                              "internalType": "enum PepemonCardOracle.EffectFor",
                              "name": "effectFor",
                              "type": "uint8"
                            },
                            {
                              "internalType": "uint256",
                              "name": "reqCode",
                              "type": "uint256"
                            }
                          ],
                          "internalType": "struct PepemonCardOracle.EffectMany",
                          "name": "effectMany",
                          "type": "tuple"
                        }
                      ],
                      "internalType": "struct PepemonBattle.TableSupportCardStats[5]",
                      "name": "tableSupportCards",
                      "type": "tuple[5]"
                    }
                  ],
                  "internalType": "struct PepemonBattle.Hand",
                  "name": "hand",
                  "type": "tuple"
                },
                {
                  "internalType": "uint256[60]",
                  "name": "totalSupportCardIds",
                  "type": "uint256[60]"
                },
                {
                  "internalType": "uint256",
                  "name": "playedCardCount",
                  "type": "uint256"
                }
              ],
              "internalType": "struct PepemonBattle.Player",
              "name": "player2",
              "type": "tuple"
            },
            {
              "internalType": "uint256",
              "name": "currentTurn",
              "type": "uint256"
            },
            {
              "internalType": "enum PepemonBattle.Attacker",
              "name": "attacker",
              "type": "uint8"
            },
            {
              "internalType": "enum PepemonBattle.TurnHalves",
              "name": "turnHalves",
              "type": "uint8"
            }
          ],
          "internalType": "struct PepemonBattle.Battle",
          "name": "",
          "type": "tuple"
        },
        {
          "internalType": "uint256",
          "name": "battleId",
          "type": "uint256"
        }
      ],
      "stateMutability": "nonpayable",
      "type": "function"
    },
    {
      "inputs": [
        {
          "components": [
            {
              "internalType": "uint256",
              "name": "battleId",
              "type": "uint256"
            },
            {
              "components": [
                {
                  "internalType": "address",
                  "name": "playerAddr",
                  "type": "address"
                },
                {
                  "internalType": "uint256",
                  "name": "deckId",
                  "type": "uint256"
                },
                {
                  "components": [
                    {
                      "internalType": "int256",
                      "name": "health",
                      "type": "int256"
                    },
                    {
                      "internalType": "uint256",
                      "name": "battleCardId",
                      "type": "uint256"
                    },
                    {
                      "components": [
                        {
                          "internalType": "int256",
                          "name": "spd",
                          "type": "int256"
                        },
                        {
                          "internalType": "uint256",
                          "name": "inte",
                          "type": "uint256"
                        },
                        {
                          "internalType": "int256",
                          "name": "def",
                          "type": "int256"
                        },
                        {
                          "internalType": "int256",
                          "name": "atk",
                          "type": "int256"
                        },
                        {
                          "internalType": "int256",
                          "name": "sAtk",
                          "type": "int256"
                        },
                        {
                          "internalType": "int256",
                          "name": "sDef",
                          "type": "int256"
                        }
                      ],
                      "internalType": "struct PepemonBattle.CurrentBattleCardStats",
                      "name": "currentBCstats",
                      "type": "tuple"
                    },
                    {
                      "internalType": "uint256[8]",
                      "name": "supportCardInHandIds",
                      "type": "uint256[8]"
                    },
                    {
                      "internalType": "uint256",
                      "name": "tableSupportCardStats",
                      "type": "uint256"
                    },
                    {
                      "components": [
                        {
                          "internalType": "uint256",
                          "name": "supportCardId",
                          "type": "uint256"
                        },
                        {
                          "components": [
                            {
                              "internalType": "int256",
                              "name": "power",
                              "type": "int256"
                            },
                            {
                              "internalType": "uint256",
                              "name": "numTurns",
                              "type": "uint256"
                            },
                            {
                              "internalType": "enum PepemonCardOracle.EffectTo",
                              "name": "effectTo",
                              "type": "uint8"
                            },
                            {
                              "internalType": "enum PepemonCardOracle.EffectFor",
                              "name": "effectFor",
                              "type": "uint8"
                            },
                            {
                              "internalType": "uint256",
                              "name": "reqCode",
                              "type": "uint256"
                            }
                          ],
                          "internalType": "struct PepemonCardOracle.EffectMany",
                          "name": "effectMany",
                          "type": "tuple"
                        }
                      ],
                      "internalType": "struct PepemonBattle.TableSupportCardStats[5]",
                      "name": "tableSupportCards",
                      "type": "tuple[5]"
                    }
                  ],
                  "internalType": "struct PepemonBattle.Hand",
                  "name": "hand",
                  "type": "tuple"
                },
                {
                  "internalType": "uint256[60]",
                  "name": "totalSupportCardIds",
                  "type": "uint256[60]"
                },
                {
                  "internalType": "uint256",
                  "name": "playedCardCount",
                  "type": "uint256"
                }
              ],
              "internalType": "struct PepemonBattle.Player",
              "name": "player1",
              "type": "tuple"
            },
            {
              "components": [
                {
                  "internalType": "address",
                  "name": "playerAddr",
                  "type": "address"
                },
                {
                  "internalType": "uint256",
                  "name": "deckId",
                  "type": "uint256"
                },
                {
                  "components": [
                    {
                      "internalType": "int256",
                      "name": "health",
                      "type": "int256"
                    },
                    {
                      "internalType": "uint256",
                      "name": "battleCardId",
                      "type": "uint256"
                    },
                    {
                      "components": [
                        {
                          "internalType": "int256",
                          "name": "spd",
                          "type": "int256"
                        },
                        {
                          "internalType": "uint256",
                          "name": "inte",
                          "type": "uint256"
                        },
                        {
                          "internalType": "int256",
                          "name": "def",
                          "type": "int256"
                        },
                        {
                          "internalType": "int256",
                          "name": "atk",
                          "type": "int256"
                        },
                        {
                          "internalType": "int256",
                          "name": "sAtk",
                          "type": "int256"
                        },
                        {
                          "internalType": "int256",
                          "name": "sDef",
                          "type": "int256"
                        }
                      ],
                      "internalType": "struct PepemonBattle.CurrentBattleCardStats",
                      "name": "currentBCstats",
                      "type": "tuple"
                    },
                    {
                      "internalType": "uint256[8]",
                      "name": "supportCardInHandIds",
                      "type": "uint256[8]"
                    },
                    {
                      "internalType": "uint256",
                      "name": "tableSupportCardStats",
                      "type": "uint256"
                    },
                    {
                      "components": [
                        {
                          "internalType": "uint256",
                          "name": "supportCardId",
                          "type": "uint256"
                        },
                        {
                          "components": [
                            {
                              "internalType": "int256",
                              "name": "power",
                              "type": "int256"
                            },
                            {
                              "internalType": "uint256",
                              "name": "numTurns",
                              "type": "uint256"
                            },
                            {
                              "internalType": "enum PepemonCardOracle.EffectTo",
                              "name": "effectTo",
                              "type": "uint8"
                            },
                            {
                              "internalType": "enum PepemonCardOracle.EffectFor",
                              "name": "effectFor",
                              "type": "uint8"
                            },
                            {
                              "internalType": "uint256",
                              "name": "reqCode",
                              "type": "uint256"
                            }
                          ],
                          "internalType": "struct PepemonCardOracle.EffectMany",
                          "name": "effectMany",
                          "type": "tuple"
                        }
                      ],
                      "internalType": "struct PepemonBattle.TableSupportCardStats[5]",
                      "name": "tableSupportCards",
                      "type": "tuple[5]"
                    }
                  ],
                  "internalType": "struct PepemonBattle.Hand",
                  "name": "hand",
                  "type": "tuple"
                },
                {
                  "internalType": "uint256[60]",
                  "name": "totalSupportCardIds",
                  "type": "uint256[60]"
                },
                {
                  "internalType": "uint256",
                  "name": "playedCardCount",
                  "type": "uint256"
                }
              ],
              "internalType": "struct PepemonBattle.Player",
              "name": "player2",
              "type": "tuple"
            },
            {
              "internalType": "uint256",
              "name": "currentTurn",
              "type": "uint256"
            },
            {
              "internalType": "enum PepemonBattle.Attacker",
              "name": "attacker",
              "type": "uint8"
            },
            {
              "internalType": "enum PepemonBattle.TurnHalves",
              "name": "turnHalves",
              "type": "uint8"
            }
          ],
          "internalType": "struct PepemonBattle.Battle",
          "name": "battle",
          "type": "tuple"
        }
      ],
      "name": "fight",
      "outputs": [
        {
          "components": [
            {
              "internalType": "uint256",
              "name": "battleId",
              "type": "uint256"
            },
            {
              "components": [
                {
                  "internalType": "address",
                  "name": "playerAddr",
                  "type": "address"
                },
                {
                  "internalType": "uint256",
                  "name": "deckId",
                  "type": "uint256"
                },
                {
                  "components": [
                    {
                      "internalType": "int256",
                      "name": "health",
                      "type": "int256"
                    },
                    {
                      "internalType": "uint256",
                      "name": "battleCardId",
                      "type": "uint256"
                    },
                    {
                      "components": [
                        {
                          "internalType": "int256",
                          "name": "spd",
                          "type": "int256"
                        },
                        {
                          "internalType": "uint256",
                          "name": "inte",
                          "type": "uint256"
                        },
                        {
                          "internalType": "int256",
                          "name": "def",
                          "type": "int256"
                        },
                        {
                          "internalType": "int256",
                          "name": "atk",
                          "type": "int256"
                        },
                        {
                          "internalType": "int256",
                          "name": "sAtk",
                          "type": "int256"
                        },
                        {
                          "internalType": "int256",
                          "name": "sDef",
                          "type": "int256"
                        }
                      ],
                      "internalType": "struct PepemonBattle.CurrentBattleCardStats",
                      "name": "currentBCstats",
                      "type": "tuple"
                    },
                    {
                      "internalType": "uint256[8]",
                      "name": "supportCardInHandIds",
                      "type": "uint256[8]"
                    },
                    {
                      "internalType": "uint256",
                      "name": "tableSupportCardStats",
                      "type": "uint256"
                    },
                    {
                      "components": [
                        {
                          "internalType": "uint256",
                          "name": "supportCardId",
                          "type": "uint256"
                        },
                        {
                          "components": [
                            {
                              "internalType": "int256",
                              "name": "power",
                              "type": "int256"
                            },
                            {
                              "internalType": "uint256",
                              "name": "numTurns",
                              "type": "uint256"
                            },
                            {
                              "internalType": "enum PepemonCardOracle.EffectTo",
                              "name": "effectTo",
                              "type": "uint8"
                            },
                            {
                              "internalType": "enum PepemonCardOracle.EffectFor",
                              "name": "effectFor",
                              "type": "uint8"
                            },
                            {
                              "internalType": "uint256",
                              "name": "reqCode",
                              "type": "uint256"
                            }
                          ],
                          "internalType": "struct PepemonCardOracle.EffectMany",
                          "name": "effectMany",
                          "type": "tuple"
                        }
                      ],
                      "internalType": "struct PepemonBattle.TableSupportCardStats[5]",
                      "name": "tableSupportCards",
                      "type": "tuple[5]"
                    }
                  ],
                  "internalType": "struct PepemonBattle.Hand",
                  "name": "hand",
                  "type": "tuple"
                },
                {
                  "internalType": "uint256[60]",
                  "name": "totalSupportCardIds",
                  "type": "uint256[60]"
                },
                {
                  "internalType": "uint256",
                  "name": "playedCardCount",
                  "type": "uint256"
                }
              ],
              "internalType": "struct PepemonBattle.Player",
              "name": "player1",
              "type": "tuple"
            },
            {
              "components": [
                {
                  "internalType": "address",
                  "name": "playerAddr",
                  "type": "address"
                },
                {
                  "internalType": "uint256",
                  "name": "deckId",
                  "type": "uint256"
                },
                {
                  "components": [
                    {
                      "internalType": "int256",
                      "name": "health",
                      "type": "int256"
                    },
                    {
                      "internalType": "uint256",
                      "name": "battleCardId",
                      "type": "uint256"
                    },
                    {
                      "components": [
                        {
                          "internalType": "int256",
                          "name": "spd",
                          "type": "int256"
                        },
                        {
                          "internalType": "uint256",
                          "name": "inte",
                          "type": "uint256"
                        },
                        {
                          "internalType": "int256",
                          "name": "def",
                          "type": "int256"
                        },
                        {
                          "internalType": "int256",
                          "name": "atk",
                          "type": "int256"
                        },
                        {
                          "internalType": "int256",
                          "name": "sAtk",
                          "type": "int256"
                        },
                        {
                          "internalType": "int256",
                          "name": "sDef",
                          "type": "int256"
                        }
                      ],
                      "internalType": "struct PepemonBattle.CurrentBattleCardStats",
                      "name": "currentBCstats",
                      "type": "tuple"
                    },
                    {
                      "internalType": "uint256[8]",
                      "name": "supportCardInHandIds",
                      "type": "uint256[8]"
                    },
                    {
                      "internalType": "uint256",
                      "name": "tableSupportCardStats",
                      "type": "uint256"
                    },
                    {
                      "components": [
                        {
                          "internalType": "uint256",
                          "name": "supportCardId",
                          "type": "uint256"
                        },
                        {
                          "components": [
                            {
                              "internalType": "int256",
                              "name": "power",
                              "type": "int256"
                            },
                            {
                              "internalType": "uint256",
                              "name": "numTurns",
                              "type": "uint256"
                            },
                            {
                              "internalType": "enum PepemonCardOracle.EffectTo",
                              "name": "effectTo",
                              "type": "uint8"
                            },
                            {
                              "internalType": "enum PepemonCardOracle.EffectFor",
                              "name": "effectFor",
                              "type": "uint8"
                            },
                            {
                              "internalType": "uint256",
                              "name": "reqCode",
                              "type": "uint256"
                            }
                          ],
                          "internalType": "struct PepemonCardOracle.EffectMany",
                          "name": "effectMany",
                          "type": "tuple"
                        }
                      ],
                      "internalType": "struct PepemonBattle.TableSupportCardStats[5]",
                      "name": "tableSupportCards",
                      "type": "tuple[5]"
                    }
                  ],
                  "internalType": "struct PepemonBattle.Hand",
                  "name": "hand",
                  "type": "tuple"
                },
                {
                  "internalType": "uint256[60]",
                  "name": "totalSupportCardIds",
                  "type": "uint256[60]"
                },
                {
                  "internalType": "uint256",
                  "name": "playedCardCount",
                  "type": "uint256"
                }
              ],
              "internalType": "struct PepemonBattle.Player",
              "name": "player2",
              "type": "tuple"
            },
            {
              "internalType": "uint256",
              "name": "currentTurn",
              "type": "uint256"
            },
            {
              "internalType": "enum PepemonBattle.Attacker",
              "name": "attacker",
              "type": "uint8"
            },
            {
              "internalType": "enum PepemonBattle.TurnHalves",
              "name": "turnHalves",
              "type": "uint8"
            }
          ],
          "internalType": "struct PepemonBattle.Battle",
          "name": "",
          "type": "tuple"
        }
      ],
      "stateMutability": "view",
      "type": "function"
    },
    {
      "inputs": [
        {
          "components": [
            {
              "internalType": "uint256",
              "name": "battleId",
              "type": "uint256"
            },
            {
              "components": [
                {
                  "internalType": "address",
                  "name": "playerAddr",
                  "type": "address"
                },
                {
                  "internalType": "uint256",
                  "name": "deckId",
                  "type": "uint256"
                },
                {
                  "components": [
                    {
                      "internalType": "int256",
                      "name": "health",
                      "type": "int256"
                    },
                    {
                      "internalType": "uint256",
                      "name": "battleCardId",
                      "type": "uint256"
                    },
                    {
                      "components": [
                        {
                          "internalType": "int256",
                          "name": "spd",
                          "type": "int256"
                        },
                        {
                          "internalType": "uint256",
                          "name": "inte",
                          "type": "uint256"
                        },
                        {
                          "internalType": "int256",
                          "name": "def",
                          "type": "int256"
                        },
                        {
                          "internalType": "int256",
                          "name": "atk",
                          "type": "int256"
                        },
                        {
                          "internalType": "int256",
                          "name": "sAtk",
                          "type": "int256"
                        },
                        {
                          "internalType": "int256",
                          "name": "sDef",
                          "type": "int256"
                        }
                      ],
                      "internalType": "struct PepemonBattle.CurrentBattleCardStats",
                      "name": "currentBCstats",
                      "type": "tuple"
                    },
                    {
                      "internalType": "uint256[8]",
                      "name": "supportCardInHandIds",
                      "type": "uint256[8]"
                    },
                    {
                      "internalType": "uint256",
                      "name": "tableSupportCardStats",
                      "type": "uint256"
                    },
                    {
                      "components": [
                        {
                          "internalType": "uint256",
                          "name": "supportCardId",
                          "type": "uint256"
                        },
                        {
                          "components": [
                            {
                              "internalType": "int256",
                              "name": "power",
                              "type": "int256"
                            },
                            {
                              "internalType": "uint256",
                              "name": "numTurns",
                              "type": "uint256"
                            },
                            {
                              "internalType": "enum PepemonCardOracle.EffectTo",
                              "name": "effectTo",
                              "type": "uint8"
                            },
                            {
                              "internalType": "enum PepemonCardOracle.EffectFor",
                              "name": "effectFor",
                              "type": "uint8"
                            },
                            {
                              "internalType": "uint256",
                              "name": "reqCode",
                              "type": "uint256"
                            }
                          ],
                          "internalType": "struct PepemonCardOracle.EffectMany",
                          "name": "effectMany",
                          "type": "tuple"
                        }
                      ],
                      "internalType": "struct PepemonBattle.TableSupportCardStats[5]",
                      "name": "tableSupportCards",
                      "type": "tuple[5]"
                    }
                  ],
                  "internalType": "struct PepemonBattle.Hand",
                  "name": "hand",
                  "type": "tuple"
                },
                {
                  "internalType": "uint256[60]",
                  "name": "totalSupportCardIds",
                  "type": "uint256[60]"
                },
                {
                  "internalType": "uint256",
                  "name": "playedCardCount",
                  "type": "uint256"
                }
              ],
              "internalType": "struct PepemonBattle.Player",
              "name": "player1",
              "type": "tuple"
            },
            {
              "components": [
                {
                  "internalType": "address",
                  "name": "playerAddr",
                  "type": "address"
                },
                {
                  "internalType": "uint256",
                  "name": "deckId",
                  "type": "uint256"
                },
                {
                  "components": [
                    {
                      "internalType": "int256",
                      "name": "health",
                      "type": "int256"
                    },
                    {
                      "internalType": "uint256",
                      "name": "battleCardId",
                      "type": "uint256"
                    },
                    {
                      "components": [
                        {
                          "internalType": "int256",
                          "name": "spd",
                          "type": "int256"
                        },
                        {
                          "internalType": "uint256",
                          "name": "inte",
                          "type": "uint256"
                        },
                        {
                          "internalType": "int256",
                          "name": "def",
                          "type": "int256"
                        },
                        {
                          "internalType": "int256",
                          "name": "atk",
                          "type": "int256"
                        },
                        {
                          "internalType": "int256",
                          "name": "sAtk",
                          "type": "int256"
                        },
                        {
                          "internalType": "int256",
                          "name": "sDef",
                          "type": "int256"
                        }
                      ],
                      "internalType": "struct PepemonBattle.CurrentBattleCardStats",
                      "name": "currentBCstats",
                      "type": "tuple"
                    },
                    {
                      "internalType": "uint256[8]",
                      "name": "supportCardInHandIds",
                      "type": "uint256[8]"
                    },
                    {
                      "internalType": "uint256",
                      "name": "tableSupportCardStats",
                      "type": "uint256"
                    },
                    {
                      "components": [
                        {
                          "internalType": "uint256",
                          "name": "supportCardId",
                          "type": "uint256"
                        },
                        {
                          "components": [
                            {
                              "internalType": "int256",
                              "name": "power",
                              "type": "int256"
                            },
                            {
                              "internalType": "uint256",
                              "name": "numTurns",
                              "type": "uint256"
                            },
                            {
                              "internalType": "enum PepemonCardOracle.EffectTo",
                              "name": "effectTo",
                              "type": "uint8"
                            },
                            {
                              "internalType": "enum PepemonCardOracle.EffectFor",
                              "name": "effectFor",
                              "type": "uint8"
                            },
                            {
                              "internalType": "uint256",
                              "name": "reqCode",
                              "type": "uint256"
                            }
                          ],
                          "internalType": "struct PepemonCardOracle.EffectMany",
                          "name": "effectMany",
                          "type": "tuple"
                        }
                      ],
                      "internalType": "struct PepemonBattle.TableSupportCardStats[5]",
                      "name": "tableSupportCards",
                      "type": "tuple[5]"
                    }
                  ],
                  "internalType": "struct PepemonBattle.Hand",
                  "name": "hand",
                  "type": "tuple"
                },
                {
                  "internalType": "uint256[60]",
                  "name": "totalSupportCardIds",
                  "type": "uint256[60]"
                },
                {
                  "internalType": "uint256",
                  "name": "playedCardCount",
                  "type": "uint256"
                }
              ],
              "internalType": "struct PepemonBattle.Player",
              "name": "player2",
              "type": "tuple"
            },
            {
              "internalType": "uint256",
              "name": "currentTurn",
              "type": "uint256"
            },
            {
              "internalType": "enum PepemonBattle.Attacker",
              "name": "attacker",
              "type": "uint8"
            },
            {
              "internalType": "enum PepemonBattle.TurnHalves",
              "name": "turnHalves",
              "type": "uint8"
            }
          ],
          "internalType": "struct PepemonBattle.Battle",
          "name": "battle",
          "type": "tuple"
        }
      ],
      "name": "goForBattle",
      "outputs": [
        {
          "components": [
            {
              "internalType": "uint256",
              "name": "battleId",
              "type": "uint256"
            },
            {
              "components": [
                {
                  "internalType": "address",
                  "name": "playerAddr",
                  "type": "address"
                },
                {
                  "internalType": "uint256",
                  "name": "deckId",
                  "type": "uint256"
                },
                {
                  "components": [
                    {
                      "internalType": "int256",
                      "name": "health",
                      "type": "int256"
                    },
                    {
                      "internalType": "uint256",
                      "name": "battleCardId",
                      "type": "uint256"
                    },
                    {
                      "components": [
                        {
                          "internalType": "int256",
                          "name": "spd",
                          "type": "int256"
                        },
                        {
                          "internalType": "uint256",
                          "name": "inte",
                          "type": "uint256"
                        },
                        {
                          "internalType": "int256",
                          "name": "def",
                          "type": "int256"
                        },
                        {
                          "internalType": "int256",
                          "name": "atk",
                          "type": "int256"
                        },
                        {
                          "internalType": "int256",
                          "name": "sAtk",
                          "type": "int256"
                        },
                        {
                          "internalType": "int256",
                          "name": "sDef",
                          "type": "int256"
                        }
                      ],
                      "internalType": "struct PepemonBattle.CurrentBattleCardStats",
                      "name": "currentBCstats",
                      "type": "tuple"
                    },
                    {
                      "internalType": "uint256[8]",
                      "name": "supportCardInHandIds",
                      "type": "uint256[8]"
                    },
                    {
                      "internalType": "uint256",
                      "name": "tableSupportCardStats",
                      "type": "uint256"
                    },
                    {
                      "components": [
                        {
                          "internalType": "uint256",
                          "name": "supportCardId",
                          "type": "uint256"
                        },
                        {
                          "components": [
                            {
                              "internalType": "int256",
                              "name": "power",
                              "type": "int256"
                            },
                            {
                              "internalType": "uint256",
                              "name": "numTurns",
                              "type": "uint256"
                            },
                            {
                              "internalType": "enum PepemonCardOracle.EffectTo",
                              "name": "effectTo",
                              "type": "uint8"
                            },
                            {
                              "internalType": "enum PepemonCardOracle.EffectFor",
                              "name": "effectFor",
                              "type": "uint8"
                            },
                            {
                              "internalType": "uint256",
                              "name": "reqCode",
                              "type": "uint256"
                            }
                          ],
                          "internalType": "struct PepemonCardOracle.EffectMany",
                          "name": "effectMany",
                          "type": "tuple"
                        }
                      ],
                      "internalType": "struct PepemonBattle.TableSupportCardStats[5]",
                      "name": "tableSupportCards",
                      "type": "tuple[5]"
                    }
                  ],
                  "internalType": "struct PepemonBattle.Hand",
                  "name": "hand",
                  "type": "tuple"
                },
                {
                  "internalType": "uint256[60]",
                  "name": "totalSupportCardIds",
                  "type": "uint256[60]"
                },
                {
                  "internalType": "uint256",
                  "name": "playedCardCount",
                  "type": "uint256"
                }
              ],
              "internalType": "struct PepemonBattle.Player",
              "name": "player1",
              "type": "tuple"
            },
            {
              "components": [
                {
                  "internalType": "address",
                  "name": "playerAddr",
                  "type": "address"
                },
                {
                  "internalType": "uint256",
                  "name": "deckId",
                  "type": "uint256"
                },
                {
                  "components": [
                    {
                      "internalType": "int256",
                      "name": "health",
                      "type": "int256"
                    },
                    {
                      "internalType": "uint256",
                      "name": "battleCardId",
                      "type": "uint256"
                    },
                    {
                      "components": [
                        {
                          "internalType": "int256",
                          "name": "spd",
                          "type": "int256"
                        },
                        {
                          "internalType": "uint256",
                          "name": "inte",
                          "type": "uint256"
                        },
                        {
                          "internalType": "int256",
                          "name": "def",
                          "type": "int256"
                        },
                        {
                          "internalType": "int256",
                          "name": "atk",
                          "type": "int256"
                        },
                        {
                          "internalType": "int256",
                          "name": "sAtk",
                          "type": "int256"
                        },
                        {
                          "internalType": "int256",
                          "name": "sDef",
                          "type": "int256"
                        }
                      ],
                      "internalType": "struct PepemonBattle.CurrentBattleCardStats",
                      "name": "currentBCstats",
                      "type": "tuple"
                    },
                    {
                      "internalType": "uint256[8]",
                      "name": "supportCardInHandIds",
                      "type": "uint256[8]"
                    },
                    {
                      "internalType": "uint256",
                      "name": "tableSupportCardStats",
                      "type": "uint256"
                    },
                    {
                      "components": [
                        {
                          "internalType": "uint256",
                          "name": "supportCardId",
                          "type": "uint256"
                        },
                        {
                          "components": [
                            {
                              "internalType": "int256",
                              "name": "power",
                              "type": "int256"
                            },
                            {
                              "internalType": "uint256",
                              "name": "numTurns",
                              "type": "uint256"
                            },
                            {
                              "internalType": "enum PepemonCardOracle.EffectTo",
                              "name": "effectTo",
                              "type": "uint8"
                            },
                            {
                              "internalType": "enum PepemonCardOracle.EffectFor",
                              "name": "effectFor",
                              "type": "uint8"
                            },
                            {
                              "internalType": "uint256",
                              "name": "reqCode",
                              "type": "uint256"
                            }
                          ],
                          "internalType": "struct PepemonCardOracle.EffectMany",
                          "name": "effectMany",
                          "type": "tuple"
                        }
                      ],
                      "internalType": "struct PepemonBattle.TableSupportCardStats[5]",
                      "name": "tableSupportCards",
                      "type": "tuple[5]"
                    }
                  ],
                  "internalType": "struct PepemonBattle.Hand",
                  "name": "hand",
                  "type": "tuple"
                },
                {
                  "internalType": "uint256[60]",
                  "name": "totalSupportCardIds",
                  "type": "uint256[60]"
                },
                {
                  "internalType": "uint256",
                  "name": "playedCardCount",
                  "type": "uint256"
                }
              ],
              "internalType": "struct PepemonBattle.Player",
              "name": "player2",
              "type": "tuple"
            },
            {
              "internalType": "uint256",
              "name": "currentTurn",
              "type": "uint256"
            },
            {
              "internalType": "enum PepemonBattle.Attacker",
              "name": "attacker",
              "type": "uint8"
            },
            {
              "internalType": "enum PepemonBattle.TurnHalves",
              "name": "turnHalves",
              "type": "uint8"
            }
          ],
          "internalType": "struct PepemonBattle.Battle",
          "name": "",
          "type": "tuple"
        },
        {
          "internalType": "address",
          "name": "winner",
          "type": "address"
        }
      ],
      "stateMutability": "view",
      "type": "function"
    },
    {
      "inputs": [
        {
          "internalType": "address",
          "name": "account",
          "type": "address"
        }
      ],
      "name": "isAdmin",
      "outputs": [
        {
          "internalType": "bool",
          "name": "",
          "type": "bool"
        }
      ],
      "stateMutability": "view",
      "type": "function"
    },
    {
      "inputs": [],
      "name": "renounceAdmin",
      "outputs": [],
      "stateMutability": "nonpayable",
      "type": "function"
    }
  ],
  "transactionHash": "0x7925780ea2a29c20088d9ac706496880c51289bbbd3d99c5e81394840ef8a656",
  "args": [
    "0x15f4df42e54aa33c4ec48e9f0bb7f00535c29bf5",
    "0x84057fffc602f74c19848d86fc8e14d95cd9de35",
    "0x3d7e3ca6367d2328e17eb34891f93b78d1fb587a"
  ],
  "numDeployments": 4,
  "solcInputHash": "7fe3445701323b61a0464c2b0bd28771",
  "bytecode": "0x60806040523480156200001157600080fd5b5060405162003eb138038062003eb183398101604081905262000034916200017c565b6200003f3362000087565b600380546001600160a01b039485166001600160a01b0319918216179091556004805493851693821693909317909255600580549190931691161790556001600255620001c5565b620000a2816000620000d960201b6200119e1790919060201c565b6040516001600160a01b038216907f44d6d25963f097ad14f29f06854a01f575648a1ef82f30e562ccd3889717e33990600090a250565b6001600160a01b038116620000ed57600080fd5b620000f9828262000129565b156200010457600080fd5b6001600160a01b0316600090815260209190915260409020805460ff19166001179055565b60006001600160a01b0382166200013f57600080fd5b506001600160a01b03166000908152602091909152604090205460ff1690565b80516001600160a01b03811681146200017757600080fd5b919050565b60008060006060848603121562000191578283fd5b6200019c846200015f565b9250620001ac602085016200015f565b9150620001bc604085016200015f565b90509250925092565b613cdc80620001d56000396000f3fe608060405234801561001057600080fd5b50600436106100935760003560e01c8063abd6b07511610066578063abd6b075146100ff578063c3ee543b14610120578063c6b34e1c14610141578063edc85a9114610162578063ee56b3911461018257610093565b8063047a41301461009857806324d7806c146100c257806370480275146100e25780638bad0c0a146100f7575b600080fd5b6100ab6100a636600461351c565b6101a2565b6040516100b9929190613964565b60405180910390f35b6100d56100d036600461333e565b6101f5565b6040516100b99190613959565b6100f56100f036600461333e565b610209565b005b6100f5610227565b61011261010d36600461351c565b610232565b6040516100b99291906139d1565b61013361012e3660046135b2565b610298565b6040516100b9929190613a16565b61015461014f366004613358565b610c70565b6040516100b99291906139f9565b61017561017036600461351c565b61103e565b6040516100b991906139c2565b6101956101903660046136c7565b61118c565b6040516100b99190613a33565b600080600083602001516040015160000151136101c95750506020810151516001906101f0565b6040808401510151516000126101e95750506040810151516001906101f0565b5060009050805b915091565b600061020181836111ea565b90505b919050565b610212336101f5565b61021b57600080fd5b61022481611223565b50565b61023033611265565b565b61023a612c09565b6000610245836112a7565b925060005b61025384611930565b935061025e8461103e565b935060008061026c866101a2565b91509150811561027f5791506102919050565b61028886611b03565b9550505061024a565b9293915050565b6102a0612c6a565b6102a8612c6a565b60008060005b86604001516020015181101561076f576000876060015182600881106102e457634e487b7160e01b600052603260045260246000fd5b6020020151600354604051634ca7d96360e11b81529192506000916001600160a01b039091169063994fb2c69061031f908590600401613a33565b60006040518083038186803b15801561033757600080fd5b505afa15801561034b573d6000803e3d6000fd5b505050506040513d6000823e601f3d908101601f1916820160405261037391908101906135e8565b905060008160200151600381111561039b57634e487b7160e01b600052602160045260246000fd5b141561048d5760005b816060015151811015610487576000826060015182815181106103d757634e487b7160e01b600052603260045260246000fd5b602002602001015190506000806103f58d8d85608001516001611b53565b9150915081156104485780836020015161040f9190613b0f565b8d604001516060018181516104249190613ab6565b9052506020830151610437908290613b0f565b6104419089613ab6565b9750610471565b825160408e0151606001805161045f908390613ab6565b905250825161046e9089613ab6565b97505b505050808061047f90613bff565b9150506103a4565b5061075a565b6001816020015160038111156104b357634e487b7160e01b600052602160045260246000fd5b1415610753578060a001511561059457600160005b8481101561051b578a6060015181600881106104f457634e487b7160e01b600052603260045260246000fd5b6020020151841415610509576000915061051b565b8061051381613bff565b9150506104c8565b50806105295750505061075d565b60005b8a60800151811015610584578a60a00151816005811061055c57634e487b7160e01b600052603260045260246000fd5b6020020151518414156105725760009150610584565b8061057c81613bff565b91505061052c565b50806105925750505061075d565b505b60005b8160600151518110156106e3576000826060015182815181106105ca57634e487b7160e01b600052603260045260246000fd5b602002602001015190506000806105e88d8d85608001516001611b53565b9150915081156106a45760018111156106285780836020015161060b9190613b0f565b8d604001516060018181516106209190613ab6565b90525061069f565b60018360400151600581111561064e57634e487b7160e01b600052602160045260246000fd5b141561066c5750505060408a015160808101516060909101526106d1565b602083015161068157600198505050506106d1565b82602001518d6040015160600181815161069b9190613ab6565b9052505b6106cd565b825160408e015160600180516106bb908390613ab6565b90525082516106ca9089613ab6565b97505b5050505b806106db81613bff565b915050610597565b506080810151511561074e5760058960800151101561074e5760408051808201909152828152608080830151602083015260a08b0151908b0180519061072882613bff565b90526005811061074857634e487b7160e01b600052603260045260246000fd5b60200201525b61075a565b505061075d565b50505b8061076781613bff565b9150506102ae565b5081156107905780866040015160600181815161078c9190613ab6565b9052505b506000905080805b856040015160200151811015610c45576000866060015182600881106107ce57634e487b7160e01b600052603260045260246000fd5b6020020151600354604051634ca7d96360e11b81529192506000916001600160a01b039091169063994fb2c690610809908590600401613a33565b60006040518083038186803b15801561082157600080fd5b505afa158015610835573d6000803e3d6000fd5b505050506040513d6000823e601f3d908101601f1916820160405261085d91908101906135e8565b905060028160200151600381111561088557634e487b7160e01b600052602160045260246000fd5b14156109765760005b816060015151811015610970576000826060015182815181106108c157634e487b7160e01b600052603260045260246000fd5b602002602001015190506000806108df8d8d85608001516000611b53565b915091508115610932578083602001516108f99190613b0f565b8c6040015160400181815161090e9190613ab6565b9052506020830151610921908290613b0f565b61092b9089613ab6565b975061095a565b82516040808e0151018051610948908390613ab6565b90525082516109579089613ab6565b97505b505050808061096890613bff565b91505061088e565b50610c30565b60038160200151600381111561099c57634e487b7160e01b600052602160045260246000fd5b1415610c29578060a0015115610a7057600160005b84811015610a0457896060015181600881106109dd57634e487b7160e01b600052603260045260246000fd5b60200201518414156109f25760009150610a04565b806109fc81613bff565b9150506109b1565b5060005b8960800151811015610a60578960a001518160058110610a3857634e487b7160e01b600052603260045260246000fd5b602002015151841415610a4e5760009150610a60565b80610a5881613bff565b915050610a08565b5080610a6e57505050610c33565b505b60005b816060015151811015610bb957600082606001518281518110610aa657634e487b7160e01b600052603260045260246000fd5b60200260200101519050600080610ac48d8d85608001516000611b53565b915091508115610b7b578015610b0157808360200151610ae49190613b0f565b8c60400151604001818151610af99190613ab6565b905250610b76565b600383604001516005811115610b2757634e487b7160e01b600052602160045260246000fd5b1415610b43575050506040808a015160a0810151910152610ba7565b6020830151610b585760019850505050610ba7565b82602001518c60400151604001818151610b729190613ab6565b9052505b610ba3565b82516040808e0151018051610b91908390613ab6565b9052508251610ba09089613ab6565b97505b5050505b80610bb181613bff565b915050610a73565b5060808101515115610c2457600588608001511015610c245760408051808201909152828152608080830151602083015260a08a0151908a01805190610bfe82613bff565b905260058110610c1e57634e487b7160e01b600052603260045260246000fd5b60200201525b610c30565b5050610c33565b50505b80610c3d81613bff565b915050610798565b508115610c6657808560400151604001818151610c629190613ab6565b9052505b5093949293505050565b610c78612c09565b6000610c83336101f5565b610c8c57600080fd5b836001600160a01b0316866001600160a01b03161415610cc75760405162461bcd60e51b8152600401610cbe9061397d565b60405180910390fd5b6004805460405163a090195d60e01b81526000926001600160a01b039092169163a090195d91610cf9918a9101613a33565b604080518083038186803b158015610d1057600080fd5b505afa158015610d24573d6000803e3d6000fd5b505050506040513d601f19601f82011682018060405250810190610d4891906136f7565b506004805460405163a090195d60e01b81529293506000926001600160a01b039091169163a090195d91610d7e91899101613a33565b604080518083038186803b158015610d9557600080fd5b505afa158015610da9573d6000803e3d6000fd5b505050506040513d601f19601f82011682018060405250810190610dcd91906136f7565b50600354604051632552294360e11b81529192506000916001600160a01b0390911690634aa4528690610e04908690600401613a33565b60006040518083038186803b158015610e1c57600080fd5b505afa158015610e30573d6000803e3d6000fd5b505050506040513d6000823e601f3d908101601f19168201604052610e589190810190613444565b600354604051632552294360e11b81529192506000916001600160a01b0390911690634aa4528690610e8e908690600401613a33565b60006040518083038186803b158015610ea657600080fd5b505afa158015610eba573d6000803e3d6000fd5b505050506040513d6000823e601f3d908101601f19168201604052610ee29190810190613444565b9050610eec612c09565b600254816000018181525050826060015181602001516040015160000181815250508481602001516040015160200181815250508a8160200151600001906001600160a01b031690816001600160a01b031681525050898160200151602001818152505081606001518160400151604001516000018181525050838160400151604001516020018181525050888160400151600001906001600160a01b031690816001600160a01b0316815250508781604001516020018181525050610fb181612684565b60016000600254815260200190815260200160002081905550886001600160a01b03168b6001600160a01b03167ffc09ac3d11089b107ccf634445378f0fd381d1be0f6ef37cf5dcc6272c433f1760025460405161100f9190613a33565b60405180910390a3600280548291600061102883613bff565b9190505596509650505050505094509492505050565b611046612c09565b61104e612c6a565b611056612c6a565b60008460800151600181111561107c57634e487b7160e01b600052602160045260246000fd5b141561109d57836020015160400151915083604001516040015190506110b4565b836040015160400151915083602001516040015190505b6110be8282610298565b80925081935050508060400151604001518260400151606001511315611111578060400151604001518260400151606001516110fa9190613b92565b81518290611109908390613b92565b905250611128565b6001816000018181516111249190613b92565b9052505b60008460800151600181111561114e57634e487b7160e01b600052602160045260246000fd5b141561116e57602084015160409081018390528085015101819052611184565b6020840151604090810182905280850151018290525b509192915050565b60016020526000908152604090205481565b6001600160a01b0381166111b157600080fd5b6111bb82826111ea565b156111c557600080fd5b6001600160a01b0316600090815260209190915260409020805460ff19166001179055565b60006001600160a01b0382166111ff57600080fd5b506001600160a01b03811660009081526020839052604090205460ff165b92915050565b61122e60008261119e565b6040516001600160a01b038216907f44d6d25963f097ad14f29f06854a01f575648a1ef82f30e562ccd3889717e33990600090a250565b611270600082612758565b6040516001600160a01b038216907fa3b62bc36326052d97ea62d63c3d60308ed4c3ea8ac079dd8499f1e9c4f80c0f90600090a250565b6112af612c09565b60208083015160408085015160035482840151909401519151632552294360e11b8152929390926000926001600160a01b0390921691634aa45286916112f89190600401613a33565b60006040518083038186803b15801561131057600080fd5b505afa158015611324573d6000803e3d6000fd5b505050506040513d6000823e601f3d908101601f1916820160405261134c9190810190613444565b600354604080850151602001519051632552294360e11b81529293506000926001600160a01b0390921691634aa452869161138991600401613a33565b60006040518083038186803b1580156113a157600080fd5b505afa1580156113b5573d6000803e3d6000fd5b505050506040513d6000823e601f3d908101601f191682016040526113dd9190810190613444565b90506113e8826127a0565b60408086015101526113f9816127a0565b6040808501518101919091526004805460208701519251639895d74960e01b81526000936001600160a01b0390921692639895d7499261143b92909101613a33565b60206040518083038186803b15801561145357600080fd5b505afa158015611467573d6000803e3d6000fd5b505050506040513d601f19601f8201168201806040525081019061148b91906136df565b600480546020870151604051639895d74960e01b81529394506000936001600160a01b0390921692639895d749926114c4929101613a33565b60206040518083038186803b1580156114dc57600080fd5b505afa1580156114f0573d6000803e3d6000fd5b505050506040513d601f19601f8201168201806040525081019061151491906136df565b90506000600589606001516115299190613c1a565b15905080156117595760045460208801516000916001600160a01b031690637b8ef8279061155860458e6127f5565b6040518363ffffffff1660e01b8152600401611575929190613a3c565b60006040518083038186803b15801561158d57600080fd5b505afa1580156115a1573d6000803e3d6000fd5b505050506040513d6000823e601f3d908101601f191682016040526115c9919081019061339b565b905060005b84811015611639578181815181106115f657634e487b7160e01b600052603260045260246000fd5b6020026020010151896060015182603c811061162257634e487b7160e01b600052603260045260246000fd5b60200201528061163181613bff565b9150506115ce565b5060006080890181905260045460208901516001600160a01b0390911690637b8ef827906116696101a48f6127f5565b6040518363ffffffff1660e01b8152600401611686929190613a3c565b60006040518083038186803b15801561169e57600080fd5b505afa1580156116b2573d6000803e3d6000fd5b505050506040513d6000823e601f3d908101601f191682016040526116da919081019061339b565b905060005b8481101561174a5781818151811061170757634e487b7160e01b600052603260045260246000fd5b6020026020010151896060015182603c811061173357634e487b7160e01b600052603260045260246000fd5b60200201528061174281613bff565b9150506116df565b50506000608088015250611785565b61176b87604001518760400151612821565b604080890182905287015161177f91612821565b60408701525b60005b8760400151604001516020015181101561181e578760600151848960800151836117b29190613af7565b6117bc9190613c1a565b603c81106117da57634e487b7160e01b600052603260045260246000fd5b6020020151886040015160600151826008811061180757634e487b7160e01b600052603260045260246000fd5b60200201528061181681613bff565b915050611788565b50866040015160400151602001518760800181815161183d9190613af7565b90525060005b866040015160400151602001518110156118d95786606001518388608001518361186d9190613af7565b6118779190613c1a565b603c811061189557634e487b7160e01b600052603260045260246000fd5b602002015187604001516060015182600881106118c257634e487b7160e01b600052603260045260246000fd5b6020020152806118d181613bff565b915050611843565b5085604001516040015160200151866080018181516118f89190613af7565b90525060208901879052604089018690526060890180519061191982613bff565b90525050600060a089015250959695505050505050565b611938612c09565b6020820151604090810151810151818401518201519091015160008460a00151600181111561197757634e487b7160e01b600052602160045260246000fd5b1415611a7e578051825113156119b7576080840160005b908160018111156119af57634e487b7160e01b600052602160045260246000fd5b905250611a79565b8051825112156119cc5760808401600161198e565b8060200151826020015111156119e75760808401600061198e565b806020015182602001511015611a025760808401600161198e565b60006002611a1362010f2c876127f5565b611a1d9190613c1a565b90508015611a2c576001611a2f565b60005b85608001906001811115611a5357634e487b7160e01b600052602160045260246000fd5b90816001811115611a7457634e487b7160e01b600052602160045260246000fd5b905250505b611184565b600084608001516001811115611aa457634e487b7160e01b600052602160045260246000fd5b14611ab0576000611ab3565b60015b84608001906001811115611ad757634e487b7160e01b600052602160045260246000fd5b90816001811115611af857634e487b7160e01b600052602160045260246000fd5b905250929392505050565b611b0b612c09565b60008260a001516001811115611b3157634e487b7160e01b600052602160045260246000fd5b1415611b4357600160a0830152611b4f565b611b4c826112a7565b91505b5090565b600080808085611b6857506001905080612677565b8560011415611b87575050604086015160200151600510156001612677565b8560021415611ca3576001915060005b876040015160200151811015611c995760035460608901516000916001600160a01b031690634bcb9613908460088110611be157634e487b7160e01b600052603260045260246000fd5b60200201516040518263ffffffff1660e01b8152600401611c029190613a33565b60206040518083038186803b158015611c1a57600080fd5b505afa158015611c2e573d6000803e3d6000fd5b505050506040513d601f19601f82011682018060405250810190611c52919061342a565b90506002816003811115611c7657634e487b7160e01b600052602160045260246000fd5b1415611c86576000935050611c99565b5080611c9181613bff565b915050611b97565b5060019050612677565b8560031415611e305760005b886040015160200151811015611e245760035460608a01516000916001600160a01b03169063994fb2c6908460088110611cf957634e487b7160e01b600052603260045260246000fd5b60200201516040518263ffffffff1660e01b8152600401611d1a9190613a33565b60006040518083038186803b158015611d3257600080fd5b505afa158015611d46573d6000803e3d6000fd5b505050506040513d6000823e601f3d908101601f19168201604052611d6e91908101906135e8565b9050600081602001516003811115611d9657634e487b7160e01b600052602160045260246000fd5b14611da15750611e12565b60005b816060015151811015611e0f57600082606001518281518110611dd757634e487b7160e01b600052603260045260246000fd5b60200260200101519050806000015160021415611dfc5784611df881613bff565b9550505b5080611e0781613bff565b915050611da4565b50505b80611e1c81613bff565b915050611caf565b50600081119150612677565b8560041415611fb15760005b886040015160200151811015611e245760035460608a01516000916001600160a01b03169063994fb2c6908460088110611e8657634e487b7160e01b600052603260045260246000fd5b60200201516040518263ffffffff1660e01b8152600401611ea79190613a33565b60006040518083038186803b158015611ebf57600080fd5b505afa158015611ed3573d6000803e3d6000fd5b505050506040513d6000823e601f3d908101601f19168201604052611efb91908101906135e8565b9050600081602001516003811115611f2357634e487b7160e01b600052602160045260246000fd5b14611f2e5750611f9f565b60005b816060015151811015611f9c57600082606001518281518110611f6457634e487b7160e01b600052603260045260246000fd5b60200260200101519050806000015160031415611f895784611f8581613bff565b9550505b5080611f9481613bff565b915050611f31565b50505b80611fa981613bff565b915050611e3c565b85600514156120d05760005b886040015160200151811015611e245760035460608a01516000916001600160a01b03169063994fb2c690846008811061200757634e487b7160e01b600052603260045260246000fd5b60200201516040518263ffffffff1660e01b81526004016120289190613a33565b60006040518083038186803b15801561204057600080fd5b505afa158015612054573d6000803e3d6000fd5b505050506040513d6000823e601f3d908101601f1916820160405261207c91908101906135e8565b90506000816020015160038111156120a457634e487b7160e01b600052602160045260246000fd5b146120af57506120be565b826120b981613bff565b935050505b806120c881613bff565b915050611fbd565b85600614156122515760005b876040015160200151811015611e245760035460608901516000916001600160a01b03169063994fb2c690846008811061212657634e487b7160e01b600052603260045260246000fd5b60200201516040518263ffffffff1660e01b81526004016121479190613a33565b60006040518083038186803b15801561215f57600080fd5b505afa158015612173573d6000803e3d6000fd5b505050506040513d6000823e601f3d908101601f1916820160405261219b91908101906135e8565b90506002816020015160038111156121c357634e487b7160e01b600052602160045260246000fd5b146121ce575061223f565b60005b81606001515181101561223c5760008260600151828151811061220457634e487b7160e01b600052603260045260246000fd5b60200260200101519050806000015160031415612229578461222581613bff565b9550505b508061223481613bff565b9150506121d1565b50505b8061224981613bff565b9150506120dc565b85600714156123d25760005b876040015160200151811015611e245760035460608901516000916001600160a01b03169063994fb2c69084600881106122a757634e487b7160e01b600052603260045260246000fd5b60200201516040518263ffffffff1660e01b81526004016122c89190613a33565b60006040518083038186803b1580156122e057600080fd5b505afa1580156122f4573d6000803e3d6000fd5b505050506040513d6000823e601f3d908101601f1916820160405261231c91908101906135e8565b905060028160200151600381111561234457634e487b7160e01b600052602160045260246000fd5b1461234f57506123c0565b60005b8160600151518110156123bd5760008260600151828151811061238557634e487b7160e01b600052603260045260246000fd5b602002602001015190508060000151600414156123aa57846123a681613bff565b9550505b50806123b581613bff565b915050612352565b50505b806123ca81613bff565b91505061225d565b85600814156123f1575050604085015160200151600510156001612677565b8560091415612410575050604085015160200151600711156001612677565b85600a14156125265760005b886040015160200151811015611c995760035460608a01516000916001600160a01b03169063994fb2c690846008811061246657634e487b7160e01b600052603260045260246000fd5b60200201516040518263ffffffff1660e01b81526004016124879190613a33565b60006040518083038186803b15801561249f57600080fd5b505afa1580156124b3573d6000803e3d6000fd5b505050506040513d6000823e601f3d908101601f191682016040526124db91908101906135e8565b905060018160200151600381111561250357634e487b7160e01b600052602160045260246000fd5b1415612513576001935050611c99565b508061251e81613bff565b91505061241c565b85600b14156126775784156125d6576003546020890151604051632552294360e11b81526001600160a01b0390921691634aa452869161256891600401613a33565b60006040518083038186803b15801561258057600080fd5b505afa158015612594573d6000803e3d6000fd5b505050506040513d6000823e601f3d908101601f191682016040526125bc9190810190613444565b6060015188516125cd906002613b0f565b13159150612673565b6003546020880151604051632552294360e11b81526001600160a01b0390921691634aa452869161260991600401613a33565b60006040518083038186803b15801561262157600080fd5b505afa158015612635573d6000803e3d6000fd5b505050506040513d6000823e601f3d908101601f1916820160405261265d9190810190613444565b60600151875161266e906002613b0f565b131591505b5060015b9097909650945050505050565b600080600560009054906101000a90046001600160a01b03166001600160a01b031663dbdff2c16040518163ffffffff1660e01b815260040160206040518083038186803b1580156126d557600080fd5b505afa1580156126e9573d6000803e3d6000fd5b505050506040513d601f19601f8201168201806040525081019061270d91906136df565b905060004382856020015160000151866040015160000151604051602001612738949392919061390f565b60408051808303601f190181529190528051602090910120949350505050565b6001600160a01b03811661276b57600080fd5b61277582826111ea565b61277e57600080fd5b6001600160a01b0316600090815260209190915260409020805460ff19169055565b6127a8612cac565b6127b0612cac565b608080840151825260a080850151602084015260c0850151604084015260e0850151606084015261010085015191830191909152610120840151908201529050919050565b606081015181516000908152600160209081526040808320549051929384936127389388939101613943565b612829612c6a565b60005b83608001518110156111845760008460a00151826005811061285e57634e487b7160e01b600052603260045260246000fd5b602002015190506000816020015190506001816020015110612bf4576000816060015160018111156128a057634e487b7160e01b600052602160045260246000fd5b14156129d9576000816040015160058111156128cc57634e487b7160e01b600052602160045260246000fd5b14156128f1578051604087015160600180516128e9908390613ab6565b9052506129d4565b60028160400151600581111561291757634e487b7160e01b600052602160045260246000fd5b14156129335780516040808801510180516128e9908390613ab6565b60048160400151600581111561295957634e487b7160e01b600052602160045260246000fd5b1415612973578051604087015180516128e9908390613ab6565b60058160400151600581111561299957634e487b7160e01b600052602160045260246000fd5b14156129d45780516040870151602001516000916129b691613ab6565b9050600081136129c75760006129c9565b805b604088015160200152505b612b07565b6000816040015160058111156129ff57634e487b7160e01b600052602160045260246000fd5b1415612a2457805160408601516060018051612a1c908390613ab6565b905250612b07565b600281604001516005811115612a4a57634e487b7160e01b600052602160045260246000fd5b1415612a66578051604080870151018051612a1c908390613ab6565b600481604001516005811115612a8c57634e487b7160e01b600052602160045260246000fd5b1415612aa657805160408601518051612a1c908390613ab6565b600581604001516005811115612acc57634e487b7160e01b600052602160045260246000fd5b1415612b07578051604086015160200151600091612ae991613ab6565b905060008113612afa576000612afc565b805b604087015160200152505b60208101805190612b1782613be8565b9052506020810151612bf45760018660800151612b349190613bd1565b831015612b9e578560a0015160018760800151612b519190613bd1565b60058110612b6f57634e487b7160e01b600052603260045260246000fd5b60200201518660a001518460058110612b9857634e487b7160e01b600052603260045260246000fd5b60200201525b8560a0015160018760800151612bb49190613bd1565b60058110612bd257634e487b7160e01b600052603260045260246000fd5b60200201612bde612ce2565b905260808601805190612bf082613be8565b9052505b50508080612c0190613bff565b91505061282c565b6040518060c0016040528060008152602001612c23612cfc565b8152602001612c30612cfc565b81526020016000815260200160006001811115612c5d57634e487b7160e01b600052602160045260246000fd5b815260200160005b905290565b6040518060c001604052806000815260200160008152602001612c8b612cac565b8152602001612c98612d35565b815260200160008152602001612c65612d54565b6040518060c001604052806000815260200160008152602001600081526020016000815260200160008152602001600081525090565b604051806040016040528060008152602001612c65612d81565b6040805160a08101825260008082526020820152908101612d1b612c6a565b8152602001612d28612dc7565b8152602001600081525090565b6040518061010001604052806008906020820280368337509192915050565b6040518060a001604052806005905b612d6b612ce2565b815260200190600190039081612d635790505090565b6040518060a00160405280600081526020016000815260200160006005811115612dbb57634e487b7160e01b600052602160045260246000fd5b81526020016000612d28565b604051806107800160405280603c906020820280368337509192915050565b6000612df9612df484613a96565b613a4a565b9050808260208681870286011115612e1057600080fd5b60005b86811015612e2f57823584529281019291810191600101612e13565b505050509392505050565b80356001600160a01b038116811461020457600080fd5b600082601f830112612e61578081fd5b81516020612e71612df483613a73565b8281528181019085830160a080860288018501891015612e8f578687fd5b865b86811015612f1c5781838b031215612ea7578788fd5b604080518381018181106001600160401b0382111715612ec957612ec9613c66565b825284518152878501518882015284820151612ee481613c99565b80838301525060609150612ef9828601613079565b918101919091526080848101519082015285529385019391810191600101612e91565b509198975050505050505050565b600082601f830112612f3a578081fd5b6005612f48612df482613a96565b8084866103c087011115612f5a578485fd5b845b8481101561302f5781880360c080821215612f75578788fd5b604080518181016001600160401b038282108183111715612f9857612f98613c66565b9083528635825260209060a0601f198701811315612fb4578c8dfd5b845196508087018781108382111715612fcf57612fcf613c66565b855288830135875288850135878401526060915081890135612ff081613c99565b80868901525060809450613005858a0161306e565b91870191909152870135928501929092528082019390935291865294019390910190600101612f5c565b50909695505050505050565b600082601f83011261304b578081fd5b61305783600884612de6565b9392505050565b8051801515811461020457600080fd5b803561020481613c8c565b805161020481613c8c565b80516004811061020457600080fd5b600082601f8301126130a3578081fd5b81516001600160401b038111156130bc576130bc613c66565b60206130d0601f8301601f19168201613a4a565b82815285828487010111156130e3578384fd5b835b838110156131005785810183015182820184015282016130e5565b8381111561311057848385840101525b5095945050505050565b600060c0828403121561312b578081fd5b60405160c081018181106001600160401b038211171561314d5761314d613c66565b8060405250809150823581526020830135602082015260408301356040820152606083013560608201526080830135608082015260a083013560a08201525092915050565b600060a082840312156131a3578081fd5b60405160a081018181106001600160401b03821117156131c5576131c5613c66565b8060405250809150825181526020830151602082015260408301516131e981613c99565b604082015260608301516131fc81613c8c565b6060820152608092830151920191909152919050565b60006105e08284031215613224578081fd5b60405160c081018181106001600160401b038211171561324657613246613c66565b80604052508091508235815260208301356020820152613269846040850161311a565b604082015261327c84610100850161303b565b6060820152610200830135608082015261329a846102208501612f2a565b60a08201525092915050565b6000610dc082840312156132b8578081fd5b60405160a081018181106001600160401b03821117156132da576132da613c66565b6040529050806132e983612e3a565b8152602083013560208201526133028460408501613212565b60408201528361063f84011261331757600080fd5b61332784603c6106208601612de6565b6060820152610da083013560808201525092915050565b60006020828403121561334f578081fd5b61305782612e3a565b6000806000806080858703121561336d578283fd5b61337685612e3a565b93506020850135925061338b60408601612e3a565b9396929550929360600135925050565b600060208083850312156133ad578182fd5b82516001600160401b038111156133c2578283fd5b8301601f810185136133d2578283fd5b80516133e0612df482613a73565b81815283810190838501858402850186018910156133fc578687fd5b8694505b8385101561341e578051835260019490940193918501918501613400565b50979650505050505050565b60006020828403121561343b578081fd5b61305782613084565b600060208284031215613455578081fd5b81516001600160401b038082111561346b578283fd5b8184019150610140808387031215613481578384fd5b61348a81613a4a565b90508251815261349c60208401613079565b60208201526040830151828111156134b2578485fd5b6134be87828601613093565b604083015250606083015160608201526080830151608082015260a083015160a082015260c083015160c082015260e083015160e0820152610100915081830151828201526101209150818301518282015280935050505092915050565b6000611c00828403121561352e578081fd5b60405160c081018181106001600160401b038211171561355057613550613c66565b6040528235815261356484602085016132a6565b602082015261357784610de085016132a6565b6040820152611ba08301356060820152613594611bc0840161306e565b60808201526135a6611be0840161306e565b60a08201529392505050565b600080610bc083850312156135c5578182fd5b6135cf8484613212565b91506135df846105e08501613212565b90509250929050565b6000602082840312156135f9578081fd5b81516001600160401b038082111561360f578283fd5b908301906101608286031215613623578283fd5b61362d60e0613a4a565b8251815261363d60208401613084565b6020820152604083015182811115613653578485fd5b61365f87828601613093565b604083015250606083015182811115613676578485fd5b61368287828601612e51565b6060830152506136958660808501613192565b60808201526136a7610120840161305e565b60a08201526136b9610140840161305e565b60c082015295945050505050565b6000602082840312156136d8578081fd5b5035919050565b6000602082840312156136f0578081fd5b5051919050565b60008060408385031215613709578182fd5b505080516020909101519092909150565b8060005b6005811015613797578151805185526020908101518051828701528082015160408088019190915281015190919060606006821061375e5761375e613c50565b87810191909152820151608061377382613c7c565b87810191909152919091015160a086015260c090940193919091019060010161371e565b50505050565b8060005b60088110156137975781518452602093840193909101906001016137a1565b8051825260208101516137d660208401826138a8565b5060408101516137ea610de08401826138a8565b506060810151611ba0830152608081015161380481613c7c565b611bc083015260a081015161381881613c7c565b80611be0840152505050565b80518252602081015160208301526040810151805160408401526020810151606084015260408101516080840152606081015160a0840152608081015160c084015260a081015160e084015250606081015161388461010084018261379d565b50608081015161020083015260a08101516138a361022084018261371a565b505050565b80516001600160a01b0316825260208082015181840152604080830151906138d290850182613824565b506060820151610620840160005b603c8110156138fd578251825291830191908301906001016138e0565b5050505060800151610da09190910152565b93845260208401929092526bffffffffffffffffffffffff19606091821b8116604085015291901b16605482015260680190565b9283526020830191909152604082015260600190565b901515815260200190565b91151582526001600160a01b0316602082015260400190565b60208082526025908201527f506570656d6f6e426174746c653a2043616e6e6f7420626174746c6520796f756040820152643939b2b63360d91b606082015260800190565b611c00810161121d82846137c0565b611c2081016139e082856137c0565b6001600160a01b0392909216611c009190910152919050565b611c208101613a0882856137c0565b82611c008301529392505050565b610bc08101613a258285613824565b6130576105e0830184613824565b90815260200190565b918252602082015260400190565b6040518181016001600160401b0381118282101715613a6b57613a6b613c66565b604052919050565b60006001600160401b03821115613a8c57613a8c613c66565b5060209081020190565b60006001600160401b03821115613aaf57613aaf613c66565b5060200290565b600080821280156001600160ff1b0384900385131615613ad857613ad8613c3a565b600160ff1b8390038412811615613af157613af1613c3a565b50500190565b60008219821115613b0a57613b0a613c3a565b500190565b60006001600160ff1b0381841382841380821686840486111615613b3557613b35613c3a565b600160ff1b84871282811687830589121615613b5357613b53613c3a565b858712925087820587128484161615613b6e57613b6e613c3a565b87850587128184161615613b8457613b84613c3a565b505050929093029392505050565b60008083128015600160ff1b850184121615613bb057613bb0613c3a565b6001600160ff1b0384018313811615613bcb57613bcb613c3a565b50500390565b600082821015613be357613be3613c3a565b500390565b600081613bf757613bf7613c3a565b506000190190565b6000600019821415613c1357613c13613c3a565b5060010190565b600082613c3557634e487b7160e01b81526012600452602481fd5b500690565b634e487b7160e01b600052601160045260246000fd5b634e487b7160e01b600052602160045260246000fd5b634e487b7160e01b600052604160045260246000fd5b6002811061022457610224613c50565b6002811061022457600080fd5b6006811061022457600080fdfea264697066735822122036fd8d3fa89f845fd8f7a8f05d1484c800100f73ea52114e5461686a0c4bd26d64736f6c63430008000033",
  "devdoc": {
    "kind": "dev",
    "methods": {
      "createBattle(address,uint256,address,uint256)": {
        "details": "Create battle",
        "params": {
          "p1Addr": "address player1",
          "p1DeckId": "uint256",
          "p2Addr": "address player2",
          "p2DeckId": "uint256"
        }
      }
    },
    "version": 1
  },
  "userdoc": {
    "kind": "user",
    "methods": {},
    "version": 1
  },
  "storageLayout": {
    "storage": [
      {
        "astId": 8828,
        "contract": "contracts/PepemonBattle.sol:PepemonBattle",
        "label": "admins",
        "offset": 0,
        "slot": "0",
        "type": "t_struct(Role)9316_storage"
      },
      {
        "astId": 3575,
        "contract": "contracts/PepemonBattle.sol:PepemonBattle",
        "label": "battleIdRNGSeed",
        "offset": 0,
        "slot": "1",
        "type": "t_mapping(t_uint256,t_uint256)"
      },
      {
        "astId": 3661,
        "contract": "contracts/PepemonBattle.sol:PepemonBattle",
        "label": "_nextBattleId",
        "offset": 0,
        "slot": "2",
        "type": "t_uint256"
      },
      {
        "astId": 3664,
        "contract": "contracts/PepemonBattle.sol:PepemonBattle",
        "label": "_cardContract",
        "offset": 0,
        "slot": "3",
        "type": "t_contract(PepemonCardOracle)7819"
      },
      {
        "astId": 3667,
        "contract": "contracts/PepemonBattle.sol:PepemonBattle",
        "label": "_deckContract",
        "offset": 0,
        "slot": "4",
        "type": "t_contract(PepemonCardDeck)7224"
      },
      {
        "astId": 3670,
        "contract": "contracts/PepemonBattle.sol:PepemonBattle",
        "label": "_randNrGenContract",
        "offset": 0,
        "slot": "5",
        "type": "t_contract(ChainLinkRngOracle)9112"
      }
    ],
    "types": {
      "t_address": {
        "encoding": "inplace",
        "label": "address",
        "numberOfBytes": "20"
      },
      "t_bool": {
        "encoding": "inplace",
        "label": "bool",
        "numberOfBytes": "1"
      },
      "t_contract(ChainLinkRngOracle)9112": {
        "encoding": "inplace",
        "label": "contract ChainLinkRngOracle",
        "numberOfBytes": "20"
      },
      "t_contract(PepemonCardDeck)7224": {
        "encoding": "inplace",
        "label": "contract PepemonCardDeck",
        "numberOfBytes": "20"
      },
      "t_contract(PepemonCardOracle)7819": {
        "encoding": "inplace",
        "label": "contract PepemonCardOracle",
        "numberOfBytes": "20"
      },
      "t_mapping(t_address,t_bool)": {
        "encoding": "mapping",
        "key": "t_address",
        "label": "mapping(address => bool)",
        "numberOfBytes": "32",
        "value": "t_bool"
      },
      "t_mapping(t_uint256,t_uint256)": {
        "encoding": "mapping",
        "key": "t_uint256",
        "label": "mapping(uint256 => uint256)",
        "numberOfBytes": "32",
        "value": "t_uint256"
      },
      "t_struct(Role)9316_storage": {
        "encoding": "inplace",
        "label": "struct Roles.Role",
        "members": [
          {
            "astId": 9315,
            "contract": "contracts/PepemonBattle.sol:PepemonBattle",
            "label": "bearer",
            "offset": 0,
            "slot": "0",
            "type": "t_mapping(t_address,t_bool)"
          }
        ],
        "numberOfBytes": "32"
      },
      "t_uint256": {
        "encoding": "inplace",
        "label": "uint256",
        "numberOfBytes": "32"
      }
    }
  }
}