{
  "address": "0xa784b4fcFe0cF627aD2Be650d5467597FCFBFf67",
  "abi": [
    {
      "inputs": [],
      "stateMutability": "nonpayable",
      "type": "constructor"
    },
    {
      "anonymous": false,
      "inputs": [
        {
          "indexed": true,
          "internalType": "address",
          "name": "owner",
          "type": "address"
        },
        {
          "indexed": true,
          "internalType": "address",
          "name": "approved",
          "type": "address"
        },
        {
          "indexed": true,
          "internalType": "uint256",
          "name": "tokenId",
          "type": "uint256"
        }
      ],
      "name": "Approval",
      "type": "event"
    },
    {
      "anonymous": false,
      "inputs": [
        {
          "indexed": true,
          "internalType": "address",
          "name": "owner",
          "type": "address"
        },
        {
          "indexed": true,
          "internalType": "address",
          "name": "operator",
          "type": "address"
        },
        {
          "indexed": false,
          "internalType": "bool",
          "name": "approved",
          "type": "bool"
        }
      ],
      "name": "ApprovalForAll",
      "type": "event"
    },
    {
      "anonymous": false,
      "inputs": [
        {
          "indexed": true,
          "internalType": "address",
          "name": "previousOwner",
          "type": "address"
        },
        {
          "indexed": true,
          "internalType": "address",
          "name": "newOwner",
          "type": "address"
        }
      ],
      "name": "OwnershipTransferred",
      "type": "event"
    },
    {
      "anonymous": false,
      "inputs": [
        {
          "indexed": true,
          "internalType": "address",
          "name": "from",
          "type": "address"
        },
        {
          "indexed": true,
          "internalType": "address",
          "name": "to",
          "type": "address"
        },
        {
          "indexed": true,
          "internalType": "uint256",
          "name": "tokenId",
          "type": "uint256"
        }
      ],
      "name": "Transfer",
      "type": "event"
    },
    {
      "inputs": [],
      "name": "MAX_SUPPORT_CARDS",
      "outputs": [
        {
          "internalType": "uint256",
          "name": "",
          "type": "uint256"
        }
      ],
      "stateMutability": "view",
      "type": "function"
    },
    {
      "inputs": [],
      "name": "MIN_SUPPORT_CARDS",
      "outputs": [
        {
          "internalType": "uint256",
          "name": "",
          "type": "uint256"
        }
      ],
      "stateMutability": "view",
      "type": "function"
    },
    {
      "inputs": [
        {
          "internalType": "uint256",
          "name": "deckId",
          "type": "uint256"
        },
        {
          "internalType": "uint256",
          "name": "battleCardId",
          "type": "uint256"
        }
      ],
      "name": "addBattleCardToDeck",
      "outputs": [],
      "stateMutability": "nonpayable",
      "type": "function"
    },
    {
      "inputs": [
        {
          "internalType": "uint256",
          "name": "deckId",
          "type": "uint256"
        },
        {
          "components": [
            {
              "internalType": "uint256",
              "name": "supportCardId",
              "type": "uint256"
            },
            {
              "internalType": "uint256",
              "name": "amount",
              "type": "uint256"
            }
          ],
          "internalType": "struct PepemonCardDeck.SupportCardRequest[]",
          "name": "supportCards",
          "type": "tuple[]"
        }
      ],
      "name": "addSupportCardsToDeck",
      "outputs": [],
      "stateMutability": "nonpayable",
      "type": "function"
    },
    {
      "inputs": [
        {
          "internalType": "address",
          "name": "to",
          "type": "address"
        },
        {
          "internalType": "uint256",
          "name": "tokenId",
          "type": "uint256"
        }
      ],
      "name": "approve",
      "outputs": [],
      "stateMutability": "nonpayable",
      "type": "function"
    },
    {
      "inputs": [
        {
          "internalType": "address",
          "name": "owner",
          "type": "address"
        }
      ],
      "name": "balanceOf",
      "outputs": [
        {
          "internalType": "uint256",
          "name": "",
          "type": "uint256"
        }
      ],
      "stateMutability": "view",
      "type": "function"
    },
    {
      "inputs": [],
      "name": "battleCardAddress",
      "outputs": [
        {
          "internalType": "address",
          "name": "",
          "type": "address"
        }
      ],
      "stateMutability": "view",
      "type": "function"
    },
    {
      "inputs": [],
      "name": "createDeck",
      "outputs": [],
      "stateMutability": "nonpayable",
      "type": "function"
    },
    {
      "inputs": [
        {
          "internalType": "uint256",
          "name": "",
          "type": "uint256"
        }
      ],
      "name": "decks",
      "outputs": [
        {
          "internalType": "uint256",
          "name": "battleCardId",
          "type": "uint256"
        },
        {
          "internalType": "uint256",
          "name": "supportCardCount",
          "type": "uint256"
        }
      ],
      "stateMutability": "view",
      "type": "function"
    },
    {
      "inputs": [
        {
          "internalType": "uint256",
          "name": "_deckId",
          "type": "uint256"
        }
      ],
      "name": "getAllSupportCardsInDeck",
      "outputs": [
        {
          "internalType": "uint256[]",
          "name": "",
          "type": "uint256[]"
        }
      ],
      "stateMutability": "view",
      "type": "function"
    },
    {
      "inputs": [
        {
          "internalType": "uint256",
          "name": "tokenId",
          "type": "uint256"
        }
      ],
      "name": "getApproved",
      "outputs": [
        {
          "internalType": "address",
          "name": "",
          "type": "address"
        }
      ],
      "stateMutability": "view",
      "type": "function"
    },
    {
      "inputs": [
        {
          "internalType": "uint256",
          "name": "_deckId",
          "type": "uint256"
        }
      ],
      "name": "getBattleCardInDeck",
      "outputs": [
        {
          "internalType": "uint256",
          "name": "",
          "type": "uint256"
        }
      ],
      "stateMutability": "view",
      "type": "function"
    },
    {
      "inputs": [
        {
          "internalType": "uint256",
          "name": "_deckId",
          "type": "uint256"
        }
      ],
      "name": "getCardTypesInDeck",
      "outputs": [
        {
          "internalType": "uint256[]",
          "name": "",
          "type": "uint256[]"
        }
      ],
      "stateMutability": "view",
      "type": "function"
    },
    {
      "inputs": [
        {
          "internalType": "uint256",
          "name": "_deckId",
          "type": "uint256"
        },
        {
          "internalType": "uint256",
          "name": "_cardTypeId",
          "type": "uint256"
        }
      ],
      "name": "getCountOfCardTypeInDeck",
      "outputs": [
        {
          "internalType": "uint256",
          "name": "",
          "type": "uint256"
        }
      ],
      "stateMutability": "view",
      "type": "function"
    },
    {
      "inputs": [
        {
          "internalType": "address",
          "name": "player",
          "type": "address"
        }
      ],
      "name": "getDeckCount",
      "outputs": [
        {
          "internalType": "uint256",
          "name": "",
          "type": "uint256"
        }
      ],
      "stateMutability": "view",
      "type": "function"
    },
    {
      "inputs": [
        {
          "internalType": "uint256",
          "name": "deckId",
          "type": "uint256"
        }
      ],
      "name": "getSupportCardCountInDeck",
      "outputs": [
        {
          "internalType": "uint256",
          "name": "",
          "type": "uint256"
        }
      ],
      "stateMutability": "view",
      "type": "function"
    },
    {
      "inputs": [
        {
          "internalType": "address",
          "name": "owner",
          "type": "address"
        },
        {
          "internalType": "address",
          "name": "operator",
          "type": "address"
        }
      ],
      "name": "isApprovedForAll",
      "outputs": [
        {
          "internalType": "bool",
          "name": "",
          "type": "bool"
        }
      ],
      "stateMutability": "view",
      "type": "function"
    },
    {
      "inputs": [],
      "name": "name",
      "outputs": [
        {
          "internalType": "string",
          "name": "",
          "type": "string"
        }
      ],
      "stateMutability": "view",
      "type": "function"
    },
    {
      "inputs": [
        {
          "internalType": "address",
          "name": "",
          "type": "address"
        },
        {
          "internalType": "address",
          "name": "",
          "type": "address"
        },
        {
          "internalType": "uint256[]",
          "name": "",
          "type": "uint256[]"
        },
        {
          "internalType": "uint256[]",
          "name": "",
          "type": "uint256[]"
        },
        {
          "internalType": "bytes",
          "name": "",
          "type": "bytes"
        }
      ],
      "name": "onERC1155BatchReceived",
      "outputs": [
        {
          "internalType": "bytes4",
          "name": "",
          "type": "bytes4"
        }
      ],
      "stateMutability": "nonpayable",
      "type": "function"
    },
    {
      "inputs": [
        {
          "internalType": "address",
          "name": "",
          "type": "address"
        },
        {
          "internalType": "address",
          "name": "",
          "type": "address"
        },
        {
          "internalType": "uint256",
          "name": "",
          "type": "uint256"
        },
        {
          "internalType": "uint256",
          "name": "",
          "type": "uint256"
        },
        {
          "internalType": "bytes",
          "name": "",
          "type": "bytes"
        }
      ],
      "name": "onERC1155Received",
      "outputs": [
        {
          "internalType": "bytes4",
          "name": "",
          "type": "bytes4"
        }
      ],
      "stateMutability": "nonpayable",
      "type": "function"
    },
    {
      "inputs": [],
      "name": "owner",
      "outputs": [
        {
          "internalType": "address",
          "name": "",
          "type": "address"
        }
      ],
      "stateMutability": "view",
      "type": "function"
    },
    {
      "inputs": [
        {
          "internalType": "uint256",
          "name": "tokenId",
          "type": "uint256"
        }
      ],
      "name": "ownerOf",
      "outputs": [
        {
          "internalType": "address",
          "name": "",
          "type": "address"
        }
      ],
      "stateMutability": "view",
      "type": "function"
    },
    {
      "inputs": [
        {
          "internalType": "address",
          "name": "",
          "type": "address"
        },
        {
          "internalType": "uint256",
          "name": "",
          "type": "uint256"
        }
      ],
      "name": "playerToDecks",
      "outputs": [
        {
          "internalType": "uint256",
          "name": "",
          "type": "uint256"
        }
      ],
      "stateMutability": "view",
      "type": "function"
    },
    {
      "inputs": [
        {
          "internalType": "uint256",
          "name": "_deckId",
          "type": "uint256"
        }
      ],
      "name": "removeBattleCardFromDeck",
      "outputs": [],
      "stateMutability": "nonpayable",
      "type": "function"
    },
    {
      "inputs": [
        {
          "internalType": "uint256",
          "name": "_deckId",
          "type": "uint256"
        },
        {
          "components": [
            {
              "internalType": "uint256",
              "name": "supportCardId",
              "type": "uint256"
            },
            {
              "internalType": "uint256",
              "name": "amount",
              "type": "uint256"
            }
          ],
          "internalType": "struct PepemonCardDeck.SupportCardRequest[]",
          "name": "_supportCards",
          "type": "tuple[]"
        }
      ],
      "name": "removeSupportCardsFromDeck",
      "outputs": [],
      "stateMutability": "nonpayable",
      "type": "function"
    },
    {
      "inputs": [],
      "name": "renounceOwnership",
      "outputs": [],
      "stateMutability": "nonpayable",
      "type": "function"
    },
    {
      "inputs": [
        {
          "internalType": "address",
          "name": "from",
          "type": "address"
        },
        {
          "internalType": "address",
          "name": "to",
          "type": "address"
        },
        {
          "internalType": "uint256",
          "name": "tokenId",
          "type": "uint256"
        }
      ],
      "name": "safeTransferFrom",
      "outputs": [],
      "stateMutability": "nonpayable",
      "type": "function"
    },
    {
      "inputs": [
        {
          "internalType": "address",
          "name": "from",
          "type": "address"
        },
        {
          "internalType": "address",
          "name": "to",
          "type": "address"
        },
        {
          "internalType": "uint256",
          "name": "tokenId",
          "type": "uint256"
        },
        {
          "internalType": "bytes",
          "name": "_data",
          "type": "bytes"
        }
      ],
      "name": "safeTransferFrom",
      "outputs": [],
      "stateMutability": "nonpayable",
      "type": "function"
    },
    {
      "inputs": [
        {
          "internalType": "address",
          "name": "operator",
          "type": "address"
        },
        {
          "internalType": "bool",
          "name": "approved",
          "type": "bool"
        }
      ],
      "name": "setApprovalForAll",
      "outputs": [],
      "stateMutability": "nonpayable",
      "type": "function"
    },
    {
      "inputs": [
        {
          "internalType": "address",
          "name": "_battleCardAddress",
          "type": "address"
        }
      ],
      "name": "setBattleCardAddress",
      "outputs": [],
      "stateMutability": "nonpayable",
      "type": "function"
    },
    {
      "inputs": [
        {
          "internalType": "uint256",
          "name": "_maxSupportCards",
          "type": "uint256"
        }
      ],
      "name": "setMaxSupportCards",
      "outputs": [],
      "stateMutability": "nonpayable",
      "type": "function"
    },
    {
      "inputs": [
        {
          "internalType": "uint256",
          "name": "_minSupportCards",
          "type": "uint256"
        }
      ],
      "name": "setMinSupportCards",
      "outputs": [],
      "stateMutability": "nonpayable",
      "type": "function"
    },
    {
      "inputs": [
        {
          "internalType": "address",
          "name": "_supportCardAddress",
          "type": "address"
        }
      ],
      "name": "setSupportCardAddress",
      "outputs": [],
      "stateMutability": "nonpayable",
      "type": "function"
    },
    {
      "inputs": [
        {
          "internalType": "uint256",
          "name": "_deckId",
          "type": "uint256"
        },
        {
          "internalType": "uint256",
          "name": "_seed",
          "type": "uint256"
        }
      ],
      "name": "shuffleDeck",
      "outputs": [
        {
          "internalType": "uint256[]",
          "name": "",
          "type": "uint256[]"
        }
      ],
      "stateMutability": "view",
      "type": "function"
    },
    {
      "inputs": [],
      "name": "supportCardAddress",
      "outputs": [
        {
          "internalType": "address",
          "name": "",
          "type": "address"
        }
      ],
      "stateMutability": "view",
      "type": "function"
    },
    {
      "inputs": [
        {
          "internalType": "bytes4",
          "name": "interfaceId",
          "type": "bytes4"
        }
      ],
      "name": "supportsInterface",
      "outputs": [
        {
          "internalType": "bool",
          "name": "",
          "type": "bool"
        }
      ],
      "stateMutability": "view",
      "type": "function"
    },
    {
      "inputs": [],
      "name": "symbol",
      "outputs": [
        {
          "internalType": "string",
          "name": "",
          "type": "string"
        }
      ],
      "stateMutability": "view",
      "type": "function"
    },
    {
      "inputs": [
        {
          "internalType": "uint256",
          "name": "tokenId",
          "type": "uint256"
        }
      ],
      "name": "tokenURI",
      "outputs": [
        {
          "internalType": "string",
          "name": "",
          "type": "string"
        }
      ],
      "stateMutability": "view",
      "type": "function"
    },
    {
      "inputs": [
        {
          "internalType": "address",
          "name": "from",
          "type": "address"
        },
        {
          "internalType": "address",
          "name": "to",
          "type": "address"
        },
        {
          "internalType": "uint256",
          "name": "tokenId",
          "type": "uint256"
        }
      ],
      "name": "transferFrom",
      "outputs": [],
      "stateMutability": "nonpayable",
      "type": "function"
    },
    {
      "inputs": [
        {
          "internalType": "address",
          "name": "newOwner",
          "type": "address"
        }
      ],
      "name": "transferOwnership",
      "outputs": [],
      "stateMutability": "nonpayable",
      "type": "function"
    }
  ],
  "transactionHash": "0xd512c48b7b2e397a624d4f21ed4f263742d6b58a9d1e7f765e08c1dd196b142d",
  "args": [],
  "numDeployments": 2,
  "solcInputHash": "2f700ce0025dbe31f0959fdb51ecc9da",
  "bytecode": "0x60806040523480156200001157600080fd5b50604080518082018252600880825267506570656465636b60c01b6020808401828152855180870190965292855284015281519192916200005591600091620000e7565b5080516200006b906001906020840190620000e7565b505050600062000080620000e360201b60201c565b600680546001600160a01b0319166001600160a01b038316908117909155604051919250906000907f8be0079c531659141344cd1fd0a4f28419497f9722a3daafe3b4186f6b6457e0908290a3506001600955603c6007556028600855620001ca565b3390565b828054620000f5906200018d565b90600052602060002090601f01602090048101928262000119576000855562000164565b82601f106200013457805160ff191683800117855562000164565b8280016001018555821562000164579182015b828111156200016457825182559160200191906001019062000147565b506200017292915062000176565b5090565b5b8082111562000172576000815560010162000177565b600281046001821680620001a257607f821691505b60208210811415620001c457634e487b7160e01b600052602260045260246000fd5b50919050565b612d5a80620001da6000396000f3fe608060405234801561001057600080fd5b50600436106102485760003560e01c8063715018a61161013b578063b226ef76116100b8578063e6624c321161007c578063e6624c32146104f5578063e985e9c5146104fd578063ef0c4ecf14610510578063f23a6e6114610523578063f2fde38b1461053657610248565b8063b226ef7614610489578063b88d4fde1461049c578063bc197c81146104af578063c87b56dd146104cf578063dc10b8bd146104e257610248565b80639895d749116100ff5780639895d7491461041c578063a090195d1461042f578063a22cb46514610450578063a4c6f63e14610463578063aabd8ff01461047657610248565b8063715018a6146103de57806372c47220146103e65780637b8ef827146103f95780638da5cb5b1461040c57806395d89b411461041457610248565b80633f6b7f97116101c957806365aab7341161018d57806365aab734146103955780636e4c16521461039d57806370104298146103b0578063706f75f2146103c357806370a08231146103cb57610248565b80633f6b7f971461034157806342842e0e146103545780634f3d4f9a146103675780636352211e1461037a5780636524b62f1461038d57610248565b806317afd5681161021057806317afd568146102d357806318ee7396146102f357806323b872dd146103135780632ed38bfc1461032657806330ecf94e1461033957610248565b806301ffc9a71461024d57806306fdde0314610276578063081812fc1461028b57806308bf8ae4146102ab578063095ea7b3146102c0575b600080fd5b61026061025b366004612309565b610549565b60405161026d91906125b2565b60405180910390f35b61027e61055c565b60405161026d91906125d2565b61029e610299366004612341565b6105ee565b60405161026d91906124cc565b6102be6102b93660046120b0565b61063a565b005b6102be6102ce3660046122e0565b61069b565b6102e66102e1366004612341565b610733565b60405161026d919061256e565b6103066103013660046120b0565b61081e565b60405161026d91906124c3565b6102be6103213660046121a2565b610839565b6102be610334366004612447565b610871565b610306610a05565b61030661034f3660046122e0565b610a0b565b6102be6103623660046121a2565b610a3c565b610306610375366004612447565b610a57565b61029e610388366004612341565b610a7b565b61029e610ab0565b610306610abf565b6102e66103ab366004612341565b610ac5565b6102be6103be366004612341565b610bf6565b61029e610c4c565b6103066103d93660046120b0565b610c5b565b6102be610c9f565b6102be6103f43660046120b0565b610d28565b6102e6610407366004612447565b610d89565b61029e610daa565b61027e610db9565b61030661042a366004612341565b610dc8565b61044261043d366004612341565b610ddd565b60405161026d929190612b97565b6102be61045e3660046122a6565b610df6565b610306610471366004612341565b610ec4565b6102be610484366004612341565b610ed6565b6102be610497366004612371565b610f1a565b6102be6104aa3660046121dd565b610fd3565b6104c26104bd3660046120fc565b61100c565b60405161026d91906125bd565b61027e6104dd366004612341565b61101d565b6102be6104f0366004612341565b6110a0565b6102be6110e4565b61026061050b3660046120ca565b61112b565b6102be61051e366004612371565b611159565b6104c2610531366004612243565b611212565b6102be6105443660046120b0565b611223565b6000610554826112e4565b90505b919050565b60606000805461056b90612c62565b80601f016020809104026020016040519081016040528092919081815260200182805461059790612c62565b80156105e45780601f106105b9576101008083540402835291602001916105e4565b820191906000526020600020905b8154815290600101906020018083116105c757829003601f168201915b5050505050905090565b60006105f982611309565b61061e5760405162461bcd60e51b81526004016106159061291c565b60405180910390fd5b506000908152600460205260409020546001600160a01b031690565b610642611326565b6001600160a01b0316610653610daa565b6001600160a01b0316146106795760405162461bcd60e51b815260040161061590612968565b600a80546001600160a01b0319166001600160a01b0392909216919091179055565b60006106a682610a7b565b9050806001600160a01b0316836001600160a01b031614156106da5760405162461bcd60e51b815260040161061590612ab2565b806001600160a01b03166106ec611326565b6001600160a01b0316148061070857506107088161050b611326565b6107245760405162461bcd60e51b8152600401610615906127c0565b61072e838361132a565b505050565b6000818152600c6020526040812060038101546060929067ffffffffffffffff81111561077057634e487b7160e01b600052604160045260246000fd5b604051908082528060200260200182016040528015610799578160200160208202803683370190505b50905060005b6003830154811015610816578260030181815481106107ce57634e487b7160e01b600052603260045260246000fd5b90600052602060002001548282815181106107f957634e487b7160e01b600052603260045260246000fd5b60209081029190910101528061080e81612c9d565b91505061079f565b509392505050565b6001600160a01b03166000908152600d602052604090205490565b61084a610844611326565b82611398565b6108665760405162461bcd60e51b815260040161061590612af3565b61072e838383611415565b8161087b81610a7b565b6001600160a01b0316336001600160a01b0316146108ab5760405162461bcd60e51b8152600401610615906128e5565b600a54604051627eeac760e11b81526001916001600160a01b03169062fdd58e906108dc9033908790600401612555565b60206040518083038186803b1580156108f457600080fd5b505afa158015610908573d6000803e3d6000fd5b505050506040513d601f19601f8201168201806040525081019061092c9190612359565b101561094a5760405162461bcd60e51b815260040161061590612a35565b6000838152600c60205260409020548214156109785760405162461bcd60e51b8152600401610615906125e5565b6000838152600c602052604090819020805490849055600a549151637921219560e11b815290916001600160a01b03169063f242432a906109c49033903090889060019060040161251d565b600060405180830381600087803b1580156109de57600080fd5b505af11580156109f2573d6000803e3d6000fd5b505050506109ff81611542565b50505050565b60085481565b600d6020528160005260406000208181548110610a2757600080fd5b90600052602060002001600091509150505481565b61072e83838360405180602001604052806000815250610fd3565b6000918252600c602090815260408084209284526002909201905290206001015490565b6000818152600260205260408120546001600160a01b0316806105545760405162461bcd60e51b815260040161061590612867565b600a546001600160a01b031681565b60075481565b6000818152600c6020526040812060018101546060929067ffffffffffffffff811115610b0257634e487b7160e01b600052604160045260246000fd5b604051908082528060200260200182016040528015610b2b578160200160208202803683370190505b5090506000805b6003840154811015610bec576000846003018281548110610b6357634e487b7160e01b600052603260045260246000fd5b9060005260206000200154905060005b6000828152600287016020526040902060010154811015610bd757818585610b9a81612c9d565b965081518110610bba57634e487b7160e01b600052603260045260246000fd5b602090810291909101015280610bcf81612c9d565b915050610b73565b50508080610be490612c9d565b915050610b32565b5090949350505050565b80610c0081610a7b565b6001600160a01b0316336001600160a01b031614610c305760405162461bcd60e51b8152600401610615906128e5565b6000828152600c60205260408120805491905561072e81611542565b600b546001600160a01b031681565b60006001600160a01b038216610c835760405162461bcd60e51b81526004016106159061281d565b506001600160a01b031660009081526003602052604090205490565b610ca7611326565b6001600160a01b0316610cb8610daa565b6001600160a01b031614610cde5760405162461bcd60e51b815260040161061590612968565b6006546040516000916001600160a01b0316907f8be0079c531659141344cd1fd0a4f28419497f9722a3daafe3b4186f6b6457e0908390a3600680546001600160a01b0319169055565b610d30611326565b6001600160a01b0316610d41610daa565b6001600160a01b031614610d675760405162461bcd60e51b815260040161061590612968565b600b80546001600160a01b0319166001600160a01b0392909216919091179055565b60606000610d9684610ac5565b9050610da281846115b5565b949350505050565b6006546001600160a01b031690565b60606001805461056b90612c62565b6000908152600c602052604090206001015490565b600c602052600090815260409020805460019091015482565b610dfe611326565b6001600160a01b0316826001600160a01b03161415610e2f5760405162461bcd60e51b81526004016106159061273d565b8060056000610e3c611326565b6001600160a01b03908116825260208083019390935260409182016000908120918716808252919093529120805460ff191692151592909217909155610e80611326565b6001600160a01b03167f17307eab39ab6107e8899845ad3d59bd9653f200f220920489ca2b5937696c3183604051610eb891906125b2565b60405180910390a35050565b6000908152600c602052604090205490565b610ede611326565b6001600160a01b0316610eef610daa565b6001600160a01b031614610f155760405162461bcd60e51b815260040161061590612968565b600855565b81610f2481610a7b565b6001600160a01b0316336001600160a01b031614610f545760405162461bcd60e51b8152600401610615906128e5565b60005b82518110156109ff57610fc184848381518110610f8457634e487b7160e01b600052603260045260246000fd5b602002602001015160000151858481518110610fb057634e487b7160e01b600052603260045260246000fd5b6020026020010151602001516116de565b80610fcb81612c9d565b915050610f57565b610fe4610fde611326565b83611398565b6110005760405162461bcd60e51b815260040161061590612af3565b6109ff84848484611936565b63bc197c8160e01b95945050505050565b606061102882611309565b6110445760405162461bcd60e51b8152600401610615906129e6565b600061104e611969565b9050600081511161106e5760405180602001604052806000815250611099565b806110788461197b565b604051602001611089929190612494565b6040516020818303038152906040525b9392505050565b6110a8611326565b6001600160a01b03166110b9610daa565b6001600160a01b0316146110df5760405162461bcd60e51b815260040161061590612968565b600755565b6110f033600954611a96565b336000908152600d6020908152604082206009805482546001818101855593865293909420909201929092555461112691611ab4565b600955565b6001600160a01b03918216600090815260056020908152604080832093909416825291909152205460ff1690565b8161116381610a7b565b6001600160a01b0316336001600160a01b0316146111935760405162461bcd60e51b8152600401610615906128e5565b60005b82518110156109ff57611200848483815181106111c357634e487b7160e01b600052603260045260246000fd5b6020026020010151600001518584815181106111ef57634e487b7160e01b600052603260045260246000fd5b602002602001015160200151611ac0565b8061120a81612c9d565b915050611196565b63f23a6e6160e01b95945050505050565b61122b611326565b6001600160a01b031661123c610daa565b6001600160a01b0316146112625760405162461bcd60e51b815260040161061590612968565b6001600160a01b0381166112885760405162461bcd60e51b81526004016106159061267c565b6006546040516001600160a01b038084169216907f8be0079c531659141344cd1fd0a4f28419497f9722a3daafe3b4186f6b6457e090600090a3600680546001600160a01b0319166001600160a01b0392909216919091179055565b60006001600160e01b03198216630271189760e51b1480610554575061055482611d2a565b6000908152600260205260409020546001600160a01b0316151590565b3390565b600081815260046020526040902080546001600160a01b0319166001600160a01b038416908117909155819061135f82610a7b565b6001600160a01b03167f8c5be1e5ebec7d5bd14f71427d1e84f3dd0314c0f7b2291e5b200ac8c7c3b92560405160405180910390a45050565b60006113a382611309565b6113bf5760405162461bcd60e51b815260040161061590612774565b60006113ca83610a7b565b9050806001600160a01b0316846001600160a01b031614806114055750836001600160a01b03166113fa846105ee565b6001600160a01b0316145b80610da25750610da2818561112b565b826001600160a01b031661142882610a7b565b6001600160a01b03161461144e5760405162461bcd60e51b81526004016106159061299d565b6001600160a01b0382166114745760405162461bcd60e51b8152600401610615906126f9565b61147f83838361072e565b61148a60008261132a565b6001600160a01b03831660009081526003602052604081208054600192906114b3908490612c1f565b90915550506001600160a01b03821660009081526003602052604081208054600192906114e1908490612bf3565b909155505060008181526002602052604080822080546001600160a01b0319166001600160a01b0386811691821790925591518493918716917fddf252ad1be2c89b69c2b068fc378daa952ba7f163c4a11628f55a4df523b3ef91a4505050565b80156115b257600a54604051637921219560e11b81526001600160a01b039091169063f242432a9061157f9030903390869060019060040161251d565b600060405180830381600087803b15801561159957600080fd5b505af11580156115ad573d6000803e3d6000fd5b505050505b50565b606060005b83518110156116d65760008185516115d29190612c1f565b6115dc9085612cb8565b6115e69083612bf3565b9050600085828151811061160a57634e487b7160e01b600052603260045260246000fd5b6020026020010151905085838151811061163457634e487b7160e01b600052603260045260246000fd5b602002602001015186838151811061165c57634e487b7160e01b600052603260045260246000fd5b6020026020010181815250508086848151811061168957634e487b7160e01b600052603260045260246000fd5b602002602001018181525050846040516020016116a691906124c3565b6040516020818303038152906040528051906020012060001c9450505080806116ce90612c9d565b9150506115ba565b509192915050565b6000838152600c60205260409020600101546116fa9082611ab4565b600754101561171b5760405162461bcd60e51b815260040161061590612a7b565b600b54604051627eeac760e11b815282916001600160a01b03169062fdd58e9061174b9033908790600401612555565b60206040518083038186803b15801561176357600080fd5b505afa158015611777573d6000803e3d6000fd5b505050506040513d601f19601f8201168201806040525081019061179b9190612359565b10156117b95760405162461bcd60e51b815260040161061590612b44565b6000838152600c6020908152604080832085845260020190915290206003015460ff16611865576040805160808101825283815260208082018481526000878152600c80845285822060038082018054888a01908152600160608a018181528d885260029586018a529a872099518a559651898801555192880192909255965195909601805460ff19169515159590951790945592825283549081018455928252902001829055611897565b6000838152600c60209081526040808320858452600201909152902060018101546118909083611ab4565b6001909101555b6000838152600c60205260409020600101546118b39082611ab4565b6000848152600c60205260409081902060010191909155600b549051637921219560e11b81526001600160a01b039091169063f242432a906118ff90339030908790879060040161251d565b600060405180830381600087803b15801561191957600080fd5b505af115801561192d573d6000803e3d6000fd5b50505050505050565b611941848484611415565b61194d84848484611d6a565b6109ff5760405162461bcd60e51b81526004016106159061262a565b60408051602081019091526000815290565b6060816119a057506040805180820190915260018152600360fc1b6020820152610557565b8160005b81156119ca57806119b481612c9d565b91506119c39050600a83612c0b565b91506119a4565b60008167ffffffffffffffff8111156119f357634e487b7160e01b600052604160045260246000fd5b6040519080825280601f01601f191660200182016040528015611a1d576020820181803683370190505b5090505b8415610da257611a32600183612c1f565b9150611a3f600a86612cb8565b611a4a906030612bf3565b60f81b818381518110611a6d57634e487b7160e01b600052603260045260246000fd5b60200101906001600160f81b031916908160001a905350611a8f600a86612c0b565b9450611a21565b611ab0828260405180602001604052806000815250611e85565b5050565b60006110998284612bf3565b6000838152600c6020908152604080832085845260020190915290206001810154611aeb9083611eb8565b6001808301919091556000858152600c602052604090200154611b0e9083611eb8565b6000858152600c60205260409020600190810191909155810154611cbc576000848152600c6020526040812060030154611b4a90600190612c1f565b6000868152600c602052604081206003018054929350909183908110611b8057634e487b7160e01b600052603260045260246000fd5b60009182526020808320909101546002808701548a8552600c8085526040808720858852808501875290872090930191909155938a905292909152600390910180549192509083908110611be457634e487b7160e01b600052603260045260246000fd5b9060005260206000200154600c6000888152602001908152602001600020600301846002015481548110611c2857634e487b7160e01b600052603260045260246000fd5b9060005260206000200181905550600c6000878152602001908152602001600020600301805480611c6957634e487b7160e01b600052603160045260246000fd5b600082815260208082208301600019908101839055909201909255878252600c81526040808320888452600290810190925282208281556001810183905590810191909155600301805460ff1916905550505b600b54604051637921219560e11b81526001600160a01b039091169063f242432a90611cf290309033908890889060040161251d565b600060405180830381600087803b158015611d0c57600080fd5b505af1158015611d20573d6000803e3d6000fd5b5050505050505050565b60006001600160e01b031982166380ac58cd60e01b1480611d5b57506001600160e01b03198216635b5e139f60e01b145b80610554575061055482611ec4565b6000611d7e846001600160a01b0316611edd565b15611e7a57836001600160a01b031663150b7a02611d9a611326565b8786866040518563ffffffff1660e01b8152600401611dbc94939291906124e0565b602060405180830381600087803b158015611dd657600080fd5b505af1925050508015611e06575060408051601f3d908101601f19168201909252611e0391810190612325565b60015b611e60573d808015611e34576040519150601f19603f3d011682016040523d82523d6000602084013e611e39565b606091505b508051611e585760405162461bcd60e51b81526004016106159061262a565b805181602001fd5b6001600160e01b031916630a85bd0160e11b149050610da2565b506001949350505050565b611e8f8383611ee3565b611e9c6000848484611d6a565b61072e5760405162461bcd60e51b81526004016106159061262a565b60006110998284612c1f565b6001600160e01b031981166301ffc9a760e01b14919050565b3b151590565b6001600160a01b038216611f095760405162461bcd60e51b8152600401610615906128b0565b611f1281611309565b15611f2f5760405162461bcd60e51b8152600401610615906126c2565b611f3b6000838361072e565b6001600160a01b0382166000908152600360205260408120805460019290611f64908490612bf3565b909155505060008181526002602052604080822080546001600160a01b0319166001600160a01b03861690811790915590518392907fddf252ad1be2c89b69c2b068fc378daa952ba7f163c4a11628f55a4df523b3ef908290a45050565b80356001600160a01b038116811461055757600080fd5b600082601f830112611fe9578081fd5b81356020611ffe611ff983612bcf565b612ba5565b828152818101908583018385028701840188101561201a578586fd5b855b858110156120385781358452928401929084019060010161201c565b5090979650505050505050565b600082601f830112612055578081fd5b813567ffffffffffffffff81111561206f5761206f612cf8565b612082601f8201601f1916602001612ba5565b818152846020838601011115612096578283fd5b816020850160208301379081016020019190915292915050565b6000602082840312156120c1578081fd5b61109982611fc2565b600080604083850312156120dc578081fd5b6120e583611fc2565b91506120f360208401611fc2565b90509250929050565b600080600080600060a08688031215612113578081fd5b61211c86611fc2565b945061212a60208701611fc2565b9350604086013567ffffffffffffffff80821115612146578283fd5b61215289838a01611fd9565b94506060880135915080821115612167578283fd5b61217389838a01611fd9565b93506080880135915080821115612188578283fd5b5061219588828901612045565b9150509295509295909350565b6000806000606084860312156121b6578283fd5b6121bf84611fc2565b92506121cd60208501611fc2565b9150604084013590509250925092565b600080600080608085870312156121f2578384fd5b6121fb85611fc2565b935061220960208601611fc2565b925060408501359150606085013567ffffffffffffffff81111561222b578182fd5b61223787828801612045565b91505092959194509250565b600080600080600060a0868803121561225a578081fd5b61226386611fc2565b945061227160208701611fc2565b93506040860135925060608601359150608086013567ffffffffffffffff81111561229a578182fd5b61219588828901612045565b600080604083850312156122b8578182fd5b6122c183611fc2565b9150602083013580151581146122d5578182fd5b809150509250929050565b600080604083850312156122f2578182fd5b6122fb83611fc2565b946020939093013593505050565b60006020828403121561231a578081fd5b813561109981612d0e565b600060208284031215612336578081fd5b815161109981612d0e565b600060208284031215612352578081fd5b5035919050565b60006020828403121561236a578081fd5b5051919050565b6000806040808486031215612384578283fd5b8335925060208085013567ffffffffffffffff808211156123a3578485fd5b818701915087601f8301126123b6578485fd5b81356123c4611ff982612bcf565b81815284810190848601878402860187018c10156123e0578889fd5b8895505b838610156124355787818d0312156123fa578889fd5b8751888101818110878211171561241357612413612cf8565b89528135815287820135888201528352600195909501949186019187016123e4565b50809750505050505050509250929050565b60008060408385031215612459578182fd5b50508035926020909101359150565b60008151808452612480816020860160208601612c36565b601f01601f19169290920160200192915050565b600083516124a6818460208801612c36565b8351908301906124ba818360208801612c36565b01949350505050565b90815260200190565b6001600160a01b0391909116815260200190565b6001600160a01b038581168252841660208201526040810183905260806060820181905260009061251390830184612468565b9695505050505050565b6001600160a01b0394851681529290931660208301526040820152606081019190915260a06080820181905260009082015260c00190565b6001600160a01b03929092168252602082015260400190565b6020808252825182820181905260009190848201906040850190845b818110156125a65783518352928401929184019160010161258a565b50909695505050505050565b901515815260200190565b6001600160e01b031991909116815260200190565b6000602082526110996020830184612468565b60208082526025908201527f506570656d6f6e436172644465636b3a204361726420616c726561647920696e604082015264206465636b60d81b606082015260800190565b60208082526032908201527f4552433732313a207472616e7366657220746f206e6f6e20455243373231526560408201527131b2b4bb32b91034b6b83632b6b2b73a32b960711b606082015260800190565b60208082526026908201527f4f776e61626c653a206e6577206f776e657220697320746865207a65726f206160408201526564647265737360d01b606082015260800190565b6020808252601c908201527f4552433732313a20746f6b656e20616c7265616479206d696e74656400000000604082015260600190565b60208082526024908201527f4552433732313a207472616e7366657220746f20746865207a65726f206164646040820152637265737360e01b606082015260800190565b60208082526019908201527f4552433732313a20617070726f766520746f2063616c6c657200000000000000604082015260600190565b6020808252602c908201527f4552433732313a206f70657261746f7220717565727920666f72206e6f6e657860408201526b34b9ba32b73a103a37b5b2b760a11b606082015260800190565b60208082526038908201527f4552433732313a20617070726f76652063616c6c6572206973206e6f74206f7760408201527f6e6572206e6f7220617070726f76656420666f7220616c6c0000000000000000606082015260800190565b6020808252602a908201527f4552433732313a2062616c616e636520717565727920666f7220746865207a65604082015269726f206164647265737360b01b606082015260800190565b60208082526029908201527f4552433732313a206f776e657220717565727920666f72206e6f6e657869737460408201526832b73a103a37b5b2b760b91b606082015260800190565b6020808252818101527f4552433732313a206d696e7420746f20746865207a65726f2061646472657373604082015260600190565b6020808252601e908201527f506570656d6f6e436172644465636b3a204e6f7420796f7572206465636b0000604082015260600190565b6020808252602c908201527f4552433732313a20617070726f76656420717565727920666f72206e6f6e657860408201526b34b9ba32b73a103a37b5b2b760a11b606082015260800190565b6020808252818101527f4f776e61626c653a2063616c6c6572206973206e6f7420746865206f776e6572604082015260600190565b60208082526029908201527f4552433732313a207472616e73666572206f6620746f6b656e2074686174206960408201526839903737ba1037bbb760b91b606082015260800190565b6020808252602f908201527f4552433732314d657461646174613a2055524920717565727920666f72206e6f60408201526e3732bc34b9ba32b73a103a37b5b2b760891b606082015260800190565b60208082526026908201527f506570656d6f6e436172644465636b3a20446f6e2774206f776e20626174746c604082015265194818d85c9960d21b606082015260800190565b6020808252601e908201527f506570656d6f6e436172644465636b3a204465636b206f766572666c6f770000604082015260600190565b60208082526021908201527f4552433732313a20617070726f76616c20746f2063757272656e74206f776e656040820152603960f91b606082015260800190565b60208082526031908201527f4552433732313a207472616e736665722063616c6c6572206973206e6f74206f6040820152701ddb995c881b9bdc88185c1c1c9bdd9959607a1b606082015260800190565b60208082526033908201527f506570656d6f6e436172644465636b3a20596f7520646f6e2774206861766520604082015272195b9bdd59da081bd9881d1a1a5cc818d85c99606a1b606082015260800190565b918252602082015260400190565b60405181810167ffffffffffffffff81118282101715612bc757612bc7612cf8565b604052919050565b600067ffffffffffffffff821115612be957612be9612cf8565b5060209081020190565b60008219821115612c0657612c06612ccc565b500190565b600082612c1a57612c1a612ce2565b500490565b600082821015612c3157612c31612ccc565b500390565b60005b83811015612c51578181015183820152602001612c39565b838111156109ff5750506000910152565b600281046001821680612c7657607f821691505b60208210811415612c9757634e487b7160e01b600052602260045260246000fd5b50919050565b6000600019821415612cb157612cb1612ccc565b5060010190565b600082612cc757612cc7612ce2565b500690565b634e487b7160e01b600052601160045260246000fd5b634e487b7160e01b600052601260045260246000fd5b634e487b7160e01b600052604160045260246000fd5b6001600160e01b0319811681146115b257600080fdfea26469706673582212204b639c1d9ce4c2b53bdc860fe77728628204b3921a72fd68736ad5bf134181f464736f6c63430008000033",
  "devdoc": {
    "kind": "dev",
    "methods": {
      "approve(address,uint256)": {
        "details": "See {IERC721-approve}."
      },
      "balanceOf(address)": {
        "details": "See {IERC721-balanceOf}."
      },
      "getAllSupportCardsInDeck(uint256)": {
        "details": "Returns array of support cards for a deck",
        "params": {
          "_deckId": "uint256 ID of the deck"
        }
      },
      "getApproved(uint256)": {
        "details": "See {IERC721-getApproved}."
      },
      "isApprovedForAll(address,address)": {
        "details": "See {IERC721-isApprovedForAll}."
      },
      "name()": {
        "details": "See {IERC721Metadata-name}."
      },
      "owner()": {
        "details": "Returns the address of the current owner."
      },
      "ownerOf(uint256)": {
        "details": "See {IERC721-ownerOf}."
      },
      "renounceOwnership()": {
        "details": "Leaves the contract without owner. It will not be possible to call `onlyOwner` functions anymore. Can only be called by the current owner. NOTE: Renouncing ownership will leave the contract without an owner, thereby removing any functionality that is only available to the owner."
      },
      "safeTransferFrom(address,address,uint256)": {
        "details": "See {IERC721-safeTransferFrom}."
      },
      "safeTransferFrom(address,address,uint256,bytes)": {
        "details": "See {IERC721-safeTransferFrom}."
      },
      "setApprovalForAll(address,bool)": {
        "details": "See {IERC721-setApprovalForAll}."
      },
      "shuffleDeck(uint256,uint256)": {
        "details": "Shuffles deck",
        "params": {
          "_deckId": "uint256 ID of the deck"
        }
      },
      "supportsInterface(bytes4)": {
        "details": "Override supportInterface ."
      },
      "symbol()": {
        "details": "See {IERC721Metadata-symbol}."
      },
      "tokenURI(uint256)": {
        "details": "See {IERC721Metadata-tokenURI}."
      },
      "transferFrom(address,address,uint256)": {
        "details": "See {IERC721-transferFrom}."
      },
      "transferOwnership(address)": {
        "details": "Transfers ownership of the contract to a new account (`newOwner`). Can only be called by the current owner."
      }
    },
    "version": 1
  },
  "userdoc": {
    "kind": "user",
    "methods": {},
    "version": 1
  },
  "storageLayout": {
    "storage": [
      {
        "astId": 528,
        "contract": "contracts/PepemonCardDeck.sol:PepemonCardDeck",
        "label": "_name",
        "offset": 0,
        "slot": "0",
        "type": "t_string_storage"
      },
      {
        "astId": 530,
        "contract": "contracts/PepemonCardDeck.sol:PepemonCardDeck",
        "label": "_symbol",
        "offset": 0,
        "slot": "1",
        "type": "t_string_storage"
      },
      {
        "astId": 534,
        "contract": "contracts/PepemonCardDeck.sol:PepemonCardDeck",
        "label": "_owners",
        "offset": 0,
        "slot": "2",
        "type": "t_mapping(t_uint256,t_address)"
      },
      {
        "astId": 538,
        "contract": "contracts/PepemonCardDeck.sol:PepemonCardDeck",
        "label": "_balances",
        "offset": 0,
        "slot": "3",
        "type": "t_mapping(t_address,t_uint256)"
      },
      {
        "astId": 542,
        "contract": "contracts/PepemonCardDeck.sol:PepemonCardDeck",
        "label": "_tokenApprovals",
        "offset": 0,
        "slot": "4",
        "type": "t_mapping(t_uint256,t_address)"
      },
      {
        "astId": 548,
        "contract": "contracts/PepemonCardDeck.sol:PepemonCardDeck",
        "label": "_operatorApprovals",
        "offset": 0,
        "slot": "5",
        "type": "t_mapping(t_address,t_mapping(t_address,t_bool))"
      },
      {
        "astId": 273,
        "contract": "contracts/PepemonCardDeck.sol:PepemonCardDeck",
        "label": "_owner",
        "offset": 0,
        "slot": "6",
        "type": "t_address"
      },
      {
        "astId": 5247,
        "contract": "contracts/PepemonCardDeck.sol:PepemonCardDeck",
        "label": "MAX_SUPPORT_CARDS",
        "offset": 0,
        "slot": "7",
        "type": "t_uint256"
      },
      {
        "astId": 5249,
        "contract": "contracts/PepemonCardDeck.sol:PepemonCardDeck",
        "label": "MIN_SUPPORT_CARDS",
        "offset": 0,
        "slot": "8",
        "type": "t_uint256"
      },
      {
        "astId": 5251,
        "contract": "contracts/PepemonCardDeck.sol:PepemonCardDeck",
        "label": "nextDeckId",
        "offset": 0,
        "slot": "9",
        "type": "t_uint256"
      },
      {
        "astId": 5253,
        "contract": "contracts/PepemonCardDeck.sol:PepemonCardDeck",
        "label": "battleCardAddress",
        "offset": 0,
        "slot": "10",
        "type": "t_address"
      },
      {
        "astId": 5255,
        "contract": "contracts/PepemonCardDeck.sol:PepemonCardDeck",
        "label": "supportCardAddress",
        "offset": 0,
        "slot": "11",
        "type": "t_address"
      },
      {
        "astId": 5260,
        "contract": "contracts/PepemonCardDeck.sol:PepemonCardDeck",
        "label": "decks",
        "offset": 0,
        "slot": "12",
        "type": "t_mapping(t_uint256,t_struct(Deck)5231_storage)"
      },
      {
        "astId": 5265,
        "contract": "contracts/PepemonCardDeck.sol:PepemonCardDeck",
        "label": "playerToDecks",
        "offset": 0,
        "slot": "13",
        "type": "t_mapping(t_address,t_array(t_uint256)dyn_storage)"
      }
    ],
    "types": {
      "t_address": {
        "encoding": "inplace",
        "label": "address",
        "numberOfBytes": "20"
      },
      "t_array(t_uint256)dyn_storage": {
        "base": "t_uint256",
        "encoding": "dynamic_array",
        "label": "uint256[]",
        "numberOfBytes": "32"
      },
      "t_bool": {
        "encoding": "inplace",
        "label": "bool",
        "numberOfBytes": "1"
      },
      "t_mapping(t_address,t_array(t_uint256)dyn_storage)": {
        "encoding": "mapping",
        "key": "t_address",
        "label": "mapping(address => uint256[])",
        "numberOfBytes": "32",
        "value": "t_array(t_uint256)dyn_storage"
      },
      "t_mapping(t_address,t_bool)": {
        "encoding": "mapping",
        "key": "t_address",
        "label": "mapping(address => bool)",
        "numberOfBytes": "32",
        "value": "t_bool"
      },
      "t_mapping(t_address,t_mapping(t_address,t_bool))": {
        "encoding": "mapping",
        "key": "t_address",
        "label": "mapping(address => mapping(address => bool))",
        "numberOfBytes": "32",
        "value": "t_mapping(t_address,t_bool)"
      },
      "t_mapping(t_address,t_uint256)": {
        "encoding": "mapping",
        "key": "t_address",
        "label": "mapping(address => uint256)",
        "numberOfBytes": "32",
        "value": "t_uint256"
      },
      "t_mapping(t_uint256,t_address)": {
        "encoding": "mapping",
        "key": "t_uint256",
        "label": "mapping(uint256 => address)",
        "numberOfBytes": "32",
        "value": "t_address"
      },
      "t_mapping(t_uint256,t_struct(Deck)5231_storage)": {
        "encoding": "mapping",
        "key": "t_uint256",
        "label": "mapping(uint256 => struct PepemonCardDeck.Deck)",
        "numberOfBytes": "32",
        "value": "t_struct(Deck)5231_storage"
      },
      "t_mapping(t_uint256,t_struct(SupportCardType)5240_storage)": {
        "encoding": "mapping",
        "key": "t_uint256",
        "label": "mapping(uint256 => struct PepemonCardDeck.SupportCardType)",
        "numberOfBytes": "32",
        "value": "t_struct(SupportCardType)5240_storage"
      },
      "t_string_storage": {
        "encoding": "bytes",
        "label": "string",
        "numberOfBytes": "32"
      },
      "t_struct(Deck)5231_storage": {
        "encoding": "inplace",
        "label": "struct PepemonCardDeck.Deck",
        "members": [
          {
            "astId": 5220,
            "contract": "contracts/PepemonCardDeck.sol:PepemonCardDeck",
            "label": "battleCardId",
            "offset": 0,
            "slot": "0",
            "type": "t_uint256"
          },
          {
            "astId": 5222,
            "contract": "contracts/PepemonCardDeck.sol:PepemonCardDeck",
            "label": "supportCardCount",
            "offset": 0,
            "slot": "1",
            "type": "t_uint256"
          },
          {
            "astId": 5227,
            "contract": "contracts/PepemonCardDeck.sol:PepemonCardDeck",
            "label": "supportCardTypes",
            "offset": 0,
            "slot": "2",
            "type": "t_mapping(t_uint256,t_struct(SupportCardType)5240_storage)"
          },
          {
            "astId": 5230,
            "contract": "contracts/PepemonCardDeck.sol:PepemonCardDeck",
            "label": "supportCardTypeList",
            "offset": 0,
            "slot": "3",
            "type": "t_array(t_uint256)dyn_storage"
          }
        ],
        "numberOfBytes": "128"
      },
      "t_struct(SupportCardType)5240_storage": {
        "encoding": "inplace",
        "label": "struct PepemonCardDeck.SupportCardType",
        "members": [
          {
            "astId": 5233,
            "contract": "contracts/PepemonCardDeck.sol:PepemonCardDeck",
            "label": "supportCardId",
            "offset": 0,
            "slot": "0",
            "type": "t_uint256"
          },
          {
            "astId": 5235,
            "contract": "contracts/PepemonCardDeck.sol:PepemonCardDeck",
            "label": "count",
            "offset": 0,
            "slot": "1",
            "type": "t_uint256"
          },
          {
            "astId": 5237,
            "contract": "contracts/PepemonCardDeck.sol:PepemonCardDeck",
            "label": "pointer",
            "offset": 0,
            "slot": "2",
            "type": "t_uint256"
          },
          {
            "astId": 5239,
            "contract": "contracts/PepemonCardDeck.sol:PepemonCardDeck",
            "label": "isEntity",
            "offset": 0,
            "slot": "3",
            "type": "t_bool"
          }
        ],
        "numberOfBytes": "128"
      },
      "t_uint256": {
        "encoding": "inplace",
        "label": "uint256",
        "numberOfBytes": "32"
      }
    }
  }
}