{
  "address": "0x0EA739B3c290E6194d37ba579948794cA0662705",
  "abi": [
    {
      "inputs": [
        {
          "internalType": "address",
          "name": "cardOracleAddress",
          "type": "address"
        },
        {
          "internalType": "address",
          "name": "deckOracleAddress",
          "type": "address"
        },
        {
          "internalType": "address",
          "name": "randOracleAddress",
          "type": "address"
        }
      ],
      "stateMutability": "nonpayable",
      "type": "constructor"
    },
    {
      "anonymous": false,
      "inputs": [
        {
          "indexed": true,
          "internalType": "address",
          "name": "account",
          "type": "address"
        }
      ],
      "name": "AdminAdded",
      "type": "event"
    },
    {
      "anonymous": false,
      "inputs": [
        {
          "indexed": true,
          "internalType": "address",
          "name": "account",
          "type": "address"
        }
      ],
      "name": "AdminRemoved",
      "type": "event"
    },
    {
      "anonymous": false,
      "inputs": [
        {
          "indexed": true,
          "internalType": "address",
          "name": "player1Addr",
          "type": "address"
        },
        {
          "indexed": true,
          "internalType": "address",
          "name": "player2Addr",
          "type": "address"
        },
        {
          "indexed": false,
          "internalType": "uint256",
          "name": "battleId",
          "type": "uint256"
        }
      ],
      "name": "BattleCreated",
      "type": "event"
    },
    {
      "inputs": [
        {
          "internalType": "address",
          "name": "account",
          "type": "address"
        }
      ],
      "name": "addAdmin",
      "outputs": [],
      "stateMutability": "nonpayable",
      "type": "function"
    },
    {
      "inputs": [
        {
          "internalType": "uint256",
          "name": "",
          "type": "uint256"
        }
      ],
      "name": "battleIdRNGSeed",
      "outputs": [
        {
          "internalType": "uint256",
          "name": "",
          "type": "uint256"
        }
      ],
      "stateMutability": "view",
      "type": "function"
    },
    {
      "inputs": [
        {
          "internalType": "uint256",
          "name": "",
          "type": "uint256"
        }
      ],
      "name": "battles",
      "outputs": [
        {
          "internalType": "uint256",
          "name": "battleId",
          "type": "uint256"
        },
        {
          "components": [
            {
              "internalType": "address",
              "name": "playerAddr",
              "type": "address"
            },
            {
              "internalType": "uint256",
              "name": "deckId",
              "type": "uint256"
            },
            {
              "components": [
                {
                  "internalType": "int256",
                  "name": "health",
                  "type": "int256"
                },
                {
                  "internalType": "uint256",
                  "name": "battleCardId",
                  "type": "uint256"
                },
                {
                  "components": [
                    {
                      "internalType": "int256",
                      "name": "spd",
                      "type": "int256"
                    },
                    {
                      "internalType": "uint256",
                      "name": "inte",
                      "type": "uint256"
                    },
                    {
                      "internalType": "int256",
                      "name": "def",
                      "type": "int256"
                    },
                    {
                      "internalType": "int256",
                      "name": "atk",
                      "type": "int256"
                    },
                    {
                      "internalType": "int256",
                      "name": "sAtk",
                      "type": "int256"
                    },
                    {
                      "internalType": "int256",
                      "name": "sDef",
                      "type": "int256"
                    }
                  ],
                  "internalType": "struct PepemonBattle.CurrentBattleCardStats",
                  "name": "currentBCstats",
                  "type": "tuple"
                },
                {
                  "internalType": "uint256[8]",
                  "name": "supportCardInHandIds",
                  "type": "uint256[8]"
                },
                {
                  "internalType": "uint256",
                  "name": "tableSupportCardStats",
                  "type": "uint256"
                },
                {
                  "components": [
                    {
                      "internalType": "uint256",
                      "name": "supportCardId",
                      "type": "uint256"
                    },
                    {
                      "components": [
                        {
                          "internalType": "int256",
                          "name": "power",
                          "type": "int256"
                        },
                        {
                          "internalType": "uint256",
                          "name": "numTurns",
                          "type": "uint256"
                        },
                        {
                          "internalType": "enum PepemonCardOracle.EffectTo",
                          "name": "effectTo",
                          "type": "uint8"
                        },
                        {
                          "internalType": "enum PepemonCardOracle.EffectFor",
                          "name": "effectFor",
                          "type": "uint8"
                        },
                        {
                          "internalType": "uint256",
                          "name": "reqCode",
                          "type": "uint256"
                        }
                      ],
                      "internalType": "struct PepemonCardOracle.EffectMany",
                      "name": "effectMany",
                      "type": "tuple"
                    }
                  ],
                  "internalType": "struct PepemonBattle.TableSupportCardStats[5]",
                  "name": "tableSupportCards",
                  "type": "tuple[5]"
                }
              ],
              "internalType": "struct PepemonBattle.Hand",
              "name": "hand",
              "type": "tuple"
            },
            {
              "internalType": "uint256[60]",
              "name": "totalSupportCardIds",
              "type": "uint256[60]"
            },
            {
              "internalType": "uint256",
              "name": "playedCardCount",
              "type": "uint256"
            }
          ],
          "internalType": "struct PepemonBattle.Player",
          "name": "player1",
          "type": "tuple"
        },
        {
          "components": [
            {
              "internalType": "address",
              "name": "playerAddr",
              "type": "address"
            },
            {
              "internalType": "uint256",
              "name": "deckId",
              "type": "uint256"
            },
            {
              "components": [
                {
                  "internalType": "int256",
                  "name": "health",
                  "type": "int256"
                },
                {
                  "internalType": "uint256",
                  "name": "battleCardId",
                  "type": "uint256"
                },
                {
                  "components": [
                    {
                      "internalType": "int256",
                      "name": "spd",
                      "type": "int256"
                    },
                    {
                      "internalType": "uint256",
                      "name": "inte",
                      "type": "uint256"
                    },
                    {
                      "internalType": "int256",
                      "name": "def",
                      "type": "int256"
                    },
                    {
                      "internalType": "int256",
                      "name": "atk",
                      "type": "int256"
                    },
                    {
                      "internalType": "int256",
                      "name": "sAtk",
                      "type": "int256"
                    },
                    {
                      "internalType": "int256",
                      "name": "sDef",
                      "type": "int256"
                    }
                  ],
                  "internalType": "struct PepemonBattle.CurrentBattleCardStats",
                  "name": "currentBCstats",
                  "type": "tuple"
                },
                {
                  "internalType": "uint256[8]",
                  "name": "supportCardInHandIds",
                  "type": "uint256[8]"
                },
                {
                  "internalType": "uint256",
                  "name": "tableSupportCardStats",
                  "type": "uint256"
                },
                {
                  "components": [
                    {
                      "internalType": "uint256",
                      "name": "supportCardId",
                      "type": "uint256"
                    },
                    {
                      "components": [
                        {
                          "internalType": "int256",
                          "name": "power",
                          "type": "int256"
                        },
                        {
                          "internalType": "uint256",
                          "name": "numTurns",
                          "type": "uint256"
                        },
                        {
                          "internalType": "enum PepemonCardOracle.EffectTo",
                          "name": "effectTo",
                          "type": "uint8"
                        },
                        {
                          "internalType": "enum PepemonCardOracle.EffectFor",
                          "name": "effectFor",
                          "type": "uint8"
                        },
                        {
                          "internalType": "uint256",
                          "name": "reqCode",
                          "type": "uint256"
                        }
                      ],
                      "internalType": "struct PepemonCardOracle.EffectMany",
                      "name": "effectMany",
                      "type": "tuple"
                    }
                  ],
                  "internalType": "struct PepemonBattle.TableSupportCardStats[5]",
                  "name": "tableSupportCards",
                  "type": "tuple[5]"
                }
              ],
              "internalType": "struct PepemonBattle.Hand",
              "name": "hand",
              "type": "tuple"
            },
            {
              "internalType": "uint256[60]",
              "name": "totalSupportCardIds",
              "type": "uint256[60]"
            },
            {
              "internalType": "uint256",
              "name": "playedCardCount",
              "type": "uint256"
            }
          ],
          "internalType": "struct PepemonBattle.Player",
          "name": "player2",
          "type": "tuple"
        },
        {
          "internalType": "uint256",
          "name": "currentTurn",
          "type": "uint256"
        },
        {
          "internalType": "enum PepemonBattle.Attacker",
          "name": "attacker",
          "type": "uint8"
        },
        {
          "internalType": "enum PepemonBattle.TurnHalves",
          "name": "turnHalves",
          "type": "uint8"
        }
      ],
      "stateMutability": "view",
      "type": "function"
    },
    {
      "inputs": [
        {
          "components": [
            {
              "internalType": "int256",
              "name": "health",
              "type": "int256"
            },
            {
              "internalType": "uint256",
              "name": "battleCardId",
              "type": "uint256"
            },
            {
              "components": [
                {
                  "internalType": "int256",
                  "name": "spd",
                  "type": "int256"
                },
                {
                  "internalType": "uint256",
                  "name": "inte",
                  "type": "uint256"
                },
                {
                  "internalType": "int256",
                  "name": "def",
                  "type": "int256"
                },
                {
                  "internalType": "int256",
                  "name": "atk",
                  "type": "int256"
                },
                {
                  "internalType": "int256",
                  "name": "sAtk",
                  "type": "int256"
                },
                {
                  "internalType": "int256",
                  "name": "sDef",
                  "type": "int256"
                }
              ],
              "internalType": "struct PepemonBattle.CurrentBattleCardStats",
              "name": "currentBCstats",
              "type": "tuple"
            },
            {
              "internalType": "uint256[8]",
              "name": "supportCardInHandIds",
              "type": "uint256[8]"
            },
            {
              "internalType": "uint256",
              "name": "tableSupportCardStats",
              "type": "uint256"
            },
            {
              "components": [
                {
                  "internalType": "uint256",
                  "name": "supportCardId",
                  "type": "uint256"
                },
                {
                  "components": [
                    {
                      "internalType": "int256",
                      "name": "power",
                      "type": "int256"
                    },
                    {
                      "internalType": "uint256",
                      "name": "numTurns",
                      "type": "uint256"
                    },
                    {
                      "internalType": "enum PepemonCardOracle.EffectTo",
                      "name": "effectTo",
                      "type": "uint8"
                    },
                    {
                      "internalType": "enum PepemonCardOracle.EffectFor",
                      "name": "effectFor",
                      "type": "uint8"
                    },
                    {
                      "internalType": "uint256",
                      "name": "reqCode",
                      "type": "uint256"
                    }
                  ],
                  "internalType": "struct PepemonCardOracle.EffectMany",
                  "name": "effectMany",
                  "type": "tuple"
                }
              ],
              "internalType": "struct PepemonBattle.TableSupportCardStats[5]",
              "name": "tableSupportCards",
              "type": "tuple[5]"
            }
          ],
          "internalType": "struct PepemonBattle.Hand",
          "name": "atkHand",
          "type": "tuple"
        },
        {
          "components": [
            {
              "internalType": "int256",
              "name": "health",
              "type": "int256"
            },
            {
              "internalType": "uint256",
              "name": "battleCardId",
              "type": "uint256"
            },
            {
              "components": [
                {
                  "internalType": "int256",
                  "name": "spd",
                  "type": "int256"
                },
                {
                  "internalType": "uint256",
                  "name": "inte",
                  "type": "uint256"
                },
                {
                  "internalType": "int256",
                  "name": "def",
                  "type": "int256"
                },
                {
                  "internalType": "int256",
                  "name": "atk",
                  "type": "int256"
                },
                {
                  "internalType": "int256",
                  "name": "sAtk",
                  "type": "int256"
                },
                {
                  "internalType": "int256",
                  "name": "sDef",
                  "type": "int256"
                }
              ],
              "internalType": "struct PepemonBattle.CurrentBattleCardStats",
              "name": "currentBCstats",
              "type": "tuple"
            },
            {
              "internalType": "uint256[8]",
              "name": "supportCardInHandIds",
              "type": "uint256[8]"
            },
            {
              "internalType": "uint256",
              "name": "tableSupportCardStats",
              "type": "uint256"
            },
            {
              "components": [
                {
                  "internalType": "uint256",
                  "name": "supportCardId",
                  "type": "uint256"
                },
                {
                  "components": [
                    {
                      "internalType": "int256",
                      "name": "power",
                      "type": "int256"
                    },
                    {
                      "internalType": "uint256",
                      "name": "numTurns",
                      "type": "uint256"
                    },
                    {
                      "internalType": "enum PepemonCardOracle.EffectTo",
                      "name": "effectTo",
                      "type": "uint8"
                    },
                    {
                      "internalType": "enum PepemonCardOracle.EffectFor",
                      "name": "effectFor",
                      "type": "uint8"
                    },
                    {
                      "internalType": "uint256",
                      "name": "reqCode",
                      "type": "uint256"
                    }
                  ],
                  "internalType": "struct PepemonCardOracle.EffectMany",
                  "name": "effectMany",
                  "type": "tuple"
                }
              ],
              "internalType": "struct PepemonBattle.TableSupportCardStats[5]",
              "name": "tableSupportCards",
              "type": "tuple[5]"
            }
          ],
          "internalType": "struct PepemonBattle.Hand",
          "name": "defHand",
          "type": "tuple"
        }
      ],
      "name": "calSupportCardsInHand",
      "outputs": [
        {
          "components": [
            {
              "internalType": "int256",
              "name": "health",
              "type": "int256"
            },
            {
              "internalType": "uint256",
              "name": "battleCardId",
              "type": "uint256"
            },
            {
              "components": [
                {
                  "internalType": "int256",
                  "name": "spd",
                  "type": "int256"
                },
                {
                  "internalType": "uint256",
                  "name": "inte",
                  "type": "uint256"
                },
                {
                  "internalType": "int256",
                  "name": "def",
                  "type": "int256"
                },
                {
                  "internalType": "int256",
                  "name": "atk",
                  "type": "int256"
                },
                {
                  "internalType": "int256",
                  "name": "sAtk",
                  "type": "int256"
                },
                {
                  "internalType": "int256",
                  "name": "sDef",
                  "type": "int256"
                }
              ],
              "internalType": "struct PepemonBattle.CurrentBattleCardStats",
              "name": "currentBCstats",
              "type": "tuple"
            },
            {
              "internalType": "uint256[8]",
              "name": "supportCardInHandIds",
              "type": "uint256[8]"
            },
            {
              "internalType": "uint256",
              "name": "tableSupportCardStats",
              "type": "uint256"
            },
            {
              "components": [
                {
                  "internalType": "uint256",
                  "name": "supportCardId",
                  "type": "uint256"
                },
                {
                  "components": [
                    {
                      "internalType": "int256",
                      "name": "power",
                      "type": "int256"
                    },
                    {
                      "internalType": "uint256",
                      "name": "numTurns",
                      "type": "uint256"
                    },
                    {
                      "internalType": "enum PepemonCardOracle.EffectTo",
                      "name": "effectTo",
                      "type": "uint8"
                    },
                    {
                      "internalType": "enum PepemonCardOracle.EffectFor",
                      "name": "effectFor",
                      "type": "uint8"
                    },
                    {
                      "internalType": "uint256",
                      "name": "reqCode",
                      "type": "uint256"
                    }
                  ],
                  "internalType": "struct PepemonCardOracle.EffectMany",
                  "name": "effectMany",
                  "type": "tuple"
                }
              ],
              "internalType": "struct PepemonBattle.TableSupportCardStats[5]",
              "name": "tableSupportCards",
              "type": "tuple[5]"
            }
          ],
          "internalType": "struct PepemonBattle.Hand",
          "name": "",
          "type": "tuple"
        },
        {
          "components": [
            {
              "internalType": "int256",
              "name": "health",
              "type": "int256"
            },
            {
              "internalType": "uint256",
              "name": "battleCardId",
              "type": "uint256"
            },
            {
              "components": [
                {
                  "internalType": "int256",
                  "name": "spd",
                  "type": "int256"
                },
                {
                  "internalType": "uint256",
                  "name": "inte",
                  "type": "uint256"
                },
                {
                  "internalType": "int256",
                  "name": "def",
                  "type": "int256"
                },
                {
                  "internalType": "int256",
                  "name": "atk",
                  "type": "int256"
                },
                {
                  "internalType": "int256",
                  "name": "sAtk",
                  "type": "int256"
                },
                {
                  "internalType": "int256",
                  "name": "sDef",
                  "type": "int256"
                }
              ],
              "internalType": "struct PepemonBattle.CurrentBattleCardStats",
              "name": "currentBCstats",
              "type": "tuple"
            },
            {
              "internalType": "uint256[8]",
              "name": "supportCardInHandIds",
              "type": "uint256[8]"
            },
            {
              "internalType": "uint256",
              "name": "tableSupportCardStats",
              "type": "uint256"
            },
            {
              "components": [
                {
                  "internalType": "uint256",
                  "name": "supportCardId",
                  "type": "uint256"
                },
                {
                  "components": [
                    {
                      "internalType": "int256",
                      "name": "power",
                      "type": "int256"
                    },
                    {
                      "internalType": "uint256",
                      "name": "numTurns",
                      "type": "uint256"
                    },
                    {
                      "internalType": "enum PepemonCardOracle.EffectTo",
                      "name": "effectTo",
                      "type": "uint8"
                    },
                    {
                      "internalType": "enum PepemonCardOracle.EffectFor",
                      "name": "effectFor",
                      "type": "uint8"
                    },
                    {
                      "internalType": "uint256",
                      "name": "reqCode",
                      "type": "uint256"
                    }
                  ],
                  "internalType": "struct PepemonCardOracle.EffectMany",
                  "name": "effectMany",
                  "type": "tuple"
                }
              ],
              "internalType": "struct PepemonBattle.TableSupportCardStats[5]",
              "name": "tableSupportCards",
              "type": "tuple[5]"
            }
          ],
          "internalType": "struct PepemonBattle.Hand",
          "name": "",
          "type": "tuple"
        }
      ],
      "stateMutability": "view",
      "type": "function"
    },
    {
      "inputs": [
        {
          "components": [
            {
              "internalType": "uint256",
              "name": "battleId",
              "type": "uint256"
            },
            {
              "components": [
                {
                  "internalType": "address",
                  "name": "playerAddr",
                  "type": "address"
                },
                {
                  "internalType": "uint256",
                  "name": "deckId",
                  "type": "uint256"
                },
                {
                  "components": [
                    {
                      "internalType": "int256",
                      "name": "health",
                      "type": "int256"
                    },
                    {
                      "internalType": "uint256",
                      "name": "battleCardId",
                      "type": "uint256"
                    },
                    {
                      "components": [
                        {
                          "internalType": "int256",
                          "name": "spd",
                          "type": "int256"
                        },
                        {
                          "internalType": "uint256",
                          "name": "inte",
                          "type": "uint256"
                        },
                        {
                          "internalType": "int256",
                          "name": "def",
                          "type": "int256"
                        },
                        {
                          "internalType": "int256",
                          "name": "atk",
                          "type": "int256"
                        },
                        {
                          "internalType": "int256",
                          "name": "sAtk",
                          "type": "int256"
                        },
                        {
                          "internalType": "int256",
                          "name": "sDef",
                          "type": "int256"
                        }
                      ],
                      "internalType": "struct PepemonBattle.CurrentBattleCardStats",
                      "name": "currentBCstats",
                      "type": "tuple"
                    },
                    {
                      "internalType": "uint256[8]",
                      "name": "supportCardInHandIds",
                      "type": "uint256[8]"
                    },
                    {
                      "internalType": "uint256",
                      "name": "tableSupportCardStats",
                      "type": "uint256"
                    },
                    {
                      "components": [
                        {
                          "internalType": "uint256",
                          "name": "supportCardId",
                          "type": "uint256"
                        },
                        {
                          "components": [
                            {
                              "internalType": "int256",
                              "name": "power",
                              "type": "int256"
                            },
                            {
                              "internalType": "uint256",
                              "name": "numTurns",
                              "type": "uint256"
                            },
                            {
                              "internalType": "enum PepemonCardOracle.EffectTo",
                              "name": "effectTo",
                              "type": "uint8"
                            },
                            {
                              "internalType": "enum PepemonCardOracle.EffectFor",
                              "name": "effectFor",
                              "type": "uint8"
                            },
                            {
                              "internalType": "uint256",
                              "name": "reqCode",
                              "type": "uint256"
                            }
                          ],
                          "internalType": "struct PepemonCardOracle.EffectMany",
                          "name": "effectMany",
                          "type": "tuple"
                        }
                      ],
                      "internalType": "struct PepemonBattle.TableSupportCardStats[5]",
                      "name": "tableSupportCards",
                      "type": "tuple[5]"
                    }
                  ],
                  "internalType": "struct PepemonBattle.Hand",
                  "name": "hand",
                  "type": "tuple"
                },
                {
                  "internalType": "uint256[60]",
                  "name": "totalSupportCardIds",
                  "type": "uint256[60]"
                },
                {
                  "internalType": "uint256",
                  "name": "playedCardCount",
                  "type": "uint256"
                }
              ],
              "internalType": "struct PepemonBattle.Player",
              "name": "player1",
              "type": "tuple"
            },
            {
              "components": [
                {
                  "internalType": "address",
                  "name": "playerAddr",
                  "type": "address"
                },
                {
                  "internalType": "uint256",
                  "name": "deckId",
                  "type": "uint256"
                },
                {
                  "components": [
                    {
                      "internalType": "int256",
                      "name": "health",
                      "type": "int256"
                    },
                    {
                      "internalType": "uint256",
                      "name": "battleCardId",
                      "type": "uint256"
                    },
                    {
                      "components": [
                        {
                          "internalType": "int256",
                          "name": "spd",
                          "type": "int256"
                        },
                        {
                          "internalType": "uint256",
                          "name": "inte",
                          "type": "uint256"
                        },
                        {
                          "internalType": "int256",
                          "name": "def",
                          "type": "int256"
                        },
                        {
                          "internalType": "int256",
                          "name": "atk",
                          "type": "int256"
                        },
                        {
                          "internalType": "int256",
                          "name": "sAtk",
                          "type": "int256"
                        },
                        {
                          "internalType": "int256",
                          "name": "sDef",
                          "type": "int256"
                        }
                      ],
                      "internalType": "struct PepemonBattle.CurrentBattleCardStats",
                      "name": "currentBCstats",
                      "type": "tuple"
                    },
                    {
                      "internalType": "uint256[8]",
                      "name": "supportCardInHandIds",
                      "type": "uint256[8]"
                    },
                    {
                      "internalType": "uint256",
                      "name": "tableSupportCardStats",
                      "type": "uint256"
                    },
                    {
                      "components": [
                        {
                          "internalType": "uint256",
                          "name": "supportCardId",
                          "type": "uint256"
                        },
                        {
                          "components": [
                            {
                              "internalType": "int256",
                              "name": "power",
                              "type": "int256"
                            },
                            {
                              "internalType": "uint256",
                              "name": "numTurns",
                              "type": "uint256"
                            },
                            {
                              "internalType": "enum PepemonCardOracle.EffectTo",
                              "name": "effectTo",
                              "type": "uint8"
                            },
                            {
                              "internalType": "enum PepemonCardOracle.EffectFor",
                              "name": "effectFor",
                              "type": "uint8"
                            },
                            {
                              "internalType": "uint256",
                              "name": "reqCode",
                              "type": "uint256"
                            }
                          ],
                          "internalType": "struct PepemonCardOracle.EffectMany",
                          "name": "effectMany",
                          "type": "tuple"
                        }
                      ],
                      "internalType": "struct PepemonBattle.TableSupportCardStats[5]",
                      "name": "tableSupportCards",
                      "type": "tuple[5]"
                    }
                  ],
                  "internalType": "struct PepemonBattle.Hand",
                  "name": "hand",
                  "type": "tuple"
                },
                {
                  "internalType": "uint256[60]",
                  "name": "totalSupportCardIds",
                  "type": "uint256[60]"
                },
                {
                  "internalType": "uint256",
                  "name": "playedCardCount",
                  "type": "uint256"
                }
              ],
              "internalType": "struct PepemonBattle.Player",
              "name": "player2",
              "type": "tuple"
            },
            {
              "internalType": "uint256",
              "name": "currentTurn",
              "type": "uint256"
            },
            {
              "internalType": "enum PepemonBattle.Attacker",
              "name": "attacker",
              "type": "uint8"
            },
            {
              "internalType": "enum PepemonBattle.TurnHalves",
              "name": "turnHalves",
              "type": "uint8"
            }
          ],
          "internalType": "struct PepemonBattle.Battle",
          "name": "battle",
          "type": "tuple"
        }
      ],
      "name": "checkIfBattleEnded",
      "outputs": [
        {
          "internalType": "bool",
          "name": "",
          "type": "bool"
        },
        {
          "internalType": "address",
          "name": "",
          "type": "address"
        }
      ],
      "stateMutability": "pure",
      "type": "function"
    },
    {
      "inputs": [
        {
          "internalType": "address",
          "name": "p1Addr",
          "type": "address"
        },
        {
          "internalType": "uint256",
          "name": "p1DeckId",
          "type": "uint256"
        },
        {
          "internalType": "address",
          "name": "p2Addr",
          "type": "address"
        },
        {
          "internalType": "uint256",
          "name": "p2DeckId",
          "type": "uint256"
        }
      ],
      "name": "createBattle",
      "outputs": [
        {
          "components": [
            {
              "internalType": "uint256",
              "name": "battleId",
              "type": "uint256"
            },
            {
              "components": [
                {
                  "internalType": "address",
                  "name": "playerAddr",
                  "type": "address"
                },
                {
                  "internalType": "uint256",
                  "name": "deckId",
                  "type": "uint256"
                },
                {
                  "components": [
                    {
                      "internalType": "int256",
                      "name": "health",
                      "type": "int256"
                    },
                    {
                      "internalType": "uint256",
                      "name": "battleCardId",
                      "type": "uint256"
                    },
                    {
                      "components": [
                        {
                          "internalType": "int256",
                          "name": "spd",
                          "type": "int256"
                        },
                        {
                          "internalType": "uint256",
                          "name": "inte",
                          "type": "uint256"
                        },
                        {
                          "internalType": "int256",
                          "name": "def",
                          "type": "int256"
                        },
                        {
                          "internalType": "int256",
                          "name": "atk",
                          "type": "int256"
                        },
                        {
                          "internalType": "int256",
                          "name": "sAtk",
                          "type": "int256"
                        },
                        {
                          "internalType": "int256",
                          "name": "sDef",
                          "type": "int256"
                        }
                      ],
                      "internalType": "struct PepemonBattle.CurrentBattleCardStats",
                      "name": "currentBCstats",
                      "type": "tuple"
                    },
                    {
                      "internalType": "uint256[8]",
                      "name": "supportCardInHandIds",
                      "type": "uint256[8]"
                    },
                    {
                      "internalType": "uint256",
                      "name": "tableSupportCardStats",
                      "type": "uint256"
                    },
                    {
                      "components": [
                        {
                          "internalType": "uint256",
                          "name": "supportCardId",
                          "type": "uint256"
                        },
                        {
                          "components": [
                            {
                              "internalType": "int256",
                              "name": "power",
                              "type": "int256"
                            },
                            {
                              "internalType": "uint256",
                              "name": "numTurns",
                              "type": "uint256"
                            },
                            {
                              "internalType": "enum PepemonCardOracle.EffectTo",
                              "name": "effectTo",
                              "type": "uint8"
                            },
                            {
                              "internalType": "enum PepemonCardOracle.EffectFor",
                              "name": "effectFor",
                              "type": "uint8"
                            },
                            {
                              "internalType": "uint256",
                              "name": "reqCode",
                              "type": "uint256"
                            }
                          ],
                          "internalType": "struct PepemonCardOracle.EffectMany",
                          "name": "effectMany",
                          "type": "tuple"
                        }
                      ],
                      "internalType": "struct PepemonBattle.TableSupportCardStats[5]",
                      "name": "tableSupportCards",
                      "type": "tuple[5]"
                    }
                  ],
                  "internalType": "struct PepemonBattle.Hand",
                  "name": "hand",
                  "type": "tuple"
                },
                {
                  "internalType": "uint256[60]",
                  "name": "totalSupportCardIds",
                  "type": "uint256[60]"
                },
                {
                  "internalType": "uint256",
                  "name": "playedCardCount",
                  "type": "uint256"
                }
              ],
              "internalType": "struct PepemonBattle.Player",
              "name": "player1",
              "type": "tuple"
            },
            {
              "components": [
                {
                  "internalType": "address",
                  "name": "playerAddr",
                  "type": "address"
                },
                {
                  "internalType": "uint256",
                  "name": "deckId",
                  "type": "uint256"
                },
                {
                  "components": [
                    {
                      "internalType": "int256",
                      "name": "health",
                      "type": "int256"
                    },
                    {
                      "internalType": "uint256",
                      "name": "battleCardId",
                      "type": "uint256"
                    },
                    {
                      "components": [
                        {
                          "internalType": "int256",
                          "name": "spd",
                          "type": "int256"
                        },
                        {
                          "internalType": "uint256",
                          "name": "inte",
                          "type": "uint256"
                        },
                        {
                          "internalType": "int256",
                          "name": "def",
                          "type": "int256"
                        },
                        {
                          "internalType": "int256",
                          "name": "atk",
                          "type": "int256"
                        },
                        {
                          "internalType": "int256",
                          "name": "sAtk",
                          "type": "int256"
                        },
                        {
                          "internalType": "int256",
                          "name": "sDef",
                          "type": "int256"
                        }
                      ],
                      "internalType": "struct PepemonBattle.CurrentBattleCardStats",
                      "name": "currentBCstats",
                      "type": "tuple"
                    },
                    {
                      "internalType": "uint256[8]",
                      "name": "supportCardInHandIds",
                      "type": "uint256[8]"
                    },
                    {
                      "internalType": "uint256",
                      "name": "tableSupportCardStats",
                      "type": "uint256"
                    },
                    {
                      "components": [
                        {
                          "internalType": "uint256",
                          "name": "supportCardId",
                          "type": "uint256"
                        },
                        {
                          "components": [
                            {
                              "internalType": "int256",
                              "name": "power",
                              "type": "int256"
                            },
                            {
                              "internalType": "uint256",
                              "name": "numTurns",
                              "type": "uint256"
                            },
                            {
                              "internalType": "enum PepemonCardOracle.EffectTo",
                              "name": "effectTo",
                              "type": "uint8"
                            },
                            {
                              "internalType": "enum PepemonCardOracle.EffectFor",
                              "name": "effectFor",
                              "type": "uint8"
                            },
                            {
                              "internalType": "uint256",
                              "name": "reqCode",
                              "type": "uint256"
                            }
                          ],
                          "internalType": "struct PepemonCardOracle.EffectMany",
                          "name": "effectMany",
                          "type": "tuple"
                        }
                      ],
                      "internalType": "struct PepemonBattle.TableSupportCardStats[5]",
                      "name": "tableSupportCards",
                      "type": "tuple[5]"
                    }
                  ],
                  "internalType": "struct PepemonBattle.Hand",
                  "name": "hand",
                  "type": "tuple"
                },
                {
                  "internalType": "uint256[60]",
                  "name": "totalSupportCardIds",
                  "type": "uint256[60]"
                },
                {
                  "internalType": "uint256",
                  "name": "playedCardCount",
                  "type": "uint256"
                }
              ],
              "internalType": "struct PepemonBattle.Player",
              "name": "player2",
              "type": "tuple"
            },
            {
              "internalType": "uint256",
              "name": "currentTurn",
              "type": "uint256"
            },
            {
              "internalType": "enum PepemonBattle.Attacker",
              "name": "attacker",
              "type": "uint8"
            },
            {
              "internalType": "enum PepemonBattle.TurnHalves",
              "name": "turnHalves",
              "type": "uint8"
            }
          ],
          "internalType": "struct PepemonBattle.Battle",
          "name": "",
          "type": "tuple"
        },
        {
          "internalType": "uint256",
          "name": "battleId",
          "type": "uint256"
        }
      ],
      "stateMutability": "nonpayable",
      "type": "function"
    },
    {
      "inputs": [
        {
          "components": [
            {
              "internalType": "uint256",
              "name": "battleId",
              "type": "uint256"
            },
            {
              "components": [
                {
                  "internalType": "address",
                  "name": "playerAddr",
                  "type": "address"
                },
                {
                  "internalType": "uint256",
                  "name": "deckId",
                  "type": "uint256"
                },
                {
                  "components": [
                    {
                      "internalType": "int256",
                      "name": "health",
                      "type": "int256"
                    },
                    {
                      "internalType": "uint256",
                      "name": "battleCardId",
                      "type": "uint256"
                    },
                    {
                      "components": [
                        {
                          "internalType": "int256",
                          "name": "spd",
                          "type": "int256"
                        },
                        {
                          "internalType": "uint256",
                          "name": "inte",
                          "type": "uint256"
                        },
                        {
                          "internalType": "int256",
                          "name": "def",
                          "type": "int256"
                        },
                        {
                          "internalType": "int256",
                          "name": "atk",
                          "type": "int256"
                        },
                        {
                          "internalType": "int256",
                          "name": "sAtk",
                          "type": "int256"
                        },
                        {
                          "internalType": "int256",
                          "name": "sDef",
                          "type": "int256"
                        }
                      ],
                      "internalType": "struct PepemonBattle.CurrentBattleCardStats",
                      "name": "currentBCstats",
                      "type": "tuple"
                    },
                    {
                      "internalType": "uint256[8]",
                      "name": "supportCardInHandIds",
                      "type": "uint256[8]"
                    },
                    {
                      "internalType": "uint256",
                      "name": "tableSupportCardStats",
                      "type": "uint256"
                    },
                    {
                      "components": [
                        {
                          "internalType": "uint256",
                          "name": "supportCardId",
                          "type": "uint256"
                        },
                        {
                          "components": [
                            {
                              "internalType": "int256",
                              "name": "power",
                              "type": "int256"
                            },
                            {
                              "internalType": "uint256",
                              "name": "numTurns",
                              "type": "uint256"
                            },
                            {
                              "internalType": "enum PepemonCardOracle.EffectTo",
                              "name": "effectTo",
                              "type": "uint8"
                            },
                            {
                              "internalType": "enum PepemonCardOracle.EffectFor",
                              "name": "effectFor",
                              "type": "uint8"
                            },
                            {
                              "internalType": "uint256",
                              "name": "reqCode",
                              "type": "uint256"
                            }
                          ],
                          "internalType": "struct PepemonCardOracle.EffectMany",
                          "name": "effectMany",
                          "type": "tuple"
                        }
                      ],
                      "internalType": "struct PepemonBattle.TableSupportCardStats[5]",
                      "name": "tableSupportCards",
                      "type": "tuple[5]"
                    }
                  ],
                  "internalType": "struct PepemonBattle.Hand",
                  "name": "hand",
                  "type": "tuple"
                },
                {
                  "internalType": "uint256[60]",
                  "name": "totalSupportCardIds",
                  "type": "uint256[60]"
                },
                {
                  "internalType": "uint256",
                  "name": "playedCardCount",
                  "type": "uint256"
                }
              ],
              "internalType": "struct PepemonBattle.Player",
              "name": "player1",
              "type": "tuple"
            },
            {
              "components": [
                {
                  "internalType": "address",
                  "name": "playerAddr",
                  "type": "address"
                },
                {
                  "internalType": "uint256",
                  "name": "deckId",
                  "type": "uint256"
                },
                {
                  "components": [
                    {
                      "internalType": "int256",
                      "name": "health",
                      "type": "int256"
                    },
                    {
                      "internalType": "uint256",
                      "name": "battleCardId",
                      "type": "uint256"
                    },
                    {
                      "components": [
                        {
                          "internalType": "int256",
                          "name": "spd",
                          "type": "int256"
                        },
                        {
                          "internalType": "uint256",
                          "name": "inte",
                          "type": "uint256"
                        },
                        {
                          "internalType": "int256",
                          "name": "def",
                          "type": "int256"
                        },
                        {
                          "internalType": "int256",
                          "name": "atk",
                          "type": "int256"
                        },
                        {
                          "internalType": "int256",
                          "name": "sAtk",
                          "type": "int256"
                        },
                        {
                          "internalType": "int256",
                          "name": "sDef",
                          "type": "int256"
                        }
                      ],
                      "internalType": "struct PepemonBattle.CurrentBattleCardStats",
                      "name": "currentBCstats",
                      "type": "tuple"
                    },
                    {
                      "internalType": "uint256[8]",
                      "name": "supportCardInHandIds",
                      "type": "uint256[8]"
                    },
                    {
                      "internalType": "uint256",
                      "name": "tableSupportCardStats",
                      "type": "uint256"
                    },
                    {
                      "components": [
                        {
                          "internalType": "uint256",
                          "name": "supportCardId",
                          "type": "uint256"
                        },
                        {
                          "components": [
                            {
                              "internalType": "int256",
                              "name": "power",
                              "type": "int256"
                            },
                            {
                              "internalType": "uint256",
                              "name": "numTurns",
                              "type": "uint256"
                            },
                            {
                              "internalType": "enum PepemonCardOracle.EffectTo",
                              "name": "effectTo",
                              "type": "uint8"
                            },
                            {
                              "internalType": "enum PepemonCardOracle.EffectFor",
                              "name": "effectFor",
                              "type": "uint8"
                            },
                            {
                              "internalType": "uint256",
                              "name": "reqCode",
                              "type": "uint256"
                            }
                          ],
                          "internalType": "struct PepemonCardOracle.EffectMany",
                          "name": "effectMany",
                          "type": "tuple"
                        }
                      ],
                      "internalType": "struct PepemonBattle.TableSupportCardStats[5]",
                      "name": "tableSupportCards",
                      "type": "tuple[5]"
                    }
                  ],
                  "internalType": "struct PepemonBattle.Hand",
                  "name": "hand",
                  "type": "tuple"
                },
                {
                  "internalType": "uint256[60]",
                  "name": "totalSupportCardIds",
                  "type": "uint256[60]"
                },
                {
                  "internalType": "uint256",
                  "name": "playedCardCount",
                  "type": "uint256"
                }
              ],
              "internalType": "struct PepemonBattle.Player",
              "name": "player2",
              "type": "tuple"
            },
            {
              "internalType": "uint256",
              "name": "currentTurn",
              "type": "uint256"
            },
            {
              "internalType": "enum PepemonBattle.Attacker",
              "name": "attacker",
              "type": "uint8"
            },
            {
              "internalType": "enum PepemonBattle.TurnHalves",
              "name": "turnHalves",
              "type": "uint8"
            }
          ],
          "internalType": "struct PepemonBattle.Battle",
          "name": "battle",
          "type": "tuple"
        }
      ],
      "name": "fight",
      "outputs": [
        {
          "components": [
            {
              "internalType": "uint256",
              "name": "battleId",
              "type": "uint256"
            },
            {
              "components": [
                {
                  "internalType": "address",
                  "name": "playerAddr",
                  "type": "address"
                },
                {
                  "internalType": "uint256",
                  "name": "deckId",
                  "type": "uint256"
                },
                {
                  "components": [
                    {
                      "internalType": "int256",
                      "name": "health",
                      "type": "int256"
                    },
                    {
                      "internalType": "uint256",
                      "name": "battleCardId",
                      "type": "uint256"
                    },
                    {
                      "components": [
                        {
                          "internalType": "int256",
                          "name": "spd",
                          "type": "int256"
                        },
                        {
                          "internalType": "uint256",
                          "name": "inte",
                          "type": "uint256"
                        },
                        {
                          "internalType": "int256",
                          "name": "def",
                          "type": "int256"
                        },
                        {
                          "internalType": "int256",
                          "name": "atk",
                          "type": "int256"
                        },
                        {
                          "internalType": "int256",
                          "name": "sAtk",
                          "type": "int256"
                        },
                        {
                          "internalType": "int256",
                          "name": "sDef",
                          "type": "int256"
                        }
                      ],
                      "internalType": "struct PepemonBattle.CurrentBattleCardStats",
                      "name": "currentBCstats",
                      "type": "tuple"
                    },
                    {
                      "internalType": "uint256[8]",
                      "name": "supportCardInHandIds",
                      "type": "uint256[8]"
                    },
                    {
                      "internalType": "uint256",
                      "name": "tableSupportCardStats",
                      "type": "uint256"
                    },
                    {
                      "components": [
                        {
                          "internalType": "uint256",
                          "name": "supportCardId",
                          "type": "uint256"
                        },
                        {
                          "components": [
                            {
                              "internalType": "int256",
                              "name": "power",
                              "type": "int256"
                            },
                            {
                              "internalType": "uint256",
                              "name": "numTurns",
                              "type": "uint256"
                            },
                            {
                              "internalType": "enum PepemonCardOracle.EffectTo",
                              "name": "effectTo",
                              "type": "uint8"
                            },
                            {
                              "internalType": "enum PepemonCardOracle.EffectFor",
                              "name": "effectFor",
                              "type": "uint8"
                            },
                            {
                              "internalType": "uint256",
                              "name": "reqCode",
                              "type": "uint256"
                            }
                          ],
                          "internalType": "struct PepemonCardOracle.EffectMany",
                          "name": "effectMany",
                          "type": "tuple"
                        }
                      ],
                      "internalType": "struct PepemonBattle.TableSupportCardStats[5]",
                      "name": "tableSupportCards",
                      "type": "tuple[5]"
                    }
                  ],
                  "internalType": "struct PepemonBattle.Hand",
                  "name": "hand",
                  "type": "tuple"
                },
                {
                  "internalType": "uint256[60]",
                  "name": "totalSupportCardIds",
                  "type": "uint256[60]"
                },
                {
                  "internalType": "uint256",
                  "name": "playedCardCount",
                  "type": "uint256"
                }
              ],
              "internalType": "struct PepemonBattle.Player",
              "name": "player1",
              "type": "tuple"
            },
            {
              "components": [
                {
                  "internalType": "address",
                  "name": "playerAddr",
                  "type": "address"
                },
                {
                  "internalType": "uint256",
                  "name": "deckId",
                  "type": "uint256"
                },
                {
                  "components": [
                    {
                      "internalType": "int256",
                      "name": "health",
                      "type": "int256"
                    },
                    {
                      "internalType": "uint256",
                      "name": "battleCardId",
                      "type": "uint256"
                    },
                    {
                      "components": [
                        {
                          "internalType": "int256",
                          "name": "spd",
                          "type": "int256"
                        },
                        {
                          "internalType": "uint256",
                          "name": "inte",
                          "type": "uint256"
                        },
                        {
                          "internalType": "int256",
                          "name": "def",
                          "type": "int256"
                        },
                        {
                          "internalType": "int256",
                          "name": "atk",
                          "type": "int256"
                        },
                        {
                          "internalType": "int256",
                          "name": "sAtk",
                          "type": "int256"
                        },
                        {
                          "internalType": "int256",
                          "name": "sDef",
                          "type": "int256"
                        }
                      ],
                      "internalType": "struct PepemonBattle.CurrentBattleCardStats",
                      "name": "currentBCstats",
                      "type": "tuple"
                    },
                    {
                      "internalType": "uint256[8]",
                      "name": "supportCardInHandIds",
                      "type": "uint256[8]"
                    },
                    {
                      "internalType": "uint256",
                      "name": "tableSupportCardStats",
                      "type": "uint256"
                    },
                    {
                      "components": [
                        {
                          "internalType": "uint256",
                          "name": "supportCardId",
                          "type": "uint256"
                        },
                        {
                          "components": [
                            {
                              "internalType": "int256",
                              "name": "power",
                              "type": "int256"
                            },
                            {
                              "internalType": "uint256",
                              "name": "numTurns",
                              "type": "uint256"
                            },
                            {
                              "internalType": "enum PepemonCardOracle.EffectTo",
                              "name": "effectTo",
                              "type": "uint8"
                            },
                            {
                              "internalType": "enum PepemonCardOracle.EffectFor",
                              "name": "effectFor",
                              "type": "uint8"
                            },
                            {
                              "internalType": "uint256",
                              "name": "reqCode",
                              "type": "uint256"
                            }
                          ],
                          "internalType": "struct PepemonCardOracle.EffectMany",
                          "name": "effectMany",
                          "type": "tuple"
                        }
                      ],
                      "internalType": "struct PepemonBattle.TableSupportCardStats[5]",
                      "name": "tableSupportCards",
                      "type": "tuple[5]"
                    }
                  ],
                  "internalType": "struct PepemonBattle.Hand",
                  "name": "hand",
                  "type": "tuple"
                },
                {
                  "internalType": "uint256[60]",
                  "name": "totalSupportCardIds",
                  "type": "uint256[60]"
                },
                {
                  "internalType": "uint256",
                  "name": "playedCardCount",
                  "type": "uint256"
                }
              ],
              "internalType": "struct PepemonBattle.Player",
              "name": "player2",
              "type": "tuple"
            },
            {
              "internalType": "uint256",
              "name": "currentTurn",
              "type": "uint256"
            },
            {
              "internalType": "enum PepemonBattle.Attacker",
              "name": "attacker",
              "type": "uint8"
            },
            {
              "internalType": "enum PepemonBattle.TurnHalves",
              "name": "turnHalves",
              "type": "uint8"
            }
          ],
          "internalType": "struct PepemonBattle.Battle",
          "name": "",
          "type": "tuple"
        }
      ],
      "stateMutability": "view",
      "type": "function"
    },
    {
      "inputs": [
        {
          "components": [
            {
              "internalType": "uint256",
              "name": "battleId",
              "type": "uint256"
            },
            {
              "components": [
                {
                  "internalType": "address",
                  "name": "playerAddr",
                  "type": "address"
                },
                {
                  "internalType": "uint256",
                  "name": "deckId",
                  "type": "uint256"
                },
                {
                  "components": [
                    {
                      "internalType": "int256",
                      "name": "health",
                      "type": "int256"
                    },
                    {
                      "internalType": "uint256",
                      "name": "battleCardId",
                      "type": "uint256"
                    },
                    {
                      "components": [
                        {
                          "internalType": "int256",
                          "name": "spd",
                          "type": "int256"
                        },
                        {
                          "internalType": "uint256",
                          "name": "inte",
                          "type": "uint256"
                        },
                        {
                          "internalType": "int256",
                          "name": "def",
                          "type": "int256"
                        },
                        {
                          "internalType": "int256",
                          "name": "atk",
                          "type": "int256"
                        },
                        {
                          "internalType": "int256",
                          "name": "sAtk",
                          "type": "int256"
                        },
                        {
                          "internalType": "int256",
                          "name": "sDef",
                          "type": "int256"
                        }
                      ],
                      "internalType": "struct PepemonBattle.CurrentBattleCardStats",
                      "name": "currentBCstats",
                      "type": "tuple"
                    },
                    {
                      "internalType": "uint256[8]",
                      "name": "supportCardInHandIds",
                      "type": "uint256[8]"
                    },
                    {
                      "internalType": "uint256",
                      "name": "tableSupportCardStats",
                      "type": "uint256"
                    },
                    {
                      "components": [
                        {
                          "internalType": "uint256",
                          "name": "supportCardId",
                          "type": "uint256"
                        },
                        {
                          "components": [
                            {
                              "internalType": "int256",
                              "name": "power",
                              "type": "int256"
                            },
                            {
                              "internalType": "uint256",
                              "name": "numTurns",
                              "type": "uint256"
                            },
                            {
                              "internalType": "enum PepemonCardOracle.EffectTo",
                              "name": "effectTo",
                              "type": "uint8"
                            },
                            {
                              "internalType": "enum PepemonCardOracle.EffectFor",
                              "name": "effectFor",
                              "type": "uint8"
                            },
                            {
                              "internalType": "uint256",
                              "name": "reqCode",
                              "type": "uint256"
                            }
                          ],
                          "internalType": "struct PepemonCardOracle.EffectMany",
                          "name": "effectMany",
                          "type": "tuple"
                        }
                      ],
                      "internalType": "struct PepemonBattle.TableSupportCardStats[5]",
                      "name": "tableSupportCards",
                      "type": "tuple[5]"
                    }
                  ],
                  "internalType": "struct PepemonBattle.Hand",
                  "name": "hand",
                  "type": "tuple"
                },
                {
                  "internalType": "uint256[60]",
                  "name": "totalSupportCardIds",
                  "type": "uint256[60]"
                },
                {
                  "internalType": "uint256",
                  "name": "playedCardCount",
                  "type": "uint256"
                }
              ],
              "internalType": "struct PepemonBattle.Player",
              "name": "player1",
              "type": "tuple"
            },
            {
              "components": [
                {
                  "internalType": "address",
                  "name": "playerAddr",
                  "type": "address"
                },
                {
                  "internalType": "uint256",
                  "name": "deckId",
                  "type": "uint256"
                },
                {
                  "components": [
                    {
                      "internalType": "int256",
                      "name": "health",
                      "type": "int256"
                    },
                    {
                      "internalType": "uint256",
                      "name": "battleCardId",
                      "type": "uint256"
                    },
                    {
                      "components": [
                        {
                          "internalType": "int256",
                          "name": "spd",
                          "type": "int256"
                        },
                        {
                          "internalType": "uint256",
                          "name": "inte",
                          "type": "uint256"
                        },
                        {
                          "internalType": "int256",
                          "name": "def",
                          "type": "int256"
                        },
                        {
                          "internalType": "int256",
                          "name": "atk",
                          "type": "int256"
                        },
                        {
                          "internalType": "int256",
                          "name": "sAtk",
                          "type": "int256"
                        },
                        {
                          "internalType": "int256",
                          "name": "sDef",
                          "type": "int256"
                        }
                      ],
                      "internalType": "struct PepemonBattle.CurrentBattleCardStats",
                      "name": "currentBCstats",
                      "type": "tuple"
                    },
                    {
                      "internalType": "uint256[8]",
                      "name": "supportCardInHandIds",
                      "type": "uint256[8]"
                    },
                    {
                      "internalType": "uint256",
                      "name": "tableSupportCardStats",
                      "type": "uint256"
                    },
                    {
                      "components": [
                        {
                          "internalType": "uint256",
                          "name": "supportCardId",
                          "type": "uint256"
                        },
                        {
                          "components": [
                            {
                              "internalType": "int256",
                              "name": "power",
                              "type": "int256"
                            },
                            {
                              "internalType": "uint256",
                              "name": "numTurns",
                              "type": "uint256"
                            },
                            {
                              "internalType": "enum PepemonCardOracle.EffectTo",
                              "name": "effectTo",
                              "type": "uint8"
                            },
                            {
                              "internalType": "enum PepemonCardOracle.EffectFor",
                              "name": "effectFor",
                              "type": "uint8"
                            },
                            {
                              "internalType": "uint256",
                              "name": "reqCode",
                              "type": "uint256"
                            }
                          ],
                          "internalType": "struct PepemonCardOracle.EffectMany",
                          "name": "effectMany",
                          "type": "tuple"
                        }
                      ],
                      "internalType": "struct PepemonBattle.TableSupportCardStats[5]",
                      "name": "tableSupportCards",
                      "type": "tuple[5]"
                    }
                  ],
                  "internalType": "struct PepemonBattle.Hand",
                  "name": "hand",
                  "type": "tuple"
                },
                {
                  "internalType": "uint256[60]",
                  "name": "totalSupportCardIds",
                  "type": "uint256[60]"
                },
                {
                  "internalType": "uint256",
                  "name": "playedCardCount",
                  "type": "uint256"
                }
              ],
              "internalType": "struct PepemonBattle.Player",
              "name": "player2",
              "type": "tuple"
            },
            {
              "internalType": "uint256",
              "name": "currentTurn",
              "type": "uint256"
            },
            {
              "internalType": "enum PepemonBattle.Attacker",
              "name": "attacker",
              "type": "uint8"
            },
            {
              "internalType": "enum PepemonBattle.TurnHalves",
              "name": "turnHalves",
              "type": "uint8"
            }
          ],
          "internalType": "struct PepemonBattle.Battle",
          "name": "battle",
          "type": "tuple"
        }
      ],
      "name": "goForBattle",
      "outputs": [
        {
          "components": [
            {
              "internalType": "uint256",
              "name": "battleId",
              "type": "uint256"
            },
            {
              "components": [
                {
                  "internalType": "address",
                  "name": "playerAddr",
                  "type": "address"
                },
                {
                  "internalType": "uint256",
                  "name": "deckId",
                  "type": "uint256"
                },
                {
                  "components": [
                    {
                      "internalType": "int256",
                      "name": "health",
                      "type": "int256"
                    },
                    {
                      "internalType": "uint256",
                      "name": "battleCardId",
                      "type": "uint256"
                    },
                    {
                      "components": [
                        {
                          "internalType": "int256",
                          "name": "spd",
                          "type": "int256"
                        },
                        {
                          "internalType": "uint256",
                          "name": "inte",
                          "type": "uint256"
                        },
                        {
                          "internalType": "int256",
                          "name": "def",
                          "type": "int256"
                        },
                        {
                          "internalType": "int256",
                          "name": "atk",
                          "type": "int256"
                        },
                        {
                          "internalType": "int256",
                          "name": "sAtk",
                          "type": "int256"
                        },
                        {
                          "internalType": "int256",
                          "name": "sDef",
                          "type": "int256"
                        }
                      ],
                      "internalType": "struct PepemonBattle.CurrentBattleCardStats",
                      "name": "currentBCstats",
                      "type": "tuple"
                    },
                    {
                      "internalType": "uint256[8]",
                      "name": "supportCardInHandIds",
                      "type": "uint256[8]"
                    },
                    {
                      "internalType": "uint256",
                      "name": "tableSupportCardStats",
                      "type": "uint256"
                    },
                    {
                      "components": [
                        {
                          "internalType": "uint256",
                          "name": "supportCardId",
                          "type": "uint256"
                        },
                        {
                          "components": [
                            {
                              "internalType": "int256",
                              "name": "power",
                              "type": "int256"
                            },
                            {
                              "internalType": "uint256",
                              "name": "numTurns",
                              "type": "uint256"
                            },
                            {
                              "internalType": "enum PepemonCardOracle.EffectTo",
                              "name": "effectTo",
                              "type": "uint8"
                            },
                            {
                              "internalType": "enum PepemonCardOracle.EffectFor",
                              "name": "effectFor",
                              "type": "uint8"
                            },
                            {
                              "internalType": "uint256",
                              "name": "reqCode",
                              "type": "uint256"
                            }
                          ],
                          "internalType": "struct PepemonCardOracle.EffectMany",
                          "name": "effectMany",
                          "type": "tuple"
                        }
                      ],
                      "internalType": "struct PepemonBattle.TableSupportCardStats[5]",
                      "name": "tableSupportCards",
                      "type": "tuple[5]"
                    }
                  ],
                  "internalType": "struct PepemonBattle.Hand",
                  "name": "hand",
                  "type": "tuple"
                },
                {
                  "internalType": "uint256[60]",
                  "name": "totalSupportCardIds",
                  "type": "uint256[60]"
                },
                {
                  "internalType": "uint256",
                  "name": "playedCardCount",
                  "type": "uint256"
                }
              ],
              "internalType": "struct PepemonBattle.Player",
              "name": "player1",
              "type": "tuple"
            },
            {
              "components": [
                {
                  "internalType": "address",
                  "name": "playerAddr",
                  "type": "address"
                },
                {
                  "internalType": "uint256",
                  "name": "deckId",
                  "type": "uint256"
                },
                {
                  "components": [
                    {
                      "internalType": "int256",
                      "name": "health",
                      "type": "int256"
                    },
                    {
                      "internalType": "uint256",
                      "name": "battleCardId",
                      "type": "uint256"
                    },
                    {
                      "components": [
                        {
                          "internalType": "int256",
                          "name": "spd",
                          "type": "int256"
                        },
                        {
                          "internalType": "uint256",
                          "name": "inte",
                          "type": "uint256"
                        },
                        {
                          "internalType": "int256",
                          "name": "def",
                          "type": "int256"
                        },
                        {
                          "internalType": "int256",
                          "name": "atk",
                          "type": "int256"
                        },
                        {
                          "internalType": "int256",
                          "name": "sAtk",
                          "type": "int256"
                        },
                        {
                          "internalType": "int256",
                          "name": "sDef",
                          "type": "int256"
                        }
                      ],
                      "internalType": "struct PepemonBattle.CurrentBattleCardStats",
                      "name": "currentBCstats",
                      "type": "tuple"
                    },
                    {
                      "internalType": "uint256[8]",
                      "name": "supportCardInHandIds",
                      "type": "uint256[8]"
                    },
                    {
                      "internalType": "uint256",
                      "name": "tableSupportCardStats",
                      "type": "uint256"
                    },
                    {
                      "components": [
                        {
                          "internalType": "uint256",
                          "name": "supportCardId",
                          "type": "uint256"
                        },
                        {
                          "components": [
                            {
                              "internalType": "int256",
                              "name": "power",
                              "type": "int256"
                            },
                            {
                              "internalType": "uint256",
                              "name": "numTurns",
                              "type": "uint256"
                            },
                            {
                              "internalType": "enum PepemonCardOracle.EffectTo",
                              "name": "effectTo",
                              "type": "uint8"
                            },
                            {
                              "internalType": "enum PepemonCardOracle.EffectFor",
                              "name": "effectFor",
                              "type": "uint8"
                            },
                            {
                              "internalType": "uint256",
                              "name": "reqCode",
                              "type": "uint256"
                            }
                          ],
                          "internalType": "struct PepemonCardOracle.EffectMany",
                          "name": "effectMany",
                          "type": "tuple"
                        }
                      ],
                      "internalType": "struct PepemonBattle.TableSupportCardStats[5]",
                      "name": "tableSupportCards",
                      "type": "tuple[5]"
                    }
                  ],
                  "internalType": "struct PepemonBattle.Hand",
                  "name": "hand",
                  "type": "tuple"
                },
                {
                  "internalType": "uint256[60]",
                  "name": "totalSupportCardIds",
                  "type": "uint256[60]"
                },
                {
                  "internalType": "uint256",
                  "name": "playedCardCount",
                  "type": "uint256"
                }
              ],
              "internalType": "struct PepemonBattle.Player",
              "name": "player2",
              "type": "tuple"
            },
            {
              "internalType": "uint256",
              "name": "currentTurn",
              "type": "uint256"
            },
            {
              "internalType": "enum PepemonBattle.Attacker",
              "name": "attacker",
              "type": "uint8"
            },
            {
              "internalType": "enum PepemonBattle.TurnHalves",
              "name": "turnHalves",
              "type": "uint8"
            }
          ],
          "internalType": "struct PepemonBattle.Battle",
          "name": "",
          "type": "tuple"
        },
        {
          "internalType": "address",
          "name": "winner",
          "type": "address"
        }
      ],
      "stateMutability": "view",
      "type": "function"
    },
    {
      "inputs": [
        {
          "internalType": "address",
          "name": "account",
          "type": "address"
        }
      ],
      "name": "isAdmin",
      "outputs": [
        {
          "internalType": "bool",
          "name": "",
          "type": "bool"
        }
      ],
      "stateMutability": "view",
      "type": "function"
    },
    {
      "inputs": [],
      "name": "renounceAdmin",
      "outputs": [],
      "stateMutability": "nonpayable",
      "type": "function"
    }
  ],
  "transactionHash": "0xa0aff12f01c2a8694091226ca06a3e50777859f30a4648de8da83a9b0517fed0",
  "args": [
    "0x15f4df42e54aa33c4ec48e9f0bb7f00535c29bf5",
    "0x84057fffc602f74c19848d86fc8e14d95cd9de35",
    "0x3d7e3ca6367d2328e17eb34891f93b78d1fb587a"
  ],
  "numDeployments": 3,
  "solcInputHash": "25f88fbef73d353082232ffe9ea48357",
  "bytecode": "0x60806040523480156200001157600080fd5b50604051620043f3380380620043f383398101604081905262000034916200017c565b6200003f3362000087565b600480546001600160a01b039485166001600160a01b0319918216179091556005805493851693821693909317909255600680549190931691161790556001600355620001c5565b620000a2816000620000d960201b6200168d1790919060201c565b6040516001600160a01b038216907f44d6d25963f097ad14f29f06854a01f575648a1ef82f30e562ccd3889717e33990600090a250565b6001600160a01b038116620000ed57600080fd5b620000f9828262000129565b156200010457600080fd5b6001600160a01b0316600090815260209190915260409020805460ff19166001179055565b60006001600160a01b0382166200013f57600080fd5b506001600160a01b03166000908152602091909152604090205460ff1690565b80516001600160a01b03811681146200017757600080fd5b919050565b60008060006060848603121562000191578283fd5b6200019c846200015f565b9250620001ac602085016200015f565b9150620001bc604085016200015f565b90509250925092565b61421e80620001d56000396000f3fe608060405234801561001057600080fd5b506004361061009e5760003560e01c8063abd6b07511610066578063abd6b0751461012f578063c3ee543b14610150578063c6b34e1c14610171578063edc85a9114610192578063ee56b391146101b25761009e565b8063047a4130146100a357806324d7806c146100cd578063606d2e96146100ed57806370480275146101125780638bad0c0a14610127575b600080fd5b6100b66100b1366004613a09565b6101d2565b6040516100c4929190613e51565b60405180910390f35b6100e06100db36600461382b565b610225565b6040516100c49190613e46565b6101006100fb366004613bb4565b610239565b6040516100c496959493929190613f29565b61012561012036600461382b565b6106fc565b005b61012561071a565b61014261013d366004613a09565b610725565b6040516100c4929190613ebe565b61016361015e366004613a9f565b61078b565b6040516100c4929190613f03565b61018461017f366004613845565b611161565b6040516100c4929190613ee6565b6101a56101a0366004613a09565b61152d565b6040516100c49190613eaf565b6101c56101c0366004613bb4565b61167b565b6040516100c49190613f20565b600080600083602001516040015160000151136101f9575050602081015151600190610220565b604080840151015151600012610219575050604081015151600190610220565b5060009050805b915091565b600061023181836116d9565b90505b919050565b6002602081815260009283526040928390208054845160a080820187526001840180546001600160a01b031683529584015482860152865160c08082018952600386018054835260048701548389015289519182018a52600587015482526006870154978201979097526007860154818a015260088087015460608084019190915260098801546080840152600a88015494830194909452828a019190915288516101008101808b5295999698949794968801959294938501929091600b8a019182845b8154815260200190600101908083116102fd575050509183525050601082015460208201526040805160a0810182529101906011830160056000835b828210156104475783826005020160405180604001604052908160008201548152602001600182016040518060a001604052908160008201548152602001600182015481526020016002820160009054906101000a900460ff1660058111156103b257634e487b7160e01b600052602160045260246000fd5b60058111156103d157634e487b7160e01b600052602160045260246000fd5b81526020016002820160019054906101000a900460ff16600181111561040757634e487b7160e01b600052602160045260246000fd5b600181111561042657634e487b7160e01b600052602160045260246000fd5b81526020016003820154815250508152505081526020019060010190610339565b5050509152505081526040805161078081019182905260209092019190602c840190603c9082845b81548152602001906001019080831161046f575050509183525050606891909101546020918201526040805160a08082018352606a860180546001600160a01b03168352606b87015483860152835160c08082018652606c890180548352606d8a01548389015286519182018752606e8a01548252606f8a015497820197909752607089015481870152607189015460608083019190915260728a0154608083015260738a0154948201949094528186015284516101008101808752979897949692958701949193840191607489019060089082845b815481526020019060010190808311610545575050509183525050601082015460208201526040805160a0810182529101906011830160056000835b8282101561068f5783826005020160405180604001604052908160008201548152602001600182016040518060a001604052908160008201548152602001600182015481526020016002820160009054906101000a900460ff1660058111156105fa57634e487b7160e01b600052602160045260246000fd5b600581111561061957634e487b7160e01b600052602160045260246000fd5b81526020016002820160019054906101000a900460ff16600181111561064f57634e487b7160e01b600052602160045260246000fd5b600181111561066e57634e487b7160e01b600052602160045260246000fd5b81526020016003820154815250508152505081526020019060010190610581565b5050509152505081526040805161078081019182905260209092019190602c840190603c9082845b8154815260200190600101908083116106b75750505091835250506068919091015460209091015260d382015460d49092015490919060ff8082169161010090041686565b61070533610225565b61070e57600080fd5b61071781611712565b50565b61072333611754565b565b61072d6130f6565b600061073883611796565b925060005b61074684611e1d565b93506107518461152d565b935060008061075f866101d2565b9150915081156107725791506107849050565b61077b86611ff0565b9550505061073d565b9293915050565b610793613157565b61079b613157565b60008060005b866040015160200151811015610c61576000876060015182600881106107d757634e487b7160e01b600052603260045260246000fd5b602002015160048054604051634ca7d96360e11b81529293506000926001600160a01b039091169163994fb2c69161081191869101613f20565b60006040518083038186803b15801561082957600080fd5b505afa15801561083d573d6000803e3d6000fd5b505050506040513d6000823e601f3d908101601f191682016040526108659190810190613ad5565b905060008160200151600381111561088d57634e487b7160e01b600052602160045260246000fd5b141561097f5760005b816060015151811015610979576000826060015182815181106108c957634e487b7160e01b600052603260045260246000fd5b602002602001015190506000806108e78d8d85608001516001612040565b91509150811561093a578083602001516109019190614051565b8d604001516060018181516109169190613ff8565b9052506020830151610929908290614051565b6109339089613ff8565b9750610963565b825160408e01516060018051610951908390613ff8565b90525082516109609089613ff8565b97505b505050808061097190614141565b915050610896565b50610c4c565b6001816020015160038111156109a557634e487b7160e01b600052602160045260246000fd5b1415610c45578060a0015115610a8657600160005b84811015610a0d578a6060015181600881106109e657634e487b7160e01b600052603260045260246000fd5b60200201518414156109fb5760009150610a0d565b80610a0581614141565b9150506109ba565b5080610a1b57505050610c4f565b60005b8a60800151811015610a76578a60a001518160058110610a4e57634e487b7160e01b600052603260045260246000fd5b602002015151841415610a645760009150610a76565b80610a6e81614141565b915050610a1e565b5080610a8457505050610c4f565b505b60005b816060015151811015610bd557600082606001518281518110610abc57634e487b7160e01b600052603260045260246000fd5b60200260200101519050600080610ada8d8d85608001516001612040565b915091508115610b96576001811115610b1a57808360200151610afd9190614051565b8d60400151606001818151610b129190613ff8565b905250610b91565b600183604001516005811115610b4057634e487b7160e01b600052602160045260246000fd5b1415610b5e5750505060408a01516080810151606090910152610bc3565b6020830151610b735760019850505050610bc3565b82602001518d60400151606001818151610b8d9190613ff8565b9052505b610bbf565b825160408e01516060018051610bad908390613ff8565b9052508251610bbc9089613ff8565b97505b5050505b80610bcd81614141565b915050610a89565b5060808101515115610c4057600589608001511015610c405760408051808201909152828152608080830151602083015260a08b0151908b01805190610c1a82614141565b905260058110610c3a57634e487b7160e01b600052603260045260246000fd5b60200201525b610c4c565b5050610c4f565b50505b80610c5981614141565b9150506107a1565b508115610c8257808660400151606001818151610c7e9190613ff8565b9052505b506000905080805b85604001516020015181101561113657600086606001518260088110610cc057634e487b7160e01b600052603260045260246000fd5b602002015160048054604051634ca7d96360e11b81529293506000926001600160a01b039091169163994fb2c691610cfa91869101613f20565b60006040518083038186803b158015610d1257600080fd5b505afa158015610d26573d6000803e3d6000fd5b505050506040513d6000823e601f3d908101601f19168201604052610d4e9190810190613ad5565b9050600281602001516003811115610d7657634e487b7160e01b600052602160045260246000fd5b1415610e675760005b816060015151811015610e6157600082606001518281518110610db257634e487b7160e01b600052603260045260246000fd5b60200260200101519050600080610dd08d8d85608001516000612040565b915091508115610e2357808360200151610dea9190614051565b8c60400151604001818151610dff9190613ff8565b9052506020830151610e12908290614051565b610e1c9089613ff8565b9750610e4b565b82516040808e0151018051610e39908390613ff8565b9052508251610e489089613ff8565b97505b5050508080610e5990614141565b915050610d7f565b50611121565b600381602001516003811115610e8d57634e487b7160e01b600052602160045260246000fd5b141561111a578060a0015115610f6157600160005b84811015610ef55789606001518160088110610ece57634e487b7160e01b600052603260045260246000fd5b6020020151841415610ee35760009150610ef5565b80610eed81614141565b915050610ea2565b5060005b8960800151811015610f51578960a001518160058110610f2957634e487b7160e01b600052603260045260246000fd5b602002015151841415610f3f5760009150610f51565b80610f4981614141565b915050610ef9565b5080610f5f57505050611124565b505b60005b8160600151518110156110aa57600082606001518281518110610f9757634e487b7160e01b600052603260045260246000fd5b60200260200101519050600080610fb58d8d85608001516000612040565b91509150811561106c578015610ff257808360200151610fd59190614051565b8c60400151604001818151610fea9190613ff8565b905250611067565b60038360400151600581111561101857634e487b7160e01b600052602160045260246000fd5b1415611034575050506040808a015160a0810151910152611098565b60208301516110495760019850505050611098565b82602001518c604001516040018181516110639190613ff8565b9052505b611094565b82516040808e0151018051611082908390613ff8565b90525082516110919089613ff8565b97505b5050505b806110a281614141565b915050610f64565b5060808101515115611115576005886080015110156111155760408051808201909152828152608080830151602083015260a08a0151908a018051906110ef82614141565b90526005811061110f57634e487b7160e01b600052603260045260246000fd5b60200201525b611121565b5050611124565b50505b8061112e81614141565b915050610c8a565b508115611157578085604001516040018181516111539190613ff8565b9052505b5093949293505050565b6111696130f6565b600061117433610225565b61117d57600080fd5b836001600160a01b0316866001600160a01b031614156111b85760405162461bcd60e51b81526004016111af90613e6a565b60405180910390fd5b60055460405163a090195d60e01b81526000916001600160a01b03169063a090195d906111e9908990600401613f20565b604080518083038186803b15801561120057600080fd5b505afa158015611214573d6000803e3d6000fd5b505050506040513d601f19601f820116820180604052508101906112389190613be4565b5060055460405163a090195d60e01b81529192506000916001600160a01b039091169063a090195d9061126f908890600401613f20565b604080518083038186803b15801561128657600080fd5b505afa15801561129a573d6000803e3d6000fd5b505050506040513d601f19601f820116820180604052508101906112be9190613be4565b5060048054604051632552294360e11b81529293506000926001600160a01b0390911691634aa45286916112f491879101613f20565b60006040518083038186803b15801561130c57600080fd5b505afa158015611320573d6000803e3d6000fd5b505050506040513d6000823e601f3d908101601f191682016040526113489190810190613931565b60048054604051632552294360e11b81529293506000926001600160a01b0390911691634aa452869161137d91879101613f20565b60006040518083038186803b15801561139557600080fd5b505afa1580156113a9573d6000803e3d6000fd5b505050506040513d6000823e601f3d908101601f191682016040526113d19190810190613931565b90506113db6130f6565b600354816000018181525050826060015181602001516040015160000181815250508481602001516040015160200181815250508a8160200151600001906001600160a01b031690816001600160a01b031681525050898160200151602001818152505081606001518160400151604001516000018181525050838160400151604001516020018181525050888160400151600001906001600160a01b031690816001600160a01b03168152505087816040015160200181815250506114a081612b71565b60016000600354815260200190815260200160002081905550886001600160a01b03168b6001600160a01b03167ffc09ac3d11089b107ccf634445378f0fd381d1be0f6ef37cf5dcc6272c433f176003546040516114fe9190613f20565b60405180910390a3600380548291600061151783614141565b9190505596509650505050505094509492505050565b6115356130f6565b61153d613157565b611545613157565b60008460800151600181111561156b57634e487b7160e01b600052602160045260246000fd5b141561158c57836020015160400151915083604001516040015190506115a3565b836040015160400151915083602001516040015190505b6115ad828261078b565b80925081935050508060400151604001518260400151606001511315611600578060400151604001518260400151606001516115e991906140d4565b815182906115f89083906140d4565b905250611617565b60018160000181815161161391906140d4565b9052505b60008460800151600181111561163d57634e487b7160e01b600052602160045260246000fd5b141561165d57602084015160409081018390528085015101819052611673565b6020840151604090810182905280850151018290525b509192915050565b60016020526000908152604090205481565b6001600160a01b0381166116a057600080fd5b6116aa82826116d9565b156116b457600080fd5b6001600160a01b0316600090815260209190915260409020805460ff19166001179055565b60006001600160a01b0382166116ee57600080fd5b506001600160a01b03811660009081526020839052604090205460ff165b92915050565b61171d60008261168d565b6040516001600160a01b038216907f44d6d25963f097ad14f29f06854a01f575648a1ef82f30e562ccd3889717e33990600090a250565b61175f600082612c45565b6040516001600160a01b038216907fa3b62bc36326052d97ea62d63c3d60308ed4c3ea8ac079dd8499f1e9c4f80c0f90600090a250565b61179e6130f6565b6020808301516040808501516004805483850151909501519251632552294360e11b8152939491936000936001600160a01b0390931692634aa45286926117e59201613f20565b60006040518083038186803b1580156117fd57600080fd5b505afa158015611811573d6000803e3d6000fd5b505050506040513d6000823e601f3d908101601f191682016040526118399190810190613931565b60048054604080860151602001519051632552294360e11b81529394506000936001600160a01b0390921692634aa4528692611876929101613f20565b60006040518083038186803b15801561188e57600080fd5b505afa1580156118a2573d6000803e3d6000fd5b505050506040513d6000823e601f3d908101601f191682016040526118ca9190810190613931565b90506118d582612c8d565b60408086015101526118e681612c8d565b60408085015181019190915260055460208601519151639895d74960e01b81526000926001600160a01b0390921691639895d749916119289190600401613f20565b60206040518083038186803b15801561194057600080fd5b505afa158015611954573d6000803e3d6000fd5b505050506040513d601f19601f820116820180604052508101906119789190613bcc565b6005546020860151604051639895d74960e01b81529293506000926001600160a01b0390921691639895d749916119b191600401613f20565b60206040518083038186803b1580156119c957600080fd5b505afa1580156119dd573d6000803e3d6000fd5b505050506040513d601f19601f82011682018060405250810190611a019190613bcc565b9050600060058960600151611a16919061415c565b1590508015611c465760055460208801516000916001600160a01b031690637b8ef82790611a4560458e612ce2565b6040518363ffffffff1660e01b8152600401611a62929190613f7e565b60006040518083038186803b158015611a7a57600080fd5b505afa158015611a8e573d6000803e3d6000fd5b505050506040513d6000823e601f3d908101601f19168201604052611ab69190810190613888565b905060005b84811015611b2657818181518110611ae357634e487b7160e01b600052603260045260246000fd5b6020026020010151896060015182603c8110611b0f57634e487b7160e01b600052603260045260246000fd5b602002015280611b1e81614141565b915050611abb565b5060006080890181905260055460208901516001600160a01b0390911690637b8ef82790611b566101a48f612ce2565b6040518363ffffffff1660e01b8152600401611b73929190613f7e565b60006040518083038186803b158015611b8b57600080fd5b505afa158015611b9f573d6000803e3d6000fd5b505050506040513d6000823e601f3d908101601f19168201604052611bc79190810190613888565b905060005b84811015611c3757818181518110611bf457634e487b7160e01b600052603260045260246000fd5b6020026020010151896060015182603c8110611c2057634e487b7160e01b600052603260045260246000fd5b602002015280611c2f81614141565b915050611bcc565b50506000608088015250611c72565b611c5887604001518760400151612d0e565b6040808901829052870151611c6c91612d0e565b60408701525b60005b87604001516040015160200151811015611d0b57876060015184896080015183611c9f9190614039565b611ca9919061415c565b603c8110611cc757634e487b7160e01b600052603260045260246000fd5b60200201518860400151606001518260088110611cf457634e487b7160e01b600052603260045260246000fd5b602002015280611d0381614141565b915050611c75565b508660400151604001516020015187608001818151611d2a9190614039565b90525060005b86604001516040015160200151811015611dc657866060015183886080015183611d5a9190614039565b611d64919061415c565b603c8110611d8257634e487b7160e01b600052603260045260246000fd5b60200201518760400151606001518260088110611daf57634e487b7160e01b600052603260045260246000fd5b602002015280611dbe81614141565b915050611d30565b508560400151604001516020015186608001818151611de59190614039565b905250602089018790526040890186905260608901805190611e0682614141565b90525050600060a089015250959695505050505050565b611e256130f6565b6020820151604090810151810151818401518201519091015160008460a001516001811115611e6457634e487b7160e01b600052602160045260246000fd5b1415611f6b57805182511315611ea4576080840160005b90816001811115611e9c57634e487b7160e01b600052602160045260246000fd5b905250611f66565b805182511215611eb957608084016001611e7b565b806020015182602001511115611ed457608084016000611e7b565b806020015182602001511015611eef57608084016001611e7b565b60006002611f0062010f2c87612ce2565b611f0a919061415c565b90508015611f19576001611f1c565b60005b85608001906001811115611f4057634e487b7160e01b600052602160045260246000fd5b90816001811115611f6157634e487b7160e01b600052602160045260246000fd5b905250505b611673565b600084608001516001811115611f9157634e487b7160e01b600052602160045260246000fd5b14611f9d576000611fa0565b60015b84608001906001811115611fc457634e487b7160e01b600052602160045260246000fd5b90816001811115611fe557634e487b7160e01b600052602160045260246000fd5b905250929392505050565b611ff86130f6565b60008260a00151600181111561201e57634e487b7160e01b600052602160045260246000fd5b141561203057600160a083015261203c565b61203982611796565b91505b5090565b60008080808561205557506001905080612b64565b8560011415612074575050604086015160200151600510156001612b64565b8560021415612190576001915060005b8760400151602001518110156121865760045460608901516000916001600160a01b031690634bcb96139084600881106120ce57634e487b7160e01b600052603260045260246000fd5b60200201516040518263ffffffff1660e01b81526004016120ef9190613f20565b60206040518083038186803b15801561210757600080fd5b505afa15801561211b573d6000803e3d6000fd5b505050506040513d601f19601f8201168201806040525081019061213f9190613917565b9050600281600381111561216357634e487b7160e01b600052602160045260246000fd5b1415612173576000935050612186565b508061217e81614141565b915050612084565b5060019050612b64565b856003141561231d5760005b8860400151602001518110156123115760045460608a01516000916001600160a01b03169063994fb2c69084600881106121e657634e487b7160e01b600052603260045260246000fd5b60200201516040518263ffffffff1660e01b81526004016122079190613f20565b60006040518083038186803b15801561221f57600080fd5b505afa158015612233573d6000803e3d6000fd5b505050506040513d6000823e601f3d908101601f1916820160405261225b9190810190613ad5565b905060008160200151600381111561228357634e487b7160e01b600052602160045260246000fd5b1461228e57506122ff565b60005b8160600151518110156122fc576000826060015182815181106122c457634e487b7160e01b600052603260045260246000fd5b602002602001015190508060000151600214156122e957846122e581614141565b9550505b50806122f481614141565b915050612291565b50505b8061230981614141565b91505061219c565b50600081119150612b64565b856004141561249e5760005b8860400151602001518110156123115760045460608a01516000916001600160a01b03169063994fb2c690846008811061237357634e487b7160e01b600052603260045260246000fd5b60200201516040518263ffffffff1660e01b81526004016123949190613f20565b60006040518083038186803b1580156123ac57600080fd5b505afa1580156123c0573d6000803e3d6000fd5b505050506040513d6000823e601f3d908101601f191682016040526123e89190810190613ad5565b905060008160200151600381111561241057634e487b7160e01b600052602160045260246000fd5b1461241b575061248c565b60005b8160600151518110156124895760008260600151828151811061245157634e487b7160e01b600052603260045260246000fd5b60200260200101519050806000015160031415612476578461247281614141565b9550505b508061248181614141565b91505061241e565b50505b8061249681614141565b915050612329565b85600514156125bd5760005b8860400151602001518110156123115760045460608a01516000916001600160a01b03169063994fb2c69084600881106124f457634e487b7160e01b600052603260045260246000fd5b60200201516040518263ffffffff1660e01b81526004016125159190613f20565b60006040518083038186803b15801561252d57600080fd5b505afa158015612541573d6000803e3d6000fd5b505050506040513d6000823e601f3d908101601f191682016040526125699190810190613ad5565b905060008160200151600381111561259157634e487b7160e01b600052602160045260246000fd5b1461259c57506125ab565b826125a681614141565b935050505b806125b581614141565b9150506124aa565b856006141561273e5760005b8760400151602001518110156123115760045460608901516000916001600160a01b03169063994fb2c690846008811061261357634e487b7160e01b600052603260045260246000fd5b60200201516040518263ffffffff1660e01b81526004016126349190613f20565b60006040518083038186803b15801561264c57600080fd5b505afa158015612660573d6000803e3d6000fd5b505050506040513d6000823e601f3d908101601f191682016040526126889190810190613ad5565b90506002816020015160038111156126b057634e487b7160e01b600052602160045260246000fd5b146126bb575061272c565b60005b816060015151811015612729576000826060015182815181106126f157634e487b7160e01b600052603260045260246000fd5b60200260200101519050806000015160031415612716578461271281614141565b9550505b508061272181614141565b9150506126be565b50505b8061273681614141565b9150506125c9565b85600714156128bf5760005b8760400151602001518110156123115760045460608901516000916001600160a01b03169063994fb2c690846008811061279457634e487b7160e01b600052603260045260246000fd5b60200201516040518263ffffffff1660e01b81526004016127b59190613f20565b60006040518083038186803b1580156127cd57600080fd5b505afa1580156127e1573d6000803e3d6000fd5b505050506040513d6000823e601f3d908101601f191682016040526128099190810190613ad5565b905060028160200151600381111561283157634e487b7160e01b600052602160045260246000fd5b1461283c57506128ad565b60005b8160600151518110156128aa5760008260600151828151811061287257634e487b7160e01b600052603260045260246000fd5b60200260200101519050806000015160041415612897578461289381614141565b9550505b50806128a281614141565b91505061283f565b50505b806128b781614141565b91505061274a565b85600814156128de575050604085015160200151600510156001612b64565b85600914156128fd575050604085015160200151600711156001612b64565b85600a1415612a135760005b8860400151602001518110156121865760045460608a01516000916001600160a01b03169063994fb2c690846008811061295357634e487b7160e01b600052603260045260246000fd5b60200201516040518263ffffffff1660e01b81526004016129749190613f20565b60006040518083038186803b15801561298c57600080fd5b505afa1580156129a0573d6000803e3d6000fd5b505050506040513d6000823e601f3d908101601f191682016040526129c89190810190613ad5565b90506001816020015160038111156129f057634e487b7160e01b600052602160045260246000fd5b1415612a00576001935050612186565b5080612a0b81614141565b915050612909565b85600b1415612b64578415612ac3576004805460208a0151604051632552294360e11b81526001600160a01b0390921692634aa4528692612a55929101613f20565b60006040518083038186803b158015612a6d57600080fd5b505afa158015612a81573d6000803e3d6000fd5b505050506040513d6000823e601f3d908101601f19168201604052612aa99190810190613931565b606001518851612aba906002614051565b13159150612b60565b600480546020890151604051632552294360e11b81526001600160a01b0390921692634aa4528692612af6929101613f20565b60006040518083038186803b158015612b0e57600080fd5b505afa158015612b22573d6000803e3d6000fd5b505050506040513d6000823e601f3d908101601f19168201604052612b4a9190810190613931565b606001518751612b5b906002614051565b131591505b5060015b9097909650945050505050565b600080600660009054906101000a90046001600160a01b03166001600160a01b031663dbdff2c16040518163ffffffff1660e01b815260040160206040518083038186803b158015612bc257600080fd5b505afa158015612bd6573d6000803e3d6000fd5b505050506040513d601f19601f82011682018060405250810190612bfa9190613bcc565b905060004382856020015160000151866040015160000151604051602001612c259493929190613dfc565b60408051808303601f190181529190528051602090910120949350505050565b6001600160a01b038116612c5857600080fd5b612c6282826116d9565b612c6b57600080fd5b6001600160a01b0316600090815260209190915260409020805460ff19169055565b612c95613199565b612c9d613199565b608080840151825260a080850151602084015260c0850151604084015260e0850151606084015261010085015191830191909152610120840151908201529050919050565b60608101518151600090815260016020908152604080832054905192938493612c259388939101613e30565b612d16613157565b60005b83608001518110156116735760008460a001518260058110612d4b57634e487b7160e01b600052603260045260246000fd5b6020020151905060008160200151905060018160200151106130e157600081606001516001811115612d8d57634e487b7160e01b600052602160045260246000fd5b1415612ec657600081604001516005811115612db957634e487b7160e01b600052602160045260246000fd5b1415612dde57805160408701516060018051612dd6908390613ff8565b905250612ec1565b600281604001516005811115612e0457634e487b7160e01b600052602160045260246000fd5b1415612e20578051604080880151018051612dd6908390613ff8565b600481604001516005811115612e4657634e487b7160e01b600052602160045260246000fd5b1415612e6057805160408701518051612dd6908390613ff8565b600581604001516005811115612e8657634e487b7160e01b600052602160045260246000fd5b1415612ec1578051604087015160200151600091612ea391613ff8565b905060008113612eb4576000612eb6565b805b604088015160200152505b612ff4565b600081604001516005811115612eec57634e487b7160e01b600052602160045260246000fd5b1415612f1157805160408601516060018051612f09908390613ff8565b905250612ff4565b600281604001516005811115612f3757634e487b7160e01b600052602160045260246000fd5b1415612f53578051604080870151018051612f09908390613ff8565b600481604001516005811115612f7957634e487b7160e01b600052602160045260246000fd5b1415612f9357805160408601518051612f09908390613ff8565b600581604001516005811115612fb957634e487b7160e01b600052602160045260246000fd5b1415612ff4578051604086015160200151600091612fd691613ff8565b905060008113612fe7576000612fe9565b805b604087015160200152505b602081018051906130048261412a565b90525060208101516130e157600186608001516130219190614113565b83101561308b578560a001516001876080015161303e9190614113565b6005811061305c57634e487b7160e01b600052603260045260246000fd5b60200201518660a00151846005811061308557634e487b7160e01b600052603260045260246000fd5b60200201525b8560a00151600187608001516130a19190614113565b600581106130bf57634e487b7160e01b600052603260045260246000fd5b602002016130cb6131cf565b9052608086018051906130dd8261412a565b9052505b505080806130ee90614141565b915050612d19565b6040518060c00160405280600081526020016131106131e9565b815260200161311d6131e9565b8152602001600081526020016000600181111561314a57634e487b7160e01b600052602160045260246000fd5b815260200160005b905290565b6040518060c001604052806000815260200160008152602001613178613199565b8152602001613185613222565b815260200160008152602001613152613241565b6040518060c001604052806000815260200160008152602001600081526020016000815260200160008152602001600081525090565b60405180604001604052806000815260200161315261326e565b6040805160a08101825260008082526020820152908101613208613157565b81526020016132156132b4565b8152602001600081525090565b6040518061010001604052806008906020820280368337509192915050565b6040518060a001604052806005905b6132586131cf565b8152602001906001900390816132505790505090565b6040518060a001604052806000815260200160008152602001600060058111156132a857634e487b7160e01b600052602160045260246000fd5b81526020016000613215565b604051806107800160405280603c906020820280368337509192915050565b60006132e66132e184613fd8565b613f8c565b90508082602086818702860111156132fd57600080fd5b60005b8681101561331c57823584529281019291810191600101613300565b505050509392505050565b80356001600160a01b038116811461023457600080fd5b600082601f83011261334e578081fd5b8151602061335e6132e183613fb5565b8281528181019085830160a08086028801850189101561337c578687fd5b865b868110156134095781838b031215613394578788fd5b604080518381018181106001600160401b03821117156133b6576133b66141a8565b8252845181528785015188820152848201516133d1816141db565b808383015250606091506133e6828601613566565b91810191909152608084810151908201528552938501939181019160010161337e565b509198975050505050505050565b600082601f830112613427578081fd5b60056134356132e182613fd8565b8084866103c087011115613447578485fd5b845b8481101561351c5781880360c080821215613462578788fd5b604080518181016001600160401b038282108183111715613485576134856141a8565b9083528635825260209060a0601f1987018113156134a1578c8dfd5b8451965080870187811083821117156134bc576134bc6141a8565b8552888301358752888501358784015260609150818901356134dd816141db565b808689015250608094506134f2858a0161355b565b91870191909152870135928501929092528082019390935291865294019390910190600101613449565b50909695505050505050565b600082601f830112613538578081fd5b613544836008846132d3565b9392505050565b8051801515811461023457600080fd5b8035610234816141ce565b8051610234816141ce565b80516004811061023457600080fd5b600082601f830112613590578081fd5b81516001600160401b038111156135a9576135a96141a8565b60206135bd601f8301601f19168201613f8c565b82815285828487010111156135d0578384fd5b835b838110156135ed5785810183015182820184015282016135d2565b838111156135fd57848385840101525b5095945050505050565b600060c08284031215613618578081fd5b60405160c081018181106001600160401b038211171561363a5761363a6141a8565b8060405250809150823581526020830135602082015260408301356040820152606083013560608201526080830135608082015260a083013560a08201525092915050565b600060a08284031215613690578081fd5b60405160a081018181106001600160401b03821117156136b2576136b26141a8565b8060405250809150825181526020830151602082015260408301516136d6816141db565b604082015260608301516136e9816141ce565b6060820152608092830151920191909152919050565b60006105e08284031215613711578081fd5b60405160c081018181106001600160401b0382111715613733576137336141a8565b806040525080915082358152602083013560208201526137568460408501613607565b6040820152613769846101008501613528565b60608201526102008301356080820152613787846102208501613417565b60a08201525092915050565b6000610dc082840312156137a5578081fd5b60405160a081018181106001600160401b03821117156137c7576137c76141a8565b6040529050806137d683613327565b8152602083013560208201526137ef84604085016136ff565b60408201528361063f84011261380457600080fd5b61381484603c61062086016132d3565b6060820152610da083013560808201525092915050565b60006020828403121561383c578081fd5b61354482613327565b6000806000806080858703121561385a578283fd5b61386385613327565b93506020850135925061387860408601613327565b9396929550929360600135925050565b6000602080838503121561389a578182fd5b82516001600160401b038111156138af578283fd5b8301601f810185136138bf578283fd5b80516138cd6132e182613fb5565b81815283810190838501858402850186018910156138e9578687fd5b8694505b8385101561390b5780518352600194909401939185019185016138ed565b50979650505050505050565b600060208284031215613928578081fd5b61354482613571565b600060208284031215613942578081fd5b81516001600160401b0380821115613958578283fd5b818401915061014080838703121561396e578384fd5b61397781613f8c565b90508251815261398960208401613566565b602082015260408301518281111561399f578485fd5b6139ab87828601613580565b604083015250606083015160608201526080830151608082015260a083015160a082015260c083015160c082015260e083015160e0820152610100915081830151828201526101209150818301518282015280935050505092915050565b6000611c008284031215613a1b578081fd5b60405160c081018181106001600160401b0382111715613a3d57613a3d6141a8565b60405282358152613a518460208501613793565b6020820152613a6484610de08501613793565b6040820152611ba08301356060820152613a81611bc0840161355b565b6080820152613a93611be0840161355b565b60a08201529392505050565b600080610bc08385031215613ab2578182fd5b613abc84846136ff565b9150613acc846105e085016136ff565b90509250929050565b600060208284031215613ae6578081fd5b81516001600160401b0380821115613afc578283fd5b908301906101608286031215613b10578283fd5b613b1a60e0613f8c565b82518152613b2a60208401613571565b6020820152604083015182811115613b40578485fd5b613b4c87828601613580565b604083015250606083015182811115613b63578485fd5b613b6f8782860161333e565b606083015250613b82866080850161367f565b6080820152613b94610120840161354b565b60a0820152613ba6610140840161354b565b60c082015295945050505050565b600060208284031215613bc5578081fd5b5035919050565b600060208284031215613bdd578081fd5b5051919050565b60008060408385031215613bf6578182fd5b505080516020909101519092909150565b8060005b6005811015613c845781518051855260209081015180518287015280820151604080880191909152810151909190606060068210613c4b57613c4b614192565b878101919091528201516080613c60826141be565b87810191909152919091015160a086015260c0909401939190910190600101613c0b565b50505050565b8060005b6008811015613c84578151845260209384019390910190600101613c8e565b805182526020810151613cc36020840182613d95565b506040810151613cd7610de0840182613d95565b506060810151611ba08301526080810151613cf1816141be565b611bc083015260a0810151613d05816141be565b80611be0840152505050565b80518252602081015160208301526040810151805160408401526020810151606084015260408101516080840152606081015160a0840152608081015160c084015260a081015160e0840152506060810151613d71610100840182613c8a565b50608081015161020083015260a0810151613d90610220840182613c07565b505050565b80516001600160a01b031682526020808201518184015260408083015190613dbf90850182613d11565b506060820151610620840160005b603c811015613dea57825182529183019190830190600101613dcd565b5050505060800151610da09190910152565b93845260208401929092526bffffffffffffffffffffffff19606091821b8116604085015291901b16605482015260680190565b9283526020830191909152604082015260600190565b901515815260200190565b91151582526001600160a01b0316602082015260400190565b60208082526025908201527f506570656d6f6e426174746c653a2043616e6e6f7420626174746c6520796f756040820152643939b2b63360d91b606082015260800190565b611c00810161170c8284613cad565b611c208101613ecd8285613cad565b6001600160a01b0392909216611c009190910152919050565b611c208101613ef58285613cad565b82611c008301529392505050565b610bc08101613f128285613d11565b6135446105e0830184613d11565b90815260200190565b868152611c008101613f3e6020830188613d95565b613f4c610de0830187613d95565b84611ba0830152613f5c846141be565b83611bc0830152613f6c836141be565b82611be0830152979650505050505050565b918252602082015260400190565b6040518181016001600160401b0381118282101715613fad57613fad6141a8565b604052919050565b60006001600160401b03821115613fce57613fce6141a8565b5060209081020190565b60006001600160401b03821115613ff157613ff16141a8565b5060200290565b600080821280156001600160ff1b038490038513161561401a5761401a61417c565b600160ff1b83900384128116156140335761403361417c565b50500190565b6000821982111561404c5761404c61417c565b500190565b60006001600160ff1b03818413828413808216868404861116156140775761407761417c565b600160ff1b848712828116878305891216156140955761409561417c565b8587129250878205871284841616156140b0576140b061417c565b878505871281841616156140c6576140c661417c565b505050929093029392505050565b60008083128015600160ff1b8501841216156140f2576140f261417c565b6001600160ff1b038401831381161561410d5761410d61417c565b50500390565b6000828210156141255761412561417c565b500390565b6000816141395761413961417c565b506000190190565b60006000198214156141555761415561417c565b5060010190565b60008261417757634e487b7160e01b81526012600452602481fd5b500690565b634e487b7160e01b600052601160045260246000fd5b634e487b7160e01b600052602160045260246000fd5b634e487b7160e01b600052604160045260246000fd5b6002811061071757610717614192565b6002811061071757600080fd5b6006811061071757600080fdfea2646970667358221220730a5201ee463e73acd758b889f592a0aa4927f6de0ee98e9228e35fd719687164736f6c63430008000033",
  "devdoc": {
    "kind": "dev",
    "methods": {
      "createBattle(address,uint256,address,uint256)": {
        "details": "Create battle",
        "params": {
          "p1Addr": "address player1",
          "p1DeckId": "uint256",
          "p2Addr": "address player2",
          "p2DeckId": "uint256"
        }
      }
    },
    "version": 1
  },
  "userdoc": {
    "kind": "user",
    "methods": {},
    "version": 1
  },
  "storageLayout": {
    "storage": [
      {
        "astId": 8826,
        "contract": "contracts/PepemonBattle.sol:PepemonBattle",
        "label": "admins",
        "offset": 0,
        "slot": "0",
        "type": "t_struct(Role)9314_storage"
      },
      {
        "astId": 3575,
        "contract": "contracts/PepemonBattle.sol:PepemonBattle",
        "label": "battleIdRNGSeed",
        "offset": 0,
        "slot": "1",
        "type": "t_mapping(t_uint256,t_uint256)"
      },
      {
        "astId": 3664,
        "contract": "contracts/PepemonBattle.sol:PepemonBattle",
        "label": "battles",
        "offset": 0,
        "slot": "2",
        "type": "t_mapping(t_uint256,t_struct(Battle)3607_storage)"
      },
      {
        "astId": 3666,
        "contract": "contracts/PepemonBattle.sol:PepemonBattle",
        "label": "_nextBattleId",
        "offset": 0,
        "slot": "3",
        "type": "t_uint256"
      },
      {
        "astId": 3669,
        "contract": "contracts/PepemonBattle.sol:PepemonBattle",
        "label": "_cardContract",
        "offset": 0,
        "slot": "4",
        "type": "t_contract(PepemonCardOracle)7824"
      },
      {
        "astId": 3672,
        "contract": "contracts/PepemonBattle.sol:PepemonBattle",
        "label": "_deckContract",
        "offset": 0,
        "slot": "5",
        "type": "t_contract(PepemonCardDeck)7229"
      },
      {
        "astId": 3675,
        "contract": "contracts/PepemonBattle.sol:PepemonBattle",
        "label": "_randNrGenContract",
        "offset": 0,
        "slot": "6",
        "type": "t_contract(ChainLinkRngOracle)9110"
      }
    ],
    "types": {
      "t_address": {
        "encoding": "inplace",
        "label": "address",
        "numberOfBytes": "20"
      },
      "t_array(t_struct(TableSupportCardStats)3659_storage)5_storage": {
        "base": "t_struct(TableSupportCardStats)3659_storage",
        "encoding": "inplace",
        "label": "struct PepemonBattle.TableSupportCardStats[5]",
        "numberOfBytes": "800"
      },
      "t_array(t_uint256)60_storage": {
        "base": "t_uint256",
        "encoding": "inplace",
        "label": "uint256[60]",
        "numberOfBytes": "1920"
      },
      "t_array(t_uint256)8_storage": {
        "base": "t_uint256",
        "encoding": "inplace",
        "label": "uint256[8]",
        "numberOfBytes": "256"
      },
      "t_bool": {
        "encoding": "inplace",
        "label": "bool",
        "numberOfBytes": "1"
      },
      "t_contract(ChainLinkRngOracle)9110": {
        "encoding": "inplace",
        "label": "contract ChainLinkRngOracle",
        "numberOfBytes": "20"
      },
      "t_contract(PepemonCardDeck)7229": {
        "encoding": "inplace",
        "label": "contract PepemonCardDeck",
        "numberOfBytes": "20"
      },
      "t_contract(PepemonCardOracle)7824": {
        "encoding": "inplace",
        "label": "contract PepemonCardOracle",
        "numberOfBytes": "20"
      },
      "t_enum(Attacker)3587": {
        "encoding": "inplace",
        "label": "enum PepemonBattle.Attacker",
        "numberOfBytes": "1"
      },
      "t_enum(EffectFor)7254": {
        "encoding": "inplace",
        "label": "enum PepemonCardOracle.EffectFor",
        "numberOfBytes": "1"
      },
      "t_enum(EffectTo)7251": {
        "encoding": "inplace",
        "label": "enum PepemonCardOracle.EffectTo",
        "numberOfBytes": "1"
      },
      "t_enum(TurnHalves)3590": {
        "encoding": "inplace",
        "label": "enum PepemonBattle.TurnHalves",
        "numberOfBytes": "1"
      },
      "t_int256": {
        "encoding": "inplace",
        "label": "int256",
        "numberOfBytes": "32"
      },
      "t_mapping(t_address,t_bool)": {
        "encoding": "mapping",
        "key": "t_address",
        "label": "mapping(address => bool)",
        "numberOfBytes": "32",
        "value": "t_bool"
      },
      "t_mapping(t_uint256,t_struct(Battle)3607_storage)": {
        "encoding": "mapping",
        "key": "t_uint256",
        "label": "mapping(uint256 => struct PepemonBattle.Battle)",
        "numberOfBytes": "32",
        "value": "t_struct(Battle)3607_storage"
      },
      "t_mapping(t_uint256,t_uint256)": {
        "encoding": "mapping",
        "key": "t_uint256",
        "label": "mapping(uint256 => uint256)",
        "numberOfBytes": "32",
        "value": "t_uint256"
      },
      "t_struct(Battle)3607_storage": {
        "encoding": "inplace",
        "label": "struct PepemonBattle.Battle",
        "members": [
          {
            "astId": 3592,
            "contract": "contracts/PepemonBattle.sol:PepemonBattle",
            "label": "battleId",
            "offset": 0,
            "slot": "0",
            "type": "t_uint256"
          },
          {
            "astId": 3595,
            "contract": "contracts/PepemonBattle.sol:PepemonBattle",
            "label": "player1",
            "offset": 0,
            "slot": "1",
            "type": "t_struct(Player)3621_storage"
          },
          {
            "astId": 3598,
            "contract": "contracts/PepemonBattle.sol:PepemonBattle",
            "label": "player2",
            "offset": 0,
            "slot": "106",
            "type": "t_struct(Player)3621_storage"
          },
          {
            "astId": 3600,
            "contract": "contracts/PepemonBattle.sol:PepemonBattle",
            "label": "currentTurn",
            "offset": 0,
            "slot": "211",
            "type": "t_uint256"
          },
          {
            "astId": 3603,
            "contract": "contracts/PepemonBattle.sol:PepemonBattle",
            "label": "attacker",
            "offset": 0,
            "slot": "212",
            "type": "t_enum(Attacker)3587"
          },
          {
            "astId": 3606,
            "contract": "contracts/PepemonBattle.sol:PepemonBattle",
            "label": "turnHalves",
            "offset": 1,
            "slot": "212",
            "type": "t_enum(TurnHalves)3590"
          }
        ],
        "numberOfBytes": "6816"
      },
      "t_struct(CurrentBattleCardStats)3653_storage": {
        "encoding": "inplace",
        "label": "struct PepemonBattle.CurrentBattleCardStats",
        "members": [
          {
            "astId": 3642,
            "contract": "contracts/PepemonBattle.sol:PepemonBattle",
            "label": "spd",
            "offset": 0,
            "slot": "0",
            "type": "t_int256"
          },
          {
            "astId": 3644,
            "contract": "contracts/PepemonBattle.sol:PepemonBattle",
            "label": "inte",
            "offset": 0,
            "slot": "1",
            "type": "t_uint256"
          },
          {
            "astId": 3646,
            "contract": "contracts/PepemonBattle.sol:PepemonBattle",
            "label": "def",
            "offset": 0,
            "slot": "2",
            "type": "t_int256"
          },
          {
            "astId": 3648,
            "contract": "contracts/PepemonBattle.sol:PepemonBattle",
            "label": "atk",
            "offset": 0,
            "slot": "3",
            "type": "t_int256"
          },
          {
            "astId": 3650,
            "contract": "contracts/PepemonBattle.sol:PepemonBattle",
            "label": "sAtk",
            "offset": 0,
            "slot": "4",
            "type": "t_int256"
          },
          {
            "astId": 3652,
            "contract": "contracts/PepemonBattle.sol:PepemonBattle",
            "label": "sDef",
            "offset": 0,
            "slot": "5",
            "type": "t_int256"
          }
        ],
        "numberOfBytes": "192"
      },
      "t_struct(EffectMany)7321_storage": {
        "encoding": "inplace",
        "label": "struct PepemonCardOracle.EffectMany",
        "members": [
          {
            "astId": 7310,
            "contract": "contracts/PepemonBattle.sol:PepemonBattle",
            "label": "power",
            "offset": 0,
            "slot": "0",
            "type": "t_int256"
          },
          {
            "astId": 7312,
            "contract": "contracts/PepemonBattle.sol:PepemonBattle",
            "label": "numTurns",
            "offset": 0,
            "slot": "1",
            "type": "t_uint256"
          },
          {
            "astId": 7315,
            "contract": "contracts/PepemonBattle.sol:PepemonBattle",
            "label": "effectTo",
            "offset": 0,
            "slot": "2",
            "type": "t_enum(EffectTo)7251"
          },
          {
            "astId": 7318,
            "contract": "contracts/PepemonBattle.sol:PepemonBattle",
            "label": "effectFor",
            "offset": 1,
            "slot": "2",
            "type": "t_enum(EffectFor)7254"
          },
          {
            "astId": 7320,
            "contract": "contracts/PepemonBattle.sol:PepemonBattle",
            "label": "reqCode",
            "offset": 0,
            "slot": "3",
            "type": "t_uint256"
          }
        ],
        "numberOfBytes": "128"
      },
      "t_struct(Hand)3640_storage": {
        "encoding": "inplace",
        "label": "struct PepemonBattle.Hand",
        "members": [
          {
            "astId": 3623,
            "contract": "contracts/PepemonBattle.sol:PepemonBattle",
            "label": "health",
            "offset": 0,
            "slot": "0",
            "type": "t_int256"
          },
          {
            "astId": 3625,
            "contract": "contracts/PepemonBattle.sol:PepemonBattle",
            "label": "battleCardId",
            "offset": 0,
            "slot": "1",
            "type": "t_uint256"
          },
          {
            "astId": 3628,
            "contract": "contracts/PepemonBattle.sol:PepemonBattle",
            "label": "currentBCstats",
            "offset": 0,
            "slot": "2",
            "type": "t_struct(CurrentBattleCardStats)3653_storage"
          },
          {
            "astId": 3632,
            "contract": "contracts/PepemonBattle.sol:PepemonBattle",
            "label": "supportCardInHandIds",
            "offset": 0,
            "slot": "8",
            "type": "t_array(t_uint256)8_storage"
          },
          {
            "astId": 3634,
            "contract": "contracts/PepemonBattle.sol:PepemonBattle",
            "label": "tableSupportCardStats",
            "offset": 0,
            "slot": "16",
            "type": "t_uint256"
          },
          {
            "astId": 3639,
            "contract": "contracts/PepemonBattle.sol:PepemonBattle",
            "label": "tableSupportCards",
            "offset": 0,
            "slot": "17",
            "type": "t_array(t_struct(TableSupportCardStats)3659_storage)5_storage"
          }
        ],
        "numberOfBytes": "1344"
      },
      "t_struct(Player)3621_storage": {
        "encoding": "inplace",
        "label": "struct PepemonBattle.Player",
        "members": [
          {
            "astId": 3609,
            "contract": "contracts/PepemonBattle.sol:PepemonBattle",
            "label": "playerAddr",
            "offset": 0,
            "slot": "0",
            "type": "t_address"
          },
          {
            "astId": 3611,
            "contract": "contracts/PepemonBattle.sol:PepemonBattle",
            "label": "deckId",
            "offset": 0,
            "slot": "1",
            "type": "t_uint256"
          },
          {
            "astId": 3614,
            "contract": "contracts/PepemonBattle.sol:PepemonBattle",
            "label": "hand",
            "offset": 0,
            "slot": "2",
            "type": "t_struct(Hand)3640_storage"
          },
          {
            "astId": 3618,
            "contract": "contracts/PepemonBattle.sol:PepemonBattle",
            "label": "totalSupportCardIds",
            "offset": 0,
            "slot": "44",
            "type": "t_array(t_uint256)60_storage"
          },
          {
            "astId": 3620,
            "contract": "contracts/PepemonBattle.sol:PepemonBattle",
            "label": "playedCardCount",
            "offset": 0,
            "slot": "104",
            "type": "t_uint256"
          }
        ],
        "numberOfBytes": "3360"
      },
      "t_struct(Role)9314_storage": {
        "encoding": "inplace",
        "label": "struct Roles.Role",
        "members": [
          {
            "astId": 9313,
            "contract": "contracts/PepemonBattle.sol:PepemonBattle",
            "label": "bearer",
            "offset": 0,
            "slot": "0",
            "type": "t_mapping(t_address,t_bool)"
          }
        ],
        "numberOfBytes": "32"
      },
      "t_struct(TableSupportCardStats)3659_storage": {
        "encoding": "inplace",
        "label": "struct PepemonBattle.TableSupportCardStats",
        "members": [
          {
            "astId": 3655,
            "contract": "contracts/PepemonBattle.sol:PepemonBattle",
            "label": "supportCardId",
            "offset": 0,
            "slot": "0",
            "type": "t_uint256"
          },
          {
            "astId": 3658,
            "contract": "contracts/PepemonBattle.sol:PepemonBattle",
            "label": "effectMany",
            "offset": 0,
            "slot": "1",
            "type": "t_struct(EffectMany)7321_storage"
          }
        ],
        "numberOfBytes": "160"
      },
      "t_uint256": {
        "encoding": "inplace",
        "label": "uint256",
        "numberOfBytes": "32"
      }
    }
  }
}